{"contracts/Collection.sol":{"Collection":{"abi":[{"inputs":[],"stateMutability":"nonpayable","type":"constructor"},{"inputs":[{"internalType":"address","name":"sender","type":"address"},{"internalType":"uint256","name":"tokenId","type":"uint256"},{"internalType":"address","name":"owner","type":"address"}],"name":"ERC721IncorrectOwner","type":"error"},{"inputs":[{"internalType":"address","name":"operator","type":"address"},{"internalType":"uint256","name":"tokenId","type":"uint256"}],"name":"ERC721InsufficientApproval","type":"error"},{"inputs":[{"internalType":"address","name":"approver","type":"address"}],"name":"ERC721InvalidApprover","type":"error"},{"inputs":[{"internalType":"address","name":"operator","type":"address"}],"name":"ERC721InvalidOperator","type":"error"},{"inputs":[{"internalType":"address","name":"owner","type":"address"}],"name":"ERC721InvalidOwner","type":"error"},{"inputs":[{"internalType":"address","name":"receiver","type":"address"}],"name":"ERC721InvalidReceiver","type":"error"},{"inputs":[{"internalType":"address","name":"sender","type":"address"}],"name":"ERC721InvalidSender","type":"error"},{"inputs":[{"internalType":"uint256","name":"tokenId","type":"uint256"}],"name":"ERC721NonexistentToken","type":"error"},{"inputs":[{"internalType":"address","name":"owner","type":"address"}],"name":"OwnableInvalidOwner","type":"error"},{"inputs":[{"internalType":"address","name":"account","type":"address"}],"name":"OwnableUnauthorizedAccount","type":"error"},{"anonymous":false,"inputs":[{"indexed":true,"internalType":"address","name":"owner","type":"address"},{"indexed":true,"internalType":"address","name":"approved","type":"address"},{"indexed":true,"internalType":"uint256","name":"tokenId","type":"uint256"}],"name":"Approval","type":"event"},{"anonymous":false,"inputs":[{"indexed":true,"internalType":"address","name":"owner","type":"address"},{"indexed":true,"internalType":"address","name":"operator","type":"address"},{"indexed":false,"internalType":"bool","name":"approved","type":"bool"}],"name":"ApprovalForAll","type":"event"},{"anonymous":false,"inputs":[{"indexed":false,"internalType":"uint256","name":"_fromTokenId","type":"uint256"},{"indexed":false,"internalType":"uint256","name":"_toTokenId","type":"uint256"}],"name":"BatchMetadataUpdate","type":"event"},{"anonymous":false,"inputs":[{"indexed":false,"internalType":"uint256","name":"_tokenId","type":"uint256"}],"name":"MetadataUpdate","type":"event"},{"anonymous":false,"inputs":[{"indexed":true,"internalType":"address","name":"previousOwner","type":"address"},{"indexed":true,"internalType":"address","name":"newOwner","type":"address"}],"name":"OwnershipTransferred","type":"event"},{"anonymous":false,"inputs":[{"indexed":true,"internalType":"address","name":"from","type":"address"},{"indexed":true,"internalType":"address","name":"to","type":"address"},{"indexed":true,"internalType":"uint256","name":"tokenId","type":"uint256"}],"name":"Transfer","type":"event"},{"inputs":[{"internalType":"string","name":"_tokenURI","type":"string"}],"name":"AddToken","outputs":[{"internalType":"uint256","name":"","type":"uint256"}],"stateMutability":"nonpayable","type":"function"},{"inputs":[],"name":"GetAvailableNFTs","outputs":[{"components":[{"internalType":"uint256","name":"id","type":"uint256"},{"internalType":"string","name":"uri","type":"string"}],"internalType":"struct Token[]","name":"","type":"tuple[]"}],"stateMutability":"view","type":"function"},{"inputs":[],"name":"LIMIT_PER_ADDRESS","outputs":[{"internalType":"uint256","name":"","type":"uint256"}],"stateMutability":"view","type":"function"},{"inputs":[],"name":"MAX_SUPPLY","outputs":[{"internalType":"uint256","name":"","type":"uint256"}],"stateMutability":"view","type":"function"},{"inputs":[],"name":"PRICE_PER_TOKEN","outputs":[{"internalType":"uint256","name":"","type":"uint256"}],"stateMutability":"view","type":"function"},{"inputs":[{"internalType":"address","name":"to","type":"address"},{"internalType":"uint256","name":"tokenId","type":"uint256"}],"name":"approve","outputs":[],"stateMutability":"nonpayable","type":"function"},{"inputs":[{"internalType":"address","name":"owner","type":"address"}],"name":"balanceOf","outputs":[{"internalType":"uint256","name":"","type":"uint256"}],"stateMutability":"view","type":"function"},{"inputs":[{"internalType":"uint256","name":"tokenId","type":"uint256"}],"name":"getApproved","outputs":[{"internalType":"address","name":"","type":"address"}],"stateMutability":"view","type":"function"},{"inputs":[{"internalType":"address","name":"owner","type":"address"},{"internalType":"address","name":"operator","type":"address"}],"name":"isApprovedForAll","outputs":[{"internalType":"bool","name":"","type":"bool"}],"stateMutability":"view","type":"function"},{"inputs":[{"internalType":"uint256","name":"tokenID","type":"uint256"},{"internalType":"address","name":"owner","type":"address"}],"name":"mintNFT","outputs":[{"internalType":"uint256","name":"","type":"uint256"}],"stateMutability":"payable","type":"function"},{"inputs":[],"name":"name","outputs":[{"internalType":"string","name":"","type":"string"}],"stateMutability":"view","type":"function"},{"inputs":[],"name":"owner","outputs":[{"internalType":"address","name":"","type":"address"}],"stateMutability":"view","type":"function"},{"inputs":[{"internalType":"uint256","name":"tokenId","type":"uint256"}],"name":"ownerOf","outputs":[{"internalType":"address","name":"","type":"address"}],"stateMutability":"view","type":"function"},{"inputs":[],"name":"renounceOwnership","outputs":[],"stateMutability":"nonpayable","type":"function"},{"inputs":[{"internalType":"address","name":"from","type":"address"},{"internalType":"address","name":"to","type":"address"},{"internalType":"uint256","name":"tokenId","type":"uint256"}],"name":"safeTransferFrom","outputs":[],"stateMutability":"nonpayable","type":"function"},{"inputs":[{"internalType":"address","name":"from","type":"address"},{"internalType":"address","name":"to","type":"address"},{"internalType":"uint256","name":"tokenId","type":"uint256"},{"internalType":"bytes","name":"data","type":"bytes"}],"name":"safeTransferFrom","outputs":[],"stateMutability":"nonpayable","type":"function"},{"inputs":[{"internalType":"address","name":"operator","type":"address"},{"internalType":"bool","name":"approved","type":"bool"}],"name":"setApprovalForAll","outputs":[],"stateMutability":"nonpayable","type":"function"},{"inputs":[{"internalType":"uint256","name":"limit","type":"uint256"}],"name":"setLimit","outputs":[],"stateMutability":"nonpayable","type":"function"},{"inputs":[{"internalType":"uint256","name":"max_supply","type":"uint256"}],"name":"setMaxSupply","outputs":[],"stateMutability":"nonpayable","type":"function"},{"inputs":[{"internalType":"uint256","name":"price","type":"uint256"}],"name":"setPrice","outputs":[],"stateMutability":"nonpayable","type":"function"},{"inputs":[{"internalType":"bytes4","name":"interfaceId","type":"bytes4"}],"name":"supportsInterface","outputs":[{"internalType":"bool","name":"","type":"bool"}],"stateMutability":"view","type":"function"},{"inputs":[],"name":"symbol","outputs":[{"internalType":"string","name":"","type":"string"}],"stateMutability":"view","type":"function"},{"inputs":[{"internalType":"uint256","name":"tokenId","type":"uint256"}],"name":"tokenURI","outputs":[{"internalType":"string","name":"","type":"string"}],"stateMutability":"view","type":"function"},{"inputs":[{"internalType":"address","name":"from","type":"address"},{"internalType":"address","name":"to","type":"address"},{"internalType":"uint256","name":"tokenId","type":"uint256"}],"name":"transferFrom","outputs":[],"stateMutability":"nonpayable","type":"function"},{"inputs":[{"internalType":"address","name":"newOwner","type":"address"}],"name":"transferOwnership","outputs":[],"stateMutability":"nonpayable","type":"function"},{"inputs":[],"name":"withdrawMoney","outputs":[],"stateMutability":"nonpayable","type":"function"}],"evm":{"bytecode":{"linkReferences":{},"object":"608060405260006008556000600955662386f26fc10000600a556005600b556005600c553480156200003057600080fd5b50336040518060400160405280600a81526020017f436f6c6c656374696f6e000000000000000000000000000000000000000000008152506040518060400160405280600381526020017f4e465400000000000000000000000000000000000000000000000000000000008152508160009081620000af919062000491565b508060019081620000c1919062000491565b505050600073ffffffffffffffffffffffffffffffffffffffff168173ffffffffffffffffffffffffffffffffffffffff1603620001395760006040517f1e4fbdf7000000000000000000000000000000000000000000000000000000008152600401620001309190620005bd565b60405180910390fd5b6200014a816200015160201b60201c565b50620005da565b6000600760009054906101000a900473ffffffffffffffffffffffffffffffffffffffff16905081600760006101000a81548173ffffffffffffffffffffffffffffffffffffffff021916908373ffffffffffffffffffffffffffffffffffffffff1602179055508173ffffffffffffffffffffffffffffffffffffffff168173ffffffffffffffffffffffffffffffffffffffff167f8be0079c531659141344cd1fd0a4f28419497f9722a3daafe3b4186f6b6457e060405160405180910390a35050565b600081519050919050565b7f4e487b7100000000000000000000000000000000000000000000000000000000600052604160045260246000fd5b7f4e487b7100000000000000000000000000000000000000000000000000000000600052602260045260246000fd5b600060028204905060018216806200029957607f821691505b602082108103620002af57620002ae62000251565b5b50919050565b60008190508160005260206000209050919050565b60006020601f8301049050919050565b600082821b905092915050565b600060088302620003197fffffffffffffffffffffffffffffffffffffffffffffffffffffffffffffffff82620002da565b620003258683620002da565b95508019841693508086168417925050509392505050565b6000819050919050565b6000819050919050565b6000620003726200036c62000366846200033d565b62000347565b6200033d565b9050919050565b6000819050919050565b6200038e8362000351565b620003a66200039d8262000379565b848454620002e7565b825550505050565b600090565b620003bd620003ae565b620003ca81848462000383565b505050565b5b81811015620003f257620003e6600082620003b3565b600181019050620003d0565b5050565b601f82111562000441576200040b81620002b5565b6200041684620002ca565b8101602085101562000426578190505b6200043e6200043585620002ca565b830182620003cf565b50505b505050565b600082821c905092915050565b6000620004666000198460080262000446565b1980831691505092915050565b600062000481838362000453565b9150826002028217905092915050565b6200049c8262000217565b67ffffffffffffffff811115620004b857620004b762000222565b5b620004c4825462000280565b620004d1828285620003f6565b600060209050601f831160018114620005095760008415620004f4578287015190505b62000500858262000473565b86555062000570565b601f1984166200051986620002b5565b60005b8281101562000543578489015182556001820191506020850194506020810190506200051c565b868310156200056357848901516200055f601f89168262000453565b8355505b6001600288020188555050505b505050505050565b600073ffffffffffffffffffffffffffffffffffffffff82169050919050565b6000620005a58262000578565b9050919050565b620005b78162000598565b82525050565b6000602082019050620005d46000830184620005ac565b92915050565b61322e80620005ea6000396000f3fe6080604052600436106101815760003560e01c806370a08231116100d1578063a22cb4651161008a578063c87b56dd11610064578063c87b56dd1461054d578063e985e9c51461058a578063ee36675b146105c7578063f2fde38b1461060457610181565b8063a22cb465146104e4578063ac4460021461050d578063b88d4fde1461052457610181565b806370a08231146103e6578063715018a614610423578063833b94991461043a5780638da5cb5b1461046557806391b7f5ed1461049057806395d89b41146104b957610181565b806332cb6b0c1161013e5780635fec6e67116101185780635fec6e67146103255780636352211e14610350578063669f5a511461038d5780636f8b44b0146103bd57610181565b806332cb6b0c146102a6578063417bac1a146102d157806342842e0e146102fc57610181565b806301ffc9a71461018657806306fdde03146101c3578063081812fc146101ee578063095ea7b31461022b57806323b872dd1461025457806327ea6f2b1461027d575b600080fd5b34801561019257600080fd5b506101ad60048036038101906101a89190612312565b61062d565b6040516101ba919061235a565b60405180910390f35b3480156101cf57600080fd5b506101d861068e565b6040516101e59190612405565b60405180910390f35b3480156101fa57600080fd5b506102156004803603810190610210919061245d565b610720565b60405161022291906124cb565b60405180910390f35b34801561023757600080fd5b50610252600480360381019061024d9190612512565b61073c565b005b34801561026057600080fd5b5061027b60048036038101906102769190612552565b610752565b005b34801561028957600080fd5b506102a4600480360381019061029f919061245d565b610854565b005b3480156102b257600080fd5b506102bb610866565b6040516102c891906125b4565b60405180910390f35b3480156102dd57600080fd5b506102e661086c565b6040516102f391906125b4565b60405180910390f35b34801561030857600080fd5b50610323600480360381019061031e9190612552565b610872565b005b34801561033157600080fd5b5061033a610892565b6040516103479190612727565b60405180910390f35b34801561035c57600080fd5b506103776004803603810190610372919061245d565b6109ca565b60405161038491906124cb565b60405180910390f35b6103a760048036038101906103a29190612749565b6109dc565b6040516103b491906125b4565b60405180910390f35b3480156103c957600080fd5b506103e460048036038101906103df919061245d565b610b51565b005b3480156103f257600080fd5b5061040d60048036038101906104089190612789565b610b63565b60405161041a91906125b4565b60405180910390f35b34801561042f57600080fd5b50610438610c1d565b005b34801561044657600080fd5b5061044f610c31565b60405161045c91906125b4565b60405180910390f35b34801561047157600080fd5b5061047a610c37565b60405161048791906124cb565b60405180910390f35b34801561049c57600080fd5b506104b760048036038101906104b2919061245d565b610c61565b005b3480156104c557600080fd5b506104ce610c73565b6040516104db9190612405565b60405180910390f35b3480156104f057600080fd5b5061050b600480360381019061050691906127e2565b610d05565b005b34801561051957600080fd5b50610522610d1b565b005b34801561053057600080fd5b5061054b60048036038101906105469190612957565b610d72565b005b34801561055957600080fd5b50610574600480360381019061056f919061245d565b610d8f565b6040516105819190612405565b60405180910390f35b34801561059657600080fd5b506105b160048036038101906105ac91906129da565b610ea2565b6040516105be919061235a565b60405180910390f35b3480156105d357600080fd5b506105ee60048036038101906105e99190612abb565b610f36565b6040516105fb91906125b4565b60405180910390f35b34801561061057600080fd5b5061062b60048036038101906106269190612789565b610ffc565b005b6000634906490660e01b7bffffffffffffffffffffffffffffffffffffffffffffffffffffffff1916827bffffffffffffffffffffffffffffffffffffffffffffffffffffffff19161480610687575061068682611082565b5b9050919050565b60606000805461069d90612b33565b80601f01602080910402602001604051908101604052809291908181526020018280546106c990612b33565b80156107165780601f106106eb57610100808354040283529160200191610716565b820191906000526020600020905b8154815290600101906020018083116106f957829003601f168201915b5050505050905090565b600061072b82611164565b50610735826111ec565b9050919050565b61074e8282610749611229565b611231565b5050565b600073ffffffffffffffffffffffffffffffffffffffff168273ffffffffffffffffffffffffffffffffffffffff16036107c45760006040517f64a0ae920000000000000000000000000000000000000000000000000000000081526004016107bb91906124cb565b60405180910390fd5b60006107d883836107d3611229565b611243565b90508373ffffffffffffffffffffffffffffffffffffffff168173ffffffffffffffffffffffffffffffffffffffff161461084e578382826040517f64283d7b00000000000000000000000000000000000000000000000000000000815260040161084593929190612b64565b60405180910390fd5b50505050565b61085c61145d565b80600b8190555050565b600c5481565b600b5481565b61088d83838360405180602001604052806000815250610d72565b505050565b6060600d60008073ffffffffffffffffffffffffffffffffffffffff1673ffffffffffffffffffffffffffffffffffffffff168152602001908152602001600020805480602002602001604051908101604052809291908181526020016000905b828210156109c157838290600052602060002090600202016040518060400160405290816000820154815260200160018201805461093090612b33565b80601f016020809104026020016040519081016040528092919081815260200182805461095c90612b33565b80156109a95780601f1061097e576101008083540402835291602001916109a9565b820191906000526020600020905b81548152906001019060200180831161098c57829003601f168201915b505050505081525050815260200190600101906108f3565b50505050905090565b60006109d582611164565b9050919050565b600034600a541115610a23576040517f08c379a0000000000000000000000000000000000000000000000000000000008152600401610a1a90612be7565b60405180910390fd5b600b54600d60008473ffffffffffffffffffffffffffffffffffffffff1673ffffffffffffffffffffffffffffffffffffffff1681526020019081526020016000208054905010610aa9576040517f08c379a0000000000000000000000000000000000000000000000000000000008152600401610aa090612c79565b60405180910390fd5b600c546001600954610abb9190612cc8565b1115610afc576040517f08c379a0000000000000000000000000000000000000000000000000000000008152600401610af390612d48565b60405180910390fd5b6000610b098460006114e4565b9050610b198382600001516116b9565b610b2b816000015182602001516117b2565b60096000815480929190610b3e90612d68565b9190505550806000015191505092915050565b610b5961145d565b80600c8190555050565b60008073ffffffffffffffffffffffffffffffffffffffff168273ffffffffffffffffffffffffffffffffffffffff1603610bd65760006040517f89c62b64000000000000000000000000000000000000000000000000000000008152600401610bcd91906124cb565b60405180910390fd5b600360008373ffffffffffffffffffffffffffffffffffffffff1673ffffffffffffffffffffffffffffffffffffffff168152602001908152602001600020549050919050565b610c2561145d565b610c2f600061180e565b565b600a5481565b6000600760009054906101000a900473ffffffffffffffffffffffffffffffffffffffff16905090565b610c6961145d565b80600a8190555050565b606060018054610c8290612b33565b80601f0160208091040260200160405190810160405280929190818152602001828054610cae90612b33565b8015610cfb5780601f10610cd057610100808354040283529160200191610cfb565b820191906000526020600020905b815481529060010190602001808311610cde57829003601f168201915b5050505050905090565b610d17610d10611229565b83836118d4565b5050565b610d2361145d565b60003390508073ffffffffffffffffffffffffffffffffffffffff166108fc479081150290604051600060405180830381858888f19350505050158015610d6e573d6000803e3d6000fd5b5050565b610d7d848484610752565b610d8984848484611a43565b50505050565b6060610d9a82611164565b506000600660008481526020019081526020016000208054610dbb90612b33565b80601f0160208091040260200160405190810160405280929190818152602001828054610de790612b33565b8015610e345780601f10610e0957610100808354040283529160200191610e34565b820191906000526020600020905b815481529060010190602001808311610e1757829003601f168201915b505050505090506000610e45611bfa565b90506000815103610e5a578192505050610e9d565b600082511115610e8f578082604051602001610e77929190612dec565b60405160208183030381529060405292505050610e9d565b610e9884611c11565b925050505b919050565b6000600560008473ffffffffffffffffffffffffffffffffffffffff1673ffffffffffffffffffffffffffffffffffffffff16815260200190815260200160002060008373ffffffffffffffffffffffffffffffffffffffff1673ffffffffffffffffffffffffffffffffffffffff16815260200190815260200160002060009054906101000a900460ff16905092915050565b60008060405180604001604052806008548152602001848152509050600d60008073ffffffffffffffffffffffffffffffffffffffff1673ffffffffffffffffffffffffffffffffffffffff168152602001908152602001600020819080600181540180825580915050600190039060005260206000209060020201600090919091909150600082015181600001556020820151816001019081610fda9190612fbc565b50505060086000815480929190610ff090612d68565b91905055915050919050565b61100461145d565b600073ffffffffffffffffffffffffffffffffffffffff168173ffffffffffffffffffffffffffffffffffffffff16036110765760006040517f1e4fbdf700000000000000000000000000000000000000000000000000000000815260040161106d91906124cb565b60405180910390fd5b61107f8161180e565b50565b60007f80ac58cd000000000000000000000000000000000000000000000000000000007bffffffffffffffffffffffffffffffffffffffffffffffffffffffff1916827bffffffffffffffffffffffffffffffffffffffffffffffffffffffff1916148061114d57507f5b5e139f000000000000000000000000000000000000000000000000000000007bffffffffffffffffffffffffffffffffffffffffffffffffffffffff1916827bffffffffffffffffffffffffffffffffffffffffffffffffffffffff1916145b8061115d575061115c82611c7a565b5b9050919050565b60008061117083611ce4565b9050600073ffffffffffffffffffffffffffffffffffffffff168173ffffffffffffffffffffffffffffffffffffffff16036111e357826040517f7e2732890000000000000000000000000000000000000000000000000000000081526004016111da91906125b4565b60405180910390fd5b80915050919050565b60006004600083815260200190815260200160002060009054906101000a900473ffffffffffffffffffffffffffffffffffffffff169050919050565b600033905090565b61123e8383836001611d21565b505050565b60008061124f84611ce4565b9050600073ffffffffffffffffffffffffffffffffffffffff168373ffffffffffffffffffffffffffffffffffffffff161461129157611290818486611ee6565b5b600073ffffffffffffffffffffffffffffffffffffffff168173ffffffffffffffffffffffffffffffffffffffff1614611322576112d3600085600080611d21565b6001600360008373ffffffffffffffffffffffffffffffffffffffff1673ffffffffffffffffffffffffffffffffffffffff168152602001908152602001600020600082825403925050819055505b600073ffffffffffffffffffffffffffffffffffffffff168573ffffffffffffffffffffffffffffffffffffffff16146113a5576001600360008773ffffffffffffffffffffffffffffffffffffffff1673ffffffffffffffffffffffffffffffffffffffff168152602001908152602001600020600082825401925050819055505b846002600086815260200190815260200160002060006101000a81548173ffffffffffffffffffffffffffffffffffffffff021916908373ffffffffffffffffffffffffffffffffffffffff160217905550838573ffffffffffffffffffffffffffffffffffffffff168273ffffffffffffffffffffffffffffffffffffffff167fddf252ad1be2c89b69c2b068fc378daa952ba7f163c4a11628f55a4df523b3ef60405160405180910390a4809150509392505050565b611465611229565b73ffffffffffffffffffffffffffffffffffffffff16611483610c37565b73ffffffffffffffffffffffffffffffffffffffff16146114e2576114a6611229565b6040517f118cdaa70000000000000000000000000000000000000000000000000000000081526004016114d991906124cb565b60405180910390fd5b565b6114ec61228c565b6000600d60008473ffffffffffffffffffffffffffffffffffffffff1673ffffffffffffffffffffffffffffffffffffffff168152602001908152602001600020805480602002602001604051908101604052809291908181526020016000905b8282101561161b57838290600052602060002090600202016040518060400160405290816000820154815260200160018201805461158a90612b33565b80601f01602080910402602001604051908101604052809291908181526020018280546115b690612b33565b80156116035780601f106115d857610100808354040283529160200191611603565b820191906000526020600020905b8154815290600101906020018083116115e657829003601f168201915b5050505050815250508152602001906001019061154d565b50505050905060005b815181101561168957848282815181106116415761164061308e565b5b60200260200101516000015103611676578181815181106116655761166461308e565b5b6020026020010151925050506116b3565b808061168190612d68565b915050611624565b50604051806040016040528060008152602001604051806020016040528060008152508152509150505b92915050565b600073ffffffffffffffffffffffffffffffffffffffff168273ffffffffffffffffffffffffffffffffffffffff160361172b5760006040517f64a0ae9200000000000000000000000000000000000000000000000000000000815260040161172291906124cb565b60405180910390fd5b600061173983836000611243565b9050600073ffffffffffffffffffffffffffffffffffffffff168173ffffffffffffffffffffffffffffffffffffffff16146117ad5760006040517f73c6ac6e0000000000000000000000000000000000000000000000000000000081526004016117a491906124cb565b60405180910390fd5b505050565b806006600084815260200190815260200160002090816117d29190612fbc565b507ff8e1a15aba9398e019f0b49df1a4fde98ee17ae345cb5f6b5e2c27f5033e8ce78260405161180291906125b4565b60405180910390a15050565b6000600760009054906101000a900473ffffffffffffffffffffffffffffffffffffffff16905081600760006101000a81548173ffffffffffffffffffffffffffffffffffffffff021916908373ffffffffffffffffffffffffffffffffffffffff1602179055508173ffffffffffffffffffffffffffffffffffffffff168173ffffffffffffffffffffffffffffffffffffffff167f8be0079c531659141344cd1fd0a4f28419497f9722a3daafe3b4186f6b6457e060405160405180910390a35050565b600073ffffffffffffffffffffffffffffffffffffffff168273ffffffffffffffffffffffffffffffffffffffff160361194557816040517f5b08ba1800000000000000000000000000000000000000000000000000000000815260040161193c91906124cb565b60405180910390fd5b80600560008573ffffffffffffffffffffffffffffffffffffffff1673ffffffffffffffffffffffffffffffffffffffff16815260200190815260200160002060008473ffffffffffffffffffffffffffffffffffffffff1673ffffffffffffffffffffffffffffffffffffffff16815260200190815260200160002060006101000a81548160ff0219169083151502179055508173ffffffffffffffffffffffffffffffffffffffff168373ffffffffffffffffffffffffffffffffffffffff167f17307eab39ab6107e8899845ad3d59bd9653f200f220920489ca2b5937696c3183604051611a36919061235a565b60405180910390a3505050565b60008373ffffffffffffffffffffffffffffffffffffffff163b1115611bf4578273ffffffffffffffffffffffffffffffffffffffff1663150b7a02611a87611229565b8685856040518563ffffffff1660e01b8152600401611aa99493929190613112565b6020604051808303816000875af1925050508015611ae557506040513d601f19601f82011682018060405250810190611ae29190613173565b60015b611b69573d8060008114611b15576040519150601f19603f3d011682016040523d82523d6000602084013e611b1a565b606091505b506000815103611b6157836040517f64a0ae92000000000000000000000000000000000000000000000000000000008152600401611b5891906124cb565b60405180910390fd5b805181602001fd5b63150b7a0260e01b7bffffffffffffffffffffffffffffffffffffffffffffffffffffffff1916817bffffffffffffffffffffffffffffffffffffffffffffffffffffffff191614611bf257836040517f64a0ae92000000000000000000000000000000000000000000000000000000008152600401611be991906124cb565b60405180910390fd5b505b50505050565b606060405180602001604052806000815250905090565b6060611c1c82611164565b506000611c27611bfa565b90506000815111611c475760405180602001604052806000815250611c72565b80611c5184611faa565b604051602001611c62929190612dec565b6040516020818303038152906040525b915050919050565b60007f01ffc9a7000000000000000000000000000000000000000000000000000000007bffffffffffffffffffffffffffffffffffffffffffffffffffffffff1916827bffffffffffffffffffffffffffffffffffffffffffffffffffffffff1916149050919050565b60006002600083815260200190815260200160002060009054906101000a900473ffffffffffffffffffffffffffffffffffffffff169050919050565b8080611d5a5750600073ffffffffffffffffffffffffffffffffffffffff168273ffffffffffffffffffffffffffffffffffffffff1614155b15611e8e576000611d6a84611164565b9050600073ffffffffffffffffffffffffffffffffffffffff168373ffffffffffffffffffffffffffffffffffffffff1614158015611dd557508273ffffffffffffffffffffffffffffffffffffffff168173ffffffffffffffffffffffffffffffffffffffff1614155b8015611de85750611de68184610ea2565b155b15611e2a57826040517fa9fbf51f000000000000000000000000000000000000000000000000000000008152600401611e2191906124cb565b60405180910390fd5b8115611e8c57838573ffffffffffffffffffffffffffffffffffffffff168273ffffffffffffffffffffffffffffffffffffffff167f8c5be1e5ebec7d5bd14f71427d1e84f3dd0314c0f7b2291e5b200ac8c7c3b92560405160405180910390a45b505b836004600085815260200190815260200160002060006101000a81548173ffffffffffffffffffffffffffffffffffffffff021916908373ffffffffffffffffffffffffffffffffffffffff16021790555050505050565b611ef1838383612078565b611fa557600073ffffffffffffffffffffffffffffffffffffffff168373ffffffffffffffffffffffffffffffffffffffff1603611f6657806040517f7e273289000000000000000000000000000000000000000000000000000000008152600401611f5d91906125b4565b60405180910390fd5b81816040517f177e802f000000000000000000000000000000000000000000000000000000008152600401611f9c9291906131a0565b60405180910390fd5b505050565b606060006001611fb984612139565b01905060008167ffffffffffffffff811115611fd857611fd761282c565b5b6040519080825280601f01601f19166020018201604052801561200a5781602001600182028036833780820191505090505b509050600082602001820190505b60011561206d578080600190039150507f3031323334353637383961626364656600000000000000000000000000000000600a86061a8153600a8581612061576120606131c9565b5b04945060008503612018575b819350505050919050565b60008073ffffffffffffffffffffffffffffffffffffffff168373ffffffffffffffffffffffffffffffffffffffff161415801561213057508273ffffffffffffffffffffffffffffffffffffffff168473ffffffffffffffffffffffffffffffffffffffff1614806120f157506120f08484610ea2565b5b8061212f57508273ffffffffffffffffffffffffffffffffffffffff16612117836111ec565b73ffffffffffffffffffffffffffffffffffffffff16145b5b90509392505050565b600080600090507a184f03e93ff9f4daa797ed6e38ed64bf6a1f0100000000000000008310612197577a184f03e93ff9f4daa797ed6e38ed64bf6a1f010000000000000000838161218d5761218c6131c9565b5b0492506040810190505b6d04ee2d6d415b85acef810000000083106121d4576d04ee2d6d415b85acef810000000083816121ca576121c96131c9565b5b0492506020810190505b662386f26fc10000831061220357662386f26fc1000083816121f9576121f86131c9565b5b0492506010810190505b6305f5e100831061222c576305f5e1008381612222576122216131c9565b5b0492506008810190505b6127108310612251576127108381612247576122466131c9565b5b0492506004810190505b60648310612274576064838161226a576122696131c9565b5b0492506002810190505b600a8310612283576001810190505b80915050919050565b604051806040016040528060008152602001606081525090565b6000604051905090565b600080fd5b600080fd5b60007fffffffff0000000000000000000000000000000000000000000000000000000082169050919050565b6122ef816122ba565b81146122fa57600080fd5b50565b60008135905061230c816122e6565b92915050565b600060208284031215612328576123276122b0565b5b6000612336848285016122fd565b91505092915050565b60008115159050919050565b6123548161233f565b82525050565b600060208201905061236f600083018461234b565b92915050565b600081519050919050565b600082825260208201905092915050565b60005b838110156123af578082015181840152602081019050612394565b60008484015250505050565b6000601f19601f8301169050919050565b60006123d782612375565b6123e18185612380565b93506123f1818560208601612391565b6123fa816123bb565b840191505092915050565b6000602082019050818103600083015261241f81846123cc565b905092915050565b6000819050919050565b61243a81612427565b811461244557600080fd5b50565b60008135905061245781612431565b92915050565b600060208284031215612473576124726122b0565b5b600061248184828501612448565b91505092915050565b600073ffffffffffffffffffffffffffffffffffffffff82169050919050565b60006124b58261248a565b9050919050565b6124c5816124aa565b82525050565b60006020820190506124e060008301846124bc565b92915050565b6124ef816124aa565b81146124fa57600080fd5b50565b60008135905061250c816124e6565b92915050565b60008060408385031215612529576125286122b0565b5b6000612537858286016124fd565b925050602061254885828601612448565b9150509250929050565b60008060006060848603121561256b5761256a6122b0565b5b6000612579868287016124fd565b935050602061258a868287016124fd565b925050604061259b86828701612448565b9150509250925092565b6125ae81612427565b82525050565b60006020820190506125c960008301846125a5565b92915050565b600081519050919050565b600082825260208201905092915050565b6000819050602082019050919050565b61260481612427565b82525050565b600082825260208201905092915050565b600061262682612375565b612630818561260a565b9350612640818560208601612391565b612649816123bb565b840191505092915050565b600060408301600083015161266c60008601826125fb565b5060208301518482036020860152612684828261261b565b9150508091505092915050565b600061269d8383612654565b905092915050565b6000602082019050919050565b60006126bd826125cf565b6126c781856125da565b9350836020820285016126d9856125eb565b8060005b8581101561271557848403895281516126f68582612691565b9450612701836126a5565b925060208a019950506001810190506126dd565b50829750879550505050505092915050565b6000602082019050818103600083015261274181846126b2565b905092915050565b600080604083850312156127605761275f6122b0565b5b600061276e85828601612448565b925050602061277f858286016124fd565b9150509250929050565b60006020828403121561279f5761279e6122b0565b5b60006127ad848285016124fd565b91505092915050565b6127bf8161233f565b81146127ca57600080fd5b50565b6000813590506127dc816127b6565b92915050565b600080604083850312156127f9576127f86122b0565b5b6000612807858286016124fd565b9250506020612818858286016127cd565b9150509250929050565b600080fd5b600080fd5b7f4e487b7100000000000000000000000000000000000000000000000000000000600052604160045260246000fd5b612864826123bb565b810181811067ffffffffffffffff821117156128835761288261282c565b5b80604052505050565b60006128966122a6565b90506128a2828261285b565b919050565b600067ffffffffffffffff8211156128c2576128c161282c565b5b6128cb826123bb565b9050602081019050919050565b82818337600083830152505050565b60006128fa6128f5846128a7565b61288c565b90508281526020810184848401111561291657612915612827565b5b6129218482856128d8565b509392505050565b600082601f83011261293e5761293d612822565b5b813561294e8482602086016128e7565b91505092915050565b60008060008060808587031215612971576129706122b0565b5b600061297f878288016124fd565b9450506020612990878288016124fd565b93505060406129a187828801612448565b925050606085013567ffffffffffffffff8111156129c2576129c16122b5565b5b6129ce87828801612929565b91505092959194509250565b600080604083850312156129f1576129f06122b0565b5b60006129ff858286016124fd565b9250506020612a10858286016124fd565b9150509250929050565b600067ffffffffffffffff821115612a3557612a3461282c565b5b612a3e826123bb565b9050602081019050919050565b6000612a5e612a5984612a1a565b61288c565b905082815260208101848484011115612a7a57612a79612827565b5b612a858482856128d8565b509392505050565b600082601f830112612aa257612aa1612822565b5b8135612ab2848260208601612a4b565b91505092915050565b600060208284031215612ad157612ad06122b0565b5b600082013567ffffffffffffffff811115612aef57612aee6122b5565b5b612afb84828501612a8d565b91505092915050565b7f4e487b7100000000000000000000000000000000000000000000000000000000600052602260045260246000fd5b60006002820490506001821680612b4b57607f821691505b602082108103612b5e57612b5d612b04565b5b50919050565b6000606082019050612b7960008301866124bc565b612b8660208301856125a5565b612b9360408301846124bc565b949350505050565b7f4574686572207061696420697320696e636f7272656374000000000000000000600082015250565b6000612bd1601783612380565b9150612bdc82612b9b565b602082019050919050565b60006020820190508181036000830152612c0081612bc4565b9050919050565b7f596f75206861766520657863656564656420746865206d696e74696e67206c6960008201527f6d697420666f722074686973206163636f756e74000000000000000000000000602082015250565b6000612c63603483612380565b9150612c6e82612c07565b604082019050919050565b60006020820190508181036000830152612c9281612c56565b9050919050565b7f4e487b7100000000000000000000000000000000000000000000000000000000600052601160045260246000fd5b6000612cd382612427565b9150612cde83612427565b9250828201905080821115612cf657612cf5612c99565b5b92915050565b7f596f752068617665206578636565646564204d617820537570706c7900000000600082015250565b6000612d32601c83612380565b9150612d3d82612cfc565b602082019050919050565b60006020820190508181036000830152612d6181612d25565b9050919050565b6000612d7382612427565b91507fffffffffffffffffffffffffffffffffffffffffffffffffffffffffffffffff8203612da557612da4612c99565b5b600182019050919050565b600081905092915050565b6000612dc682612375565b612dd08185612db0565b9350612de0818560208601612391565b80840191505092915050565b6000612df88285612dbb565b9150612e048284612dbb565b91508190509392505050565b60008190508160005260206000209050919050565b60006020601f8301049050919050565b600082821b905092915050565b600060088302612e727fffffffffffffffffffffffffffffffffffffffffffffffffffffffffffffffff82612e35565b612e7c8683612e35565b95508019841693508086168417925050509392505050565b6000819050919050565b6000612eb9612eb4612eaf84612427565b612e94565b612427565b9050919050565b6000819050919050565b612ed383612e9e565b612ee7612edf82612ec0565b848454612e42565b825550505050565b600090565b612efc612eef565b612f07818484612eca565b505050565b5b81811015612f2b57612f20600082612ef4565b600181019050612f0d565b5050565b601f821115612f7057612f4181612e10565b612f4a84612e25565b81016020851015612f59578190505b612f6d612f6585612e25565b830182612f0c565b50505b505050565b600082821c905092915050565b6000612f9360001984600802612f75565b1980831691505092915050565b6000612fac8383612f82565b9150826002028217905092915050565b612fc582612375565b67ffffffffffffffff811115612fde57612fdd61282c565b5b612fe88254612b33565b612ff3828285612f2f565b600060209050601f8311600181146130265760008415613014578287015190505b61301e8582612fa0565b865550613086565b601f19841661303486612e10565b60005b8281101561305c57848901518255600182019150602085019450602081019050613037565b868310156130795784890151613075601f891682612f82565b8355505b6001600288020188555050505b505050505050565b7f4e487b7100000000000000000000000000000000000000000000000000000000600052603260045260246000fd5b600081519050919050565b600082825260208201905092915050565b60006130e4826130bd565b6130ee81856130c8565b93506130fe818560208601612391565b613107816123bb565b840191505092915050565b600060808201905061312760008301876124bc565b61313460208301866124bc565b61314160408301856125a5565b818103606083015261315381846130d9565b905095945050505050565b60008151905061316d816122e6565b92915050565b600060208284031215613189576131886122b0565b5b60006131978482850161315e565b91505092915050565b60006040820190506131b560008301856124bc565b6131c260208301846125a5565b9392505050565b7f4e487b7100000000000000000000000000000000000000000000000000000000600052601260045260246000fdfea2646970667358221220a335bd1ce9edf2a45dadcf04ddf3f07d817890ddafd1e22e07d026ae86624a7464736f6c63430008140033","opcodes":"PUSH1 0x80 PUSH1 0x40 MSTORE PUSH1 0x0 PUSH1 0x8 SSTORE PUSH1 0x0 PUSH1 0x9 SSTORE PUSH7 0x2386F26FC10000 PUSH1 0xA SSTORE PUSH1 0x5 PUSH1 0xB SSTORE PUSH1 0x5 PUSH1 0xC SSTORE CALLVALUE DUP1 ISZERO PUSH3 0x30 JUMPI PUSH1 0x0 DUP1 REVERT JUMPDEST POP CALLER PUSH1 0x40 MLOAD DUP1 PUSH1 0x40 ADD PUSH1 0x40 MSTORE DUP1 PUSH1 0xA DUP2 MSTORE PUSH1 0x20 ADD PUSH32 0x436F6C6C656374696F6E00000000000000000000000000000000000000000000 DUP2 MSTORE POP PUSH1 0x40 MLOAD DUP1 PUSH1 0x40 ADD PUSH1 0x40 MSTORE DUP1 PUSH1 0x3 DUP2 MSTORE PUSH1 0x20 ADD PUSH32 0x4E46540000000000000000000000000000000000000000000000000000000000 DUP2 MSTORE POP DUP2 PUSH1 0x0 SWAP1 DUP2 PUSH3 0xAF SWAP2 SWAP1 PUSH3 0x491 JUMP JUMPDEST POP DUP1 PUSH1 0x1 SWAP1 DUP2 PUSH3 0xC1 SWAP2 SWAP1 PUSH3 0x491 JUMP JUMPDEST POP POP POP PUSH1 0x0 PUSH20 0xFFFFFFFFFFFFFFFFFFFFFFFFFFFFFFFFFFFFFFFF AND DUP2 PUSH20 0xFFFFFFFFFFFFFFFFFFFFFFFFFFFFFFFFFFFFFFFF AND SUB PUSH3 0x139 JUMPI PUSH1 0x0 PUSH1 0x40 MLOAD PUSH32 0x1E4FBDF700000000000000000000000000000000000000000000000000000000 DUP2 MSTORE PUSH1 0x4 ADD PUSH3 0x130 SWAP2 SWAP1 PUSH3 0x5BD JUMP JUMPDEST PUSH1 0x40 MLOAD DUP1 SWAP2 SUB SWAP1 REVERT JUMPDEST PUSH3 0x14A DUP2 PUSH3 0x151 PUSH1 0x20 SHL PUSH1 0x20 SHR JUMP JUMPDEST POP PUSH3 0x5DA JUMP JUMPDEST PUSH1 0x0 PUSH1 0x7 PUSH1 0x0 SWAP1 SLOAD SWAP1 PUSH2 0x100 EXP SWAP1 DIV PUSH20 0xFFFFFFFFFFFFFFFFFFFFFFFFFFFFFFFFFFFFFFFF AND SWAP1 POP DUP2 PUSH1 0x7 PUSH1 0x0 PUSH2 0x100 EXP DUP2 SLOAD DUP2 PUSH20 0xFFFFFFFFFFFFFFFFFFFFFFFFFFFFFFFFFFFFFFFF MUL NOT AND SWAP1 DUP4 PUSH20 0xFFFFFFFFFFFFFFFFFFFFFFFFFFFFFFFFFFFFFFFF AND MUL OR SWAP1 SSTORE POP DUP2 PUSH20 0xFFFFFFFFFFFFFFFFFFFFFFFFFFFFFFFFFFFFFFFF AND DUP2 PUSH20 0xFFFFFFFFFFFFFFFFFFFFFFFFFFFFFFFFFFFFFFFF AND PUSH32 0x8BE0079C531659141344CD1FD0A4F28419497F9722A3DAAFE3B4186F6B6457E0 PUSH1 0x40 MLOAD PUSH1 0x40 MLOAD DUP1 SWAP2 SUB SWAP1 LOG3 POP POP JUMP JUMPDEST PUSH1 0x0 DUP2 MLOAD SWAP1 POP SWAP2 SWAP1 POP JUMP JUMPDEST PUSH32 0x4E487B7100000000000000000000000000000000000000000000000000000000 PUSH1 0x0 MSTORE PUSH1 0x41 PUSH1 0x4 MSTORE PUSH1 0x24 PUSH1 0x0 REVERT JUMPDEST PUSH32 0x4E487B7100000000000000000000000000000000000000000000000000000000 PUSH1 0x0 MSTORE PUSH1 0x22 PUSH1 0x4 MSTORE PUSH1 0x24 PUSH1 0x0 REVERT JUMPDEST PUSH1 0x0 PUSH1 0x2 DUP3 DIV SWAP1 POP PUSH1 0x1 DUP3 AND DUP1 PUSH3 0x299 JUMPI PUSH1 0x7F DUP3 AND SWAP2 POP JUMPDEST PUSH1 0x20 DUP3 LT DUP2 SUB PUSH3 0x2AF JUMPI PUSH3 0x2AE PUSH3 0x251 JUMP JUMPDEST JUMPDEST POP SWAP2 SWAP1 POP JUMP JUMPDEST PUSH1 0x0 DUP2 SWAP1 POP DUP2 PUSH1 0x0 MSTORE PUSH1 0x20 PUSH1 0x0 KECCAK256 SWAP1 POP SWAP2 SWAP1 POP JUMP JUMPDEST PUSH1 0x0 PUSH1 0x20 PUSH1 0x1F DUP4 ADD DIV SWAP1 POP SWAP2 SWAP1 POP JUMP JUMPDEST PUSH1 0x0 DUP3 DUP3 SHL SWAP1 POP SWAP3 SWAP2 POP POP JUMP JUMPDEST PUSH1 0x0 PUSH1 0x8 DUP4 MUL PUSH3 0x319 PUSH32 0xFFFFFFFFFFFFFFFFFFFFFFFFFFFFFFFFFFFFFFFFFFFFFFFFFFFFFFFFFFFFFFFF DUP3 PUSH3 0x2DA JUMP JUMPDEST PUSH3 0x325 DUP7 DUP4 PUSH3 0x2DA JUMP JUMPDEST SWAP6 POP DUP1 NOT DUP5 AND SWAP4 POP DUP1 DUP7 AND DUP5 OR SWAP3 POP POP POP SWAP4 SWAP3 POP POP POP JUMP JUMPDEST PUSH1 0x0 DUP2 SWAP1 POP SWAP2 SWAP1 POP JUMP JUMPDEST PUSH1 0x0 DUP2 SWAP1 POP SWAP2 SWAP1 POP JUMP JUMPDEST PUSH1 0x0 PUSH3 0x372 PUSH3 0x36C PUSH3 0x366 DUP5 PUSH3 0x33D JUMP JUMPDEST PUSH3 0x347 JUMP JUMPDEST PUSH3 0x33D JUMP JUMPDEST SWAP1 POP SWAP2 SWAP1 POP JUMP JUMPDEST PUSH1 0x0 DUP2 SWAP1 POP SWAP2 SWAP1 POP JUMP JUMPDEST PUSH3 0x38E DUP4 PUSH3 0x351 JUMP JUMPDEST PUSH3 0x3A6 PUSH3 0x39D DUP3 PUSH3 0x379 JUMP JUMPDEST DUP5 DUP5 SLOAD PUSH3 0x2E7 JUMP JUMPDEST DUP3 SSTORE POP POP POP POP JUMP JUMPDEST PUSH1 0x0 SWAP1 JUMP JUMPDEST PUSH3 0x3BD PUSH3 0x3AE JUMP JUMPDEST PUSH3 0x3CA DUP2 DUP5 DUP5 PUSH3 0x383 JUMP JUMPDEST POP POP POP JUMP JUMPDEST JUMPDEST DUP2 DUP2 LT ISZERO PUSH3 0x3F2 JUMPI PUSH3 0x3E6 PUSH1 0x0 DUP3 PUSH3 0x3B3 JUMP JUMPDEST PUSH1 0x1 DUP2 ADD SWAP1 POP PUSH3 0x3D0 JUMP JUMPDEST POP POP JUMP JUMPDEST PUSH1 0x1F DUP3 GT ISZERO PUSH3 0x441 JUMPI PUSH3 0x40B DUP2 PUSH3 0x2B5 JUMP JUMPDEST PUSH3 0x416 DUP5 PUSH3 0x2CA JUMP JUMPDEST DUP2 ADD PUSH1 0x20 DUP6 LT ISZERO PUSH3 0x426 JUMPI DUP2 SWAP1 POP JUMPDEST PUSH3 0x43E PUSH3 0x435 DUP6 PUSH3 0x2CA JUMP JUMPDEST DUP4 ADD DUP3 PUSH3 0x3CF JUMP JUMPDEST POP POP JUMPDEST POP POP POP JUMP JUMPDEST PUSH1 0x0 DUP3 DUP3 SHR SWAP1 POP SWAP3 SWAP2 POP POP JUMP JUMPDEST PUSH1 0x0 PUSH3 0x466 PUSH1 0x0 NOT DUP5 PUSH1 0x8 MUL PUSH3 0x446 JUMP JUMPDEST NOT DUP1 DUP4 AND SWAP2 POP POP SWAP3 SWAP2 POP POP JUMP JUMPDEST PUSH1 0x0 PUSH3 0x481 DUP4 DUP4 PUSH3 0x453 JUMP JUMPDEST SWAP2 POP DUP3 PUSH1 0x2 MUL DUP3 OR SWAP1 POP SWAP3 SWAP2 POP POP JUMP JUMPDEST PUSH3 0x49C DUP3 PUSH3 0x217 JUMP JUMPDEST PUSH8 0xFFFFFFFFFFFFFFFF DUP2 GT ISZERO PUSH3 0x4B8 JUMPI PUSH3 0x4B7 PUSH3 0x222 JUMP JUMPDEST JUMPDEST PUSH3 0x4C4 DUP3 SLOAD PUSH3 0x280 JUMP JUMPDEST PUSH3 0x4D1 DUP3 DUP3 DUP6 PUSH3 0x3F6 JUMP JUMPDEST PUSH1 0x0 PUSH1 0x20 SWAP1 POP PUSH1 0x1F DUP4 GT PUSH1 0x1 DUP2 EQ PUSH3 0x509 JUMPI PUSH1 0x0 DUP5 ISZERO PUSH3 0x4F4 JUMPI DUP3 DUP8 ADD MLOAD SWAP1 POP JUMPDEST PUSH3 0x500 DUP6 DUP3 PUSH3 0x473 JUMP JUMPDEST DUP7 SSTORE POP PUSH3 0x570 JUMP JUMPDEST PUSH1 0x1F NOT DUP5 AND PUSH3 0x519 DUP7 PUSH3 0x2B5 JUMP JUMPDEST PUSH1 0x0 JUMPDEST DUP3 DUP2 LT ISZERO PUSH3 0x543 JUMPI DUP5 DUP10 ADD MLOAD DUP3 SSTORE PUSH1 0x1 DUP3 ADD SWAP2 POP PUSH1 0x20 DUP6 ADD SWAP5 POP PUSH1 0x20 DUP2 ADD SWAP1 POP PUSH3 0x51C JUMP JUMPDEST DUP7 DUP4 LT ISZERO PUSH3 0x563 JUMPI DUP5 DUP10 ADD MLOAD PUSH3 0x55F PUSH1 0x1F DUP10 AND DUP3 PUSH3 0x453 JUMP JUMPDEST DUP4 SSTORE POP JUMPDEST PUSH1 0x1 PUSH1 0x2 DUP9 MUL ADD DUP9 SSTORE POP POP POP JUMPDEST POP POP POP POP POP POP JUMP JUMPDEST PUSH1 0x0 PUSH20 0xFFFFFFFFFFFFFFFFFFFFFFFFFFFFFFFFFFFFFFFF DUP3 AND SWAP1 POP SWAP2 SWAP1 POP JUMP JUMPDEST PUSH1 0x0 PUSH3 0x5A5 DUP3 PUSH3 0x578 JUMP JUMPDEST SWAP1 POP SWAP2 SWAP1 POP JUMP JUMPDEST PUSH3 0x5B7 DUP2 PUSH3 0x598 JUMP JUMPDEST DUP3 MSTORE POP POP JUMP JUMPDEST PUSH1 0x0 PUSH1 0x20 DUP3 ADD SWAP1 POP PUSH3 0x5D4 PUSH1 0x0 DUP4 ADD DUP5 PUSH3 0x5AC JUMP JUMPDEST SWAP3 SWAP2 POP POP JUMP JUMPDEST PUSH2 0x322E DUP1 PUSH3 0x5EA PUSH1 0x0 CODECOPY PUSH1 0x0 RETURN INVALID PUSH1 0x80 PUSH1 0x40 MSTORE PUSH1 0x4 CALLDATASIZE LT PUSH2 0x181 JUMPI PUSH1 0x0 CALLDATALOAD PUSH1 0xE0 SHR DUP1 PUSH4 0x70A08231 GT PUSH2 0xD1 JUMPI DUP1 PUSH4 0xA22CB465 GT PUSH2 0x8A JUMPI DUP1 PUSH4 0xC87B56DD GT PUSH2 0x64 JUMPI DUP1 PUSH4 0xC87B56DD EQ PUSH2 0x54D JUMPI DUP1 PUSH4 0xE985E9C5 EQ PUSH2 0x58A JUMPI DUP1 PUSH4 0xEE36675B EQ PUSH2 0x5C7 JUMPI DUP1 PUSH4 0xF2FDE38B EQ PUSH2 0x604 JUMPI PUSH2 0x181 JUMP JUMPDEST DUP1 PUSH4 0xA22CB465 EQ PUSH2 0x4E4 JUMPI DUP1 PUSH4 0xAC446002 EQ PUSH2 0x50D JUMPI DUP1 PUSH4 0xB88D4FDE EQ PUSH2 0x524 JUMPI PUSH2 0x181 JUMP JUMPDEST DUP1 PUSH4 0x70A08231 EQ PUSH2 0x3E6 JUMPI DUP1 PUSH4 0x715018A6 EQ PUSH2 0x423 JUMPI DUP1 PUSH4 0x833B9499 EQ PUSH2 0x43A JUMPI DUP1 PUSH4 0x8DA5CB5B EQ PUSH2 0x465 JUMPI DUP1 PUSH4 0x91B7F5ED EQ PUSH2 0x490 JUMPI DUP1 PUSH4 0x95D89B41 EQ PUSH2 0x4B9 JUMPI PUSH2 0x181 JUMP JUMPDEST DUP1 PUSH4 0x32CB6B0C GT PUSH2 0x13E JUMPI DUP1 PUSH4 0x5FEC6E67 GT PUSH2 0x118 JUMPI DUP1 PUSH4 0x5FEC6E67 EQ PUSH2 0x325 JUMPI DUP1 PUSH4 0x6352211E EQ PUSH2 0x350 JUMPI DUP1 PUSH4 0x669F5A51 EQ PUSH2 0x38D JUMPI DUP1 PUSH4 0x6F8B44B0 EQ PUSH2 0x3BD JUMPI PUSH2 0x181 JUMP JUMPDEST DUP1 PUSH4 0x32CB6B0C EQ PUSH2 0x2A6 JUMPI DUP1 PUSH4 0x417BAC1A EQ PUSH2 0x2D1 JUMPI DUP1 PUSH4 0x42842E0E EQ PUSH2 0x2FC JUMPI PUSH2 0x181 JUMP JUMPDEST DUP1 PUSH4 0x1FFC9A7 EQ PUSH2 0x186 JUMPI DUP1 PUSH4 0x6FDDE03 EQ PUSH2 0x1C3 JUMPI DUP1 PUSH4 0x81812FC EQ PUSH2 0x1EE JUMPI DUP1 PUSH4 0x95EA7B3 EQ PUSH2 0x22B JUMPI DUP1 PUSH4 0x23B872DD EQ PUSH2 0x254 JUMPI DUP1 PUSH4 0x27EA6F2B EQ PUSH2 0x27D JUMPI JUMPDEST PUSH1 0x0 DUP1 REVERT JUMPDEST CALLVALUE DUP1 ISZERO PUSH2 0x192 JUMPI PUSH1 0x0 DUP1 REVERT JUMPDEST POP PUSH2 0x1AD PUSH1 0x4 DUP1 CALLDATASIZE SUB DUP2 ADD SWAP1 PUSH2 0x1A8 SWAP2 SWAP1 PUSH2 0x2312 JUMP JUMPDEST PUSH2 0x62D JUMP JUMPDEST PUSH1 0x40 MLOAD PUSH2 0x1BA SWAP2 SWAP1 PUSH2 0x235A JUMP JUMPDEST PUSH1 0x40 MLOAD DUP1 SWAP2 SUB SWAP1 RETURN JUMPDEST CALLVALUE DUP1 ISZERO PUSH2 0x1CF JUMPI PUSH1 0x0 DUP1 REVERT JUMPDEST POP PUSH2 0x1D8 PUSH2 0x68E JUMP JUMPDEST PUSH1 0x40 MLOAD PUSH2 0x1E5 SWAP2 SWAP1 PUSH2 0x2405 JUMP JUMPDEST PUSH1 0x40 MLOAD DUP1 SWAP2 SUB SWAP1 RETURN JUMPDEST CALLVALUE DUP1 ISZERO PUSH2 0x1FA JUMPI PUSH1 0x0 DUP1 REVERT JUMPDEST POP PUSH2 0x215 PUSH1 0x4 DUP1 CALLDATASIZE SUB DUP2 ADD SWAP1 PUSH2 0x210 SWAP2 SWAP1 PUSH2 0x245D JUMP JUMPDEST PUSH2 0x720 JUMP JUMPDEST PUSH1 0x40 MLOAD PUSH2 0x222 SWAP2 SWAP1 PUSH2 0x24CB JUMP JUMPDEST PUSH1 0x40 MLOAD DUP1 SWAP2 SUB SWAP1 RETURN JUMPDEST CALLVALUE DUP1 ISZERO PUSH2 0x237 JUMPI PUSH1 0x0 DUP1 REVERT JUMPDEST POP PUSH2 0x252 PUSH1 0x4 DUP1 CALLDATASIZE SUB DUP2 ADD SWAP1 PUSH2 0x24D SWAP2 SWAP1 PUSH2 0x2512 JUMP JUMPDEST PUSH2 0x73C JUMP JUMPDEST STOP JUMPDEST CALLVALUE DUP1 ISZERO PUSH2 0x260 JUMPI PUSH1 0x0 DUP1 REVERT JUMPDEST POP PUSH2 0x27B PUSH1 0x4 DUP1 CALLDATASIZE SUB DUP2 ADD SWAP1 PUSH2 0x276 SWAP2 SWAP1 PUSH2 0x2552 JUMP JUMPDEST PUSH2 0x752 JUMP JUMPDEST STOP JUMPDEST CALLVALUE DUP1 ISZERO PUSH2 0x289 JUMPI PUSH1 0x0 DUP1 REVERT JUMPDEST POP PUSH2 0x2A4 PUSH1 0x4 DUP1 CALLDATASIZE SUB DUP2 ADD SWAP1 PUSH2 0x29F SWAP2 SWAP1 PUSH2 0x245D JUMP JUMPDEST PUSH2 0x854 JUMP JUMPDEST STOP JUMPDEST CALLVALUE DUP1 ISZERO PUSH2 0x2B2 JUMPI PUSH1 0x0 DUP1 REVERT JUMPDEST POP PUSH2 0x2BB PUSH2 0x866 JUMP JUMPDEST PUSH1 0x40 MLOAD PUSH2 0x2C8 SWAP2 SWAP1 PUSH2 0x25B4 JUMP JUMPDEST PUSH1 0x40 MLOAD DUP1 SWAP2 SUB SWAP1 RETURN JUMPDEST CALLVALUE DUP1 ISZERO PUSH2 0x2DD JUMPI PUSH1 0x0 DUP1 REVERT JUMPDEST POP PUSH2 0x2E6 PUSH2 0x86C JUMP JUMPDEST PUSH1 0x40 MLOAD PUSH2 0x2F3 SWAP2 SWAP1 PUSH2 0x25B4 JUMP JUMPDEST PUSH1 0x40 MLOAD DUP1 SWAP2 SUB SWAP1 RETURN JUMPDEST CALLVALUE DUP1 ISZERO PUSH2 0x308 JUMPI PUSH1 0x0 DUP1 REVERT JUMPDEST POP PUSH2 0x323 PUSH1 0x4 DUP1 CALLDATASIZE SUB DUP2 ADD SWAP1 PUSH2 0x31E SWAP2 SWAP1 PUSH2 0x2552 JUMP JUMPDEST PUSH2 0x872 JUMP JUMPDEST STOP JUMPDEST CALLVALUE DUP1 ISZERO PUSH2 0x331 JUMPI PUSH1 0x0 DUP1 REVERT JUMPDEST POP PUSH2 0x33A PUSH2 0x892 JUMP JUMPDEST PUSH1 0x40 MLOAD PUSH2 0x347 SWAP2 SWAP1 PUSH2 0x2727 JUMP JUMPDEST PUSH1 0x40 MLOAD DUP1 SWAP2 SUB SWAP1 RETURN JUMPDEST CALLVALUE DUP1 ISZERO PUSH2 0x35C JUMPI PUSH1 0x0 DUP1 REVERT JUMPDEST POP PUSH2 0x377 PUSH1 0x4 DUP1 CALLDATASIZE SUB DUP2 ADD SWAP1 PUSH2 0x372 SWAP2 SWAP1 PUSH2 0x245D JUMP JUMPDEST PUSH2 0x9CA JUMP JUMPDEST PUSH1 0x40 MLOAD PUSH2 0x384 SWAP2 SWAP1 PUSH2 0x24CB JUMP JUMPDEST PUSH1 0x40 MLOAD DUP1 SWAP2 SUB SWAP1 RETURN JUMPDEST PUSH2 0x3A7 PUSH1 0x4 DUP1 CALLDATASIZE SUB DUP2 ADD SWAP1 PUSH2 0x3A2 SWAP2 SWAP1 PUSH2 0x2749 JUMP JUMPDEST PUSH2 0x9DC JUMP JUMPDEST PUSH1 0x40 MLOAD PUSH2 0x3B4 SWAP2 SWAP1 PUSH2 0x25B4 JUMP JUMPDEST PUSH1 0x40 MLOAD DUP1 SWAP2 SUB SWAP1 RETURN JUMPDEST CALLVALUE DUP1 ISZERO PUSH2 0x3C9 JUMPI PUSH1 0x0 DUP1 REVERT JUMPDEST POP PUSH2 0x3E4 PUSH1 0x4 DUP1 CALLDATASIZE SUB DUP2 ADD SWAP1 PUSH2 0x3DF SWAP2 SWAP1 PUSH2 0x245D JUMP JUMPDEST PUSH2 0xB51 JUMP JUMPDEST STOP JUMPDEST CALLVALUE DUP1 ISZERO PUSH2 0x3F2 JUMPI PUSH1 0x0 DUP1 REVERT JUMPDEST POP PUSH2 0x40D PUSH1 0x4 DUP1 CALLDATASIZE SUB DUP2 ADD SWAP1 PUSH2 0x408 SWAP2 SWAP1 PUSH2 0x2789 JUMP JUMPDEST PUSH2 0xB63 JUMP JUMPDEST PUSH1 0x40 MLOAD PUSH2 0x41A SWAP2 SWAP1 PUSH2 0x25B4 JUMP JUMPDEST PUSH1 0x40 MLOAD DUP1 SWAP2 SUB SWAP1 RETURN JUMPDEST CALLVALUE DUP1 ISZERO PUSH2 0x42F JUMPI PUSH1 0x0 DUP1 REVERT JUMPDEST POP PUSH2 0x438 PUSH2 0xC1D JUMP JUMPDEST STOP JUMPDEST CALLVALUE DUP1 ISZERO PUSH2 0x446 JUMPI PUSH1 0x0 DUP1 REVERT JUMPDEST POP PUSH2 0x44F PUSH2 0xC31 JUMP JUMPDEST PUSH1 0x40 MLOAD PUSH2 0x45C SWAP2 SWAP1 PUSH2 0x25B4 JUMP JUMPDEST PUSH1 0x40 MLOAD DUP1 SWAP2 SUB SWAP1 RETURN JUMPDEST CALLVALUE DUP1 ISZERO PUSH2 0x471 JUMPI PUSH1 0x0 DUP1 REVERT JUMPDEST POP PUSH2 0x47A PUSH2 0xC37 JUMP JUMPDEST PUSH1 0x40 MLOAD PUSH2 0x487 SWAP2 SWAP1 PUSH2 0x24CB JUMP JUMPDEST PUSH1 0x40 MLOAD DUP1 SWAP2 SUB SWAP1 RETURN JUMPDEST CALLVALUE DUP1 ISZERO PUSH2 0x49C JUMPI PUSH1 0x0 DUP1 REVERT JUMPDEST POP PUSH2 0x4B7 PUSH1 0x4 DUP1 CALLDATASIZE SUB DUP2 ADD SWAP1 PUSH2 0x4B2 SWAP2 SWAP1 PUSH2 0x245D JUMP JUMPDEST PUSH2 0xC61 JUMP JUMPDEST STOP JUMPDEST CALLVALUE DUP1 ISZERO PUSH2 0x4C5 JUMPI PUSH1 0x0 DUP1 REVERT JUMPDEST POP PUSH2 0x4CE PUSH2 0xC73 JUMP JUMPDEST PUSH1 0x40 MLOAD PUSH2 0x4DB SWAP2 SWAP1 PUSH2 0x2405 JUMP JUMPDEST PUSH1 0x40 MLOAD DUP1 SWAP2 SUB SWAP1 RETURN JUMPDEST CALLVALUE DUP1 ISZERO PUSH2 0x4F0 JUMPI PUSH1 0x0 DUP1 REVERT JUMPDEST POP PUSH2 0x50B PUSH1 0x4 DUP1 CALLDATASIZE SUB DUP2 ADD SWAP1 PUSH2 0x506 SWAP2 SWAP1 PUSH2 0x27E2 JUMP JUMPDEST PUSH2 0xD05 JUMP JUMPDEST STOP JUMPDEST CALLVALUE DUP1 ISZERO PUSH2 0x519 JUMPI PUSH1 0x0 DUP1 REVERT JUMPDEST POP PUSH2 0x522 PUSH2 0xD1B JUMP JUMPDEST STOP JUMPDEST CALLVALUE DUP1 ISZERO PUSH2 0x530 JUMPI PUSH1 0x0 DUP1 REVERT JUMPDEST POP PUSH2 0x54B PUSH1 0x4 DUP1 CALLDATASIZE SUB DUP2 ADD SWAP1 PUSH2 0x546 SWAP2 SWAP1 PUSH2 0x2957 JUMP JUMPDEST PUSH2 0xD72 JUMP JUMPDEST STOP JUMPDEST CALLVALUE DUP1 ISZERO PUSH2 0x559 JUMPI PUSH1 0x0 DUP1 REVERT JUMPDEST POP PUSH2 0x574 PUSH1 0x4 DUP1 CALLDATASIZE SUB DUP2 ADD SWAP1 PUSH2 0x56F SWAP2 SWAP1 PUSH2 0x245D JUMP JUMPDEST PUSH2 0xD8F JUMP JUMPDEST PUSH1 0x40 MLOAD PUSH2 0x581 SWAP2 SWAP1 PUSH2 0x2405 JUMP JUMPDEST PUSH1 0x40 MLOAD DUP1 SWAP2 SUB SWAP1 RETURN JUMPDEST CALLVALUE DUP1 ISZERO PUSH2 0x596 JUMPI PUSH1 0x0 DUP1 REVERT JUMPDEST POP PUSH2 0x5B1 PUSH1 0x4 DUP1 CALLDATASIZE SUB DUP2 ADD SWAP1 PUSH2 0x5AC SWAP2 SWAP1 PUSH2 0x29DA JUMP JUMPDEST PUSH2 0xEA2 JUMP JUMPDEST PUSH1 0x40 MLOAD PUSH2 0x5BE SWAP2 SWAP1 PUSH2 0x235A JUMP JUMPDEST PUSH1 0x40 MLOAD DUP1 SWAP2 SUB SWAP1 RETURN JUMPDEST CALLVALUE DUP1 ISZERO PUSH2 0x5D3 JUMPI PUSH1 0x0 DUP1 REVERT JUMPDEST POP PUSH2 0x5EE PUSH1 0x4 DUP1 CALLDATASIZE SUB DUP2 ADD SWAP1 PUSH2 0x5E9 SWAP2 SWAP1 PUSH2 0x2ABB JUMP JUMPDEST PUSH2 0xF36 JUMP JUMPDEST PUSH1 0x40 MLOAD PUSH2 0x5FB SWAP2 SWAP1 PUSH2 0x25B4 JUMP JUMPDEST PUSH1 0x40 MLOAD DUP1 SWAP2 SUB SWAP1 RETURN JUMPDEST CALLVALUE DUP1 ISZERO PUSH2 0x610 JUMPI PUSH1 0x0 DUP1 REVERT JUMPDEST POP PUSH2 0x62B PUSH1 0x4 DUP1 CALLDATASIZE SUB DUP2 ADD SWAP1 PUSH2 0x626 SWAP2 SWAP1 PUSH2 0x2789 JUMP JUMPDEST PUSH2 0xFFC JUMP JUMPDEST STOP JUMPDEST PUSH1 0x0 PUSH4 0x49064906 PUSH1 0xE0 SHL PUSH28 0xFFFFFFFFFFFFFFFFFFFFFFFFFFFFFFFFFFFFFFFFFFFFFFFFFFFFFFFF NOT AND DUP3 PUSH28 0xFFFFFFFFFFFFFFFFFFFFFFFFFFFFFFFFFFFFFFFFFFFFFFFFFFFFFFFF NOT AND EQ DUP1 PUSH2 0x687 JUMPI POP PUSH2 0x686 DUP3 PUSH2 0x1082 JUMP JUMPDEST JUMPDEST SWAP1 POP SWAP2 SWAP1 POP JUMP JUMPDEST PUSH1 0x60 PUSH1 0x0 DUP1 SLOAD PUSH2 0x69D SWAP1 PUSH2 0x2B33 JUMP JUMPDEST DUP1 PUSH1 0x1F ADD PUSH1 0x20 DUP1 SWAP2 DIV MUL PUSH1 0x20 ADD PUSH1 0x40 MLOAD SWAP1 DUP2 ADD PUSH1 0x40 MSTORE DUP1 SWAP3 SWAP2 SWAP1 DUP2 DUP2 MSTORE PUSH1 0x20 ADD DUP3 DUP1 SLOAD PUSH2 0x6C9 SWAP1 PUSH2 0x2B33 JUMP JUMPDEST DUP1 ISZERO PUSH2 0x716 JUMPI DUP1 PUSH1 0x1F LT PUSH2 0x6EB JUMPI PUSH2 0x100 DUP1 DUP4 SLOAD DIV MUL DUP4 MSTORE SWAP2 PUSH1 0x20 ADD SWAP2 PUSH2 0x716 JUMP JUMPDEST DUP3 ADD SWAP2 SWAP1 PUSH1 0x0 MSTORE PUSH1 0x20 PUSH1 0x0 KECCAK256 SWAP1 JUMPDEST DUP2 SLOAD DUP2 MSTORE SWAP1 PUSH1 0x1 ADD SWAP1 PUSH1 0x20 ADD DUP1 DUP4 GT PUSH2 0x6F9 JUMPI DUP3 SWAP1 SUB PUSH1 0x1F AND DUP3 ADD SWAP2 JUMPDEST POP POP POP POP POP SWAP1 POP SWAP1 JUMP JUMPDEST PUSH1 0x0 PUSH2 0x72B DUP3 PUSH2 0x1164 JUMP JUMPDEST POP PUSH2 0x735 DUP3 PUSH2 0x11EC JUMP JUMPDEST SWAP1 POP SWAP2 SWAP1 POP JUMP JUMPDEST PUSH2 0x74E DUP3 DUP3 PUSH2 0x749 PUSH2 0x1229 JUMP JUMPDEST PUSH2 0x1231 JUMP JUMPDEST POP POP JUMP JUMPDEST PUSH1 0x0 PUSH20 0xFFFFFFFFFFFFFFFFFFFFFFFFFFFFFFFFFFFFFFFF AND DUP3 PUSH20 0xFFFFFFFFFFFFFFFFFFFFFFFFFFFFFFFFFFFFFFFF AND SUB PUSH2 0x7C4 JUMPI PUSH1 0x0 PUSH1 0x40 MLOAD PUSH32 0x64A0AE9200000000000000000000000000000000000000000000000000000000 DUP2 MSTORE PUSH1 0x4 ADD PUSH2 0x7BB SWAP2 SWAP1 PUSH2 0x24CB JUMP JUMPDEST PUSH1 0x40 MLOAD DUP1 SWAP2 SUB SWAP1 REVERT JUMPDEST PUSH1 0x0 PUSH2 0x7D8 DUP4 DUP4 PUSH2 0x7D3 PUSH2 0x1229 JUMP JUMPDEST PUSH2 0x1243 JUMP JUMPDEST SWAP1 POP DUP4 PUSH20 0xFFFFFFFFFFFFFFFFFFFFFFFFFFFFFFFFFFFFFFFF AND DUP2 PUSH20 0xFFFFFFFFFFFFFFFFFFFFFFFFFFFFFFFFFFFFFFFF AND EQ PUSH2 0x84E JUMPI DUP4 DUP3 DUP3 PUSH1 0x40 MLOAD PUSH32 0x64283D7B00000000000000000000000000000000000000000000000000000000 DUP2 MSTORE PUSH1 0x4 ADD PUSH2 0x845 SWAP4 SWAP3 SWAP2 SWAP1 PUSH2 0x2B64 JUMP JUMPDEST PUSH1 0x40 MLOAD DUP1 SWAP2 SUB SWAP1 REVERT JUMPDEST POP POP POP POP JUMP JUMPDEST PUSH2 0x85C PUSH2 0x145D JUMP JUMPDEST DUP1 PUSH1 0xB DUP2 SWAP1 SSTORE POP POP JUMP JUMPDEST PUSH1 0xC SLOAD DUP2 JUMP JUMPDEST PUSH1 0xB SLOAD DUP2 JUMP JUMPDEST PUSH2 0x88D DUP4 DUP4 DUP4 PUSH1 0x40 MLOAD DUP1 PUSH1 0x20 ADD PUSH1 0x40 MSTORE DUP1 PUSH1 0x0 DUP2 MSTORE POP PUSH2 0xD72 JUMP JUMPDEST POP POP POP JUMP JUMPDEST PUSH1 0x60 PUSH1 0xD PUSH1 0x0 DUP1 PUSH20 0xFFFFFFFFFFFFFFFFFFFFFFFFFFFFFFFFFFFFFFFF AND PUSH20 0xFFFFFFFFFFFFFFFFFFFFFFFFFFFFFFFFFFFFFFFF AND DUP2 MSTORE PUSH1 0x20 ADD SWAP1 DUP2 MSTORE PUSH1 0x20 ADD PUSH1 0x0 KECCAK256 DUP1 SLOAD DUP1 PUSH1 0x20 MUL PUSH1 0x20 ADD PUSH1 0x40 MLOAD SWAP1 DUP2 ADD PUSH1 0x40 MSTORE DUP1 SWAP3 SWAP2 SWAP1 DUP2 DUP2 MSTORE PUSH1 0x20 ADD PUSH1 0x0 SWAP1 JUMPDEST DUP3 DUP3 LT ISZERO PUSH2 0x9C1 JUMPI DUP4 DUP3 SWAP1 PUSH1 0x0 MSTORE PUSH1 0x20 PUSH1 0x0 KECCAK256 SWAP1 PUSH1 0x2 MUL ADD PUSH1 0x40 MLOAD DUP1 PUSH1 0x40 ADD PUSH1 0x40 MSTORE SWAP1 DUP2 PUSH1 0x0 DUP3 ADD SLOAD DUP2 MSTORE PUSH1 0x20 ADD PUSH1 0x1 DUP3 ADD DUP1 SLOAD PUSH2 0x930 SWAP1 PUSH2 0x2B33 JUMP JUMPDEST DUP1 PUSH1 0x1F ADD PUSH1 0x20 DUP1 SWAP2 DIV MUL PUSH1 0x20 ADD PUSH1 0x40 MLOAD SWAP1 DUP2 ADD PUSH1 0x40 MSTORE DUP1 SWAP3 SWAP2 SWAP1 DUP2 DUP2 MSTORE PUSH1 0x20 ADD DUP3 DUP1 SLOAD PUSH2 0x95C SWAP1 PUSH2 0x2B33 JUMP JUMPDEST DUP1 ISZERO PUSH2 0x9A9 JUMPI DUP1 PUSH1 0x1F LT PUSH2 0x97E JUMPI PUSH2 0x100 DUP1 DUP4 SLOAD DIV MUL DUP4 MSTORE SWAP2 PUSH1 0x20 ADD SWAP2 PUSH2 0x9A9 JUMP JUMPDEST DUP3 ADD SWAP2 SWAP1 PUSH1 0x0 MSTORE PUSH1 0x20 PUSH1 0x0 KECCAK256 SWAP1 JUMPDEST DUP2 SLOAD DUP2 MSTORE SWAP1 PUSH1 0x1 ADD SWAP1 PUSH1 0x20 ADD DUP1 DUP4 GT PUSH2 0x98C JUMPI DUP3 SWAP1 SUB PUSH1 0x1F AND DUP3 ADD SWAP2 JUMPDEST POP POP POP POP POP DUP2 MSTORE POP POP DUP2 MSTORE PUSH1 0x20 ADD SWAP1 PUSH1 0x1 ADD SWAP1 PUSH2 0x8F3 JUMP JUMPDEST POP POP POP POP SWAP1 POP SWAP1 JUMP JUMPDEST PUSH1 0x0 PUSH2 0x9D5 DUP3 PUSH2 0x1164 JUMP JUMPDEST SWAP1 POP SWAP2 SWAP1 POP JUMP JUMPDEST PUSH1 0x0 CALLVALUE PUSH1 0xA SLOAD GT ISZERO PUSH2 0xA23 JUMPI PUSH1 0x40 MLOAD PUSH32 0x8C379A000000000000000000000000000000000000000000000000000000000 DUP2 MSTORE PUSH1 0x4 ADD PUSH2 0xA1A SWAP1 PUSH2 0x2BE7 JUMP JUMPDEST PUSH1 0x40 MLOAD DUP1 SWAP2 SUB SWAP1 REVERT JUMPDEST PUSH1 0xB SLOAD PUSH1 0xD PUSH1 0x0 DUP5 PUSH20 0xFFFFFFFFFFFFFFFFFFFFFFFFFFFFFFFFFFFFFFFF AND PUSH20 0xFFFFFFFFFFFFFFFFFFFFFFFFFFFFFFFFFFFFFFFF AND DUP2 MSTORE PUSH1 0x20 ADD SWAP1 DUP2 MSTORE PUSH1 0x20 ADD PUSH1 0x0 KECCAK256 DUP1 SLOAD SWAP1 POP LT PUSH2 0xAA9 JUMPI PUSH1 0x40 MLOAD PUSH32 0x8C379A000000000000000000000000000000000000000000000000000000000 DUP2 MSTORE PUSH1 0x4 ADD PUSH2 0xAA0 SWAP1 PUSH2 0x2C79 JUMP JUMPDEST PUSH1 0x40 MLOAD DUP1 SWAP2 SUB SWAP1 REVERT JUMPDEST PUSH1 0xC SLOAD PUSH1 0x1 PUSH1 0x9 SLOAD PUSH2 0xABB SWAP2 SWAP1 PUSH2 0x2CC8 JUMP JUMPDEST GT ISZERO PUSH2 0xAFC JUMPI PUSH1 0x40 MLOAD PUSH32 0x8C379A000000000000000000000000000000000000000000000000000000000 DUP2 MSTORE PUSH1 0x4 ADD PUSH2 0xAF3 SWAP1 PUSH2 0x2D48 JUMP JUMPDEST PUSH1 0x40 MLOAD DUP1 SWAP2 SUB SWAP1 REVERT JUMPDEST PUSH1 0x0 PUSH2 0xB09 DUP5 PUSH1 0x0 PUSH2 0x14E4 JUMP JUMPDEST SWAP1 POP PUSH2 0xB19 DUP4 DUP3 PUSH1 0x0 ADD MLOAD PUSH2 0x16B9 JUMP JUMPDEST PUSH2 0xB2B DUP2 PUSH1 0x0 ADD MLOAD DUP3 PUSH1 0x20 ADD MLOAD PUSH2 0x17B2 JUMP JUMPDEST PUSH1 0x9 PUSH1 0x0 DUP2 SLOAD DUP1 SWAP3 SWAP2 SWAP1 PUSH2 0xB3E SWAP1 PUSH2 0x2D68 JUMP JUMPDEST SWAP2 SWAP1 POP SSTORE POP DUP1 PUSH1 0x0 ADD MLOAD SWAP2 POP POP SWAP3 SWAP2 POP POP JUMP JUMPDEST PUSH2 0xB59 PUSH2 0x145D JUMP JUMPDEST DUP1 PUSH1 0xC DUP2 SWAP1 SSTORE POP POP JUMP JUMPDEST PUSH1 0x0 DUP1 PUSH20 0xFFFFFFFFFFFFFFFFFFFFFFFFFFFFFFFFFFFFFFFF AND DUP3 PUSH20 0xFFFFFFFFFFFFFFFFFFFFFFFFFFFFFFFFFFFFFFFF AND SUB PUSH2 0xBD6 JUMPI PUSH1 0x0 PUSH1 0x40 MLOAD PUSH32 0x89C62B6400000000000000000000000000000000000000000000000000000000 DUP2 MSTORE PUSH1 0x4 ADD PUSH2 0xBCD SWAP2 SWAP1 PUSH2 0x24CB JUMP JUMPDEST PUSH1 0x40 MLOAD DUP1 SWAP2 SUB SWAP1 REVERT JUMPDEST PUSH1 0x3 PUSH1 0x0 DUP4 PUSH20 0xFFFFFFFFFFFFFFFFFFFFFFFFFFFFFFFFFFFFFFFF AND PUSH20 0xFFFFFFFFFFFFFFFFFFFFFFFFFFFFFFFFFFFFFFFF AND DUP2 MSTORE PUSH1 0x20 ADD SWAP1 DUP2 MSTORE PUSH1 0x20 ADD PUSH1 0x0 KECCAK256 SLOAD SWAP1 POP SWAP2 SWAP1 POP JUMP JUMPDEST PUSH2 0xC25 PUSH2 0x145D JUMP JUMPDEST PUSH2 0xC2F PUSH1 0x0 PUSH2 0x180E JUMP JUMPDEST JUMP JUMPDEST PUSH1 0xA SLOAD DUP2 JUMP JUMPDEST PUSH1 0x0 PUSH1 0x7 PUSH1 0x0 SWAP1 SLOAD SWAP1 PUSH2 0x100 EXP SWAP1 DIV PUSH20 0xFFFFFFFFFFFFFFFFFFFFFFFFFFFFFFFFFFFFFFFF AND SWAP1 POP SWAP1 JUMP JUMPDEST PUSH2 0xC69 PUSH2 0x145D JUMP JUMPDEST DUP1 PUSH1 0xA DUP2 SWAP1 SSTORE POP POP JUMP JUMPDEST PUSH1 0x60 PUSH1 0x1 DUP1 SLOAD PUSH2 0xC82 SWAP1 PUSH2 0x2B33 JUMP JUMPDEST DUP1 PUSH1 0x1F ADD PUSH1 0x20 DUP1 SWAP2 DIV MUL PUSH1 0x20 ADD PUSH1 0x40 MLOAD SWAP1 DUP2 ADD PUSH1 0x40 MSTORE DUP1 SWAP3 SWAP2 SWAP1 DUP2 DUP2 MSTORE PUSH1 0x20 ADD DUP3 DUP1 SLOAD PUSH2 0xCAE SWAP1 PUSH2 0x2B33 JUMP JUMPDEST DUP1 ISZERO PUSH2 0xCFB JUMPI DUP1 PUSH1 0x1F LT PUSH2 0xCD0 JUMPI PUSH2 0x100 DUP1 DUP4 SLOAD DIV MUL DUP4 MSTORE SWAP2 PUSH1 0x20 ADD SWAP2 PUSH2 0xCFB JUMP JUMPDEST DUP3 ADD SWAP2 SWAP1 PUSH1 0x0 MSTORE PUSH1 0x20 PUSH1 0x0 KECCAK256 SWAP1 JUMPDEST DUP2 SLOAD DUP2 MSTORE SWAP1 PUSH1 0x1 ADD SWAP1 PUSH1 0x20 ADD DUP1 DUP4 GT PUSH2 0xCDE JUMPI DUP3 SWAP1 SUB PUSH1 0x1F AND DUP3 ADD SWAP2 JUMPDEST POP POP POP POP POP SWAP1 POP SWAP1 JUMP JUMPDEST PUSH2 0xD17 PUSH2 0xD10 PUSH2 0x1229 JUMP JUMPDEST DUP4 DUP4 PUSH2 0x18D4 JUMP JUMPDEST POP POP JUMP JUMPDEST PUSH2 0xD23 PUSH2 0x145D JUMP JUMPDEST PUSH1 0x0 CALLER SWAP1 POP DUP1 PUSH20 0xFFFFFFFFFFFFFFFFFFFFFFFFFFFFFFFFFFFFFFFF AND PUSH2 0x8FC SELFBALANCE SWAP1 DUP2 ISZERO MUL SWAP1 PUSH1 0x40 MLOAD PUSH1 0x0 PUSH1 0x40 MLOAD DUP1 DUP4 SUB DUP2 DUP6 DUP9 DUP9 CALL SWAP4 POP POP POP POP ISZERO DUP1 ISZERO PUSH2 0xD6E JUMPI RETURNDATASIZE PUSH1 0x0 DUP1 RETURNDATACOPY RETURNDATASIZE PUSH1 0x0 REVERT JUMPDEST POP POP JUMP JUMPDEST PUSH2 0xD7D DUP5 DUP5 DUP5 PUSH2 0x752 JUMP JUMPDEST PUSH2 0xD89 DUP5 DUP5 DUP5 DUP5 PUSH2 0x1A43 JUMP JUMPDEST POP POP POP POP JUMP JUMPDEST PUSH1 0x60 PUSH2 0xD9A DUP3 PUSH2 0x1164 JUMP JUMPDEST POP PUSH1 0x0 PUSH1 0x6 PUSH1 0x0 DUP5 DUP2 MSTORE PUSH1 0x20 ADD SWAP1 DUP2 MSTORE PUSH1 0x20 ADD PUSH1 0x0 KECCAK256 DUP1 SLOAD PUSH2 0xDBB SWAP1 PUSH2 0x2B33 JUMP JUMPDEST DUP1 PUSH1 0x1F ADD PUSH1 0x20 DUP1 SWAP2 DIV MUL PUSH1 0x20 ADD PUSH1 0x40 MLOAD SWAP1 DUP2 ADD PUSH1 0x40 MSTORE DUP1 SWAP3 SWAP2 SWAP1 DUP2 DUP2 MSTORE PUSH1 0x20 ADD DUP3 DUP1 SLOAD PUSH2 0xDE7 SWAP1 PUSH2 0x2B33 JUMP JUMPDEST DUP1 ISZERO PUSH2 0xE34 JUMPI DUP1 PUSH1 0x1F LT PUSH2 0xE09 JUMPI PUSH2 0x100 DUP1 DUP4 SLOAD DIV MUL DUP4 MSTORE SWAP2 PUSH1 0x20 ADD SWAP2 PUSH2 0xE34 JUMP JUMPDEST DUP3 ADD SWAP2 SWAP1 PUSH1 0x0 MSTORE PUSH1 0x20 PUSH1 0x0 KECCAK256 SWAP1 JUMPDEST DUP2 SLOAD DUP2 MSTORE SWAP1 PUSH1 0x1 ADD SWAP1 PUSH1 0x20 ADD DUP1 DUP4 GT PUSH2 0xE17 JUMPI DUP3 SWAP1 SUB PUSH1 0x1F AND DUP3 ADD SWAP2 JUMPDEST POP POP POP POP POP SWAP1 POP PUSH1 0x0 PUSH2 0xE45 PUSH2 0x1BFA JUMP JUMPDEST SWAP1 POP PUSH1 0x0 DUP2 MLOAD SUB PUSH2 0xE5A JUMPI DUP2 SWAP3 POP POP POP PUSH2 0xE9D JUMP JUMPDEST PUSH1 0x0 DUP3 MLOAD GT ISZERO PUSH2 0xE8F JUMPI DUP1 DUP3 PUSH1 0x40 MLOAD PUSH1 0x20 ADD PUSH2 0xE77 SWAP3 SWAP2 SWAP1 PUSH2 0x2DEC JUMP JUMPDEST PUSH1 0x40 MLOAD PUSH1 0x20 DUP2 DUP4 SUB SUB DUP2 MSTORE SWAP1 PUSH1 0x40 MSTORE SWAP3 POP POP POP PUSH2 0xE9D JUMP JUMPDEST PUSH2 0xE98 DUP5 PUSH2 0x1C11 JUMP JUMPDEST SWAP3 POP POP POP JUMPDEST SWAP2 SWAP1 POP JUMP JUMPDEST PUSH1 0x0 PUSH1 0x5 PUSH1 0x0 DUP5 PUSH20 0xFFFFFFFFFFFFFFFFFFFFFFFFFFFFFFFFFFFFFFFF AND PUSH20 0xFFFFFFFFFFFFFFFFFFFFFFFFFFFFFFFFFFFFFFFF AND DUP2 MSTORE PUSH1 0x20 ADD SWAP1 DUP2 MSTORE PUSH1 0x20 ADD PUSH1 0x0 KECCAK256 PUSH1 0x0 DUP4 PUSH20 0xFFFFFFFFFFFFFFFFFFFFFFFFFFFFFFFFFFFFFFFF AND PUSH20 0xFFFFFFFFFFFFFFFFFFFFFFFFFFFFFFFFFFFFFFFF AND DUP2 MSTORE PUSH1 0x20 ADD SWAP1 DUP2 MSTORE PUSH1 0x20 ADD PUSH1 0x0 KECCAK256 PUSH1 0x0 SWAP1 SLOAD SWAP1 PUSH2 0x100 EXP SWAP1 DIV PUSH1 0xFF AND SWAP1 POP SWAP3 SWAP2 POP POP JUMP JUMPDEST PUSH1 0x0 DUP1 PUSH1 0x40 MLOAD DUP1 PUSH1 0x40 ADD PUSH1 0x40 MSTORE DUP1 PUSH1 0x8 SLOAD DUP2 MSTORE PUSH1 0x20 ADD DUP5 DUP2 MSTORE POP SWAP1 POP PUSH1 0xD PUSH1 0x0 DUP1 PUSH20 0xFFFFFFFFFFFFFFFFFFFFFFFFFFFFFFFFFFFFFFFF AND PUSH20 0xFFFFFFFFFFFFFFFFFFFFFFFFFFFFFFFFFFFFFFFF AND DUP2 MSTORE PUSH1 0x20 ADD SWAP1 DUP2 MSTORE PUSH1 0x20 ADD PUSH1 0x0 KECCAK256 DUP2 SWAP1 DUP1 PUSH1 0x1 DUP2 SLOAD ADD DUP1 DUP3 SSTORE DUP1 SWAP2 POP POP PUSH1 0x1 SWAP1 SUB SWAP1 PUSH1 0x0 MSTORE PUSH1 0x20 PUSH1 0x0 KECCAK256 SWAP1 PUSH1 0x2 MUL ADD PUSH1 0x0 SWAP1 SWAP2 SWAP1 SWAP2 SWAP1 SWAP2 POP PUSH1 0x0 DUP3 ADD MLOAD DUP2 PUSH1 0x0 ADD SSTORE PUSH1 0x20 DUP3 ADD MLOAD DUP2 PUSH1 0x1 ADD SWAP1 DUP2 PUSH2 0xFDA SWAP2 SWAP1 PUSH2 0x2FBC JUMP JUMPDEST POP POP POP PUSH1 0x8 PUSH1 0x0 DUP2 SLOAD DUP1 SWAP3 SWAP2 SWAP1 PUSH2 0xFF0 SWAP1 PUSH2 0x2D68 JUMP JUMPDEST SWAP2 SWAP1 POP SSTORE SWAP2 POP POP SWAP2 SWAP1 POP JUMP JUMPDEST PUSH2 0x1004 PUSH2 0x145D JUMP JUMPDEST PUSH1 0x0 PUSH20 0xFFFFFFFFFFFFFFFFFFFFFFFFFFFFFFFFFFFFFFFF AND DUP2 PUSH20 0xFFFFFFFFFFFFFFFFFFFFFFFFFFFFFFFFFFFFFFFF AND SUB PUSH2 0x1076 JUMPI PUSH1 0x0 PUSH1 0x40 MLOAD PUSH32 0x1E4FBDF700000000000000000000000000000000000000000000000000000000 DUP2 MSTORE PUSH1 0x4 ADD PUSH2 0x106D SWAP2 SWAP1 PUSH2 0x24CB JUMP JUMPDEST PUSH1 0x40 MLOAD DUP1 SWAP2 SUB SWAP1 REVERT JUMPDEST PUSH2 0x107F DUP2 PUSH2 0x180E JUMP JUMPDEST POP JUMP JUMPDEST PUSH1 0x0 PUSH32 0x80AC58CD00000000000000000000000000000000000000000000000000000000 PUSH28 0xFFFFFFFFFFFFFFFFFFFFFFFFFFFFFFFFFFFFFFFFFFFFFFFFFFFFFFFF NOT AND DUP3 PUSH28 0xFFFFFFFFFFFFFFFFFFFFFFFFFFFFFFFFFFFFFFFFFFFFFFFFFFFFFFFF NOT AND EQ DUP1 PUSH2 0x114D JUMPI POP PUSH32 0x5B5E139F00000000000000000000000000000000000000000000000000000000 PUSH28 0xFFFFFFFFFFFFFFFFFFFFFFFFFFFFFFFFFFFFFFFFFFFFFFFFFFFFFFFF NOT AND DUP3 PUSH28 0xFFFFFFFFFFFFFFFFFFFFFFFFFFFFFFFFFFFFFFFFFFFFFFFFFFFFFFFF NOT AND EQ JUMPDEST DUP1 PUSH2 0x115D JUMPI POP PUSH2 0x115C DUP3 PUSH2 0x1C7A JUMP JUMPDEST JUMPDEST SWAP1 POP SWAP2 SWAP1 POP JUMP JUMPDEST PUSH1 0x0 DUP1 PUSH2 0x1170 DUP4 PUSH2 0x1CE4 JUMP JUMPDEST SWAP1 POP PUSH1 0x0 PUSH20 0xFFFFFFFFFFFFFFFFFFFFFFFFFFFFFFFFFFFFFFFF AND DUP2 PUSH20 0xFFFFFFFFFFFFFFFFFFFFFFFFFFFFFFFFFFFFFFFF AND SUB PUSH2 0x11E3 JUMPI DUP3 PUSH1 0x40 MLOAD PUSH32 0x7E27328900000000000000000000000000000000000000000000000000000000 DUP2 MSTORE PUSH1 0x4 ADD PUSH2 0x11DA SWAP2 SWAP1 PUSH2 0x25B4 JUMP JUMPDEST PUSH1 0x40 MLOAD DUP1 SWAP2 SUB SWAP1 REVERT JUMPDEST DUP1 SWAP2 POP POP SWAP2 SWAP1 POP JUMP JUMPDEST PUSH1 0x0 PUSH1 0x4 PUSH1 0x0 DUP4 DUP2 MSTORE PUSH1 0x20 ADD SWAP1 DUP2 MSTORE PUSH1 0x20 ADD PUSH1 0x0 KECCAK256 PUSH1 0x0 SWAP1 SLOAD SWAP1 PUSH2 0x100 EXP SWAP1 DIV PUSH20 0xFFFFFFFFFFFFFFFFFFFFFFFFFFFFFFFFFFFFFFFF AND SWAP1 POP SWAP2 SWAP1 POP JUMP JUMPDEST PUSH1 0x0 CALLER SWAP1 POP SWAP1 JUMP JUMPDEST PUSH2 0x123E DUP4 DUP4 DUP4 PUSH1 0x1 PUSH2 0x1D21 JUMP JUMPDEST POP POP POP JUMP JUMPDEST PUSH1 0x0 DUP1 PUSH2 0x124F DUP5 PUSH2 0x1CE4 JUMP JUMPDEST SWAP1 POP PUSH1 0x0 PUSH20 0xFFFFFFFFFFFFFFFFFFFFFFFFFFFFFFFFFFFFFFFF AND DUP4 PUSH20 0xFFFFFFFFFFFFFFFFFFFFFFFFFFFFFFFFFFFFFFFF AND EQ PUSH2 0x1291 JUMPI PUSH2 0x1290 DUP2 DUP5 DUP7 PUSH2 0x1EE6 JUMP JUMPDEST JUMPDEST PUSH1 0x0 PUSH20 0xFFFFFFFFFFFFFFFFFFFFFFFFFFFFFFFFFFFFFFFF AND DUP2 PUSH20 0xFFFFFFFFFFFFFFFFFFFFFFFFFFFFFFFFFFFFFFFF AND EQ PUSH2 0x1322 JUMPI PUSH2 0x12D3 PUSH1 0x0 DUP6 PUSH1 0x0 DUP1 PUSH2 0x1D21 JUMP JUMPDEST PUSH1 0x1 PUSH1 0x3 PUSH1 0x0 DUP4 PUSH20 0xFFFFFFFFFFFFFFFFFFFFFFFFFFFFFFFFFFFFFFFF AND PUSH20 0xFFFFFFFFFFFFFFFFFFFFFFFFFFFFFFFFFFFFFFFF AND DUP2 MSTORE PUSH1 0x20 ADD SWAP1 DUP2 MSTORE PUSH1 0x20 ADD PUSH1 0x0 KECCAK256 PUSH1 0x0 DUP3 DUP3 SLOAD SUB SWAP3 POP POP DUP2 SWAP1 SSTORE POP JUMPDEST PUSH1 0x0 PUSH20 0xFFFFFFFFFFFFFFFFFFFFFFFFFFFFFFFFFFFFFFFF AND DUP6 PUSH20 0xFFFFFFFFFFFFFFFFFFFFFFFFFFFFFFFFFFFFFFFF AND EQ PUSH2 0x13A5 JUMPI PUSH1 0x1 PUSH1 0x3 PUSH1 0x0 DUP8 PUSH20 0xFFFFFFFFFFFFFFFFFFFFFFFFFFFFFFFFFFFFFFFF AND PUSH20 0xFFFFFFFFFFFFFFFFFFFFFFFFFFFFFFFFFFFFFFFF AND DUP2 MSTORE PUSH1 0x20 ADD SWAP1 DUP2 MSTORE PUSH1 0x20 ADD PUSH1 0x0 KECCAK256 PUSH1 0x0 DUP3 DUP3 SLOAD ADD SWAP3 POP POP DUP2 SWAP1 SSTORE POP JUMPDEST DUP5 PUSH1 0x2 PUSH1 0x0 DUP7 DUP2 MSTORE PUSH1 0x20 ADD SWAP1 DUP2 MSTORE PUSH1 0x20 ADD PUSH1 0x0 KECCAK256 PUSH1 0x0 PUSH2 0x100 EXP DUP2 SLOAD DUP2 PUSH20 0xFFFFFFFFFFFFFFFFFFFFFFFFFFFFFFFFFFFFFFFF MUL NOT AND SWAP1 DUP4 PUSH20 0xFFFFFFFFFFFFFFFFFFFFFFFFFFFFFFFFFFFFFFFF AND MUL OR SWAP1 SSTORE POP DUP4 DUP6 PUSH20 0xFFFFFFFFFFFFFFFFFFFFFFFFFFFFFFFFFFFFFFFF AND DUP3 PUSH20 0xFFFFFFFFFFFFFFFFFFFFFFFFFFFFFFFFFFFFFFFF AND PUSH32 0xDDF252AD1BE2C89B69C2B068FC378DAA952BA7F163C4A11628F55A4DF523B3EF PUSH1 0x40 MLOAD PUSH1 0x40 MLOAD DUP1 SWAP2 SUB SWAP1 LOG4 DUP1 SWAP2 POP POP SWAP4 SWAP3 POP POP POP JUMP JUMPDEST PUSH2 0x1465 PUSH2 0x1229 JUMP JUMPDEST PUSH20 0xFFFFFFFFFFFFFFFFFFFFFFFFFFFFFFFFFFFFFFFF AND PUSH2 0x1483 PUSH2 0xC37 JUMP JUMPDEST PUSH20 0xFFFFFFFFFFFFFFFFFFFFFFFFFFFFFFFFFFFFFFFF AND EQ PUSH2 0x14E2 JUMPI PUSH2 0x14A6 PUSH2 0x1229 JUMP JUMPDEST PUSH1 0x40 MLOAD PUSH32 0x118CDAA700000000000000000000000000000000000000000000000000000000 DUP2 MSTORE PUSH1 0x4 ADD PUSH2 0x14D9 SWAP2 SWAP1 PUSH2 0x24CB JUMP JUMPDEST PUSH1 0x40 MLOAD DUP1 SWAP2 SUB SWAP1 REVERT JUMPDEST JUMP JUMPDEST PUSH2 0x14EC PUSH2 0x228C JUMP JUMPDEST PUSH1 0x0 PUSH1 0xD PUSH1 0x0 DUP5 PUSH20 0xFFFFFFFFFFFFFFFFFFFFFFFFFFFFFFFFFFFFFFFF AND PUSH20 0xFFFFFFFFFFFFFFFFFFFFFFFFFFFFFFFFFFFFFFFF AND DUP2 MSTORE PUSH1 0x20 ADD SWAP1 DUP2 MSTORE PUSH1 0x20 ADD PUSH1 0x0 KECCAK256 DUP1 SLOAD DUP1 PUSH1 0x20 MUL PUSH1 0x20 ADD PUSH1 0x40 MLOAD SWAP1 DUP2 ADD PUSH1 0x40 MSTORE DUP1 SWAP3 SWAP2 SWAP1 DUP2 DUP2 MSTORE PUSH1 0x20 ADD PUSH1 0x0 SWAP1 JUMPDEST DUP3 DUP3 LT ISZERO PUSH2 0x161B JUMPI DUP4 DUP3 SWAP1 PUSH1 0x0 MSTORE PUSH1 0x20 PUSH1 0x0 KECCAK256 SWAP1 PUSH1 0x2 MUL ADD PUSH1 0x40 MLOAD DUP1 PUSH1 0x40 ADD PUSH1 0x40 MSTORE SWAP1 DUP2 PUSH1 0x0 DUP3 ADD SLOAD DUP2 MSTORE PUSH1 0x20 ADD PUSH1 0x1 DUP3 ADD DUP1 SLOAD PUSH2 0x158A SWAP1 PUSH2 0x2B33 JUMP JUMPDEST DUP1 PUSH1 0x1F ADD PUSH1 0x20 DUP1 SWAP2 DIV MUL PUSH1 0x20 ADD PUSH1 0x40 MLOAD SWAP1 DUP2 ADD PUSH1 0x40 MSTORE DUP1 SWAP3 SWAP2 SWAP1 DUP2 DUP2 MSTORE PUSH1 0x20 ADD DUP3 DUP1 SLOAD PUSH2 0x15B6 SWAP1 PUSH2 0x2B33 JUMP JUMPDEST DUP1 ISZERO PUSH2 0x1603 JUMPI DUP1 PUSH1 0x1F LT PUSH2 0x15D8 JUMPI PUSH2 0x100 DUP1 DUP4 SLOAD DIV MUL DUP4 MSTORE SWAP2 PUSH1 0x20 ADD SWAP2 PUSH2 0x1603 JUMP JUMPDEST DUP3 ADD SWAP2 SWAP1 PUSH1 0x0 MSTORE PUSH1 0x20 PUSH1 0x0 KECCAK256 SWAP1 JUMPDEST DUP2 SLOAD DUP2 MSTORE SWAP1 PUSH1 0x1 ADD SWAP1 PUSH1 0x20 ADD DUP1 DUP4 GT PUSH2 0x15E6 JUMPI DUP3 SWAP1 SUB PUSH1 0x1F AND DUP3 ADD SWAP2 JUMPDEST POP POP POP POP POP DUP2 MSTORE POP POP DUP2 MSTORE PUSH1 0x20 ADD SWAP1 PUSH1 0x1 ADD SWAP1 PUSH2 0x154D JUMP JUMPDEST POP POP POP POP SWAP1 POP PUSH1 0x0 JUMPDEST DUP2 MLOAD DUP2 LT ISZERO PUSH2 0x1689 JUMPI DUP5 DUP3 DUP3 DUP2 MLOAD DUP2 LT PUSH2 0x1641 JUMPI PUSH2 0x1640 PUSH2 0x308E JUMP JUMPDEST JUMPDEST PUSH1 0x20 MUL PUSH1 0x20 ADD ADD MLOAD PUSH1 0x0 ADD MLOAD SUB PUSH2 0x1676 JUMPI DUP2 DUP2 DUP2 MLOAD DUP2 LT PUSH2 0x1665 JUMPI PUSH2 0x1664 PUSH2 0x308E JUMP JUMPDEST JUMPDEST PUSH1 0x20 MUL PUSH1 0x20 ADD ADD MLOAD SWAP3 POP POP POP PUSH2 0x16B3 JUMP JUMPDEST DUP1 DUP1 PUSH2 0x1681 SWAP1 PUSH2 0x2D68 JUMP JUMPDEST SWAP2 POP POP PUSH2 0x1624 JUMP JUMPDEST POP PUSH1 0x40 MLOAD DUP1 PUSH1 0x40 ADD PUSH1 0x40 MSTORE DUP1 PUSH1 0x0 DUP2 MSTORE PUSH1 0x20 ADD PUSH1 0x40 MLOAD DUP1 PUSH1 0x20 ADD PUSH1 0x40 MSTORE DUP1 PUSH1 0x0 DUP2 MSTORE POP DUP2 MSTORE POP SWAP2 POP POP JUMPDEST SWAP3 SWAP2 POP POP JUMP JUMPDEST PUSH1 0x0 PUSH20 0xFFFFFFFFFFFFFFFFFFFFFFFFFFFFFFFFFFFFFFFF AND DUP3 PUSH20 0xFFFFFFFFFFFFFFFFFFFFFFFFFFFFFFFFFFFFFFFF AND SUB PUSH2 0x172B JUMPI PUSH1 0x0 PUSH1 0x40 MLOAD PUSH32 0x64A0AE9200000000000000000000000000000000000000000000000000000000 DUP2 MSTORE PUSH1 0x4 ADD PUSH2 0x1722 SWAP2 SWAP1 PUSH2 0x24CB JUMP JUMPDEST PUSH1 0x40 MLOAD DUP1 SWAP2 SUB SWAP1 REVERT JUMPDEST PUSH1 0x0 PUSH2 0x1739 DUP4 DUP4 PUSH1 0x0 PUSH2 0x1243 JUMP JUMPDEST SWAP1 POP PUSH1 0x0 PUSH20 0xFFFFFFFFFFFFFFFFFFFFFFFFFFFFFFFFFFFFFFFF AND DUP2 PUSH20 0xFFFFFFFFFFFFFFFFFFFFFFFFFFFFFFFFFFFFFFFF AND EQ PUSH2 0x17AD JUMPI PUSH1 0x0 PUSH1 0x40 MLOAD PUSH32 0x73C6AC6E00000000000000000000000000000000000000000000000000000000 DUP2 MSTORE PUSH1 0x4 ADD PUSH2 0x17A4 SWAP2 SWAP1 PUSH2 0x24CB JUMP JUMPDEST PUSH1 0x40 MLOAD DUP1 SWAP2 SUB SWAP1 REVERT JUMPDEST POP POP POP JUMP JUMPDEST DUP1 PUSH1 0x6 PUSH1 0x0 DUP5 DUP2 MSTORE PUSH1 0x20 ADD SWAP1 DUP2 MSTORE PUSH1 0x20 ADD PUSH1 0x0 KECCAK256 SWAP1 DUP2 PUSH2 0x17D2 SWAP2 SWAP1 PUSH2 0x2FBC JUMP JUMPDEST POP PUSH32 0xF8E1A15ABA9398E019F0B49DF1A4FDE98EE17AE345CB5F6B5E2C27F5033E8CE7 DUP3 PUSH1 0x40 MLOAD PUSH2 0x1802 SWAP2 SWAP1 PUSH2 0x25B4 JUMP JUMPDEST PUSH1 0x40 MLOAD DUP1 SWAP2 SUB SWAP1 LOG1 POP POP JUMP JUMPDEST PUSH1 0x0 PUSH1 0x7 PUSH1 0x0 SWAP1 SLOAD SWAP1 PUSH2 0x100 EXP SWAP1 DIV PUSH20 0xFFFFFFFFFFFFFFFFFFFFFFFFFFFFFFFFFFFFFFFF AND SWAP1 POP DUP2 PUSH1 0x7 PUSH1 0x0 PUSH2 0x100 EXP DUP2 SLOAD DUP2 PUSH20 0xFFFFFFFFFFFFFFFFFFFFFFFFFFFFFFFFFFFFFFFF MUL NOT AND SWAP1 DUP4 PUSH20 0xFFFFFFFFFFFFFFFFFFFFFFFFFFFFFFFFFFFFFFFF AND MUL OR SWAP1 SSTORE POP DUP2 PUSH20 0xFFFFFFFFFFFFFFFFFFFFFFFFFFFFFFFFFFFFFFFF AND DUP2 PUSH20 0xFFFFFFFFFFFFFFFFFFFFFFFFFFFFFFFFFFFFFFFF AND PUSH32 0x8BE0079C531659141344CD1FD0A4F28419497F9722A3DAAFE3B4186F6B6457E0 PUSH1 0x40 MLOAD PUSH1 0x40 MLOAD DUP1 SWAP2 SUB SWAP1 LOG3 POP POP JUMP JUMPDEST PUSH1 0x0 PUSH20 0xFFFFFFFFFFFFFFFFFFFFFFFFFFFFFFFFFFFFFFFF AND DUP3 PUSH20 0xFFFFFFFFFFFFFFFFFFFFFFFFFFFFFFFFFFFFFFFF AND SUB PUSH2 0x1945 JUMPI DUP2 PUSH1 0x40 MLOAD PUSH32 0x5B08BA1800000000000000000000000000000000000000000000000000000000 DUP2 MSTORE PUSH1 0x4 ADD PUSH2 0x193C SWAP2 SWAP1 PUSH2 0x24CB JUMP JUMPDEST PUSH1 0x40 MLOAD DUP1 SWAP2 SUB SWAP1 REVERT JUMPDEST DUP1 PUSH1 0x5 PUSH1 0x0 DUP6 PUSH20 0xFFFFFFFFFFFFFFFFFFFFFFFFFFFFFFFFFFFFFFFF AND PUSH20 0xFFFFFFFFFFFFFFFFFFFFFFFFFFFFFFFFFFFFFFFF AND DUP2 MSTORE PUSH1 0x20 ADD SWAP1 DUP2 MSTORE PUSH1 0x20 ADD PUSH1 0x0 KECCAK256 PUSH1 0x0 DUP5 PUSH20 0xFFFFFFFFFFFFFFFFFFFFFFFFFFFFFFFFFFFFFFFF AND PUSH20 0xFFFFFFFFFFFFFFFFFFFFFFFFFFFFFFFFFFFFFFFF AND DUP2 MSTORE PUSH1 0x20 ADD SWAP1 DUP2 MSTORE PUSH1 0x20 ADD PUSH1 0x0 KECCAK256 PUSH1 0x0 PUSH2 0x100 EXP DUP2 SLOAD DUP2 PUSH1 0xFF MUL NOT AND SWAP1 DUP4 ISZERO ISZERO MUL OR SWAP1 SSTORE POP DUP2 PUSH20 0xFFFFFFFFFFFFFFFFFFFFFFFFFFFFFFFFFFFFFFFF AND DUP4 PUSH20 0xFFFFFFFFFFFFFFFFFFFFFFFFFFFFFFFFFFFFFFFF AND PUSH32 0x17307EAB39AB6107E8899845AD3D59BD9653F200F220920489CA2B5937696C31 DUP4 PUSH1 0x40 MLOAD PUSH2 0x1A36 SWAP2 SWAP1 PUSH2 0x235A JUMP JUMPDEST PUSH1 0x40 MLOAD DUP1 SWAP2 SUB SWAP1 LOG3 POP POP POP JUMP JUMPDEST PUSH1 0x0 DUP4 PUSH20 0xFFFFFFFFFFFFFFFFFFFFFFFFFFFFFFFFFFFFFFFF AND EXTCODESIZE GT ISZERO PUSH2 0x1BF4 JUMPI DUP3 PUSH20 0xFFFFFFFFFFFFFFFFFFFFFFFFFFFFFFFFFFFFFFFF AND PUSH4 0x150B7A02 PUSH2 0x1A87 PUSH2 0x1229 JUMP JUMPDEST DUP7 DUP6 DUP6 PUSH1 0x40 MLOAD DUP6 PUSH4 0xFFFFFFFF AND PUSH1 0xE0 SHL DUP2 MSTORE PUSH1 0x4 ADD PUSH2 0x1AA9 SWAP5 SWAP4 SWAP3 SWAP2 SWAP1 PUSH2 0x3112 JUMP JUMPDEST PUSH1 0x20 PUSH1 0x40 MLOAD DUP1 DUP4 SUB DUP2 PUSH1 0x0 DUP8 GAS CALL SWAP3 POP POP POP DUP1 ISZERO PUSH2 0x1AE5 JUMPI POP PUSH1 0x40 MLOAD RETURNDATASIZE PUSH1 0x1F NOT PUSH1 0x1F DUP3 ADD AND DUP3 ADD DUP1 PUSH1 0x40 MSTORE POP DUP2 ADD SWAP1 PUSH2 0x1AE2 SWAP2 SWAP1 PUSH2 0x3173 JUMP JUMPDEST PUSH1 0x1 JUMPDEST PUSH2 0x1B69 JUMPI RETURNDATASIZE DUP1 PUSH1 0x0 DUP2 EQ PUSH2 0x1B15 JUMPI PUSH1 0x40 MLOAD SWAP2 POP PUSH1 0x1F NOT PUSH1 0x3F RETURNDATASIZE ADD AND DUP3 ADD PUSH1 0x40 MSTORE RETURNDATASIZE DUP3 MSTORE RETURNDATASIZE PUSH1 0x0 PUSH1 0x20 DUP5 ADD RETURNDATACOPY PUSH2 0x1B1A JUMP JUMPDEST PUSH1 0x60 SWAP2 POP JUMPDEST POP PUSH1 0x0 DUP2 MLOAD SUB PUSH2 0x1B61 JUMPI DUP4 PUSH1 0x40 MLOAD PUSH32 0x64A0AE9200000000000000000000000000000000000000000000000000000000 DUP2 MSTORE PUSH1 0x4 ADD PUSH2 0x1B58 SWAP2 SWAP1 PUSH2 0x24CB JUMP JUMPDEST PUSH1 0x40 MLOAD DUP1 SWAP2 SUB SWAP1 REVERT JUMPDEST DUP1 MLOAD DUP2 PUSH1 0x20 ADD REVERT JUMPDEST PUSH4 0x150B7A02 PUSH1 0xE0 SHL PUSH28 0xFFFFFFFFFFFFFFFFFFFFFFFFFFFFFFFFFFFFFFFFFFFFFFFFFFFFFFFF NOT AND DUP2 PUSH28 0xFFFFFFFFFFFFFFFFFFFFFFFFFFFFFFFFFFFFFFFFFFFFFFFFFFFFFFFF NOT AND EQ PUSH2 0x1BF2 JUMPI DUP4 PUSH1 0x40 MLOAD PUSH32 0x64A0AE9200000000000000000000000000000000000000000000000000000000 DUP2 MSTORE PUSH1 0x4 ADD PUSH2 0x1BE9 SWAP2 SWAP1 PUSH2 0x24CB JUMP JUMPDEST PUSH1 0x40 MLOAD DUP1 SWAP2 SUB SWAP1 REVERT JUMPDEST POP JUMPDEST POP POP POP POP JUMP JUMPDEST PUSH1 0x60 PUSH1 0x40 MLOAD DUP1 PUSH1 0x20 ADD PUSH1 0x40 MSTORE DUP1 PUSH1 0x0 DUP2 MSTORE POP SWAP1 POP SWAP1 JUMP JUMPDEST PUSH1 0x60 PUSH2 0x1C1C DUP3 PUSH2 0x1164 JUMP JUMPDEST POP PUSH1 0x0 PUSH2 0x1C27 PUSH2 0x1BFA JUMP JUMPDEST SWAP1 POP PUSH1 0x0 DUP2 MLOAD GT PUSH2 0x1C47 JUMPI PUSH1 0x40 MLOAD DUP1 PUSH1 0x20 ADD PUSH1 0x40 MSTORE DUP1 PUSH1 0x0 DUP2 MSTORE POP PUSH2 0x1C72 JUMP JUMPDEST DUP1 PUSH2 0x1C51 DUP5 PUSH2 0x1FAA JUMP JUMPDEST PUSH1 0x40 MLOAD PUSH1 0x20 ADD PUSH2 0x1C62 SWAP3 SWAP2 SWAP1 PUSH2 0x2DEC JUMP JUMPDEST PUSH1 0x40 MLOAD PUSH1 0x20 DUP2 DUP4 SUB SUB DUP2 MSTORE SWAP1 PUSH1 0x40 MSTORE JUMPDEST SWAP2 POP POP SWAP2 SWAP1 POP JUMP JUMPDEST PUSH1 0x0 PUSH32 0x1FFC9A700000000000000000000000000000000000000000000000000000000 PUSH28 0xFFFFFFFFFFFFFFFFFFFFFFFFFFFFFFFFFFFFFFFFFFFFFFFFFFFFFFFF NOT AND DUP3 PUSH28 0xFFFFFFFFFFFFFFFFFFFFFFFFFFFFFFFFFFFFFFFFFFFFFFFFFFFFFFFF NOT AND EQ SWAP1 POP SWAP2 SWAP1 POP JUMP JUMPDEST PUSH1 0x0 PUSH1 0x2 PUSH1 0x0 DUP4 DUP2 MSTORE PUSH1 0x20 ADD SWAP1 DUP2 MSTORE PUSH1 0x20 ADD PUSH1 0x0 KECCAK256 PUSH1 0x0 SWAP1 SLOAD SWAP1 PUSH2 0x100 EXP SWAP1 DIV PUSH20 0xFFFFFFFFFFFFFFFFFFFFFFFFFFFFFFFFFFFFFFFF AND SWAP1 POP SWAP2 SWAP1 POP JUMP JUMPDEST DUP1 DUP1 PUSH2 0x1D5A JUMPI POP PUSH1 0x0 PUSH20 0xFFFFFFFFFFFFFFFFFFFFFFFFFFFFFFFFFFFFFFFF AND DUP3 PUSH20 0xFFFFFFFFFFFFFFFFFFFFFFFFFFFFFFFFFFFFFFFF AND EQ ISZERO JUMPDEST ISZERO PUSH2 0x1E8E JUMPI PUSH1 0x0 PUSH2 0x1D6A DUP5 PUSH2 0x1164 JUMP JUMPDEST SWAP1 POP PUSH1 0x0 PUSH20 0xFFFFFFFFFFFFFFFFFFFFFFFFFFFFFFFFFFFFFFFF AND DUP4 PUSH20 0xFFFFFFFFFFFFFFFFFFFFFFFFFFFFFFFFFFFFFFFF AND EQ ISZERO DUP1 ISZERO PUSH2 0x1DD5 JUMPI POP DUP3 PUSH20 0xFFFFFFFFFFFFFFFFFFFFFFFFFFFFFFFFFFFFFFFF AND DUP2 PUSH20 0xFFFFFFFFFFFFFFFFFFFFFFFFFFFFFFFFFFFFFFFF AND EQ ISZERO JUMPDEST DUP1 ISZERO PUSH2 0x1DE8 JUMPI POP PUSH2 0x1DE6 DUP2 DUP5 PUSH2 0xEA2 JUMP JUMPDEST ISZERO JUMPDEST ISZERO PUSH2 0x1E2A JUMPI DUP3 PUSH1 0x40 MLOAD PUSH32 0xA9FBF51F00000000000000000000000000000000000000000000000000000000 DUP2 MSTORE PUSH1 0x4 ADD PUSH2 0x1E21 SWAP2 SWAP1 PUSH2 0x24CB JUMP JUMPDEST PUSH1 0x40 MLOAD DUP1 SWAP2 SUB SWAP1 REVERT JUMPDEST DUP2 ISZERO PUSH2 0x1E8C JUMPI DUP4 DUP6 PUSH20 0xFFFFFFFFFFFFFFFFFFFFFFFFFFFFFFFFFFFFFFFF AND DUP3 PUSH20 0xFFFFFFFFFFFFFFFFFFFFFFFFFFFFFFFFFFFFFFFF AND PUSH32 0x8C5BE1E5EBEC7D5BD14F71427D1E84F3DD0314C0F7B2291E5B200AC8C7C3B925 PUSH1 0x40 MLOAD PUSH1 0x40 MLOAD DUP1 SWAP2 SUB SWAP1 LOG4 JUMPDEST POP JUMPDEST DUP4 PUSH1 0x4 PUSH1 0x0 DUP6 DUP2 MSTORE PUSH1 0x20 ADD SWAP1 DUP2 MSTORE PUSH1 0x20 ADD PUSH1 0x0 KECCAK256 PUSH1 0x0 PUSH2 0x100 EXP DUP2 SLOAD DUP2 PUSH20 0xFFFFFFFFFFFFFFFFFFFFFFFFFFFFFFFFFFFFFFFF MUL NOT AND SWAP1 DUP4 PUSH20 0xFFFFFFFFFFFFFFFFFFFFFFFFFFFFFFFFFFFFFFFF AND MUL OR SWAP1 SSTORE POP POP POP POP POP JUMP JUMPDEST PUSH2 0x1EF1 DUP4 DUP4 DUP4 PUSH2 0x2078 JUMP JUMPDEST PUSH2 0x1FA5 JUMPI PUSH1 0x0 PUSH20 0xFFFFFFFFFFFFFFFFFFFFFFFFFFFFFFFFFFFFFFFF AND DUP4 PUSH20 0xFFFFFFFFFFFFFFFFFFFFFFFFFFFFFFFFFFFFFFFF AND SUB PUSH2 0x1F66 JUMPI DUP1 PUSH1 0x40 MLOAD PUSH32 0x7E27328900000000000000000000000000000000000000000000000000000000 DUP2 MSTORE PUSH1 0x4 ADD PUSH2 0x1F5D SWAP2 SWAP1 PUSH2 0x25B4 JUMP JUMPDEST PUSH1 0x40 MLOAD DUP1 SWAP2 SUB SWAP1 REVERT JUMPDEST DUP2 DUP2 PUSH1 0x40 MLOAD PUSH32 0x177E802F00000000000000000000000000000000000000000000000000000000 DUP2 MSTORE PUSH1 0x4 ADD PUSH2 0x1F9C SWAP3 SWAP2 SWAP1 PUSH2 0x31A0 JUMP JUMPDEST PUSH1 0x40 MLOAD DUP1 SWAP2 SUB SWAP1 REVERT JUMPDEST POP POP POP JUMP JUMPDEST PUSH1 0x60 PUSH1 0x0 PUSH1 0x1 PUSH2 0x1FB9 DUP5 PUSH2 0x2139 JUMP JUMPDEST ADD SWAP1 POP PUSH1 0x0 DUP2 PUSH8 0xFFFFFFFFFFFFFFFF DUP2 GT ISZERO PUSH2 0x1FD8 JUMPI PUSH2 0x1FD7 PUSH2 0x282C JUMP JUMPDEST JUMPDEST PUSH1 0x40 MLOAD SWAP1 DUP1 DUP3 MSTORE DUP1 PUSH1 0x1F ADD PUSH1 0x1F NOT AND PUSH1 0x20 ADD DUP3 ADD PUSH1 0x40 MSTORE DUP1 ISZERO PUSH2 0x200A JUMPI DUP2 PUSH1 0x20 ADD PUSH1 0x1 DUP3 MUL DUP1 CALLDATASIZE DUP4 CALLDATACOPY DUP1 DUP3 ADD SWAP2 POP POP SWAP1 POP JUMPDEST POP SWAP1 POP PUSH1 0x0 DUP3 PUSH1 0x20 ADD DUP3 ADD SWAP1 POP JUMPDEST PUSH1 0x1 ISZERO PUSH2 0x206D JUMPI DUP1 DUP1 PUSH1 0x1 SWAP1 SUB SWAP2 POP POP PUSH32 0x3031323334353637383961626364656600000000000000000000000000000000 PUSH1 0xA DUP7 MOD BYTE DUP2 MSTORE8 PUSH1 0xA DUP6 DUP2 PUSH2 0x2061 JUMPI PUSH2 0x2060 PUSH2 0x31C9 JUMP JUMPDEST JUMPDEST DIV SWAP5 POP PUSH1 0x0 DUP6 SUB PUSH2 0x2018 JUMPI JUMPDEST DUP2 SWAP4 POP POP POP POP SWAP2 SWAP1 POP JUMP JUMPDEST PUSH1 0x0 DUP1 PUSH20 0xFFFFFFFFFFFFFFFFFFFFFFFFFFFFFFFFFFFFFFFF AND DUP4 PUSH20 0xFFFFFFFFFFFFFFFFFFFFFFFFFFFFFFFFFFFFFFFF AND EQ ISZERO DUP1 ISZERO PUSH2 0x2130 JUMPI POP DUP3 PUSH20 0xFFFFFFFFFFFFFFFFFFFFFFFFFFFFFFFFFFFFFFFF AND DUP5 PUSH20 0xFFFFFFFFFFFFFFFFFFFFFFFFFFFFFFFFFFFFFFFF AND EQ DUP1 PUSH2 0x20F1 JUMPI POP PUSH2 0x20F0 DUP5 DUP5 PUSH2 0xEA2 JUMP JUMPDEST JUMPDEST DUP1 PUSH2 0x212F JUMPI POP DUP3 PUSH20 0xFFFFFFFFFFFFFFFFFFFFFFFFFFFFFFFFFFFFFFFF AND PUSH2 0x2117 DUP4 PUSH2 0x11EC JUMP JUMPDEST PUSH20 0xFFFFFFFFFFFFFFFFFFFFFFFFFFFFFFFFFFFFFFFF AND EQ JUMPDEST JUMPDEST SWAP1 POP SWAP4 SWAP3 POP POP POP JUMP JUMPDEST PUSH1 0x0 DUP1 PUSH1 0x0 SWAP1 POP PUSH27 0x184F03E93FF9F4DAA797ED6E38ED64BF6A1F010000000000000000 DUP4 LT PUSH2 0x2197 JUMPI PUSH27 0x184F03E93FF9F4DAA797ED6E38ED64BF6A1F010000000000000000 DUP4 DUP2 PUSH2 0x218D JUMPI PUSH2 0x218C PUSH2 0x31C9 JUMP JUMPDEST JUMPDEST DIV SWAP3 POP PUSH1 0x40 DUP2 ADD SWAP1 POP JUMPDEST PUSH14 0x4EE2D6D415B85ACEF8100000000 DUP4 LT PUSH2 0x21D4 JUMPI PUSH14 0x4EE2D6D415B85ACEF8100000000 DUP4 DUP2 PUSH2 0x21CA JUMPI PUSH2 0x21C9 PUSH2 0x31C9 JUMP JUMPDEST JUMPDEST DIV SWAP3 POP PUSH1 0x20 DUP2 ADD SWAP1 POP JUMPDEST PUSH7 0x2386F26FC10000 DUP4 LT PUSH2 0x2203 JUMPI PUSH7 0x2386F26FC10000 DUP4 DUP2 PUSH2 0x21F9 JUMPI PUSH2 0x21F8 PUSH2 0x31C9 JUMP JUMPDEST JUMPDEST DIV SWAP3 POP PUSH1 0x10 DUP2 ADD SWAP1 POP JUMPDEST PUSH4 0x5F5E100 DUP4 LT PUSH2 0x222C JUMPI PUSH4 0x5F5E100 DUP4 DUP2 PUSH2 0x2222 JUMPI PUSH2 0x2221 PUSH2 0x31C9 JUMP JUMPDEST JUMPDEST DIV SWAP3 POP PUSH1 0x8 DUP2 ADD SWAP1 POP JUMPDEST PUSH2 0x2710 DUP4 LT PUSH2 0x2251 JUMPI PUSH2 0x2710 DUP4 DUP2 PUSH2 0x2247 JUMPI PUSH2 0x2246 PUSH2 0x31C9 JUMP JUMPDEST JUMPDEST DIV SWAP3 POP PUSH1 0x4 DUP2 ADD SWAP1 POP JUMPDEST PUSH1 0x64 DUP4 LT PUSH2 0x2274 JUMPI PUSH1 0x64 DUP4 DUP2 PUSH2 0x226A JUMPI PUSH2 0x2269 PUSH2 0x31C9 JUMP JUMPDEST JUMPDEST DIV SWAP3 POP PUSH1 0x2 DUP2 ADD SWAP1 POP JUMPDEST PUSH1 0xA DUP4 LT PUSH2 0x2283 JUMPI PUSH1 0x1 DUP2 ADD SWAP1 POP JUMPDEST DUP1 SWAP2 POP POP SWAP2 SWAP1 POP JUMP JUMPDEST PUSH1 0x40 MLOAD DUP1 PUSH1 0x40 ADD PUSH1 0x40 MSTORE DUP1 PUSH1 0x0 DUP2 MSTORE PUSH1 0x20 ADD PUSH1 0x60 DUP2 MSTORE POP SWAP1 JUMP JUMPDEST PUSH1 0x0 PUSH1 0x40 MLOAD SWAP1 POP SWAP1 JUMP JUMPDEST PUSH1 0x0 DUP1 REVERT JUMPDEST PUSH1 0x0 DUP1 REVERT JUMPDEST PUSH1 0x0 PUSH32 0xFFFFFFFF00000000000000000000000000000000000000000000000000000000 DUP3 AND SWAP1 POP SWAP2 SWAP1 POP JUMP JUMPDEST PUSH2 0x22EF DUP2 PUSH2 0x22BA JUMP JUMPDEST DUP2 EQ PUSH2 0x22FA JUMPI PUSH1 0x0 DUP1 REVERT JUMPDEST POP JUMP JUMPDEST PUSH1 0x0 DUP2 CALLDATALOAD SWAP1 POP PUSH2 0x230C DUP2 PUSH2 0x22E6 JUMP JUMPDEST SWAP3 SWAP2 POP POP JUMP JUMPDEST PUSH1 0x0 PUSH1 0x20 DUP3 DUP5 SUB SLT ISZERO PUSH2 0x2328 JUMPI PUSH2 0x2327 PUSH2 0x22B0 JUMP JUMPDEST JUMPDEST PUSH1 0x0 PUSH2 0x2336 DUP5 DUP3 DUP6 ADD PUSH2 0x22FD JUMP JUMPDEST SWAP2 POP POP SWAP3 SWAP2 POP POP JUMP JUMPDEST PUSH1 0x0 DUP2 ISZERO ISZERO SWAP1 POP SWAP2 SWAP1 POP JUMP JUMPDEST PUSH2 0x2354 DUP2 PUSH2 0x233F JUMP JUMPDEST DUP3 MSTORE POP POP JUMP JUMPDEST PUSH1 0x0 PUSH1 0x20 DUP3 ADD SWAP1 POP PUSH2 0x236F PUSH1 0x0 DUP4 ADD DUP5 PUSH2 0x234B JUMP JUMPDEST SWAP3 SWAP2 POP POP JUMP JUMPDEST PUSH1 0x0 DUP2 MLOAD SWAP1 POP SWAP2 SWAP1 POP JUMP JUMPDEST PUSH1 0x0 DUP3 DUP3 MSTORE PUSH1 0x20 DUP3 ADD SWAP1 POP SWAP3 SWAP2 POP POP JUMP JUMPDEST PUSH1 0x0 JUMPDEST DUP4 DUP2 LT ISZERO PUSH2 0x23AF JUMPI DUP1 DUP3 ADD MLOAD DUP2 DUP5 ADD MSTORE PUSH1 0x20 DUP2 ADD SWAP1 POP PUSH2 0x2394 JUMP JUMPDEST PUSH1 0x0 DUP5 DUP5 ADD MSTORE POP POP POP POP JUMP JUMPDEST PUSH1 0x0 PUSH1 0x1F NOT PUSH1 0x1F DUP4 ADD AND SWAP1 POP SWAP2 SWAP1 POP JUMP JUMPDEST PUSH1 0x0 PUSH2 0x23D7 DUP3 PUSH2 0x2375 JUMP JUMPDEST PUSH2 0x23E1 DUP2 DUP6 PUSH2 0x2380 JUMP JUMPDEST SWAP4 POP PUSH2 0x23F1 DUP2 DUP6 PUSH1 0x20 DUP7 ADD PUSH2 0x2391 JUMP JUMPDEST PUSH2 0x23FA DUP2 PUSH2 0x23BB JUMP JUMPDEST DUP5 ADD SWAP2 POP POP SWAP3 SWAP2 POP POP JUMP JUMPDEST PUSH1 0x0 PUSH1 0x20 DUP3 ADD SWAP1 POP DUP2 DUP2 SUB PUSH1 0x0 DUP4 ADD MSTORE PUSH2 0x241F DUP2 DUP5 PUSH2 0x23CC JUMP JUMPDEST SWAP1 POP SWAP3 SWAP2 POP POP JUMP JUMPDEST PUSH1 0x0 DUP2 SWAP1 POP SWAP2 SWAP1 POP JUMP JUMPDEST PUSH2 0x243A DUP2 PUSH2 0x2427 JUMP JUMPDEST DUP2 EQ PUSH2 0x2445 JUMPI PUSH1 0x0 DUP1 REVERT JUMPDEST POP JUMP JUMPDEST PUSH1 0x0 DUP2 CALLDATALOAD SWAP1 POP PUSH2 0x2457 DUP2 PUSH2 0x2431 JUMP JUMPDEST SWAP3 SWAP2 POP POP JUMP JUMPDEST PUSH1 0x0 PUSH1 0x20 DUP3 DUP5 SUB SLT ISZERO PUSH2 0x2473 JUMPI PUSH2 0x2472 PUSH2 0x22B0 JUMP JUMPDEST JUMPDEST PUSH1 0x0 PUSH2 0x2481 DUP5 DUP3 DUP6 ADD PUSH2 0x2448 JUMP JUMPDEST SWAP2 POP POP SWAP3 SWAP2 POP POP JUMP JUMPDEST PUSH1 0x0 PUSH20 0xFFFFFFFFFFFFFFFFFFFFFFFFFFFFFFFFFFFFFFFF DUP3 AND SWAP1 POP SWAP2 SWAP1 POP JUMP JUMPDEST PUSH1 0x0 PUSH2 0x24B5 DUP3 PUSH2 0x248A JUMP JUMPDEST SWAP1 POP SWAP2 SWAP1 POP JUMP JUMPDEST PUSH2 0x24C5 DUP2 PUSH2 0x24AA JUMP JUMPDEST DUP3 MSTORE POP POP JUMP JUMPDEST PUSH1 0x0 PUSH1 0x20 DUP3 ADD SWAP1 POP PUSH2 0x24E0 PUSH1 0x0 DUP4 ADD DUP5 PUSH2 0x24BC JUMP JUMPDEST SWAP3 SWAP2 POP POP JUMP JUMPDEST PUSH2 0x24EF DUP2 PUSH2 0x24AA JUMP JUMPDEST DUP2 EQ PUSH2 0x24FA JUMPI PUSH1 0x0 DUP1 REVERT JUMPDEST POP JUMP JUMPDEST PUSH1 0x0 DUP2 CALLDATALOAD SWAP1 POP PUSH2 0x250C DUP2 PUSH2 0x24E6 JUMP JUMPDEST SWAP3 SWAP2 POP POP JUMP JUMPDEST PUSH1 0x0 DUP1 PUSH1 0x40 DUP4 DUP6 SUB SLT ISZERO PUSH2 0x2529 JUMPI PUSH2 0x2528 PUSH2 0x22B0 JUMP JUMPDEST JUMPDEST PUSH1 0x0 PUSH2 0x2537 DUP6 DUP3 DUP7 ADD PUSH2 0x24FD JUMP JUMPDEST SWAP3 POP POP PUSH1 0x20 PUSH2 0x2548 DUP6 DUP3 DUP7 ADD PUSH2 0x2448 JUMP JUMPDEST SWAP2 POP POP SWAP3 POP SWAP3 SWAP1 POP JUMP JUMPDEST PUSH1 0x0 DUP1 PUSH1 0x0 PUSH1 0x60 DUP5 DUP7 SUB SLT ISZERO PUSH2 0x256B JUMPI PUSH2 0x256A PUSH2 0x22B0 JUMP JUMPDEST JUMPDEST PUSH1 0x0 PUSH2 0x2579 DUP7 DUP3 DUP8 ADD PUSH2 0x24FD JUMP JUMPDEST SWAP4 POP POP PUSH1 0x20 PUSH2 0x258A DUP7 DUP3 DUP8 ADD PUSH2 0x24FD JUMP JUMPDEST SWAP3 POP POP PUSH1 0x40 PUSH2 0x259B DUP7 DUP3 DUP8 ADD PUSH2 0x2448 JUMP JUMPDEST SWAP2 POP POP SWAP3 POP SWAP3 POP SWAP3 JUMP JUMPDEST PUSH2 0x25AE DUP2 PUSH2 0x2427 JUMP JUMPDEST DUP3 MSTORE POP POP JUMP JUMPDEST PUSH1 0x0 PUSH1 0x20 DUP3 ADD SWAP1 POP PUSH2 0x25C9 PUSH1 0x0 DUP4 ADD DUP5 PUSH2 0x25A5 JUMP JUMPDEST SWAP3 SWAP2 POP POP JUMP JUMPDEST PUSH1 0x0 DUP2 MLOAD SWAP1 POP SWAP2 SWAP1 POP JUMP JUMPDEST PUSH1 0x0 DUP3 DUP3 MSTORE PUSH1 0x20 DUP3 ADD SWAP1 POP SWAP3 SWAP2 POP POP JUMP JUMPDEST PUSH1 0x0 DUP2 SWAP1 POP PUSH1 0x20 DUP3 ADD SWAP1 POP SWAP2 SWAP1 POP JUMP JUMPDEST PUSH2 0x2604 DUP2 PUSH2 0x2427 JUMP JUMPDEST DUP3 MSTORE POP POP JUMP JUMPDEST PUSH1 0x0 DUP3 DUP3 MSTORE PUSH1 0x20 DUP3 ADD SWAP1 POP SWAP3 SWAP2 POP POP JUMP JUMPDEST PUSH1 0x0 PUSH2 0x2626 DUP3 PUSH2 0x2375 JUMP JUMPDEST PUSH2 0x2630 DUP2 DUP6 PUSH2 0x260A JUMP JUMPDEST SWAP4 POP PUSH2 0x2640 DUP2 DUP6 PUSH1 0x20 DUP7 ADD PUSH2 0x2391 JUMP JUMPDEST PUSH2 0x2649 DUP2 PUSH2 0x23BB JUMP JUMPDEST DUP5 ADD SWAP2 POP POP SWAP3 SWAP2 POP POP JUMP JUMPDEST PUSH1 0x0 PUSH1 0x40 DUP4 ADD PUSH1 0x0 DUP4 ADD MLOAD PUSH2 0x266C PUSH1 0x0 DUP7 ADD DUP3 PUSH2 0x25FB JUMP JUMPDEST POP PUSH1 0x20 DUP4 ADD MLOAD DUP5 DUP3 SUB PUSH1 0x20 DUP7 ADD MSTORE PUSH2 0x2684 DUP3 DUP3 PUSH2 0x261B JUMP JUMPDEST SWAP2 POP POP DUP1 SWAP2 POP POP SWAP3 SWAP2 POP POP JUMP JUMPDEST PUSH1 0x0 PUSH2 0x269D DUP4 DUP4 PUSH2 0x2654 JUMP JUMPDEST SWAP1 POP SWAP3 SWAP2 POP POP JUMP JUMPDEST PUSH1 0x0 PUSH1 0x20 DUP3 ADD SWAP1 POP SWAP2 SWAP1 POP JUMP JUMPDEST PUSH1 0x0 PUSH2 0x26BD DUP3 PUSH2 0x25CF JUMP JUMPDEST PUSH2 0x26C7 DUP2 DUP6 PUSH2 0x25DA JUMP JUMPDEST SWAP4 POP DUP4 PUSH1 0x20 DUP3 MUL DUP6 ADD PUSH2 0x26D9 DUP6 PUSH2 0x25EB JUMP JUMPDEST DUP1 PUSH1 0x0 JUMPDEST DUP6 DUP2 LT ISZERO PUSH2 0x2715 JUMPI DUP5 DUP5 SUB DUP10 MSTORE DUP2 MLOAD PUSH2 0x26F6 DUP6 DUP3 PUSH2 0x2691 JUMP JUMPDEST SWAP5 POP PUSH2 0x2701 DUP4 PUSH2 0x26A5 JUMP JUMPDEST SWAP3 POP PUSH1 0x20 DUP11 ADD SWAP10 POP POP PUSH1 0x1 DUP2 ADD SWAP1 POP PUSH2 0x26DD JUMP JUMPDEST POP DUP3 SWAP8 POP DUP8 SWAP6 POP POP POP POP POP POP SWAP3 SWAP2 POP POP JUMP JUMPDEST PUSH1 0x0 PUSH1 0x20 DUP3 ADD SWAP1 POP DUP2 DUP2 SUB PUSH1 0x0 DUP4 ADD MSTORE PUSH2 0x2741 DUP2 DUP5 PUSH2 0x26B2 JUMP JUMPDEST SWAP1 POP SWAP3 SWAP2 POP POP JUMP JUMPDEST PUSH1 0x0 DUP1 PUSH1 0x40 DUP4 DUP6 SUB SLT ISZERO PUSH2 0x2760 JUMPI PUSH2 0x275F PUSH2 0x22B0 JUMP JUMPDEST JUMPDEST PUSH1 0x0 PUSH2 0x276E DUP6 DUP3 DUP7 ADD PUSH2 0x2448 JUMP JUMPDEST SWAP3 POP POP PUSH1 0x20 PUSH2 0x277F DUP6 DUP3 DUP7 ADD PUSH2 0x24FD JUMP JUMPDEST SWAP2 POP POP SWAP3 POP SWAP3 SWAP1 POP JUMP JUMPDEST PUSH1 0x0 PUSH1 0x20 DUP3 DUP5 SUB SLT ISZERO PUSH2 0x279F JUMPI PUSH2 0x279E PUSH2 0x22B0 JUMP JUMPDEST JUMPDEST PUSH1 0x0 PUSH2 0x27AD DUP5 DUP3 DUP6 ADD PUSH2 0x24FD JUMP JUMPDEST SWAP2 POP POP SWAP3 SWAP2 POP POP JUMP JUMPDEST PUSH2 0x27BF DUP2 PUSH2 0x233F JUMP JUMPDEST DUP2 EQ PUSH2 0x27CA JUMPI PUSH1 0x0 DUP1 REVERT JUMPDEST POP JUMP JUMPDEST PUSH1 0x0 DUP2 CALLDATALOAD SWAP1 POP PUSH2 0x27DC DUP2 PUSH2 0x27B6 JUMP JUMPDEST SWAP3 SWAP2 POP POP JUMP JUMPDEST PUSH1 0x0 DUP1 PUSH1 0x40 DUP4 DUP6 SUB SLT ISZERO PUSH2 0x27F9 JUMPI PUSH2 0x27F8 PUSH2 0x22B0 JUMP JUMPDEST JUMPDEST PUSH1 0x0 PUSH2 0x2807 DUP6 DUP3 DUP7 ADD PUSH2 0x24FD JUMP JUMPDEST SWAP3 POP POP PUSH1 0x20 PUSH2 0x2818 DUP6 DUP3 DUP7 ADD PUSH2 0x27CD JUMP JUMPDEST SWAP2 POP POP SWAP3 POP SWAP3 SWAP1 POP JUMP JUMPDEST PUSH1 0x0 DUP1 REVERT JUMPDEST PUSH1 0x0 DUP1 REVERT JUMPDEST PUSH32 0x4E487B7100000000000000000000000000000000000000000000000000000000 PUSH1 0x0 MSTORE PUSH1 0x41 PUSH1 0x4 MSTORE PUSH1 0x24 PUSH1 0x0 REVERT JUMPDEST PUSH2 0x2864 DUP3 PUSH2 0x23BB JUMP JUMPDEST DUP2 ADD DUP2 DUP2 LT PUSH8 0xFFFFFFFFFFFFFFFF DUP3 GT OR ISZERO PUSH2 0x2883 JUMPI PUSH2 0x2882 PUSH2 0x282C JUMP JUMPDEST JUMPDEST DUP1 PUSH1 0x40 MSTORE POP POP POP JUMP JUMPDEST PUSH1 0x0 PUSH2 0x2896 PUSH2 0x22A6 JUMP JUMPDEST SWAP1 POP PUSH2 0x28A2 DUP3 DUP3 PUSH2 0x285B JUMP JUMPDEST SWAP2 SWAP1 POP JUMP JUMPDEST PUSH1 0x0 PUSH8 0xFFFFFFFFFFFFFFFF DUP3 GT ISZERO PUSH2 0x28C2 JUMPI PUSH2 0x28C1 PUSH2 0x282C JUMP JUMPDEST JUMPDEST PUSH2 0x28CB DUP3 PUSH2 0x23BB JUMP JUMPDEST SWAP1 POP PUSH1 0x20 DUP2 ADD SWAP1 POP SWAP2 SWAP1 POP JUMP JUMPDEST DUP3 DUP2 DUP4 CALLDATACOPY PUSH1 0x0 DUP4 DUP4 ADD MSTORE POP POP POP JUMP JUMPDEST PUSH1 0x0 PUSH2 0x28FA PUSH2 0x28F5 DUP5 PUSH2 0x28A7 JUMP JUMPDEST PUSH2 0x288C JUMP JUMPDEST SWAP1 POP DUP3 DUP2 MSTORE PUSH1 0x20 DUP2 ADD DUP5 DUP5 DUP5 ADD GT ISZERO PUSH2 0x2916 JUMPI PUSH2 0x2915 PUSH2 0x2827 JUMP JUMPDEST JUMPDEST PUSH2 0x2921 DUP5 DUP3 DUP6 PUSH2 0x28D8 JUMP JUMPDEST POP SWAP4 SWAP3 POP POP POP JUMP JUMPDEST PUSH1 0x0 DUP3 PUSH1 0x1F DUP4 ADD SLT PUSH2 0x293E JUMPI PUSH2 0x293D PUSH2 0x2822 JUMP JUMPDEST JUMPDEST DUP2 CALLDATALOAD PUSH2 0x294E DUP5 DUP3 PUSH1 0x20 DUP7 ADD PUSH2 0x28E7 JUMP JUMPDEST SWAP2 POP POP SWAP3 SWAP2 POP POP JUMP JUMPDEST PUSH1 0x0 DUP1 PUSH1 0x0 DUP1 PUSH1 0x80 DUP6 DUP8 SUB SLT ISZERO PUSH2 0x2971 JUMPI PUSH2 0x2970 PUSH2 0x22B0 JUMP JUMPDEST JUMPDEST PUSH1 0x0 PUSH2 0x297F DUP8 DUP3 DUP9 ADD PUSH2 0x24FD JUMP JUMPDEST SWAP5 POP POP PUSH1 0x20 PUSH2 0x2990 DUP8 DUP3 DUP9 ADD PUSH2 0x24FD JUMP JUMPDEST SWAP4 POP POP PUSH1 0x40 PUSH2 0x29A1 DUP8 DUP3 DUP9 ADD PUSH2 0x2448 JUMP JUMPDEST SWAP3 POP POP PUSH1 0x60 DUP6 ADD CALLDATALOAD PUSH8 0xFFFFFFFFFFFFFFFF DUP2 GT ISZERO PUSH2 0x29C2 JUMPI PUSH2 0x29C1 PUSH2 0x22B5 JUMP JUMPDEST JUMPDEST PUSH2 0x29CE DUP8 DUP3 DUP9 ADD PUSH2 0x2929 JUMP JUMPDEST SWAP2 POP POP SWAP3 SWAP6 SWAP2 SWAP5 POP SWAP3 POP JUMP JUMPDEST PUSH1 0x0 DUP1 PUSH1 0x40 DUP4 DUP6 SUB SLT ISZERO PUSH2 0x29F1 JUMPI PUSH2 0x29F0 PUSH2 0x22B0 JUMP JUMPDEST JUMPDEST PUSH1 0x0 PUSH2 0x29FF DUP6 DUP3 DUP7 ADD PUSH2 0x24FD JUMP JUMPDEST SWAP3 POP POP PUSH1 0x20 PUSH2 0x2A10 DUP6 DUP3 DUP7 ADD PUSH2 0x24FD JUMP JUMPDEST SWAP2 POP POP SWAP3 POP SWAP3 SWAP1 POP JUMP JUMPDEST PUSH1 0x0 PUSH8 0xFFFFFFFFFFFFFFFF DUP3 GT ISZERO PUSH2 0x2A35 JUMPI PUSH2 0x2A34 PUSH2 0x282C JUMP JUMPDEST JUMPDEST PUSH2 0x2A3E DUP3 PUSH2 0x23BB JUMP JUMPDEST SWAP1 POP PUSH1 0x20 DUP2 ADD SWAP1 POP SWAP2 SWAP1 POP JUMP JUMPDEST PUSH1 0x0 PUSH2 0x2A5E PUSH2 0x2A59 DUP5 PUSH2 0x2A1A JUMP JUMPDEST PUSH2 0x288C JUMP JUMPDEST SWAP1 POP DUP3 DUP2 MSTORE PUSH1 0x20 DUP2 ADD DUP5 DUP5 DUP5 ADD GT ISZERO PUSH2 0x2A7A JUMPI PUSH2 0x2A79 PUSH2 0x2827 JUMP JUMPDEST JUMPDEST PUSH2 0x2A85 DUP5 DUP3 DUP6 PUSH2 0x28D8 JUMP JUMPDEST POP SWAP4 SWAP3 POP POP POP JUMP JUMPDEST PUSH1 0x0 DUP3 PUSH1 0x1F DUP4 ADD SLT PUSH2 0x2AA2 JUMPI PUSH2 0x2AA1 PUSH2 0x2822 JUMP JUMPDEST JUMPDEST DUP2 CALLDATALOAD PUSH2 0x2AB2 DUP5 DUP3 PUSH1 0x20 DUP7 ADD PUSH2 0x2A4B JUMP JUMPDEST SWAP2 POP POP SWAP3 SWAP2 POP POP JUMP JUMPDEST PUSH1 0x0 PUSH1 0x20 DUP3 DUP5 SUB SLT ISZERO PUSH2 0x2AD1 JUMPI PUSH2 0x2AD0 PUSH2 0x22B0 JUMP JUMPDEST JUMPDEST PUSH1 0x0 DUP3 ADD CALLDATALOAD PUSH8 0xFFFFFFFFFFFFFFFF DUP2 GT ISZERO PUSH2 0x2AEF JUMPI PUSH2 0x2AEE PUSH2 0x22B5 JUMP JUMPDEST JUMPDEST PUSH2 0x2AFB DUP5 DUP3 DUP6 ADD PUSH2 0x2A8D JUMP JUMPDEST SWAP2 POP POP SWAP3 SWAP2 POP POP JUMP JUMPDEST PUSH32 0x4E487B7100000000000000000000000000000000000000000000000000000000 PUSH1 0x0 MSTORE PUSH1 0x22 PUSH1 0x4 MSTORE PUSH1 0x24 PUSH1 0x0 REVERT JUMPDEST PUSH1 0x0 PUSH1 0x2 DUP3 DIV SWAP1 POP PUSH1 0x1 DUP3 AND DUP1 PUSH2 0x2B4B JUMPI PUSH1 0x7F DUP3 AND SWAP2 POP JUMPDEST PUSH1 0x20 DUP3 LT DUP2 SUB PUSH2 0x2B5E JUMPI PUSH2 0x2B5D PUSH2 0x2B04 JUMP JUMPDEST JUMPDEST POP SWAP2 SWAP1 POP JUMP JUMPDEST PUSH1 0x0 PUSH1 0x60 DUP3 ADD SWAP1 POP PUSH2 0x2B79 PUSH1 0x0 DUP4 ADD DUP7 PUSH2 0x24BC JUMP JUMPDEST PUSH2 0x2B86 PUSH1 0x20 DUP4 ADD DUP6 PUSH2 0x25A5 JUMP JUMPDEST PUSH2 0x2B93 PUSH1 0x40 DUP4 ADD DUP5 PUSH2 0x24BC JUMP JUMPDEST SWAP5 SWAP4 POP POP POP POP JUMP JUMPDEST PUSH32 0x4574686572207061696420697320696E636F7272656374000000000000000000 PUSH1 0x0 DUP3 ADD MSTORE POP JUMP JUMPDEST PUSH1 0x0 PUSH2 0x2BD1 PUSH1 0x17 DUP4 PUSH2 0x2380 JUMP JUMPDEST SWAP2 POP PUSH2 0x2BDC DUP3 PUSH2 0x2B9B JUMP JUMPDEST PUSH1 0x20 DUP3 ADD SWAP1 POP SWAP2 SWAP1 POP JUMP JUMPDEST PUSH1 0x0 PUSH1 0x20 DUP3 ADD SWAP1 POP DUP2 DUP2 SUB PUSH1 0x0 DUP4 ADD MSTORE PUSH2 0x2C00 DUP2 PUSH2 0x2BC4 JUMP JUMPDEST SWAP1 POP SWAP2 SWAP1 POP JUMP JUMPDEST PUSH32 0x596F75206861766520657863656564656420746865206D696E74696E67206C69 PUSH1 0x0 DUP3 ADD MSTORE PUSH32 0x6D697420666F722074686973206163636F756E74000000000000000000000000 PUSH1 0x20 DUP3 ADD MSTORE POP JUMP JUMPDEST PUSH1 0x0 PUSH2 0x2C63 PUSH1 0x34 DUP4 PUSH2 0x2380 JUMP JUMPDEST SWAP2 POP PUSH2 0x2C6E DUP3 PUSH2 0x2C07 JUMP JUMPDEST PUSH1 0x40 DUP3 ADD SWAP1 POP SWAP2 SWAP1 POP JUMP JUMPDEST PUSH1 0x0 PUSH1 0x20 DUP3 ADD SWAP1 POP DUP2 DUP2 SUB PUSH1 0x0 DUP4 ADD MSTORE PUSH2 0x2C92 DUP2 PUSH2 0x2C56 JUMP JUMPDEST SWAP1 POP SWAP2 SWAP1 POP JUMP JUMPDEST PUSH32 0x4E487B7100000000000000000000000000000000000000000000000000000000 PUSH1 0x0 MSTORE PUSH1 0x11 PUSH1 0x4 MSTORE PUSH1 0x24 PUSH1 0x0 REVERT JUMPDEST PUSH1 0x0 PUSH2 0x2CD3 DUP3 PUSH2 0x2427 JUMP JUMPDEST SWAP2 POP PUSH2 0x2CDE DUP4 PUSH2 0x2427 JUMP JUMPDEST SWAP3 POP DUP3 DUP3 ADD SWAP1 POP DUP1 DUP3 GT ISZERO PUSH2 0x2CF6 JUMPI PUSH2 0x2CF5 PUSH2 0x2C99 JUMP JUMPDEST JUMPDEST SWAP3 SWAP2 POP POP JUMP JUMPDEST PUSH32 0x596F752068617665206578636565646564204D617820537570706C7900000000 PUSH1 0x0 DUP3 ADD MSTORE POP JUMP JUMPDEST PUSH1 0x0 PUSH2 0x2D32 PUSH1 0x1C DUP4 PUSH2 0x2380 JUMP JUMPDEST SWAP2 POP PUSH2 0x2D3D DUP3 PUSH2 0x2CFC JUMP JUMPDEST PUSH1 0x20 DUP3 ADD SWAP1 POP SWAP2 SWAP1 POP JUMP JUMPDEST PUSH1 0x0 PUSH1 0x20 DUP3 ADD SWAP1 POP DUP2 DUP2 SUB PUSH1 0x0 DUP4 ADD MSTORE PUSH2 0x2D61 DUP2 PUSH2 0x2D25 JUMP JUMPDEST SWAP1 POP SWAP2 SWAP1 POP JUMP JUMPDEST PUSH1 0x0 PUSH2 0x2D73 DUP3 PUSH2 0x2427 JUMP JUMPDEST SWAP2 POP PUSH32 0xFFFFFFFFFFFFFFFFFFFFFFFFFFFFFFFFFFFFFFFFFFFFFFFFFFFFFFFFFFFFFFFF DUP3 SUB PUSH2 0x2DA5 JUMPI PUSH2 0x2DA4 PUSH2 0x2C99 JUMP JUMPDEST JUMPDEST PUSH1 0x1 DUP3 ADD SWAP1 POP SWAP2 SWAP1 POP JUMP JUMPDEST PUSH1 0x0 DUP2 SWAP1 POP SWAP3 SWAP2 POP POP JUMP JUMPDEST PUSH1 0x0 PUSH2 0x2DC6 DUP3 PUSH2 0x2375 JUMP JUMPDEST PUSH2 0x2DD0 DUP2 DUP6 PUSH2 0x2DB0 JUMP JUMPDEST SWAP4 POP PUSH2 0x2DE0 DUP2 DUP6 PUSH1 0x20 DUP7 ADD PUSH2 0x2391 JUMP JUMPDEST DUP1 DUP5 ADD SWAP2 POP POP SWAP3 SWAP2 POP POP JUMP JUMPDEST PUSH1 0x0 PUSH2 0x2DF8 DUP3 DUP6 PUSH2 0x2DBB JUMP JUMPDEST SWAP2 POP PUSH2 0x2E04 DUP3 DUP5 PUSH2 0x2DBB JUMP JUMPDEST SWAP2 POP DUP2 SWAP1 POP SWAP4 SWAP3 POP POP POP JUMP JUMPDEST PUSH1 0x0 DUP2 SWAP1 POP DUP2 PUSH1 0x0 MSTORE PUSH1 0x20 PUSH1 0x0 KECCAK256 SWAP1 POP SWAP2 SWAP1 POP JUMP JUMPDEST PUSH1 0x0 PUSH1 0x20 PUSH1 0x1F DUP4 ADD DIV SWAP1 POP SWAP2 SWAP1 POP JUMP JUMPDEST PUSH1 0x0 DUP3 DUP3 SHL SWAP1 POP SWAP3 SWAP2 POP POP JUMP JUMPDEST PUSH1 0x0 PUSH1 0x8 DUP4 MUL PUSH2 0x2E72 PUSH32 0xFFFFFFFFFFFFFFFFFFFFFFFFFFFFFFFFFFFFFFFFFFFFFFFFFFFFFFFFFFFFFFFF DUP3 PUSH2 0x2E35 JUMP JUMPDEST PUSH2 0x2E7C DUP7 DUP4 PUSH2 0x2E35 JUMP JUMPDEST SWAP6 POP DUP1 NOT DUP5 AND SWAP4 POP DUP1 DUP7 AND DUP5 OR SWAP3 POP POP POP SWAP4 SWAP3 POP POP POP JUMP JUMPDEST PUSH1 0x0 DUP2 SWAP1 POP SWAP2 SWAP1 POP JUMP JUMPDEST PUSH1 0x0 PUSH2 0x2EB9 PUSH2 0x2EB4 PUSH2 0x2EAF DUP5 PUSH2 0x2427 JUMP JUMPDEST PUSH2 0x2E94 JUMP JUMPDEST PUSH2 0x2427 JUMP JUMPDEST SWAP1 POP SWAP2 SWAP1 POP JUMP JUMPDEST PUSH1 0x0 DUP2 SWAP1 POP SWAP2 SWAP1 POP JUMP JUMPDEST PUSH2 0x2ED3 DUP4 PUSH2 0x2E9E JUMP JUMPDEST PUSH2 0x2EE7 PUSH2 0x2EDF DUP3 PUSH2 0x2EC0 JUMP JUMPDEST DUP5 DUP5 SLOAD PUSH2 0x2E42 JUMP JUMPDEST DUP3 SSTORE POP POP POP POP JUMP JUMPDEST PUSH1 0x0 SWAP1 JUMP JUMPDEST PUSH2 0x2EFC PUSH2 0x2EEF JUMP JUMPDEST PUSH2 0x2F07 DUP2 DUP5 DUP5 PUSH2 0x2ECA JUMP JUMPDEST POP POP POP JUMP JUMPDEST JUMPDEST DUP2 DUP2 LT ISZERO PUSH2 0x2F2B JUMPI PUSH2 0x2F20 PUSH1 0x0 DUP3 PUSH2 0x2EF4 JUMP JUMPDEST PUSH1 0x1 DUP2 ADD SWAP1 POP PUSH2 0x2F0D JUMP JUMPDEST POP POP JUMP JUMPDEST PUSH1 0x1F DUP3 GT ISZERO PUSH2 0x2F70 JUMPI PUSH2 0x2F41 DUP2 PUSH2 0x2E10 JUMP JUMPDEST PUSH2 0x2F4A DUP5 PUSH2 0x2E25 JUMP JUMPDEST DUP2 ADD PUSH1 0x20 DUP6 LT ISZERO PUSH2 0x2F59 JUMPI DUP2 SWAP1 POP JUMPDEST PUSH2 0x2F6D PUSH2 0x2F65 DUP6 PUSH2 0x2E25 JUMP JUMPDEST DUP4 ADD DUP3 PUSH2 0x2F0C JUMP JUMPDEST POP POP JUMPDEST POP POP POP JUMP JUMPDEST PUSH1 0x0 DUP3 DUP3 SHR SWAP1 POP SWAP3 SWAP2 POP POP JUMP JUMPDEST PUSH1 0x0 PUSH2 0x2F93 PUSH1 0x0 NOT DUP5 PUSH1 0x8 MUL PUSH2 0x2F75 JUMP JUMPDEST NOT DUP1 DUP4 AND SWAP2 POP POP SWAP3 SWAP2 POP POP JUMP JUMPDEST PUSH1 0x0 PUSH2 0x2FAC DUP4 DUP4 PUSH2 0x2F82 JUMP JUMPDEST SWAP2 POP DUP3 PUSH1 0x2 MUL DUP3 OR SWAP1 POP SWAP3 SWAP2 POP POP JUMP JUMPDEST PUSH2 0x2FC5 DUP3 PUSH2 0x2375 JUMP JUMPDEST PUSH8 0xFFFFFFFFFFFFFFFF DUP2 GT ISZERO PUSH2 0x2FDE JUMPI PUSH2 0x2FDD PUSH2 0x282C JUMP JUMPDEST JUMPDEST PUSH2 0x2FE8 DUP3 SLOAD PUSH2 0x2B33 JUMP JUMPDEST PUSH2 0x2FF3 DUP3 DUP3 DUP6 PUSH2 0x2F2F JUMP JUMPDEST PUSH1 0x0 PUSH1 0x20 SWAP1 POP PUSH1 0x1F DUP4 GT PUSH1 0x1 DUP2 EQ PUSH2 0x3026 JUMPI PUSH1 0x0 DUP5 ISZERO PUSH2 0x3014 JUMPI DUP3 DUP8 ADD MLOAD SWAP1 POP JUMPDEST PUSH2 0x301E DUP6 DUP3 PUSH2 0x2FA0 JUMP JUMPDEST DUP7 SSTORE POP PUSH2 0x3086 JUMP JUMPDEST PUSH1 0x1F NOT DUP5 AND PUSH2 0x3034 DUP7 PUSH2 0x2E10 JUMP JUMPDEST PUSH1 0x0 JUMPDEST DUP3 DUP2 LT ISZERO PUSH2 0x305C JUMPI DUP5 DUP10 ADD MLOAD DUP3 SSTORE PUSH1 0x1 DUP3 ADD SWAP2 POP PUSH1 0x20 DUP6 ADD SWAP5 POP PUSH1 0x20 DUP2 ADD SWAP1 POP PUSH2 0x3037 JUMP JUMPDEST DUP7 DUP4 LT ISZERO PUSH2 0x3079 JUMPI DUP5 DUP10 ADD MLOAD PUSH2 0x3075 PUSH1 0x1F DUP10 AND DUP3 PUSH2 0x2F82 JUMP JUMPDEST DUP4 SSTORE POP JUMPDEST PUSH1 0x1 PUSH1 0x2 DUP9 MUL ADD DUP9 SSTORE POP POP POP JUMPDEST POP POP POP POP POP POP JUMP JUMPDEST PUSH32 0x4E487B7100000000000000000000000000000000000000000000000000000000 PUSH1 0x0 MSTORE PUSH1 0x32 PUSH1 0x4 MSTORE PUSH1 0x24 PUSH1 0x0 REVERT JUMPDEST PUSH1 0x0 DUP2 MLOAD SWAP1 POP SWAP2 SWAP1 POP JUMP JUMPDEST PUSH1 0x0 DUP3 DUP3 MSTORE PUSH1 0x20 DUP3 ADD SWAP1 POP SWAP3 SWAP2 POP POP JUMP JUMPDEST PUSH1 0x0 PUSH2 0x30E4 DUP3 PUSH2 0x30BD JUMP JUMPDEST PUSH2 0x30EE DUP2 DUP6 PUSH2 0x30C8 JUMP JUMPDEST SWAP4 POP PUSH2 0x30FE DUP2 DUP6 PUSH1 0x20 DUP7 ADD PUSH2 0x2391 JUMP JUMPDEST PUSH2 0x3107 DUP2 PUSH2 0x23BB JUMP JUMPDEST DUP5 ADD SWAP2 POP POP SWAP3 SWAP2 POP POP JUMP JUMPDEST PUSH1 0x0 PUSH1 0x80 DUP3 ADD SWAP1 POP PUSH2 0x3127 PUSH1 0x0 DUP4 ADD DUP8 PUSH2 0x24BC JUMP JUMPDEST PUSH2 0x3134 PUSH1 0x20 DUP4 ADD DUP7 PUSH2 0x24BC JUMP JUMPDEST PUSH2 0x3141 PUSH1 0x40 DUP4 ADD DUP6 PUSH2 0x25A5 JUMP JUMPDEST DUP2 DUP2 SUB PUSH1 0x60 DUP4 ADD MSTORE PUSH2 0x3153 DUP2 DUP5 PUSH2 0x30D9 JUMP JUMPDEST SWAP1 POP SWAP6 SWAP5 POP POP POP POP POP JUMP JUMPDEST PUSH1 0x0 DUP2 MLOAD SWAP1 POP PUSH2 0x316D DUP2 PUSH2 0x22E6 JUMP JUMPDEST SWAP3 SWAP2 POP POP JUMP JUMPDEST PUSH1 0x0 PUSH1 0x20 DUP3 DUP5 SUB SLT ISZERO PUSH2 0x3189 JUMPI PUSH2 0x3188 PUSH2 0x22B0 JUMP JUMPDEST JUMPDEST PUSH1 0x0 PUSH2 0x3197 DUP5 DUP3 DUP6 ADD PUSH2 0x315E JUMP JUMPDEST SWAP2 POP POP SWAP3 SWAP2 POP POP JUMP JUMPDEST PUSH1 0x0 PUSH1 0x40 DUP3 ADD SWAP1 POP PUSH2 0x31B5 PUSH1 0x0 DUP4 ADD DUP6 PUSH2 0x24BC JUMP JUMPDEST PUSH2 0x31C2 PUSH1 0x20 DUP4 ADD DUP5 PUSH2 0x25A5 JUMP JUMPDEST SWAP4 SWAP3 POP POP POP JUMP JUMPDEST PUSH32 0x4E487B7100000000000000000000000000000000000000000000000000000000 PUSH1 0x0 MSTORE PUSH1 0x12 PUSH1 0x4 MSTORE PUSH1 0x24 PUSH1 0x0 REVERT INVALID LOG2 PUSH5 0x6970667358 0x22 SLT KECCAK256 LOG3 CALLDATALOAD 0xBD SHR 0xE9 0xED CALLCODE LOG4 0x5D 0xAD 0xCF DIV 0xDD RETURN CREATE PUSH30 0x817890DDAFD1E22E07D026AE86624A7464736F6C63430008140033000000 "},"methodIdentifiers":{"AddToken(string)":"ee36675b","GetAvailableNFTs()":"5fec6e67","LIMIT_PER_ADDRESS()":"417bac1a","MAX_SUPPLY()":"32cb6b0c","PRICE_PER_TOKEN()":"833b9499","approve(address,uint256)":"095ea7b3","balanceOf(address)":"70a08231","getApproved(uint256)":"081812fc","isApprovedForAll(address,address)":"e985e9c5","mintNFT(uint256,address)":"669f5a51","name()":"06fdde03","owner()":"8da5cb5b","ownerOf(uint256)":"6352211e","renounceOwnership()":"715018a6","safeTransferFrom(address,address,uint256)":"42842e0e","safeTransferFrom(address,address,uint256,bytes)":"b88d4fde","setApprovalForAll(address,bool)":"a22cb465","setLimit(uint256)":"27ea6f2b","setMaxSupply(uint256)":"6f8b44b0","setPrice(uint256)":"91b7f5ed","supportsInterface(bytes4)":"01ffc9a7","symbol()":"95d89b41","tokenURI(uint256)":"c87b56dd","transferFrom(address,address,uint256)":"23b872dd","transferOwnership(address)":"f2fde38b","withdrawMoney()":"ac446002"}}}}}