{"contracts/Collection.sol":{"Collection":{"abi":[{"inputs":[{"internalType":"uint256","name":"newId","type":"uint256"},{"internalType":"address","name":"_artist","type":"address"}],"stateMutability":"nonpayable","type":"constructor"},{"inputs":[{"internalType":"address","name":"sender","type":"address"},{"internalType":"uint256","name":"tokenId","type":"uint256"},{"internalType":"address","name":"owner","type":"address"}],"name":"ERC721IncorrectOwner","type":"error"},{"inputs":[{"internalType":"address","name":"operator","type":"address"},{"internalType":"uint256","name":"tokenId","type":"uint256"}],"name":"ERC721InsufficientApproval","type":"error"},{"inputs":[{"internalType":"address","name":"approver","type":"address"}],"name":"ERC721InvalidApprover","type":"error"},{"inputs":[{"internalType":"address","name":"operator","type":"address"}],"name":"ERC721InvalidOperator","type":"error"},{"inputs":[{"internalType":"address","name":"owner","type":"address"}],"name":"ERC721InvalidOwner","type":"error"},{"inputs":[{"internalType":"address","name":"receiver","type":"address"}],"name":"ERC721InvalidReceiver","type":"error"},{"inputs":[{"internalType":"address","name":"sender","type":"address"}],"name":"ERC721InvalidSender","type":"error"},{"inputs":[{"internalType":"uint256","name":"tokenId","type":"uint256"}],"name":"ERC721NonexistentToken","type":"error"},{"inputs":[{"internalType":"address","name":"owner","type":"address"}],"name":"OwnableInvalidOwner","type":"error"},{"inputs":[{"internalType":"address","name":"account","type":"address"}],"name":"OwnableUnauthorizedAccount","type":"error"},{"anonymous":false,"inputs":[{"indexed":true,"internalType":"address","name":"owner","type":"address"},{"indexed":true,"internalType":"address","name":"approved","type":"address"},{"indexed":true,"internalType":"uint256","name":"tokenId","type":"uint256"}],"name":"Approval","type":"event"},{"anonymous":false,"inputs":[{"indexed":true,"internalType":"address","name":"owner","type":"address"},{"indexed":true,"internalType":"address","name":"operator","type":"address"},{"indexed":false,"internalType":"bool","name":"approved","type":"bool"}],"name":"ApprovalForAll","type":"event"},{"anonymous":false,"inputs":[{"indexed":false,"internalType":"uint256","name":"_fromTokenId","type":"uint256"},{"indexed":false,"internalType":"uint256","name":"_toTokenId","type":"uint256"}],"name":"BatchMetadataUpdate","type":"event"},{"anonymous":false,"inputs":[{"indexed":false,"internalType":"uint256","name":"_tokenId","type":"uint256"}],"name":"MetadataUpdate","type":"event"},{"anonymous":false,"inputs":[{"indexed":true,"internalType":"address","name":"previousOwner","type":"address"},{"indexed":true,"internalType":"address","name":"newOwner","type":"address"}],"name":"OwnershipTransferred","type":"event"},{"anonymous":false,"inputs":[{"indexed":true,"internalType":"address","name":"from","type":"address"},{"indexed":true,"internalType":"address","name":"to","type":"address"},{"indexed":true,"internalType":"uint256","name":"tokenId","type":"uint256"}],"name":"Transfer","type":"event"},{"inputs":[{"internalType":"string","name":"_tokenURI","type":"string"}],"name":"AddToken","outputs":[{"internalType":"uint256","name":"","type":"uint256"}],"stateMutability":"nonpayable","type":"function"},{"inputs":[{"internalType":"uint256","name":"tokenID","type":"uint256"},{"internalType":"string","name":"voterName","type":"string"}],"name":"AddVote","outputs":[],"stateMutability":"nonpayable","type":"function"},{"inputs":[{"internalType":"uint256","name":"tokenId","type":"uint256"},{"internalType":"string","name":"voterName","type":"string"}],"name":"DeleteVote","outputs":[],"stateMutability":"nonpayable","type":"function"},{"inputs":[],"name":"GetAllNFTs","outputs":[{"components":[{"internalType":"uint256","name":"id","type":"uint256"},{"internalType":"uint256","name":"collectionId","type":"uint256"},{"internalType":"string","name":"uri","type":"string"},{"internalType":"string[]","name":"voters","type":"string[]"}],"internalType":"struct Token[]","name":"","type":"tuple[]"}],"stateMutability":"view","type":"function"},{"inputs":[],"name":"GetAvailableNFTs","outputs":[{"components":[{"internalType":"uint256","name":"id","type":"uint256"},{"internalType":"uint256","name":"collectionId","type":"uint256"},{"internalType":"string","name":"uri","type":"string"},{"internalType":"string[]","name":"voters","type":"string[]"}],"internalType":"struct Token[]","name":"","type":"tuple[]"}],"stateMutability":"view","type":"function"},{"inputs":[{"internalType":"address","name":"owner","type":"address"}],"name":"GetTokensByOwner","outputs":[{"components":[{"internalType":"uint256","name":"id","type":"uint256"},{"internalType":"uint256","name":"collectionId","type":"uint256"},{"internalType":"string","name":"uri","type":"string"},{"internalType":"string[]","name":"voters","type":"string[]"}],"internalType":"struct Token[]","name":"","type":"tuple[]"}],"stateMutability":"view","type":"function"},{"inputs":[],"name":"PRICE_PER_TOKEN","outputs":[{"internalType":"uint256","name":"","type":"uint256"}],"stateMutability":"view","type":"function"},{"inputs":[{"internalType":"address","name":"to","type":"address"},{"internalType":"uint256","name":"tokenId","type":"uint256"}],"name":"approve","outputs":[],"stateMutability":"nonpayable","type":"function"},{"inputs":[],"name":"artist","outputs":[{"internalType":"address","name":"","type":"address"}],"stateMutability":"view","type":"function"},{"inputs":[{"internalType":"address","name":"owner","type":"address"}],"name":"balanceOf","outputs":[{"internalType":"uint256","name":"","type":"uint256"}],"stateMutability":"view","type":"function"},{"inputs":[{"internalType":"uint256","name":"tokenId","type":"uint256"}],"name":"getApproved","outputs":[{"internalType":"address","name":"","type":"address"}],"stateMutability":"view","type":"function"},{"inputs":[{"internalType":"address","name":"owner","type":"address"},{"internalType":"address","name":"operator","type":"address"}],"name":"isApprovedForAll","outputs":[{"internalType":"bool","name":"","type":"bool"}],"stateMutability":"view","type":"function"},{"inputs":[{"internalType":"uint256","name":"tokenID","type":"uint256"},{"internalType":"address","name":"owner","type":"address"}],"name":"mintNFT","outputs":[{"internalType":"uint256","name":"","type":"uint256"}],"stateMutability":"payable","type":"function"},{"inputs":[],"name":"name","outputs":[{"internalType":"string","name":"","type":"string"}],"stateMutability":"view","type":"function"},{"inputs":[],"name":"owner","outputs":[{"internalType":"address","name":"","type":"address"}],"stateMutability":"view","type":"function"},{"inputs":[{"internalType":"uint256","name":"tokenId","type":"uint256"}],"name":"ownerOf","outputs":[{"internalType":"address","name":"","type":"address"}],"stateMutability":"view","type":"function"},{"inputs":[],"name":"renounceOwnership","outputs":[],"stateMutability":"nonpayable","type":"function"},{"inputs":[{"internalType":"address","name":"from","type":"address"},{"internalType":"address","name":"to","type":"address"},{"internalType":"uint256","name":"tokenId","type":"uint256"}],"name":"safeTransferFrom","outputs":[],"stateMutability":"nonpayable","type":"function"},{"inputs":[{"internalType":"address","name":"from","type":"address"},{"internalType":"address","name":"to","type":"address"},{"internalType":"uint256","name":"tokenId","type":"uint256"},{"internalType":"bytes","name":"data","type":"bytes"}],"name":"safeTransferFrom","outputs":[],"stateMutability":"nonpayable","type":"function"},{"inputs":[{"internalType":"address","name":"operator","type":"address"},{"internalType":"bool","name":"approved","type":"bool"}],"name":"setApprovalForAll","outputs":[],"stateMutability":"nonpayable","type":"function"},{"inputs":[{"internalType":"bytes4","name":"interfaceId","type":"bytes4"}],"name":"supportsInterface","outputs":[{"internalType":"bool","name":"","type":"bool"}],"stateMutability":"view","type":"function"},{"inputs":[],"name":"symbol","outputs":[{"internalType":"string","name":"","type":"string"}],"stateMutability":"view","type":"function"},{"inputs":[{"internalType":"uint256","name":"tokenId","type":"uint256"}],"name":"tokenURI","outputs":[{"internalType":"string","name":"","type":"string"}],"stateMutability":"view","type":"function"},{"inputs":[{"internalType":"address","name":"from","type":"address"},{"internalType":"address","name":"to","type":"address"},{"internalType":"uint256","name":"tokenId","type":"uint256"}],"name":"transferFrom","outputs":[],"stateMutability":"nonpayable","type":"function"},{"inputs":[{"internalType":"address","name":"newOwner","type":"address"}],"name":"transferOwnership","outputs":[],"stateMutability":"nonpayable","type":"function"}],"evm":{"bytecode":{"linkReferences":{},"object":"608034620003e157601f906001600160401b0390601f199062001fad3881900385810184168301919085831184841017620003cb578084926040948552833981010312620003e15780516020918201516001600160a01b03958682169592939291869003620003e15762000072620003e6565b92600a84526921b7b63632b1ba34b7b760b11b8185015262000093620003e6565b90600382526213919560ea1b81830152845196848811620003cb576000978854966001978881811c91168015620003c0575b85821014620003ac5790818784931162000359575b508490878311600114620002f8578b92620002ec575b5050600019600383901b1c191690871b1788555b8251948511620002d85785548681811c91168015620002cd575b83821014620002b95790818587969594931162000260575b5081938511600114620001fb5750508692620001ef575b5050600019600383901b1c191690821b1790555b3315620001d657600780546001600160a01b0319808216339081179093556040519690949291167f8be0079c531659141344cd1fd0a4f28419497f9722a3daafe3b4186f6b6457e08380a380600a55600b55662386f26fc10000600c556009556008541617600855611ba69081620004078239f35b604051631e4fbdf760e01b815260048101839052602490fd5b0151905038806200014d565b869593929193168589528389209389905b8282106200024657505084116200022c575b505050811b01905562000161565b015160001960f88460031b161c191690553880806200021e565b84840151865588979095019493840193908101906200020c565b9091929394508689528289208580880160051c820192858910620002af575b9188978a9297969594930160051c01915b828110620002a057505062000136565b8b815588975089910162000290565b925081926200027f565b634e487b7160e01b89526022600452602489fd5b90607f16906200011e565b634e487b7160e01b88526041600452602488fd5b015190503880620000f0565b90848a9416918c8052868d20928d5b8882821062000342575050841162000328575b505050811b01885562000104565b015160001960f88460031b161c191690553880806200031a565b8385015186558d9790950194938401930162000307565b9091508a8052848b208780850160051c820192878610620003a2575b918b91869594930160051c01915b82811062000393575050620000da565b8d81558594508b910162000383565b9250819262000375565b634e487b7160e01b8b52602260045260248bfd5b90607f1690620000c5565b634e487b7160e01b600052604160045260246000fd5b600080fd5b60408051919082016001600160401b03811183821017620003cb5760405256fe6080604081815260048036101561001557600080fd5b600092833560e01c90816301ffc9a7146111035750806306fdde031461107c578063081812fc14611041578063095ea7b314610f6557806323b872dd14610f4d57806331abab7c14610c9b57806342842e0e14610c7257806343bc161214610c495780635fec6e6714610bce5780636352211e14610b9d578063669f5a51146109fc57806370a08231146109a7578063715018a61461094a5780637c26b48e146108c0578063833b9499146108a15780638da5cb5b1461087857806395d89b41146107b657806396abc52b1461072c578063a22cb4651461068f578063b88d4fde14610628578063c87b56dd146105c1578063d039aa9614610515578063e985e9c5146104c7578063ee36675b146101c25763f2fde38b1461013657600080fd5b346101be5760203660031901126101be5761014f6111c9565b90610158611423565b6001600160a01b039182169283156101a8575050600780546001600160a01b031981168417909155167f8be0079c531659141344cd1fd0a4f28419497f9722a3daafe3b4186f6b6457e08380a380f35b51631e4fbdf760e01b8152908101849052602490fd5b8280fd5b5091346104c457602092836003193601126104c05780356001600160401b0381116101be576101f490369083016112ee565b91600a54600954928551916102088361122f565b8252868201938452858201948552606082019160608352838052600d885286842095865495600160401b96878110156103eb576001988982018082558210156104ad579060039188528b88209060021b018451815582518a820155610271845160028301611893565b0185519081519189831161049a578c9082548484558481811061041a575b505090809291019089528a828a20918a935b8585106103fe57505050505050600e54878110156103eb5780896102c89201600e55611847565b9390936103d957518355518783015551600391906102e99060028301611893565b0191519081519485116103c657508690825485845580861061034d575b50918352868320918791015b8484106103305750600a548661032782611997565b600a5551908152f35b85918161033f84935186611893565b019201920191908690610312565b838552868684872092830192015b828110610369575050610306565b909192935085610379825461144f565b8061038c575b505001908689939261035b565b601f8082116001146103a457505081555b853861037f565b6103bd908484528d8420920160051c820185830161187c565b8183555561039d565b634e487b7160e01b845260419052602483fd5b634e487b7160e01b8752868552602487fd5b634e487b7160e01b875260418552602487fd5b8161040b84935186611893565b019201920191908b908e6102a1565b50838b528c85848d2092830192015b8c83821061043a575050508461028f565b9091929394610449835461144f565b908161045e575b50505001908c8f9392610429565b601f8083116001146104795750505081555b8f388d91610450565b610491918585528420920160051c820185830161187c565b81835555610470565b634e487b7160e01b895260418752602489fd5b634e487b7160e01b885260328652602488fd5b5080fd5b80fd5b5050346104c057806003193601126104c05760ff816020936104e76111c9565b6104ef6111e4565b6001600160a01b0391821683526005875283832091168252855220549151911615158152f35b5082346104c4576105253661130c565b9091805b600e548110156105bd578361053d82611847565b505414610553575b61054e90611997565b610529565b600361055e82611847565b5001805490600160401b8210156105aa579061057f91600182018155611a87565b61059857906105918461054e93611893565b9050610545565b634e487b7160e01b8352828652602483fd5b634e487b7160e01b845260418752602484fd5b5080f35b50346101be5760203660031901126101be5790610624926105ff92356105e68161180c565b5081526006602052610606828220835194858092611489565b038461127b565b815161061181611260565b5251918291602083526020830190611189565b0390f35b8382346104c05760803660031901126104c0576106436111c9565b61064b6111e4565b906064356001600160401b03811161068b573660238201121561068b576106889381602461067e933693013591016112b7565b91604435916116be565b80f35b8480fd5b5090346101be57806003193601126101be576106a96111c9565b906024359182151580930361068b576001600160a01b03169283156107175750338452600560205280842083855260205280842060ff1981541660ff8416179055519081527f17307eab39ab6107e8899845ad3d59bd9653f200f220920489ca2b5937696c3160203392a380f35b836024925191630b61174360e31b8352820152fd5b509190346104c057602091826003193601126104c457926001600160a01b036107536111c9565b168452600d83528184209081549161076a836119bc565b946107778551968761127b565b83865280860191875280872096915b84831061079a57855180610624898261133b565b83826001926107a88b611a3f565b815201980192019196610786565b5050346104c057816003193601126104c0578051908260018054906107da8261144f565b808652918181169081156108505750600114610815575b5050506108038261062494038361127b565b51918291602083526020830190611189565b80955082526020948583205b82841061083d57505050826106249461080392820101946107f1565b8054868501880152928601928101610821565b61062497506108039450602092508693915060ff191682840152151560051b820101946107f1565b5050346104c057816003193601126104c05760075490516001600160a01b039091168152602090f35b5050346104c057816003193601126104c057602090600c549051908152f35b5090346101be57826003193601126101be57600e546108de816119bc565b926108eb8351948561127b565b818452600e85527fbb7b4a454dc3493923482f07822329ed19e8244eff582cc204f8554c3620c3fd9460208086015b84831061092e57855180610624898261133b565b838260019261093c8b611a3f565b81520198019201919661091a565b83346104c457806003193601126104c457610963611423565b600780546001600160a01b0319811690915581906001600160a01b03167f8be0079c531659141344cd1fd0a4f28419497f9722a3daafe3b4186f6b6457e08280a380f35b5091346104c45760203660031901126104c4576001600160a01b036109ca6111c9565b169283156109e75750806020938392526003845220549051908152f35b91516322718ad960e21b815291820152602490fd5b50816003193601126101be57610a106111e4565b92600c543410610b6057610a248235611ac6565b80516001600160a01b03959193918616908115610b4957808452602096600288528685205416918215159283610b16575b81865260038952878620805460010190558286526002895287862080546001600160a01b031916831790557fddf252ad1be2c89b69c2b068fc378daa952ba7f163c4a11628f55a4df523b3ef8680a4610b015750837ff8e1a15aba9398e019f0b49df1a4fde98ee17ae345cb5f6b5e2c27f5033e8ce791610ae58451918680870151918481526006865220611893565b8451908152a1610af6600b54611997565b600b55519051908152f35b6024918451916339e3563760e11b8352820152fd5b600083815260046020526040902080546001600160a01b0319169055808652600389528786208054600019019055610a55565b8551633250574960e11b8152808401859052602490fd5b506020606492519162461bcd60e51b83528201526017602482015276115d1a195c881c185a59081a5cc81a5b98dbdc9c9958dd604a1b6044820152fd5b5091346104c45760203660031901126104c45750610bbd6020923561180c565b90516001600160a01b039091168152f35b509190346104c057816003193601126104c0578180939252602091600d835281842090815491610bfd836119bc565b94610c0a8551968761127b565b83865280860191875280872096915b848310610c2d57855180610624898261133b565b8382600192610c3b8b611a3f565b815201980192019196610c19565b5050346104c057816003193601126104c05760085490516001600160a01b039091168152602090f35b5050346104c05761068890610c86366111fa565b91925192610c9384611260565b8584526116be565b50346101be57610caa3661130c565b919093805b600e548110156105bd5785610cc382611847565b505414610cd9575b610cd490611997565b610caf565b94815b610ce587611847565b50600380910154821015610f4157610d088282610d018b611847565b5001611a87565b5087518860209282610d238582019286845284830190611489565b0392610d37601f199485810183528261127b565b51902091610d6182519182610d558d88830196898852830190611189565b0390810183528261127b565b5190201480610f39575b610d7f575050610d7a90611997565b610cdc565b92610d9b82610d948b95979899949a9b611847565b50016119d3565b988951861015610f3557865b8a51811015610e415786811015610de55780610dc6610de0928d611ab2565b51610dd082611a9f565b52610dda81611a9f565b50611997565b610da7565b868111610df6575b610de090611997565b610e00818c611ab2565b51600019820190828211610e2e5781610e2691610e20610de09594611a9f565b52611a9f565b509050610ded565b634e487b7160e01b8a5260118b5260248afd5b509791969594509750919091610e5683611847565b506060519101600160401b8211610f22578054828255808310610eb3575b508452818420849260805b838510610e97575050505050610cd4905b9050610ccb565b60018282610ea783945187611893565b01930194019391610e7f565b8186528284872091820191015b818110610ecd5750610e74565b8087610edb6001935461144f565b80610ee9575b505001610ec0565b601f8082118514610f0057505081555b8738610ee1565b610f1990848452898420920160051c820185830161187c565b81835555610ef9565b634e487b7160e01b855260418652602485fd5b8680fd5b506001610d6b565b505094610cd490610e90565b83346104c457610688610f5f366111fa565b9161151f565b5090346101be57806003193601126101be57610f7f6111c9565b91602435610f8c8161180c565b3315158061102e575b80611005575b610fef576001600160a01b039485169482918691167f8c5be1e5ebec7d5bd14f71427d1e84f3dd0314c0f7b2291e5b200ac8c7c3b9258880a48452602052822080546001600160a01b031916909117905580f35b835163a9fbf51f60e01b81523381850152602490fd5b506001600160a01b03811686526005602090815284872033885290528386205460ff1615610f9b565b506001600160a01b038116331415610f95565b50346101be5760203660031901126101be579182602093356110628161180c565b50825283528190205490516001600160a01b039091168152f35b5050346104c057816003193601126104c05780519082805461109d8161144f565b8085529060019081811690811561085057506001146110c8575050506108038261062494038361127b565b94508180526020948583205b8284106110f057505050826106249461080392820101946107f1565b80548685018801529286019281016110d4565b925050346101be5760203660031901126101be573563ffffffff60e01b81168091036101be5760209250632483248360e11b8114908115611146575b5015158152f35b6380ac58cd60e01b811491508115611178575b8115611167575b503861113f565b6301ffc9a760e01b14905038611160565b635b5e139f60e01b81149150611159565b919082519283825260005b8481106111b5575050826000602080949584010152601f8019910116010190565b602081830181015184830182015201611194565b600435906001600160a01b03821682036111df57565b600080fd5b602435906001600160a01b03821682036111df57565b60609060031901126111df576001600160a01b039060043582811681036111df579160243590811681036111df579060443590565b608081019081106001600160401b0382111761124a57604052565b634e487b7160e01b600052604160045260246000fd5b602081019081106001600160401b0382111761124a57604052565b90601f801991011681019081106001600160401b0382111761124a57604052565b6001600160401b03811161124a57601f01601f191660200190565b9291926112c38261129c565b916112d1604051938461127b565b8294818452818301116111df578281602093846000960137010152565b9080601f830112156111df57816020611309933591016112b7565b90565b9060406003198301126111df5760043591602435906001600160401b0382116111df57611309916004016112ee565b6020808201908083528351809252604092838101600594838186881b850101970195600080945b8786106113755750505050505050505090565b90919293949580979899603f198382030187528a51908151815282820151838201526113ad878301516080808a850152830190611189565b90606080930151928183039101528151808252838201908480828a1b850101940192875b8281106113f557505050505090806001929b01960196019497969593929190611362565b919395806114116001939597601f198782030189528951611189565b970195019101918c95949391926113d1565b6007546001600160a01b0316330361143757565b60405163118cdaa760e01b8152336004820152602490fd5b90600182811c9216801561147f575b602083101461146957565b634e487b7160e01b600052602260045260246000fd5b91607f169161145e565b906000929180549161149a8361144f565b9182825260019384811690816000146114fc57506001146114bc575b50505050565b90919394506000526020928360002092846000945b8386106114e85750505050010190388080806114b6565b8054858701830152940193859082016114d1565b9294505050602093945060ff191683830152151560051b010190388080806114b6565b6001600160a01b0391821692909183156116a55760009282845282602095600287526040968488882054169687913315158061160f575b509060027fddf252ad1be2c89b69c2b068fc378daa952ba7f163c4a11628f55a4df523b3ef92846115dc575b858352600381528b8320805460010190558683525289812080546001600160a01b0319168517905580a416928383036115bb5750505050565b6064945051926364283d7b60e01b8452600484015260248301526044820152fd5b600087815260046020526040902080546001600160a01b0319169055848352600381528b83208054600019019055611582565b91939450915080611664575b1561162b57859291879138611556565b878688611648576024915190637e27328960e01b82526004820152fd5b604491519063177e802f60e01b82523360048301526024820152fd5b503387148015611689575b8061161b575085825260048152338589842054161461161b565b5086825260058152878220338352815260ff888320541661166f565b604051633250574960e11b815260006004820152602490fd5b6116c983838361151f565b813b6116d55750505050565b604051630a85bd0160e11b8082523360048301526001600160a01b03928316602483015260448201949094526080606482015260209592909116939092908390611723906084830190611189565b039285816000958187895af18491816117cc575b50611797575050503d60001461178f573d6117518161129c565b9061175f604051928361127b565b81528091843d92013e5b8051928361178a57604051633250574960e11b815260048101849052602490fd5b019050fd5b506060611769565b919450915063ffffffff60e01b16036117b45750388080806114b6565b60249060405190633250574960e11b82526004820152fd5b9091508681813d8311611805575b6117e4818361127b565b8101031261068b57516001600160e01b03198116810361068b579038611737565b503d6117da565b6000818152600260205260409020546001600160a01b031690811561182f575090565b60249060405190637e27328960e01b82526004820152fd5b600e5481101561186657600e60005260206000209060021b0190600090565b634e487b7160e01b600052603260045260246000fd5b818110611887575050565b6000815560010161187c565b91909182516001600160401b03811161124a576118b0825461144f565b601f811161195a575b50602080601f83116001146118f65750819293946000926118eb575b50508160011b916000199060031b1c1916179055565b0151905038806118d5565b90601f198316958460005282600020926000905b88821061194257505083600195969710611929575b505050811b019055565b015160001960f88460031b161c1916905538808061191f565b8060018596829496860151815501950193019061190a565b61198790836000526020600020601f840160051c8101916020851061198d575b601f0160051c019061187c565b386118b9565b909150819061197a565b60001981146119a65760010190565b634e487b7160e01b600052601160045260246000fd5b6001600160401b03811161124a5760051b60200190565b9081546119df816119bc565b926040936119ef8551918261127b565b828152809460208092019260005281600020906000935b858510611a1557505050505050565b60018481928451611a3181611a2a818a611489565b038261127b565b815201930194019391611a06565b90604051611a4c8161122f565b6060611a82600383958054855260018101546020860152604051611a7781611a2a8160028601611489565b6040860152016119d3565b910152565b80548210156118665760005260206000200190600090565b6060518110156118665760051b60800190565b80518210156118665760209160051b010190565b604090815190611ad58261122f565b606080600093848152846020820152818682015201528190600e54915b828110611b3957505050815190611b0882611260565b808252825192611b178461122f565b818452816020850152805191611b2c83611260565b8252830152606082015290565b81611b4382611847565b505414611b5857611b5390611997565b611af2565b9150506113099250611b6a9150611847565b50611a3f56fea2646970667358221220e3ebfa8a290e76f341b447b7c836130753cc908014f012b03e3f02ac20e0d27064736f6c63430008140033","opcodes":"PUSH1 0x80 CALLVALUE PUSH3 0x3E1 JUMPI PUSH1 0x1F SWAP1 PUSH1 0x1 PUSH1 0x1 PUSH1 0x40 SHL SUB SWAP1 PUSH1 0x1F NOT SWAP1 PUSH3 0x1FAD CODESIZE DUP2 SWAP1 SUB DUP6 DUP2 ADD DUP5 AND DUP4 ADD SWAP2 SWAP1 DUP6 DUP4 GT DUP5 DUP5 LT OR PUSH3 0x3CB JUMPI DUP1 DUP5 SWAP3 PUSH1 0x40 SWAP5 DUP6 MSTORE DUP4 CODECOPY DUP2 ADD SUB SLT PUSH3 0x3E1 JUMPI DUP1 MLOAD PUSH1 0x20 SWAP2 DUP3 ADD MLOAD PUSH1 0x1 PUSH1 0x1 PUSH1 0xA0 SHL SUB SWAP6 DUP7 DUP3 AND SWAP6 SWAP3 SWAP4 SWAP3 SWAP2 DUP7 SWAP1 SUB PUSH3 0x3E1 JUMPI PUSH3 0x72 PUSH3 0x3E6 JUMP JUMPDEST SWAP3 PUSH1 0xA DUP5 MSTORE PUSH10 0x21B7B63632B1BA34B7B7 PUSH1 0xB1 SHL DUP2 DUP6 ADD MSTORE PUSH3 0x93 PUSH3 0x3E6 JUMP JUMPDEST SWAP1 PUSH1 0x3 DUP3 MSTORE PUSH3 0x139195 PUSH1 0xEA SHL DUP2 DUP4 ADD MSTORE DUP5 MLOAD SWAP7 DUP5 DUP9 GT PUSH3 0x3CB JUMPI PUSH1 0x0 SWAP8 DUP9 SLOAD SWAP7 PUSH1 0x1 SWAP8 DUP9 DUP2 DUP2 SHR SWAP2 AND DUP1 ISZERO PUSH3 0x3C0 JUMPI JUMPDEST DUP6 DUP3 LT EQ PUSH3 0x3AC JUMPI SWAP1 DUP2 DUP8 DUP5 SWAP4 GT PUSH3 0x359 JUMPI JUMPDEST POP DUP5 SWAP1 DUP8 DUP4 GT PUSH1 0x1 EQ PUSH3 0x2F8 JUMPI DUP12 SWAP3 PUSH3 0x2EC JUMPI JUMPDEST POP POP PUSH1 0x0 NOT PUSH1 0x3 DUP4 SWAP1 SHL SHR NOT AND SWAP1 DUP8 SHL OR DUP9 SSTORE JUMPDEST DUP3 MLOAD SWAP5 DUP6 GT PUSH3 0x2D8 JUMPI DUP6 SLOAD DUP7 DUP2 DUP2 SHR SWAP2 AND DUP1 ISZERO PUSH3 0x2CD JUMPI JUMPDEST DUP4 DUP3 LT EQ PUSH3 0x2B9 JUMPI SWAP1 DUP2 DUP6 DUP8 SWAP7 SWAP6 SWAP5 SWAP4 GT PUSH3 0x260 JUMPI JUMPDEST POP DUP2 SWAP4 DUP6 GT PUSH1 0x1 EQ PUSH3 0x1FB JUMPI POP POP DUP7 SWAP3 PUSH3 0x1EF JUMPI JUMPDEST POP POP PUSH1 0x0 NOT PUSH1 0x3 DUP4 SWAP1 SHL SHR NOT AND SWAP1 DUP3 SHL OR SWAP1 SSTORE JUMPDEST CALLER ISZERO PUSH3 0x1D6 JUMPI PUSH1 0x7 DUP1 SLOAD PUSH1 0x1 PUSH1 0x1 PUSH1 0xA0 SHL SUB NOT DUP1 DUP3 AND CALLER SWAP1 DUP2 OR SWAP1 SWAP4 SSTORE PUSH1 0x40 MLOAD SWAP7 SWAP1 SWAP5 SWAP3 SWAP2 AND PUSH32 0x8BE0079C531659141344CD1FD0A4F28419497F9722A3DAAFE3B4186F6B6457E0 DUP4 DUP1 LOG3 DUP1 PUSH1 0xA SSTORE PUSH1 0xB SSTORE PUSH7 0x2386F26FC10000 PUSH1 0xC SSTORE PUSH1 0x9 SSTORE PUSH1 0x8 SLOAD AND OR PUSH1 0x8 SSTORE PUSH2 0x1BA6 SWAP1 DUP2 PUSH3 0x407 DUP3 CODECOPY RETURN JUMPDEST PUSH1 0x40 MLOAD PUSH4 0x1E4FBDF7 PUSH1 0xE0 SHL DUP2 MSTORE PUSH1 0x4 DUP2 ADD DUP4 SWAP1 MSTORE PUSH1 0x24 SWAP1 REVERT JUMPDEST ADD MLOAD SWAP1 POP CODESIZE DUP1 PUSH3 0x14D JUMP JUMPDEST DUP7 SWAP6 SWAP4 SWAP3 SWAP2 SWAP4 AND DUP6 DUP10 MSTORE DUP4 DUP10 KECCAK256 SWAP4 DUP10 SWAP1 JUMPDEST DUP3 DUP3 LT PUSH3 0x246 JUMPI POP POP DUP5 GT PUSH3 0x22C JUMPI JUMPDEST POP POP POP DUP2 SHL ADD SWAP1 SSTORE PUSH3 0x161 JUMP JUMPDEST ADD MLOAD PUSH1 0x0 NOT PUSH1 0xF8 DUP5 PUSH1 0x3 SHL AND SHR NOT AND SWAP1 SSTORE CODESIZE DUP1 DUP1 PUSH3 0x21E JUMP JUMPDEST DUP5 DUP5 ADD MLOAD DUP7 SSTORE DUP9 SWAP8 SWAP1 SWAP6 ADD SWAP5 SWAP4 DUP5 ADD SWAP4 SWAP1 DUP2 ADD SWAP1 PUSH3 0x20C JUMP JUMPDEST SWAP1 SWAP2 SWAP3 SWAP4 SWAP5 POP DUP7 DUP10 MSTORE DUP3 DUP10 KECCAK256 DUP6 DUP1 DUP9 ADD PUSH1 0x5 SHR DUP3 ADD SWAP3 DUP6 DUP10 LT PUSH3 0x2AF JUMPI JUMPDEST SWAP2 DUP9 SWAP8 DUP11 SWAP3 SWAP8 SWAP7 SWAP6 SWAP5 SWAP4 ADD PUSH1 0x5 SHR ADD SWAP2 JUMPDEST DUP3 DUP2 LT PUSH3 0x2A0 JUMPI POP POP PUSH3 0x136 JUMP JUMPDEST DUP12 DUP2 SSTORE DUP9 SWAP8 POP DUP10 SWAP2 ADD PUSH3 0x290 JUMP JUMPDEST SWAP3 POP DUP2 SWAP3 PUSH3 0x27F JUMP JUMPDEST PUSH4 0x4E487B71 PUSH1 0xE0 SHL DUP10 MSTORE PUSH1 0x22 PUSH1 0x4 MSTORE PUSH1 0x24 DUP10 REVERT JUMPDEST SWAP1 PUSH1 0x7F AND SWAP1 PUSH3 0x11E JUMP JUMPDEST PUSH4 0x4E487B71 PUSH1 0xE0 SHL DUP9 MSTORE PUSH1 0x41 PUSH1 0x4 MSTORE PUSH1 0x24 DUP9 REVERT JUMPDEST ADD MLOAD SWAP1 POP CODESIZE DUP1 PUSH3 0xF0 JUMP JUMPDEST SWAP1 DUP5 DUP11 SWAP5 AND SWAP2 DUP13 DUP1 MSTORE DUP7 DUP14 KECCAK256 SWAP3 DUP14 JUMPDEST DUP9 DUP3 DUP3 LT PUSH3 0x342 JUMPI POP POP DUP5 GT PUSH3 0x328 JUMPI JUMPDEST POP POP POP DUP2 SHL ADD DUP9 SSTORE PUSH3 0x104 JUMP JUMPDEST ADD MLOAD PUSH1 0x0 NOT PUSH1 0xF8 DUP5 PUSH1 0x3 SHL AND SHR NOT AND SWAP1 SSTORE CODESIZE DUP1 DUP1 PUSH3 0x31A JUMP JUMPDEST DUP4 DUP6 ADD MLOAD DUP7 SSTORE DUP14 SWAP8 SWAP1 SWAP6 ADD SWAP5 SWAP4 DUP5 ADD SWAP4 ADD PUSH3 0x307 JUMP JUMPDEST SWAP1 SWAP2 POP DUP11 DUP1 MSTORE DUP5 DUP12 KECCAK256 DUP8 DUP1 DUP6 ADD PUSH1 0x5 SHR DUP3 ADD SWAP3 DUP8 DUP7 LT PUSH3 0x3A2 JUMPI JUMPDEST SWAP2 DUP12 SWAP2 DUP7 SWAP6 SWAP5 SWAP4 ADD PUSH1 0x5 SHR ADD SWAP2 JUMPDEST DUP3 DUP2 LT PUSH3 0x393 JUMPI POP POP PUSH3 0xDA JUMP JUMPDEST DUP14 DUP2 SSTORE DUP6 SWAP5 POP DUP12 SWAP2 ADD PUSH3 0x383 JUMP JUMPDEST SWAP3 POP DUP2 SWAP3 PUSH3 0x375 JUMP JUMPDEST PUSH4 0x4E487B71 PUSH1 0xE0 SHL DUP12 MSTORE PUSH1 0x22 PUSH1 0x4 MSTORE PUSH1 0x24 DUP12 REVERT JUMPDEST SWAP1 PUSH1 0x7F AND SWAP1 PUSH3 0xC5 JUMP JUMPDEST PUSH4 0x4E487B71 PUSH1 0xE0 SHL PUSH1 0x0 MSTORE PUSH1 0x41 PUSH1 0x4 MSTORE PUSH1 0x24 PUSH1 0x0 REVERT JUMPDEST PUSH1 0x0 DUP1 REVERT JUMPDEST PUSH1 0x40 DUP1 MLOAD SWAP2 SWAP1 DUP3 ADD PUSH1 0x1 PUSH1 0x1 PUSH1 0x40 SHL SUB DUP2 GT DUP4 DUP3 LT OR PUSH3 0x3CB JUMPI PUSH1 0x40 MSTORE JUMP INVALID PUSH1 0x80 PUSH1 0x40 DUP2 DUP2 MSTORE PUSH1 0x4 DUP1 CALLDATASIZE LT ISZERO PUSH2 0x15 JUMPI PUSH1 0x0 DUP1 REVERT JUMPDEST PUSH1 0x0 SWAP3 DUP4 CALLDATALOAD PUSH1 0xE0 SHR SWAP1 DUP2 PUSH4 0x1FFC9A7 EQ PUSH2 0x1103 JUMPI POP DUP1 PUSH4 0x6FDDE03 EQ PUSH2 0x107C JUMPI DUP1 PUSH4 0x81812FC EQ PUSH2 0x1041 JUMPI DUP1 PUSH4 0x95EA7B3 EQ PUSH2 0xF65 JUMPI DUP1 PUSH4 0x23B872DD EQ PUSH2 0xF4D JUMPI DUP1 PUSH4 0x31ABAB7C EQ PUSH2 0xC9B JUMPI DUP1 PUSH4 0x42842E0E EQ PUSH2 0xC72 JUMPI DUP1 PUSH4 0x43BC1612 EQ PUSH2 0xC49 JUMPI DUP1 PUSH4 0x5FEC6E67 EQ PUSH2 0xBCE JUMPI DUP1 PUSH4 0x6352211E EQ PUSH2 0xB9D JUMPI DUP1 PUSH4 0x669F5A51 EQ PUSH2 0x9FC JUMPI DUP1 PUSH4 0x70A08231 EQ PUSH2 0x9A7 JUMPI DUP1 PUSH4 0x715018A6 EQ PUSH2 0x94A JUMPI DUP1 PUSH4 0x7C26B48E EQ PUSH2 0x8C0 JUMPI DUP1 PUSH4 0x833B9499 EQ PUSH2 0x8A1 JUMPI DUP1 PUSH4 0x8DA5CB5B EQ PUSH2 0x878 JUMPI DUP1 PUSH4 0x95D89B41 EQ PUSH2 0x7B6 JUMPI DUP1 PUSH4 0x96ABC52B EQ PUSH2 0x72C JUMPI DUP1 PUSH4 0xA22CB465 EQ PUSH2 0x68F JUMPI DUP1 PUSH4 0xB88D4FDE EQ PUSH2 0x628 JUMPI DUP1 PUSH4 0xC87B56DD EQ PUSH2 0x5C1 JUMPI DUP1 PUSH4 0xD039AA96 EQ PUSH2 0x515 JUMPI DUP1 PUSH4 0xE985E9C5 EQ PUSH2 0x4C7 JUMPI DUP1 PUSH4 0xEE36675B EQ PUSH2 0x1C2 JUMPI PUSH4 0xF2FDE38B EQ PUSH2 0x136 JUMPI PUSH1 0x0 DUP1 REVERT JUMPDEST CALLVALUE PUSH2 0x1BE JUMPI PUSH1 0x20 CALLDATASIZE PUSH1 0x3 NOT ADD SLT PUSH2 0x1BE JUMPI PUSH2 0x14F PUSH2 0x11C9 JUMP JUMPDEST SWAP1 PUSH2 0x158 PUSH2 0x1423 JUMP JUMPDEST PUSH1 0x1 PUSH1 0x1 PUSH1 0xA0 SHL SUB SWAP2 DUP3 AND SWAP3 DUP4 ISZERO PUSH2 0x1A8 JUMPI POP POP PUSH1 0x7 DUP1 SLOAD PUSH1 0x1 PUSH1 0x1 PUSH1 0xA0 SHL SUB NOT DUP2 AND DUP5 OR SWAP1 SWAP2 SSTORE AND PUSH32 0x8BE0079C531659141344CD1FD0A4F28419497F9722A3DAAFE3B4186F6B6457E0 DUP4 DUP1 LOG3 DUP1 RETURN JUMPDEST MLOAD PUSH4 0x1E4FBDF7 PUSH1 0xE0 SHL DUP2 MSTORE SWAP1 DUP2 ADD DUP5 SWAP1 MSTORE PUSH1 0x24 SWAP1 REVERT JUMPDEST DUP3 DUP1 REVERT JUMPDEST POP SWAP2 CALLVALUE PUSH2 0x4C4 JUMPI PUSH1 0x20 SWAP3 DUP4 PUSH1 0x3 NOT CALLDATASIZE ADD SLT PUSH2 0x4C0 JUMPI DUP1 CALLDATALOAD PUSH1 0x1 PUSH1 0x1 PUSH1 0x40 SHL SUB DUP2 GT PUSH2 0x1BE JUMPI PUSH2 0x1F4 SWAP1 CALLDATASIZE SWAP1 DUP4 ADD PUSH2 0x12EE JUMP JUMPDEST SWAP2 PUSH1 0xA SLOAD PUSH1 0x9 SLOAD SWAP3 DUP6 MLOAD SWAP2 PUSH2 0x208 DUP4 PUSH2 0x122F JUMP JUMPDEST DUP3 MSTORE DUP7 DUP3 ADD SWAP4 DUP5 MSTORE DUP6 DUP3 ADD SWAP5 DUP6 MSTORE PUSH1 0x60 DUP3 ADD SWAP2 PUSH1 0x60 DUP4 MSTORE DUP4 DUP1 MSTORE PUSH1 0xD DUP9 MSTORE DUP7 DUP5 KECCAK256 SWAP6 DUP7 SLOAD SWAP6 PUSH1 0x1 PUSH1 0x40 SHL SWAP7 DUP8 DUP2 LT ISZERO PUSH2 0x3EB JUMPI PUSH1 0x1 SWAP9 DUP10 DUP3 ADD DUP1 DUP3 SSTORE DUP3 LT ISZERO PUSH2 0x4AD JUMPI SWAP1 PUSH1 0x3 SWAP2 DUP9 MSTORE DUP12 DUP9 KECCAK256 SWAP1 PUSH1 0x2 SHL ADD DUP5 MLOAD DUP2 SSTORE DUP3 MLOAD DUP11 DUP3 ADD SSTORE PUSH2 0x271 DUP5 MLOAD PUSH1 0x2 DUP4 ADD PUSH2 0x1893 JUMP JUMPDEST ADD DUP6 MLOAD SWAP1 DUP2 MLOAD SWAP2 DUP10 DUP4 GT PUSH2 0x49A JUMPI DUP13 SWAP1 DUP3 SLOAD DUP5 DUP5 SSTORE DUP5 DUP2 DUP2 LT PUSH2 0x41A JUMPI JUMPDEST POP POP SWAP1 DUP1 SWAP3 SWAP2 ADD SWAP1 DUP10 MSTORE DUP11 DUP3 DUP11 KECCAK256 SWAP2 DUP11 SWAP4 JUMPDEST DUP6 DUP6 LT PUSH2 0x3FE JUMPI POP POP POP POP POP POP PUSH1 0xE SLOAD DUP8 DUP2 LT ISZERO PUSH2 0x3EB JUMPI DUP1 DUP10 PUSH2 0x2C8 SWAP3 ADD PUSH1 0xE SSTORE PUSH2 0x1847 JUMP JUMPDEST SWAP4 SWAP1 SWAP4 PUSH2 0x3D9 JUMPI MLOAD DUP4 SSTORE MLOAD DUP8 DUP4 ADD SSTORE MLOAD PUSH1 0x3 SWAP2 SWAP1 PUSH2 0x2E9 SWAP1 PUSH1 0x2 DUP4 ADD PUSH2 0x1893 JUMP JUMPDEST ADD SWAP2 MLOAD SWAP1 DUP2 MLOAD SWAP5 DUP6 GT PUSH2 0x3C6 JUMPI POP DUP7 SWAP1 DUP3 SLOAD DUP6 DUP5 SSTORE DUP1 DUP7 LT PUSH2 0x34D JUMPI JUMPDEST POP SWAP2 DUP4 MSTORE DUP7 DUP4 KECCAK256 SWAP2 DUP8 SWAP2 ADD JUMPDEST DUP5 DUP5 LT PUSH2 0x330 JUMPI POP PUSH1 0xA SLOAD DUP7 PUSH2 0x327 DUP3 PUSH2 0x1997 JUMP JUMPDEST PUSH1 0xA SSTORE MLOAD SWAP1 DUP2 MSTORE RETURN JUMPDEST DUP6 SWAP2 DUP2 PUSH2 0x33F DUP5 SWAP4 MLOAD DUP7 PUSH2 0x1893 JUMP JUMPDEST ADD SWAP3 ADD SWAP3 ADD SWAP2 SWAP1 DUP7 SWAP1 PUSH2 0x312 JUMP JUMPDEST DUP4 DUP6 MSTORE DUP7 DUP7 DUP5 DUP8 KECCAK256 SWAP3 DUP4 ADD SWAP3 ADD JUMPDEST DUP3 DUP2 LT PUSH2 0x369 JUMPI POP POP PUSH2 0x306 JUMP JUMPDEST SWAP1 SWAP2 SWAP3 SWAP4 POP DUP6 PUSH2 0x379 DUP3 SLOAD PUSH2 0x144F JUMP JUMPDEST DUP1 PUSH2 0x38C JUMPI JUMPDEST POP POP ADD SWAP1 DUP7 DUP10 SWAP4 SWAP3 PUSH2 0x35B JUMP JUMPDEST PUSH1 0x1F DUP1 DUP3 GT PUSH1 0x1 EQ PUSH2 0x3A4 JUMPI POP POP DUP2 SSTORE JUMPDEST DUP6 CODESIZE PUSH2 0x37F JUMP JUMPDEST PUSH2 0x3BD SWAP1 DUP5 DUP5 MSTORE DUP14 DUP5 KECCAK256 SWAP3 ADD PUSH1 0x5 SHR DUP3 ADD DUP6 DUP4 ADD PUSH2 0x187C JUMP JUMPDEST DUP2 DUP4 SSTORE SSTORE PUSH2 0x39D JUMP JUMPDEST PUSH4 0x4E487B71 PUSH1 0xE0 SHL DUP5 MSTORE PUSH1 0x41 SWAP1 MSTORE PUSH1 0x24 DUP4 REVERT JUMPDEST PUSH4 0x4E487B71 PUSH1 0xE0 SHL DUP8 MSTORE DUP7 DUP6 MSTORE PUSH1 0x24 DUP8 REVERT JUMPDEST PUSH4 0x4E487B71 PUSH1 0xE0 SHL DUP8 MSTORE PUSH1 0x41 DUP6 MSTORE PUSH1 0x24 DUP8 REVERT JUMPDEST DUP2 PUSH2 0x40B DUP5 SWAP4 MLOAD DUP7 PUSH2 0x1893 JUMP JUMPDEST ADD SWAP3 ADD SWAP3 ADD SWAP2 SWAP1 DUP12 SWAP1 DUP15 PUSH2 0x2A1 JUMP JUMPDEST POP DUP4 DUP12 MSTORE DUP13 DUP6 DUP5 DUP14 KECCAK256 SWAP3 DUP4 ADD SWAP3 ADD JUMPDEST DUP13 DUP4 DUP3 LT PUSH2 0x43A JUMPI POP POP POP DUP5 PUSH2 0x28F JUMP JUMPDEST SWAP1 SWAP2 SWAP3 SWAP4 SWAP5 PUSH2 0x449 DUP4 SLOAD PUSH2 0x144F JUMP JUMPDEST SWAP1 DUP2 PUSH2 0x45E JUMPI JUMPDEST POP POP POP ADD SWAP1 DUP13 DUP16 SWAP4 SWAP3 PUSH2 0x429 JUMP JUMPDEST PUSH1 0x1F DUP1 DUP4 GT PUSH1 0x1 EQ PUSH2 0x479 JUMPI POP POP POP DUP2 SSTORE JUMPDEST DUP16 CODESIZE DUP14 SWAP2 PUSH2 0x450 JUMP JUMPDEST PUSH2 0x491 SWAP2 DUP6 DUP6 MSTORE DUP5 KECCAK256 SWAP3 ADD PUSH1 0x5 SHR DUP3 ADD DUP6 DUP4 ADD PUSH2 0x187C JUMP JUMPDEST DUP2 DUP4 SSTORE SSTORE PUSH2 0x470 JUMP JUMPDEST PUSH4 0x4E487B71 PUSH1 0xE0 SHL DUP10 MSTORE PUSH1 0x41 DUP8 MSTORE PUSH1 0x24 DUP10 REVERT JUMPDEST PUSH4 0x4E487B71 PUSH1 0xE0 SHL DUP9 MSTORE PUSH1 0x32 DUP7 MSTORE PUSH1 0x24 DUP9 REVERT JUMPDEST POP DUP1 REVERT JUMPDEST DUP1 REVERT JUMPDEST POP POP CALLVALUE PUSH2 0x4C0 JUMPI DUP1 PUSH1 0x3 NOT CALLDATASIZE ADD SLT PUSH2 0x4C0 JUMPI PUSH1 0xFF DUP2 PUSH1 0x20 SWAP4 PUSH2 0x4E7 PUSH2 0x11C9 JUMP JUMPDEST PUSH2 0x4EF PUSH2 0x11E4 JUMP JUMPDEST PUSH1 0x1 PUSH1 0x1 PUSH1 0xA0 SHL SUB SWAP2 DUP3 AND DUP4 MSTORE PUSH1 0x5 DUP8 MSTORE DUP4 DUP4 KECCAK256 SWAP2 AND DUP3 MSTORE DUP6 MSTORE KECCAK256 SLOAD SWAP2 MLOAD SWAP2 AND ISZERO ISZERO DUP2 MSTORE RETURN JUMPDEST POP DUP3 CALLVALUE PUSH2 0x4C4 JUMPI PUSH2 0x525 CALLDATASIZE PUSH2 0x130C JUMP JUMPDEST SWAP1 SWAP2 DUP1 JUMPDEST PUSH1 0xE SLOAD DUP2 LT ISZERO PUSH2 0x5BD JUMPI DUP4 PUSH2 0x53D DUP3 PUSH2 0x1847 JUMP JUMPDEST POP SLOAD EQ PUSH2 0x553 JUMPI JUMPDEST PUSH2 0x54E SWAP1 PUSH2 0x1997 JUMP JUMPDEST PUSH2 0x529 JUMP JUMPDEST PUSH1 0x3 PUSH2 0x55E DUP3 PUSH2 0x1847 JUMP JUMPDEST POP ADD DUP1 SLOAD SWAP1 PUSH1 0x1 PUSH1 0x40 SHL DUP3 LT ISZERO PUSH2 0x5AA JUMPI SWAP1 PUSH2 0x57F SWAP2 PUSH1 0x1 DUP3 ADD DUP2 SSTORE PUSH2 0x1A87 JUMP JUMPDEST PUSH2 0x598 JUMPI SWAP1 PUSH2 0x591 DUP5 PUSH2 0x54E SWAP4 PUSH2 0x1893 JUMP JUMPDEST SWAP1 POP PUSH2 0x545 JUMP JUMPDEST PUSH4 0x4E487B71 PUSH1 0xE0 SHL DUP4 MSTORE DUP3 DUP7 MSTORE PUSH1 0x24 DUP4 REVERT JUMPDEST PUSH4 0x4E487B71 PUSH1 0xE0 SHL DUP5 MSTORE PUSH1 0x41 DUP8 MSTORE PUSH1 0x24 DUP5 REVERT JUMPDEST POP DUP1 RETURN JUMPDEST POP CALLVALUE PUSH2 0x1BE JUMPI PUSH1 0x20 CALLDATASIZE PUSH1 0x3 NOT ADD SLT PUSH2 0x1BE JUMPI SWAP1 PUSH2 0x624 SWAP3 PUSH2 0x5FF SWAP3 CALLDATALOAD PUSH2 0x5E6 DUP2 PUSH2 0x180C JUMP JUMPDEST POP DUP2 MSTORE PUSH1 0x6 PUSH1 0x20 MSTORE PUSH2 0x606 DUP3 DUP3 KECCAK256 DUP4 MLOAD SWAP5 DUP6 DUP1 SWAP3 PUSH2 0x1489 JUMP JUMPDEST SUB DUP5 PUSH2 0x127B JUMP JUMPDEST DUP2 MLOAD PUSH2 0x611 DUP2 PUSH2 0x1260 JUMP JUMPDEST MSTORE MLOAD SWAP2 DUP3 SWAP2 PUSH1 0x20 DUP4 MSTORE PUSH1 0x20 DUP4 ADD SWAP1 PUSH2 0x1189 JUMP JUMPDEST SUB SWAP1 RETURN JUMPDEST DUP4 DUP3 CALLVALUE PUSH2 0x4C0 JUMPI PUSH1 0x80 CALLDATASIZE PUSH1 0x3 NOT ADD SLT PUSH2 0x4C0 JUMPI PUSH2 0x643 PUSH2 0x11C9 JUMP JUMPDEST PUSH2 0x64B PUSH2 0x11E4 JUMP JUMPDEST SWAP1 PUSH1 0x64 CALLDATALOAD PUSH1 0x1 PUSH1 0x1 PUSH1 0x40 SHL SUB DUP2 GT PUSH2 0x68B JUMPI CALLDATASIZE PUSH1 0x23 DUP3 ADD SLT ISZERO PUSH2 0x68B JUMPI PUSH2 0x688 SWAP4 DUP2 PUSH1 0x24 PUSH2 0x67E SWAP4 CALLDATASIZE SWAP4 ADD CALLDATALOAD SWAP2 ADD PUSH2 0x12B7 JUMP JUMPDEST SWAP2 PUSH1 0x44 CALLDATALOAD SWAP2 PUSH2 0x16BE JUMP JUMPDEST DUP1 RETURN JUMPDEST DUP5 DUP1 REVERT JUMPDEST POP SWAP1 CALLVALUE PUSH2 0x1BE JUMPI DUP1 PUSH1 0x3 NOT CALLDATASIZE ADD SLT PUSH2 0x1BE JUMPI PUSH2 0x6A9 PUSH2 0x11C9 JUMP JUMPDEST SWAP1 PUSH1 0x24 CALLDATALOAD SWAP2 DUP3 ISZERO ISZERO DUP1 SWAP4 SUB PUSH2 0x68B JUMPI PUSH1 0x1 PUSH1 0x1 PUSH1 0xA0 SHL SUB AND SWAP3 DUP4 ISZERO PUSH2 0x717 JUMPI POP CALLER DUP5 MSTORE PUSH1 0x5 PUSH1 0x20 MSTORE DUP1 DUP5 KECCAK256 DUP4 DUP6 MSTORE PUSH1 0x20 MSTORE DUP1 DUP5 KECCAK256 PUSH1 0xFF NOT DUP2 SLOAD AND PUSH1 0xFF DUP5 AND OR SWAP1 SSTORE MLOAD SWAP1 DUP2 MSTORE PUSH32 0x17307EAB39AB6107E8899845AD3D59BD9653F200F220920489CA2B5937696C31 PUSH1 0x20 CALLER SWAP3 LOG3 DUP1 RETURN JUMPDEST DUP4 PUSH1 0x24 SWAP3 MLOAD SWAP2 PUSH4 0xB611743 PUSH1 0xE3 SHL DUP4 MSTORE DUP3 ADD MSTORE REVERT JUMPDEST POP SWAP2 SWAP1 CALLVALUE PUSH2 0x4C0 JUMPI PUSH1 0x20 SWAP2 DUP3 PUSH1 0x3 NOT CALLDATASIZE ADD SLT PUSH2 0x4C4 JUMPI SWAP3 PUSH1 0x1 PUSH1 0x1 PUSH1 0xA0 SHL SUB PUSH2 0x753 PUSH2 0x11C9 JUMP JUMPDEST AND DUP5 MSTORE PUSH1 0xD DUP4 MSTORE DUP2 DUP5 KECCAK256 SWAP1 DUP2 SLOAD SWAP2 PUSH2 0x76A DUP4 PUSH2 0x19BC JUMP JUMPDEST SWAP5 PUSH2 0x777 DUP6 MLOAD SWAP7 DUP8 PUSH2 0x127B JUMP JUMPDEST DUP4 DUP7 MSTORE DUP1 DUP7 ADD SWAP2 DUP8 MSTORE DUP1 DUP8 KECCAK256 SWAP7 SWAP2 JUMPDEST DUP5 DUP4 LT PUSH2 0x79A JUMPI DUP6 MLOAD DUP1 PUSH2 0x624 DUP10 DUP3 PUSH2 0x133B JUMP JUMPDEST DUP4 DUP3 PUSH1 0x1 SWAP3 PUSH2 0x7A8 DUP12 PUSH2 0x1A3F JUMP JUMPDEST DUP2 MSTORE ADD SWAP9 ADD SWAP3 ADD SWAP2 SWAP7 PUSH2 0x786 JUMP JUMPDEST POP POP CALLVALUE PUSH2 0x4C0 JUMPI DUP2 PUSH1 0x3 NOT CALLDATASIZE ADD SLT PUSH2 0x4C0 JUMPI DUP1 MLOAD SWAP1 DUP3 PUSH1 0x1 DUP1 SLOAD SWAP1 PUSH2 0x7DA DUP3 PUSH2 0x144F JUMP JUMPDEST DUP1 DUP7 MSTORE SWAP2 DUP2 DUP2 AND SWAP1 DUP2 ISZERO PUSH2 0x850 JUMPI POP PUSH1 0x1 EQ PUSH2 0x815 JUMPI JUMPDEST POP POP POP PUSH2 0x803 DUP3 PUSH2 0x624 SWAP5 SUB DUP4 PUSH2 0x127B JUMP JUMPDEST MLOAD SWAP2 DUP3 SWAP2 PUSH1 0x20 DUP4 MSTORE PUSH1 0x20 DUP4 ADD SWAP1 PUSH2 0x1189 JUMP JUMPDEST DUP1 SWAP6 POP DUP3 MSTORE PUSH1 0x20 SWAP5 DUP6 DUP4 KECCAK256 JUMPDEST DUP3 DUP5 LT PUSH2 0x83D JUMPI POP POP POP DUP3 PUSH2 0x624 SWAP5 PUSH2 0x803 SWAP3 DUP3 ADD ADD SWAP5 PUSH2 0x7F1 JUMP JUMPDEST DUP1 SLOAD DUP7 DUP6 ADD DUP9 ADD MSTORE SWAP3 DUP7 ADD SWAP3 DUP2 ADD PUSH2 0x821 JUMP JUMPDEST PUSH2 0x624 SWAP8 POP PUSH2 0x803 SWAP5 POP PUSH1 0x20 SWAP3 POP DUP7 SWAP4 SWAP2 POP PUSH1 0xFF NOT AND DUP3 DUP5 ADD MSTORE ISZERO ISZERO PUSH1 0x5 SHL DUP3 ADD ADD SWAP5 PUSH2 0x7F1 JUMP JUMPDEST POP POP CALLVALUE PUSH2 0x4C0 JUMPI DUP2 PUSH1 0x3 NOT CALLDATASIZE ADD SLT PUSH2 0x4C0 JUMPI PUSH1 0x7 SLOAD SWAP1 MLOAD PUSH1 0x1 PUSH1 0x1 PUSH1 0xA0 SHL SUB SWAP1 SWAP2 AND DUP2 MSTORE PUSH1 0x20 SWAP1 RETURN JUMPDEST POP POP CALLVALUE PUSH2 0x4C0 JUMPI DUP2 PUSH1 0x3 NOT CALLDATASIZE ADD SLT PUSH2 0x4C0 JUMPI PUSH1 0x20 SWAP1 PUSH1 0xC SLOAD SWAP1 MLOAD SWAP1 DUP2 MSTORE RETURN JUMPDEST POP SWAP1 CALLVALUE PUSH2 0x1BE JUMPI DUP3 PUSH1 0x3 NOT CALLDATASIZE ADD SLT PUSH2 0x1BE JUMPI PUSH1 0xE SLOAD PUSH2 0x8DE DUP2 PUSH2 0x19BC JUMP JUMPDEST SWAP3 PUSH2 0x8EB DUP4 MLOAD SWAP5 DUP6 PUSH2 0x127B JUMP JUMPDEST DUP2 DUP5 MSTORE PUSH1 0xE DUP6 MSTORE PUSH32 0xBB7B4A454DC3493923482F07822329ED19E8244EFF582CC204F8554C3620C3FD SWAP5 PUSH1 0x20 DUP1 DUP7 ADD JUMPDEST DUP5 DUP4 LT PUSH2 0x92E JUMPI DUP6 MLOAD DUP1 PUSH2 0x624 DUP10 DUP3 PUSH2 0x133B JUMP JUMPDEST DUP4 DUP3 PUSH1 0x1 SWAP3 PUSH2 0x93C DUP12 PUSH2 0x1A3F JUMP JUMPDEST DUP2 MSTORE ADD SWAP9 ADD SWAP3 ADD SWAP2 SWAP7 PUSH2 0x91A JUMP JUMPDEST DUP4 CALLVALUE PUSH2 0x4C4 JUMPI DUP1 PUSH1 0x3 NOT CALLDATASIZE ADD SLT PUSH2 0x4C4 JUMPI PUSH2 0x963 PUSH2 0x1423 JUMP JUMPDEST PUSH1 0x7 DUP1 SLOAD PUSH1 0x1 PUSH1 0x1 PUSH1 0xA0 SHL SUB NOT DUP2 AND SWAP1 SWAP2 SSTORE DUP2 SWAP1 PUSH1 0x1 PUSH1 0x1 PUSH1 0xA0 SHL SUB AND PUSH32 0x8BE0079C531659141344CD1FD0A4F28419497F9722A3DAAFE3B4186F6B6457E0 DUP3 DUP1 LOG3 DUP1 RETURN JUMPDEST POP SWAP2 CALLVALUE PUSH2 0x4C4 JUMPI PUSH1 0x20 CALLDATASIZE PUSH1 0x3 NOT ADD SLT PUSH2 0x4C4 JUMPI PUSH1 0x1 PUSH1 0x1 PUSH1 0xA0 SHL SUB PUSH2 0x9CA PUSH2 0x11C9 JUMP JUMPDEST AND SWAP3 DUP4 ISZERO PUSH2 0x9E7 JUMPI POP DUP1 PUSH1 0x20 SWAP4 DUP4 SWAP3 MSTORE PUSH1 0x3 DUP5 MSTORE KECCAK256 SLOAD SWAP1 MLOAD SWAP1 DUP2 MSTORE RETURN JUMPDEST SWAP2 MLOAD PUSH4 0x22718AD9 PUSH1 0xE2 SHL DUP2 MSTORE SWAP2 DUP3 ADD MSTORE PUSH1 0x24 SWAP1 REVERT JUMPDEST POP DUP2 PUSH1 0x3 NOT CALLDATASIZE ADD SLT PUSH2 0x1BE JUMPI PUSH2 0xA10 PUSH2 0x11E4 JUMP JUMPDEST SWAP3 PUSH1 0xC SLOAD CALLVALUE LT PUSH2 0xB60 JUMPI PUSH2 0xA24 DUP3 CALLDATALOAD PUSH2 0x1AC6 JUMP JUMPDEST DUP1 MLOAD PUSH1 0x1 PUSH1 0x1 PUSH1 0xA0 SHL SUB SWAP6 SWAP2 SWAP4 SWAP2 DUP7 AND SWAP1 DUP2 ISZERO PUSH2 0xB49 JUMPI DUP1 DUP5 MSTORE PUSH1 0x20 SWAP7 PUSH1 0x2 DUP9 MSTORE DUP7 DUP6 KECCAK256 SLOAD AND SWAP2 DUP3 ISZERO ISZERO SWAP3 DUP4 PUSH2 0xB16 JUMPI JUMPDEST DUP2 DUP7 MSTORE PUSH1 0x3 DUP10 MSTORE DUP8 DUP7 KECCAK256 DUP1 SLOAD PUSH1 0x1 ADD SWAP1 SSTORE DUP3 DUP7 MSTORE PUSH1 0x2 DUP10 MSTORE DUP8 DUP7 KECCAK256 DUP1 SLOAD PUSH1 0x1 PUSH1 0x1 PUSH1 0xA0 SHL SUB NOT AND DUP4 OR SWAP1 SSTORE PUSH32 0xDDF252AD1BE2C89B69C2B068FC378DAA952BA7F163C4A11628F55A4DF523B3EF DUP7 DUP1 LOG4 PUSH2 0xB01 JUMPI POP DUP4 PUSH32 0xF8E1A15ABA9398E019F0B49DF1A4FDE98EE17AE345CB5F6B5E2C27F5033E8CE7 SWAP2 PUSH2 0xAE5 DUP5 MLOAD SWAP2 DUP7 DUP1 DUP8 ADD MLOAD SWAP2 DUP5 DUP2 MSTORE PUSH1 0x6 DUP7 MSTORE KECCAK256 PUSH2 0x1893 JUMP JUMPDEST DUP5 MLOAD SWAP1 DUP2 MSTORE LOG1 PUSH2 0xAF6 PUSH1 0xB SLOAD PUSH2 0x1997 JUMP JUMPDEST PUSH1 0xB SSTORE MLOAD SWAP1 MLOAD SWAP1 DUP2 MSTORE RETURN JUMPDEST PUSH1 0x24 SWAP2 DUP5 MLOAD SWAP2 PUSH4 0x39E35637 PUSH1 0xE1 SHL DUP4 MSTORE DUP3 ADD MSTORE REVERT JUMPDEST PUSH1 0x0 DUP4 DUP2 MSTORE PUSH1 0x4 PUSH1 0x20 MSTORE PUSH1 0x40 SWAP1 KECCAK256 DUP1 SLOAD PUSH1 0x1 PUSH1 0x1 PUSH1 0xA0 SHL SUB NOT AND SWAP1 SSTORE DUP1 DUP7 MSTORE PUSH1 0x3 DUP10 MSTORE DUP8 DUP7 KECCAK256 DUP1 SLOAD PUSH1 0x0 NOT ADD SWAP1 SSTORE PUSH2 0xA55 JUMP JUMPDEST DUP6 MLOAD PUSH4 0x32505749 PUSH1 0xE1 SHL DUP2 MSTORE DUP1 DUP5 ADD DUP6 SWAP1 MSTORE PUSH1 0x24 SWAP1 REVERT JUMPDEST POP PUSH1 0x20 PUSH1 0x64 SWAP3 MLOAD SWAP2 PUSH3 0x461BCD PUSH1 0xE5 SHL DUP4 MSTORE DUP3 ADD MSTORE PUSH1 0x17 PUSH1 0x24 DUP3 ADD MSTORE PUSH23 0x115D1A195C881C185A59081A5CC81A5B98DBDC9C9958DD PUSH1 0x4A SHL PUSH1 0x44 DUP3 ADD MSTORE REVERT JUMPDEST POP SWAP2 CALLVALUE PUSH2 0x4C4 JUMPI PUSH1 0x20 CALLDATASIZE PUSH1 0x3 NOT ADD SLT PUSH2 0x4C4 JUMPI POP PUSH2 0xBBD PUSH1 0x20 SWAP3 CALLDATALOAD PUSH2 0x180C JUMP JUMPDEST SWAP1 MLOAD PUSH1 0x1 PUSH1 0x1 PUSH1 0xA0 SHL SUB SWAP1 SWAP2 AND DUP2 MSTORE RETURN JUMPDEST POP SWAP2 SWAP1 CALLVALUE PUSH2 0x4C0 JUMPI DUP2 PUSH1 0x3 NOT CALLDATASIZE ADD SLT PUSH2 0x4C0 JUMPI DUP2 DUP1 SWAP4 SWAP3 MSTORE PUSH1 0x20 SWAP2 PUSH1 0xD DUP4 MSTORE DUP2 DUP5 KECCAK256 SWAP1 DUP2 SLOAD SWAP2 PUSH2 0xBFD DUP4 PUSH2 0x19BC JUMP JUMPDEST SWAP5 PUSH2 0xC0A DUP6 MLOAD SWAP7 DUP8 PUSH2 0x127B JUMP JUMPDEST DUP4 DUP7 MSTORE DUP1 DUP7 ADD SWAP2 DUP8 MSTORE DUP1 DUP8 KECCAK256 SWAP7 SWAP2 JUMPDEST DUP5 DUP4 LT PUSH2 0xC2D JUMPI DUP6 MLOAD DUP1 PUSH2 0x624 DUP10 DUP3 PUSH2 0x133B JUMP JUMPDEST DUP4 DUP3 PUSH1 0x1 SWAP3 PUSH2 0xC3B DUP12 PUSH2 0x1A3F JUMP JUMPDEST DUP2 MSTORE ADD SWAP9 ADD SWAP3 ADD SWAP2 SWAP7 PUSH2 0xC19 JUMP JUMPDEST POP POP CALLVALUE PUSH2 0x4C0 JUMPI DUP2 PUSH1 0x3 NOT CALLDATASIZE ADD SLT PUSH2 0x4C0 JUMPI PUSH1 0x8 SLOAD SWAP1 MLOAD PUSH1 0x1 PUSH1 0x1 PUSH1 0xA0 SHL SUB SWAP1 SWAP2 AND DUP2 MSTORE PUSH1 0x20 SWAP1 RETURN JUMPDEST POP POP CALLVALUE PUSH2 0x4C0 JUMPI PUSH2 0x688 SWAP1 PUSH2 0xC86 CALLDATASIZE PUSH2 0x11FA JUMP JUMPDEST SWAP2 SWAP3 MLOAD SWAP3 PUSH2 0xC93 DUP5 PUSH2 0x1260 JUMP JUMPDEST DUP6 DUP5 MSTORE PUSH2 0x16BE JUMP JUMPDEST POP CALLVALUE PUSH2 0x1BE JUMPI PUSH2 0xCAA CALLDATASIZE PUSH2 0x130C JUMP JUMPDEST SWAP2 SWAP1 SWAP4 DUP1 JUMPDEST PUSH1 0xE SLOAD DUP2 LT ISZERO PUSH2 0x5BD JUMPI DUP6 PUSH2 0xCC3 DUP3 PUSH2 0x1847 JUMP JUMPDEST POP SLOAD EQ PUSH2 0xCD9 JUMPI JUMPDEST PUSH2 0xCD4 SWAP1 PUSH2 0x1997 JUMP JUMPDEST PUSH2 0xCAF JUMP JUMPDEST SWAP5 DUP2 JUMPDEST PUSH2 0xCE5 DUP8 PUSH2 0x1847 JUMP JUMPDEST POP PUSH1 0x3 DUP1 SWAP2 ADD SLOAD DUP3 LT ISZERO PUSH2 0xF41 JUMPI PUSH2 0xD08 DUP3 DUP3 PUSH2 0xD01 DUP12 PUSH2 0x1847 JUMP JUMPDEST POP ADD PUSH2 0x1A87 JUMP JUMPDEST POP DUP8 MLOAD DUP9 PUSH1 0x20 SWAP3 DUP3 PUSH2 0xD23 DUP6 DUP3 ADD SWAP3 DUP7 DUP5 MSTORE DUP5 DUP4 ADD SWAP1 PUSH2 0x1489 JUMP JUMPDEST SUB SWAP3 PUSH2 0xD37 PUSH1 0x1F NOT SWAP5 DUP6 DUP2 ADD DUP4 MSTORE DUP3 PUSH2 0x127B JUMP JUMPDEST MLOAD SWAP1 KECCAK256 SWAP2 PUSH2 0xD61 DUP3 MLOAD SWAP2 DUP3 PUSH2 0xD55 DUP14 DUP9 DUP4 ADD SWAP7 DUP10 DUP9 MSTORE DUP4 ADD SWAP1 PUSH2 0x1189 JUMP JUMPDEST SUB SWAP1 DUP2 ADD DUP4 MSTORE DUP3 PUSH2 0x127B JUMP JUMPDEST MLOAD SWAP1 KECCAK256 EQ DUP1 PUSH2 0xF39 JUMPI JUMPDEST PUSH2 0xD7F JUMPI POP POP PUSH2 0xD7A SWAP1 PUSH2 0x1997 JUMP JUMPDEST PUSH2 0xCDC JUMP JUMPDEST SWAP3 PUSH2 0xD9B DUP3 PUSH2 0xD94 DUP12 SWAP6 SWAP8 SWAP9 SWAP10 SWAP5 SWAP11 SWAP12 PUSH2 0x1847 JUMP JUMPDEST POP ADD PUSH2 0x19D3 JUMP JUMPDEST SWAP9 DUP10 MLOAD DUP7 LT ISZERO PUSH2 0xF35 JUMPI DUP7 JUMPDEST DUP11 MLOAD DUP2 LT ISZERO PUSH2 0xE41 JUMPI DUP7 DUP2 LT ISZERO PUSH2 0xDE5 JUMPI DUP1 PUSH2 0xDC6 PUSH2 0xDE0 SWAP3 DUP14 PUSH2 0x1AB2 JUMP JUMPDEST MLOAD PUSH2 0xDD0 DUP3 PUSH2 0x1A9F JUMP JUMPDEST MSTORE PUSH2 0xDDA DUP2 PUSH2 0x1A9F JUMP JUMPDEST POP PUSH2 0x1997 JUMP JUMPDEST PUSH2 0xDA7 JUMP JUMPDEST DUP7 DUP2 GT PUSH2 0xDF6 JUMPI JUMPDEST PUSH2 0xDE0 SWAP1 PUSH2 0x1997 JUMP JUMPDEST PUSH2 0xE00 DUP2 DUP13 PUSH2 0x1AB2 JUMP JUMPDEST MLOAD PUSH1 0x0 NOT DUP3 ADD SWAP1 DUP3 DUP3 GT PUSH2 0xE2E JUMPI DUP2 PUSH2 0xE26 SWAP2 PUSH2 0xE20 PUSH2 0xDE0 SWAP6 SWAP5 PUSH2 0x1A9F JUMP JUMPDEST MSTORE PUSH2 0x1A9F JUMP JUMPDEST POP SWAP1 POP PUSH2 0xDED JUMP JUMPDEST PUSH4 0x4E487B71 PUSH1 0xE0 SHL DUP11 MSTORE PUSH1 0x11 DUP12 MSTORE PUSH1 0x24 DUP11 REVERT JUMPDEST POP SWAP8 SWAP2 SWAP7 SWAP6 SWAP5 POP SWAP8 POP SWAP2 SWAP1 SWAP2 PUSH2 0xE56 DUP4 PUSH2 0x1847 JUMP JUMPDEST POP PUSH1 0x60 MLOAD SWAP2 ADD PUSH1 0x1 PUSH1 0x40 SHL DUP3 GT PUSH2 0xF22 JUMPI DUP1 SLOAD DUP3 DUP3 SSTORE DUP1 DUP4 LT PUSH2 0xEB3 JUMPI JUMPDEST POP DUP5 MSTORE DUP2 DUP5 KECCAK256 DUP5 SWAP3 PUSH1 0x80 JUMPDEST DUP4 DUP6 LT PUSH2 0xE97 JUMPI POP POP POP POP POP PUSH2 0xCD4 SWAP1 JUMPDEST SWAP1 POP PUSH2 0xCCB JUMP JUMPDEST PUSH1 0x1 DUP3 DUP3 PUSH2 0xEA7 DUP4 SWAP5 MLOAD DUP8 PUSH2 0x1893 JUMP JUMPDEST ADD SWAP4 ADD SWAP5 ADD SWAP4 SWAP2 PUSH2 0xE7F JUMP JUMPDEST DUP2 DUP7 MSTORE DUP3 DUP5 DUP8 KECCAK256 SWAP2 DUP3 ADD SWAP2 ADD JUMPDEST DUP2 DUP2 LT PUSH2 0xECD JUMPI POP PUSH2 0xE74 JUMP JUMPDEST DUP1 DUP8 PUSH2 0xEDB PUSH1 0x1 SWAP4 SLOAD PUSH2 0x144F JUMP JUMPDEST DUP1 PUSH2 0xEE9 JUMPI JUMPDEST POP POP ADD PUSH2 0xEC0 JUMP JUMPDEST PUSH1 0x1F DUP1 DUP3 GT DUP6 EQ PUSH2 0xF00 JUMPI POP POP DUP2 SSTORE JUMPDEST DUP8 CODESIZE PUSH2 0xEE1 JUMP JUMPDEST PUSH2 0xF19 SWAP1 DUP5 DUP5 MSTORE DUP10 DUP5 KECCAK256 SWAP3 ADD PUSH1 0x5 SHR DUP3 ADD DUP6 DUP4 ADD PUSH2 0x187C JUMP JUMPDEST DUP2 DUP4 SSTORE SSTORE PUSH2 0xEF9 JUMP JUMPDEST PUSH4 0x4E487B71 PUSH1 0xE0 SHL DUP6 MSTORE PUSH1 0x41 DUP7 MSTORE PUSH1 0x24 DUP6 REVERT JUMPDEST DUP7 DUP1 REVERT JUMPDEST POP PUSH1 0x1 PUSH2 0xD6B JUMP JUMPDEST POP POP SWAP5 PUSH2 0xCD4 SWAP1 PUSH2 0xE90 JUMP JUMPDEST DUP4 CALLVALUE PUSH2 0x4C4 JUMPI PUSH2 0x688 PUSH2 0xF5F CALLDATASIZE PUSH2 0x11FA JUMP JUMPDEST SWAP2 PUSH2 0x151F JUMP JUMPDEST POP SWAP1 CALLVALUE PUSH2 0x1BE JUMPI DUP1 PUSH1 0x3 NOT CALLDATASIZE ADD SLT PUSH2 0x1BE JUMPI PUSH2 0xF7F PUSH2 0x11C9 JUMP JUMPDEST SWAP2 PUSH1 0x24 CALLDATALOAD PUSH2 0xF8C DUP2 PUSH2 0x180C JUMP JUMPDEST CALLER ISZERO ISZERO DUP1 PUSH2 0x102E JUMPI JUMPDEST DUP1 PUSH2 0x1005 JUMPI JUMPDEST PUSH2 0xFEF JUMPI PUSH1 0x1 PUSH1 0x1 PUSH1 0xA0 SHL SUB SWAP5 DUP6 AND SWAP5 DUP3 SWAP2 DUP7 SWAP2 AND PUSH32 0x8C5BE1E5EBEC7D5BD14F71427D1E84F3DD0314C0F7B2291E5B200AC8C7C3B925 DUP9 DUP1 LOG4 DUP5 MSTORE PUSH1 0x20 MSTORE DUP3 KECCAK256 DUP1 SLOAD PUSH1 0x1 PUSH1 0x1 PUSH1 0xA0 SHL SUB NOT AND SWAP1 SWAP2 OR SWAP1 SSTORE DUP1 RETURN JUMPDEST DUP4 MLOAD PUSH4 0xA9FBF51F PUSH1 0xE0 SHL DUP2 MSTORE CALLER DUP2 DUP6 ADD MSTORE PUSH1 0x24 SWAP1 REVERT JUMPDEST POP PUSH1 0x1 PUSH1 0x1 PUSH1 0xA0 SHL SUB DUP2 AND DUP7 MSTORE PUSH1 0x5 PUSH1 0x20 SWAP1 DUP2 MSTORE DUP5 DUP8 KECCAK256 CALLER DUP9 MSTORE SWAP1 MSTORE DUP4 DUP7 KECCAK256 SLOAD PUSH1 0xFF AND ISZERO PUSH2 0xF9B JUMP JUMPDEST POP PUSH1 0x1 PUSH1 0x1 PUSH1 0xA0 SHL SUB DUP2 AND CALLER EQ ISZERO PUSH2 0xF95 JUMP JUMPDEST POP CALLVALUE PUSH2 0x1BE JUMPI PUSH1 0x20 CALLDATASIZE PUSH1 0x3 NOT ADD SLT PUSH2 0x1BE JUMPI SWAP2 DUP3 PUSH1 0x20 SWAP4 CALLDATALOAD PUSH2 0x1062 DUP2 PUSH2 0x180C JUMP JUMPDEST POP DUP3 MSTORE DUP4 MSTORE DUP2 SWAP1 KECCAK256 SLOAD SWAP1 MLOAD PUSH1 0x1 PUSH1 0x1 PUSH1 0xA0 SHL SUB SWAP1 SWAP2 AND DUP2 MSTORE RETURN JUMPDEST POP POP CALLVALUE PUSH2 0x4C0 JUMPI DUP2 PUSH1 0x3 NOT CALLDATASIZE ADD SLT PUSH2 0x4C0 JUMPI DUP1 MLOAD SWAP1 DUP3 DUP1 SLOAD PUSH2 0x109D DUP2 PUSH2 0x144F JUMP JUMPDEST DUP1 DUP6 MSTORE SWAP1 PUSH1 0x1 SWAP1 DUP2 DUP2 AND SWAP1 DUP2 ISZERO PUSH2 0x850 JUMPI POP PUSH1 0x1 EQ PUSH2 0x10C8 JUMPI POP POP POP PUSH2 0x803 DUP3 PUSH2 0x624 SWAP5 SUB DUP4 PUSH2 0x127B JUMP JUMPDEST SWAP5 POP DUP2 DUP1 MSTORE PUSH1 0x20 SWAP5 DUP6 DUP4 KECCAK256 JUMPDEST DUP3 DUP5 LT PUSH2 0x10F0 JUMPI POP POP POP DUP3 PUSH2 0x624 SWAP5 PUSH2 0x803 SWAP3 DUP3 ADD ADD SWAP5 PUSH2 0x7F1 JUMP JUMPDEST DUP1 SLOAD DUP7 DUP6 ADD DUP9 ADD MSTORE SWAP3 DUP7 ADD SWAP3 DUP2 ADD PUSH2 0x10D4 JUMP JUMPDEST SWAP3 POP POP CALLVALUE PUSH2 0x1BE JUMPI PUSH1 0x20 CALLDATASIZE PUSH1 0x3 NOT ADD SLT PUSH2 0x1BE JUMPI CALLDATALOAD PUSH4 0xFFFFFFFF PUSH1 0xE0 SHL DUP2 AND DUP1 SWAP2 SUB PUSH2 0x1BE JUMPI PUSH1 0x20 SWAP3 POP PUSH4 0x24832483 PUSH1 0xE1 SHL DUP2 EQ SWAP1 DUP2 ISZERO PUSH2 0x1146 JUMPI JUMPDEST POP ISZERO ISZERO DUP2 MSTORE RETURN JUMPDEST PUSH4 0x80AC58CD PUSH1 0xE0 SHL DUP2 EQ SWAP2 POP DUP2 ISZERO PUSH2 0x1178 JUMPI JUMPDEST DUP2 ISZERO PUSH2 0x1167 JUMPI JUMPDEST POP CODESIZE PUSH2 0x113F JUMP JUMPDEST PUSH4 0x1FFC9A7 PUSH1 0xE0 SHL EQ SWAP1 POP CODESIZE PUSH2 0x1160 JUMP JUMPDEST PUSH4 0x5B5E139F PUSH1 0xE0 SHL DUP2 EQ SWAP2 POP PUSH2 0x1159 JUMP JUMPDEST SWAP2 SWAP1 DUP3 MLOAD SWAP3 DUP4 DUP3 MSTORE PUSH1 0x0 JUMPDEST DUP5 DUP2 LT PUSH2 0x11B5 JUMPI POP POP DUP3 PUSH1 0x0 PUSH1 0x20 DUP1 SWAP5 SWAP6 DUP5 ADD ADD MSTORE PUSH1 0x1F DUP1 NOT SWAP2 ADD AND ADD ADD SWAP1 JUMP JUMPDEST PUSH1 0x20 DUP2 DUP4 ADD DUP2 ADD MLOAD DUP5 DUP4 ADD DUP3 ADD MSTORE ADD PUSH2 0x1194 JUMP JUMPDEST PUSH1 0x4 CALLDATALOAD SWAP1 PUSH1 0x1 PUSH1 0x1 PUSH1 0xA0 SHL SUB DUP3 AND DUP3 SUB PUSH2 0x11DF JUMPI JUMP JUMPDEST PUSH1 0x0 DUP1 REVERT JUMPDEST PUSH1 0x24 CALLDATALOAD SWAP1 PUSH1 0x1 PUSH1 0x1 PUSH1 0xA0 SHL SUB DUP3 AND DUP3 SUB PUSH2 0x11DF JUMPI JUMP JUMPDEST PUSH1 0x60 SWAP1 PUSH1 0x3 NOT ADD SLT PUSH2 0x11DF JUMPI PUSH1 0x1 PUSH1 0x1 PUSH1 0xA0 SHL SUB SWAP1 PUSH1 0x4 CALLDATALOAD DUP3 DUP2 AND DUP2 SUB PUSH2 0x11DF JUMPI SWAP2 PUSH1 0x24 CALLDATALOAD SWAP1 DUP2 AND DUP2 SUB PUSH2 0x11DF JUMPI SWAP1 PUSH1 0x44 CALLDATALOAD SWAP1 JUMP JUMPDEST PUSH1 0x80 DUP2 ADD SWAP1 DUP2 LT PUSH1 0x1 PUSH1 0x1 PUSH1 0x40 SHL SUB DUP3 GT OR PUSH2 0x124A JUMPI PUSH1 0x40 MSTORE JUMP JUMPDEST PUSH4 0x4E487B71 PUSH1 0xE0 SHL PUSH1 0x0 MSTORE PUSH1 0x41 PUSH1 0x4 MSTORE PUSH1 0x24 PUSH1 0x0 REVERT JUMPDEST PUSH1 0x20 DUP2 ADD SWAP1 DUP2 LT PUSH1 0x1 PUSH1 0x1 PUSH1 0x40 SHL SUB DUP3 GT OR PUSH2 0x124A JUMPI PUSH1 0x40 MSTORE JUMP JUMPDEST SWAP1 PUSH1 0x1F DUP1 NOT SWAP2 ADD AND DUP2 ADD SWAP1 DUP2 LT PUSH1 0x1 PUSH1 0x1 PUSH1 0x40 SHL SUB DUP3 GT OR PUSH2 0x124A JUMPI PUSH1 0x40 MSTORE JUMP JUMPDEST PUSH1 0x1 PUSH1 0x1 PUSH1 0x40 SHL SUB DUP2 GT PUSH2 0x124A JUMPI PUSH1 0x1F ADD PUSH1 0x1F NOT AND PUSH1 0x20 ADD SWAP1 JUMP JUMPDEST SWAP3 SWAP2 SWAP3 PUSH2 0x12C3 DUP3 PUSH2 0x129C JUMP JUMPDEST SWAP2 PUSH2 0x12D1 PUSH1 0x40 MLOAD SWAP4 DUP5 PUSH2 0x127B JUMP JUMPDEST DUP3 SWAP5 DUP2 DUP5 MSTORE DUP2 DUP4 ADD GT PUSH2 0x11DF JUMPI DUP3 DUP2 PUSH1 0x20 SWAP4 DUP5 PUSH1 0x0 SWAP7 ADD CALLDATACOPY ADD ADD MSTORE JUMP JUMPDEST SWAP1 DUP1 PUSH1 0x1F DUP4 ADD SLT ISZERO PUSH2 0x11DF JUMPI DUP2 PUSH1 0x20 PUSH2 0x1309 SWAP4 CALLDATALOAD SWAP2 ADD PUSH2 0x12B7 JUMP JUMPDEST SWAP1 JUMP JUMPDEST SWAP1 PUSH1 0x40 PUSH1 0x3 NOT DUP4 ADD SLT PUSH2 0x11DF JUMPI PUSH1 0x4 CALLDATALOAD SWAP2 PUSH1 0x24 CALLDATALOAD SWAP1 PUSH1 0x1 PUSH1 0x1 PUSH1 0x40 SHL SUB DUP3 GT PUSH2 0x11DF JUMPI PUSH2 0x1309 SWAP2 PUSH1 0x4 ADD PUSH2 0x12EE JUMP JUMPDEST PUSH1 0x20 DUP1 DUP3 ADD SWAP1 DUP1 DUP4 MSTORE DUP4 MLOAD DUP1 SWAP3 MSTORE PUSH1 0x40 SWAP3 DUP4 DUP2 ADD PUSH1 0x5 SWAP5 DUP4 DUP2 DUP7 DUP9 SHL DUP6 ADD ADD SWAP8 ADD SWAP6 PUSH1 0x0 DUP1 SWAP5 JUMPDEST DUP8 DUP7 LT PUSH2 0x1375 JUMPI POP POP POP POP POP POP POP POP POP SWAP1 JUMP JUMPDEST SWAP1 SWAP2 SWAP3 SWAP4 SWAP5 SWAP6 DUP1 SWAP8 SWAP9 SWAP10 PUSH1 0x3F NOT DUP4 DUP3 SUB ADD DUP8 MSTORE DUP11 MLOAD SWAP1 DUP2 MLOAD DUP2 MSTORE DUP3 DUP3 ADD MLOAD DUP4 DUP3 ADD MSTORE PUSH2 0x13AD DUP8 DUP4 ADD MLOAD PUSH1 0x80 DUP1 DUP11 DUP6 ADD MSTORE DUP4 ADD SWAP1 PUSH2 0x1189 JUMP JUMPDEST SWAP1 PUSH1 0x60 DUP1 SWAP4 ADD MLOAD SWAP3 DUP2 DUP4 SUB SWAP2 ADD MSTORE DUP2 MLOAD DUP1 DUP3 MSTORE DUP4 DUP3 ADD SWAP1 DUP5 DUP1 DUP3 DUP11 SHL DUP6 ADD ADD SWAP5 ADD SWAP3 DUP8 JUMPDEST DUP3 DUP2 LT PUSH2 0x13F5 JUMPI POP POP POP POP POP SWAP1 DUP1 PUSH1 0x1 SWAP3 SWAP12 ADD SWAP7 ADD SWAP7 ADD SWAP5 SWAP8 SWAP7 SWAP6 SWAP4 SWAP3 SWAP2 SWAP1 PUSH2 0x1362 JUMP JUMPDEST SWAP2 SWAP4 SWAP6 DUP1 PUSH2 0x1411 PUSH1 0x1 SWAP4 SWAP6 SWAP8 PUSH1 0x1F NOT DUP8 DUP3 SUB ADD DUP10 MSTORE DUP10 MLOAD PUSH2 0x1189 JUMP JUMPDEST SWAP8 ADD SWAP6 ADD SWAP2 ADD SWAP2 DUP13 SWAP6 SWAP5 SWAP4 SWAP2 SWAP3 PUSH2 0x13D1 JUMP JUMPDEST PUSH1 0x7 SLOAD PUSH1 0x1 PUSH1 0x1 PUSH1 0xA0 SHL SUB AND CALLER SUB PUSH2 0x1437 JUMPI JUMP JUMPDEST PUSH1 0x40 MLOAD PUSH4 0x118CDAA7 PUSH1 0xE0 SHL DUP2 MSTORE CALLER PUSH1 0x4 DUP3 ADD MSTORE PUSH1 0x24 SWAP1 REVERT JUMPDEST SWAP1 PUSH1 0x1 DUP3 DUP2 SHR SWAP3 AND DUP1 ISZERO PUSH2 0x147F JUMPI JUMPDEST PUSH1 0x20 DUP4 LT EQ PUSH2 0x1469 JUMPI JUMP JUMPDEST PUSH4 0x4E487B71 PUSH1 0xE0 SHL PUSH1 0x0 MSTORE PUSH1 0x22 PUSH1 0x4 MSTORE PUSH1 0x24 PUSH1 0x0 REVERT JUMPDEST SWAP2 PUSH1 0x7F AND SWAP2 PUSH2 0x145E JUMP JUMPDEST SWAP1 PUSH1 0x0 SWAP3 SWAP2 DUP1 SLOAD SWAP2 PUSH2 0x149A DUP4 PUSH2 0x144F JUMP JUMPDEST SWAP2 DUP3 DUP3 MSTORE PUSH1 0x1 SWAP4 DUP5 DUP2 AND SWAP1 DUP2 PUSH1 0x0 EQ PUSH2 0x14FC JUMPI POP PUSH1 0x1 EQ PUSH2 0x14BC JUMPI JUMPDEST POP POP POP POP JUMP JUMPDEST SWAP1 SWAP2 SWAP4 SWAP5 POP PUSH1 0x0 MSTORE PUSH1 0x20 SWAP3 DUP4 PUSH1 0x0 KECCAK256 SWAP3 DUP5 PUSH1 0x0 SWAP5 JUMPDEST DUP4 DUP7 LT PUSH2 0x14E8 JUMPI POP POP POP POP ADD ADD SWAP1 CODESIZE DUP1 DUP1 DUP1 PUSH2 0x14B6 JUMP JUMPDEST DUP1 SLOAD DUP6 DUP8 ADD DUP4 ADD MSTORE SWAP5 ADD SWAP4 DUP6 SWAP1 DUP3 ADD PUSH2 0x14D1 JUMP JUMPDEST SWAP3 SWAP5 POP POP POP PUSH1 0x20 SWAP4 SWAP5 POP PUSH1 0xFF NOT AND DUP4 DUP4 ADD MSTORE ISZERO ISZERO PUSH1 0x5 SHL ADD ADD SWAP1 CODESIZE DUP1 DUP1 DUP1 PUSH2 0x14B6 JUMP JUMPDEST PUSH1 0x1 PUSH1 0x1 PUSH1 0xA0 SHL SUB SWAP2 DUP3 AND SWAP3 SWAP1 SWAP2 DUP4 ISZERO PUSH2 0x16A5 JUMPI PUSH1 0x0 SWAP3 DUP3 DUP5 MSTORE DUP3 PUSH1 0x20 SWAP6 PUSH1 0x2 DUP8 MSTORE PUSH1 0x40 SWAP7 DUP5 DUP9 DUP9 KECCAK256 SLOAD AND SWAP7 DUP8 SWAP2 CALLER ISZERO ISZERO DUP1 PUSH2 0x160F JUMPI JUMPDEST POP SWAP1 PUSH1 0x2 PUSH32 0xDDF252AD1BE2C89B69C2B068FC378DAA952BA7F163C4A11628F55A4DF523B3EF SWAP3 DUP5 PUSH2 0x15DC JUMPI JUMPDEST DUP6 DUP4 MSTORE PUSH1 0x3 DUP2 MSTORE DUP12 DUP4 KECCAK256 DUP1 SLOAD PUSH1 0x1 ADD SWAP1 SSTORE DUP7 DUP4 MSTORE MSTORE DUP10 DUP2 KECCAK256 DUP1 SLOAD PUSH1 0x1 PUSH1 0x1 PUSH1 0xA0 SHL SUB NOT AND DUP6 OR SWAP1 SSTORE DUP1 LOG4 AND SWAP3 DUP4 DUP4 SUB PUSH2 0x15BB JUMPI POP POP POP POP JUMP JUMPDEST PUSH1 0x64 SWAP5 POP MLOAD SWAP3 PUSH4 0x64283D7B PUSH1 0xE0 SHL DUP5 MSTORE PUSH1 0x4 DUP5 ADD MSTORE PUSH1 0x24 DUP4 ADD MSTORE PUSH1 0x44 DUP3 ADD MSTORE REVERT JUMPDEST PUSH1 0x0 DUP8 DUP2 MSTORE PUSH1 0x4 PUSH1 0x20 MSTORE PUSH1 0x40 SWAP1 KECCAK256 DUP1 SLOAD PUSH1 0x1 PUSH1 0x1 PUSH1 0xA0 SHL SUB NOT AND SWAP1 SSTORE DUP5 DUP4 MSTORE PUSH1 0x3 DUP2 MSTORE DUP12 DUP4 KECCAK256 DUP1 SLOAD PUSH1 0x0 NOT ADD SWAP1 SSTORE PUSH2 0x1582 JUMP JUMPDEST SWAP2 SWAP4 SWAP5 POP SWAP2 POP DUP1 PUSH2 0x1664 JUMPI JUMPDEST ISZERO PUSH2 0x162B JUMPI DUP6 SWAP3 SWAP2 DUP8 SWAP2 CODESIZE PUSH2 0x1556 JUMP JUMPDEST DUP8 DUP7 DUP9 PUSH2 0x1648 JUMPI PUSH1 0x24 SWAP2 MLOAD SWAP1 PUSH4 0x7E273289 PUSH1 0xE0 SHL DUP3 MSTORE PUSH1 0x4 DUP3 ADD MSTORE REVERT JUMPDEST PUSH1 0x44 SWAP2 MLOAD SWAP1 PUSH4 0x177E802F PUSH1 0xE0 SHL DUP3 MSTORE CALLER PUSH1 0x4 DUP4 ADD MSTORE PUSH1 0x24 DUP3 ADD MSTORE REVERT JUMPDEST POP CALLER DUP8 EQ DUP1 ISZERO PUSH2 0x1689 JUMPI JUMPDEST DUP1 PUSH2 0x161B JUMPI POP DUP6 DUP3 MSTORE PUSH1 0x4 DUP2 MSTORE CALLER DUP6 DUP10 DUP5 KECCAK256 SLOAD AND EQ PUSH2 0x161B JUMP JUMPDEST POP DUP7 DUP3 MSTORE PUSH1 0x5 DUP2 MSTORE DUP8 DUP3 KECCAK256 CALLER DUP4 MSTORE DUP2 MSTORE PUSH1 0xFF DUP9 DUP4 KECCAK256 SLOAD AND PUSH2 0x166F JUMP JUMPDEST PUSH1 0x40 MLOAD PUSH4 0x32505749 PUSH1 0xE1 SHL DUP2 MSTORE PUSH1 0x0 PUSH1 0x4 DUP3 ADD MSTORE PUSH1 0x24 SWAP1 REVERT JUMPDEST PUSH2 0x16C9 DUP4 DUP4 DUP4 PUSH2 0x151F JUMP JUMPDEST DUP2 EXTCODESIZE PUSH2 0x16D5 JUMPI POP POP POP POP JUMP JUMPDEST PUSH1 0x40 MLOAD PUSH4 0xA85BD01 PUSH1 0xE1 SHL DUP1 DUP3 MSTORE CALLER PUSH1 0x4 DUP4 ADD MSTORE PUSH1 0x1 PUSH1 0x1 PUSH1 0xA0 SHL SUB SWAP3 DUP4 AND PUSH1 0x24 DUP4 ADD MSTORE PUSH1 0x44 DUP3 ADD SWAP5 SWAP1 SWAP5 MSTORE PUSH1 0x80 PUSH1 0x64 DUP3 ADD MSTORE PUSH1 0x20 SWAP6 SWAP3 SWAP1 SWAP2 AND SWAP4 SWAP1 SWAP3 SWAP1 DUP4 SWAP1 PUSH2 0x1723 SWAP1 PUSH1 0x84 DUP4 ADD SWAP1 PUSH2 0x1189 JUMP JUMPDEST SUB SWAP3 DUP6 DUP2 PUSH1 0x0 SWAP6 DUP2 DUP8 DUP10 GAS CALL DUP5 SWAP2 DUP2 PUSH2 0x17CC JUMPI JUMPDEST POP PUSH2 0x1797 JUMPI POP POP POP RETURNDATASIZE PUSH1 0x0 EQ PUSH2 0x178F JUMPI RETURNDATASIZE PUSH2 0x1751 DUP2 PUSH2 0x129C JUMP JUMPDEST SWAP1 PUSH2 0x175F PUSH1 0x40 MLOAD SWAP3 DUP4 PUSH2 0x127B JUMP JUMPDEST DUP2 MSTORE DUP1 SWAP2 DUP5 RETURNDATASIZE SWAP3 ADD RETURNDATACOPY JUMPDEST DUP1 MLOAD SWAP3 DUP4 PUSH2 0x178A JUMPI PUSH1 0x40 MLOAD PUSH4 0x32505749 PUSH1 0xE1 SHL DUP2 MSTORE PUSH1 0x4 DUP2 ADD DUP5 SWAP1 MSTORE PUSH1 0x24 SWAP1 REVERT JUMPDEST ADD SWAP1 POP REVERT JUMPDEST POP PUSH1 0x60 PUSH2 0x1769 JUMP JUMPDEST SWAP2 SWAP5 POP SWAP2 POP PUSH4 0xFFFFFFFF PUSH1 0xE0 SHL AND SUB PUSH2 0x17B4 JUMPI POP CODESIZE DUP1 DUP1 DUP1 PUSH2 0x14B6 JUMP JUMPDEST PUSH1 0x24 SWAP1 PUSH1 0x40 MLOAD SWAP1 PUSH4 0x32505749 PUSH1 0xE1 SHL DUP3 MSTORE PUSH1 0x4 DUP3 ADD MSTORE REVERT JUMPDEST SWAP1 SWAP2 POP DUP7 DUP2 DUP2 RETURNDATASIZE DUP4 GT PUSH2 0x1805 JUMPI JUMPDEST PUSH2 0x17E4 DUP2 DUP4 PUSH2 0x127B JUMP JUMPDEST DUP2 ADD SUB SLT PUSH2 0x68B JUMPI MLOAD PUSH1 0x1 PUSH1 0x1 PUSH1 0xE0 SHL SUB NOT DUP2 AND DUP2 SUB PUSH2 0x68B JUMPI SWAP1 CODESIZE PUSH2 0x1737 JUMP JUMPDEST POP RETURNDATASIZE PUSH2 0x17DA JUMP JUMPDEST PUSH1 0x0 DUP2 DUP2 MSTORE PUSH1 0x2 PUSH1 0x20 MSTORE PUSH1 0x40 SWAP1 KECCAK256 SLOAD PUSH1 0x1 PUSH1 0x1 PUSH1 0xA0 SHL SUB AND SWAP1 DUP2 ISZERO PUSH2 0x182F JUMPI POP SWAP1 JUMP JUMPDEST PUSH1 0x24 SWAP1 PUSH1 0x40 MLOAD SWAP1 PUSH4 0x7E273289 PUSH1 0xE0 SHL DUP3 MSTORE PUSH1 0x4 DUP3 ADD MSTORE REVERT JUMPDEST PUSH1 0xE SLOAD DUP2 LT ISZERO PUSH2 0x1866 JUMPI PUSH1 0xE PUSH1 0x0 MSTORE PUSH1 0x20 PUSH1 0x0 KECCAK256 SWAP1 PUSH1 0x2 SHL ADD SWAP1 PUSH1 0x0 SWAP1 JUMP JUMPDEST PUSH4 0x4E487B71 PUSH1 0xE0 SHL PUSH1 0x0 MSTORE PUSH1 0x32 PUSH1 0x4 MSTORE PUSH1 0x24 PUSH1 0x0 REVERT JUMPDEST DUP2 DUP2 LT PUSH2 0x1887 JUMPI POP POP JUMP JUMPDEST PUSH1 0x0 DUP2 SSTORE PUSH1 0x1 ADD PUSH2 0x187C JUMP JUMPDEST SWAP2 SWAP1 SWAP2 DUP3 MLOAD PUSH1 0x1 PUSH1 0x1 PUSH1 0x40 SHL SUB DUP2 GT PUSH2 0x124A JUMPI PUSH2 0x18B0 DUP3 SLOAD PUSH2 0x144F JUMP JUMPDEST PUSH1 0x1F DUP2 GT PUSH2 0x195A JUMPI JUMPDEST POP PUSH1 0x20 DUP1 PUSH1 0x1F DUP4 GT PUSH1 0x1 EQ PUSH2 0x18F6 JUMPI POP DUP2 SWAP3 SWAP4 SWAP5 PUSH1 0x0 SWAP3 PUSH2 0x18EB JUMPI JUMPDEST POP POP DUP2 PUSH1 0x1 SHL SWAP2 PUSH1 0x0 NOT SWAP1 PUSH1 0x3 SHL SHR NOT AND OR SWAP1 SSTORE JUMP JUMPDEST ADD MLOAD SWAP1 POP CODESIZE DUP1 PUSH2 0x18D5 JUMP JUMPDEST SWAP1 PUSH1 0x1F NOT DUP4 AND SWAP6 DUP5 PUSH1 0x0 MSTORE DUP3 PUSH1 0x0 KECCAK256 SWAP3 PUSH1 0x0 SWAP1 JUMPDEST DUP9 DUP3 LT PUSH2 0x1942 JUMPI POP POP DUP4 PUSH1 0x1 SWAP6 SWAP7 SWAP8 LT PUSH2 0x1929 JUMPI JUMPDEST POP POP POP DUP2 SHL ADD SWAP1 SSTORE JUMP JUMPDEST ADD MLOAD PUSH1 0x0 NOT PUSH1 0xF8 DUP5 PUSH1 0x3 SHL AND SHR NOT AND SWAP1 SSTORE CODESIZE DUP1 DUP1 PUSH2 0x191F JUMP JUMPDEST DUP1 PUSH1 0x1 DUP6 SWAP7 DUP3 SWAP5 SWAP7 DUP7 ADD MLOAD DUP2 SSTORE ADD SWAP6 ADD SWAP4 ADD SWAP1 PUSH2 0x190A JUMP JUMPDEST PUSH2 0x1987 SWAP1 DUP4 PUSH1 0x0 MSTORE PUSH1 0x20 PUSH1 0x0 KECCAK256 PUSH1 0x1F DUP5 ADD PUSH1 0x5 SHR DUP2 ADD SWAP2 PUSH1 0x20 DUP6 LT PUSH2 0x198D JUMPI JUMPDEST PUSH1 0x1F ADD PUSH1 0x5 SHR ADD SWAP1 PUSH2 0x187C JUMP JUMPDEST CODESIZE PUSH2 0x18B9 JUMP JUMPDEST SWAP1 SWAP2 POP DUP2 SWAP1 PUSH2 0x197A JUMP JUMPDEST PUSH1 0x0 NOT DUP2 EQ PUSH2 0x19A6 JUMPI PUSH1 0x1 ADD SWAP1 JUMP JUMPDEST PUSH4 0x4E487B71 PUSH1 0xE0 SHL PUSH1 0x0 MSTORE PUSH1 0x11 PUSH1 0x4 MSTORE PUSH1 0x24 PUSH1 0x0 REVERT JUMPDEST PUSH1 0x1 PUSH1 0x1 PUSH1 0x40 SHL SUB DUP2 GT PUSH2 0x124A JUMPI PUSH1 0x5 SHL PUSH1 0x20 ADD SWAP1 JUMP JUMPDEST SWAP1 DUP2 SLOAD PUSH2 0x19DF DUP2 PUSH2 0x19BC JUMP JUMPDEST SWAP3 PUSH1 0x40 SWAP4 PUSH2 0x19EF DUP6 MLOAD SWAP2 DUP3 PUSH2 0x127B JUMP JUMPDEST DUP3 DUP2 MSTORE DUP1 SWAP5 PUSH1 0x20 DUP1 SWAP3 ADD SWAP3 PUSH1 0x0 MSTORE DUP2 PUSH1 0x0 KECCAK256 SWAP1 PUSH1 0x0 SWAP4 JUMPDEST DUP6 DUP6 LT PUSH2 0x1A15 JUMPI POP POP POP POP POP POP JUMP JUMPDEST PUSH1 0x1 DUP5 DUP2 SWAP3 DUP5 MLOAD PUSH2 0x1A31 DUP2 PUSH2 0x1A2A DUP2 DUP11 PUSH2 0x1489 JUMP JUMPDEST SUB DUP3 PUSH2 0x127B JUMP JUMPDEST DUP2 MSTORE ADD SWAP4 ADD SWAP5 ADD SWAP4 SWAP2 PUSH2 0x1A06 JUMP JUMPDEST SWAP1 PUSH1 0x40 MLOAD PUSH2 0x1A4C DUP2 PUSH2 0x122F JUMP JUMPDEST PUSH1 0x60 PUSH2 0x1A82 PUSH1 0x3 DUP4 SWAP6 DUP1 SLOAD DUP6 MSTORE PUSH1 0x1 DUP2 ADD SLOAD PUSH1 0x20 DUP7 ADD MSTORE PUSH1 0x40 MLOAD PUSH2 0x1A77 DUP2 PUSH2 0x1A2A DUP2 PUSH1 0x2 DUP7 ADD PUSH2 0x1489 JUMP JUMPDEST PUSH1 0x40 DUP7 ADD MSTORE ADD PUSH2 0x19D3 JUMP JUMPDEST SWAP2 ADD MSTORE JUMP JUMPDEST DUP1 SLOAD DUP3 LT ISZERO PUSH2 0x1866 JUMPI PUSH1 0x0 MSTORE PUSH1 0x20 PUSH1 0x0 KECCAK256 ADD SWAP1 PUSH1 0x0 SWAP1 JUMP JUMPDEST PUSH1 0x60 MLOAD DUP2 LT ISZERO PUSH2 0x1866 JUMPI PUSH1 0x5 SHL PUSH1 0x80 ADD SWAP1 JUMP JUMPDEST DUP1 MLOAD DUP3 LT ISZERO PUSH2 0x1866 JUMPI PUSH1 0x20 SWAP2 PUSH1 0x5 SHL ADD ADD SWAP1 JUMP JUMPDEST PUSH1 0x40 SWAP1 DUP2 MLOAD SWAP1 PUSH2 0x1AD5 DUP3 PUSH2 0x122F JUMP JUMPDEST PUSH1 0x60 DUP1 PUSH1 0x0 SWAP4 DUP5 DUP2 MSTORE DUP5 PUSH1 0x20 DUP3 ADD MSTORE DUP2 DUP7 DUP3 ADD MSTORE ADD MSTORE DUP2 SWAP1 PUSH1 0xE SLOAD SWAP2 JUMPDEST DUP3 DUP2 LT PUSH2 0x1B39 JUMPI POP POP POP DUP2 MLOAD SWAP1 PUSH2 0x1B08 DUP3 PUSH2 0x1260 JUMP JUMPDEST DUP1 DUP3 MSTORE DUP3 MLOAD SWAP3 PUSH2 0x1B17 DUP5 PUSH2 0x122F JUMP JUMPDEST DUP2 DUP5 MSTORE DUP2 PUSH1 0x20 DUP6 ADD MSTORE DUP1 MLOAD SWAP2 PUSH2 0x1B2C DUP4 PUSH2 0x1260 JUMP JUMPDEST DUP3 MSTORE DUP4 ADD MSTORE PUSH1 0x60 DUP3 ADD MSTORE SWAP1 JUMP JUMPDEST DUP2 PUSH2 0x1B43 DUP3 PUSH2 0x1847 JUMP JUMPDEST POP SLOAD EQ PUSH2 0x1B58 JUMPI PUSH2 0x1B53 SWAP1 PUSH2 0x1997 JUMP JUMPDEST PUSH2 0x1AF2 JUMP JUMPDEST SWAP2 POP POP PUSH2 0x1309 SWAP3 POP PUSH2 0x1B6A SWAP2 POP PUSH2 0x1847 JUMP JUMPDEST POP PUSH2 0x1A3F JUMP INVALID LOG2 PUSH5 0x6970667358 0x22 SLT KECCAK256 0xE3 0xEB STATICCALL DUP11 0x29 0xE PUSH23 0xF341B447B7C836130753CC908014F012B03E3F02AC20E0 0xD2 PUSH17 0x64736F6C63430008140033000000000000 "},"methodIdentifiers":{"AddToken(string)":"ee36675b","AddVote(uint256,string)":"d039aa96","DeleteVote(uint256,string)":"31abab7c","GetAllNFTs()":"7c26b48e","GetAvailableNFTs()":"5fec6e67","GetTokensByOwner(address)":"96abc52b","PRICE_PER_TOKEN()":"833b9499","approve(address,uint256)":"095ea7b3","artist()":"43bc1612","balanceOf(address)":"70a08231","getApproved(uint256)":"081812fc","isApprovedForAll(address,address)":"e985e9c5","mintNFT(uint256,address)":"669f5a51","name()":"06fdde03","owner()":"8da5cb5b","ownerOf(uint256)":"6352211e","renounceOwnership()":"715018a6","safeTransferFrom(address,address,uint256)":"42842e0e","safeTransferFrom(address,address,uint256,bytes)":"b88d4fde","setApprovalForAll(address,bool)":"a22cb465","supportsInterface(bytes4)":"01ffc9a7","symbol()":"95d89b41","tokenURI(uint256)":"c87b56dd","transferFrom(address,address,uint256)":"23b872dd","transferOwnership(address)":"f2fde38b"}}}}}