{"contracts/Collection.sol":{"Gallery":{"abi":[{"inputs":[],"stateMutability":"nonpayable","type":"constructor"},{"inputs":[{"internalType":"address","name":"owner","type":"address"}],"name":"OwnableInvalidOwner","type":"error"},{"inputs":[{"internalType":"address","name":"account","type":"address"}],"name":"OwnableUnauthorizedAccount","type":"error"},{"anonymous":false,"inputs":[{"indexed":true,"internalType":"address","name":"previousOwner","type":"address"},{"indexed":true,"internalType":"address","name":"newOwner","type":"address"}],"name":"OwnershipTransferred","type":"event"},{"inputs":[{"internalType":"string","name":"_collectionURIs","type":"string"}],"name":"AddNFTs","outputs":[{"internalType":"uint256","name":"","type":"uint256"}],"stateMutability":"nonpayable","type":"function"},{"inputs":[{"internalType":"uint256","name":"collectionId","type":"uint256"},{"internalType":"uint256","name":"tokenId","type":"uint256"},{"internalType":"string","name":"voterName","type":"string"}],"name":"AddVote","outputs":[],"stateMutability":"nonpayable","type":"function"},{"inputs":[{"internalType":"uint256","name":"prevCollectionId","type":"uint256"},{"internalType":"uint256","name":"newCollectionId","type":"uint256"},{"internalType":"uint256","name":"prevTokenId","type":"uint256"},{"internalType":"uint256","name":"newTokenId","type":"uint256"},{"internalType":"string","name":"voterName","type":"string"}],"name":"ChangeVote","outputs":[],"stateMutability":"nonpayable","type":"function"},{"inputs":[{"internalType":"address","name":"seller","type":"address"}],"name":"GetAllNFTs","outputs":[{"components":[{"internalType":"uint256","name":"id","type":"uint256"},{"internalType":"uint256","name":"collectionId","type":"uint256"},{"internalType":"string","name":"uri","type":"string"},{"internalType":"string[]","name":"voters","type":"string[]"}],"internalType":"struct Token[]","name":"","type":"tuple[]"}],"stateMutability":"view","type":"function"},{"inputs":[],"name":"GetAvailableNFTs","outputs":[{"components":[{"internalType":"uint256","name":"id","type":"uint256"},{"internalType":"uint256","name":"collectionId","type":"uint256"},{"internalType":"string","name":"uri","type":"string"},{"internalType":"string[]","name":"voters","type":"string[]"}],"internalType":"struct Token[]","name":"","type":"tuple[]"}],"stateMutability":"view","type":"function"},{"inputs":[{"internalType":"address","name":"owner","type":"address"}],"name":"GetNFTsByOwner","outputs":[{"components":[{"internalType":"uint256","name":"id","type":"uint256"},{"internalType":"uint256","name":"collectionId","type":"uint256"},{"internalType":"string","name":"uri","type":"string"},{"internalType":"string[]","name":"voters","type":"string[]"}],"internalType":"struct Token[]","name":"","type":"tuple[]"}],"stateMutability":"view","type":"function"},{"inputs":[{"internalType":"uint256","name":"","type":"uint256"}],"name":"collections","outputs":[{"internalType":"contract Collection","name":"","type":"address"}],"stateMutability":"view","type":"function"},{"inputs":[{"internalType":"uint256","name":"collectionID","type":"uint256"},{"internalType":"uint256","name":"tokenID","type":"uint256"}],"name":"mintNFT","outputs":[],"stateMutability":"payable","type":"function"},{"inputs":[],"name":"owner","outputs":[{"internalType":"address","name":"","type":"address"}],"stateMutability":"view","type":"function"},{"inputs":[],"name":"renounceOwnership","outputs":[],"stateMutability":"nonpayable","type":"function"},{"inputs":[{"internalType":"address","name":"newOwner","type":"address"}],"name":"transferOwnership","outputs":[],"stateMutability":"nonpayable","type":"function"}],"evm":{"bytecode":{"linkReferences":{},"object":"6080806040523461007f5733156100695760008054336001600160a01b03198216811783556040519290916001600160a01b0316907f8be0079c531659141344cd1fd0a4f28419497f9722a3daafe3b4186f6b6457e09080a3600060025561321f90816100858239f35b631e4fbdf760e01b815260006004820152602490fd5b600080fdfe604060808152600490813610156200001657600080fd5b600091823560e01c80630e8aef771462000c1e5780635fec6e671462000a72578063653e56f814620008cc578063715018a6146200086e57838163803549bc1462000726575080638da5cb5b14620006fc5780638db77cce1462000415578063c48283ff146200036a578063d6fad3ae1462000189578063f2fde38b14620000f35763fdbda0ec14620000a857600080fd5b34620000ef576020366003190112620000ef573591600154831015620000ec5750620000d660209262000edc565b905491519160018060a01b039160031b1c168152f35b80fd5b8280fd5b509034620000ef576020366003190112620000ef576001600160a01b0382358181169391929084900362000185576200012b62000f0e565b83156200016f5750506000548260018060a01b0319821617600055167f8be0079c531659141344cd1fd0a4f28419497f9722a3daafe3b4186f6b6457e0600080a380f35b51631e4fbdf760e01b8152908101849052602490fd5b8480fd5b509134620000ec576020928360031936011262000366576001600160401b03908035828111620002f457620001c2903690830162000d53565b60025485519193611fad8084019291831184841017620003535791620001f89184936200123d8539815233602082015260400190565b039084f080156200034957600154600160401b8110156200033657866200022a82600162000269940160015562000edc565b959060018060a01b038095169681549060031b908689831b921b191617905587518093819263ee36675b60e01b83528488840152602483019062000dc5565b038188885af180156200032c57908791620002f8575b505083541690823b15620002f4579060248492838751958694859363f2fde38b60e01b85528401525af18015620002ea57620002d2575b5050620002c560025462000f3b565b6002556001549051908152f35b620002de829162000ccf565b620000ec5780620002b6565b83513d84823e3d90fd5b8380fd5b813d831162000324575b6200030e818362000d15565b810103126200031f5785386200027f565b600080fd5b503d62000302565b86513d87823e3d90fd5b634e487b7160e01b855260418352602485fd5b84513d85823e3d90fd5b634e487b7160e01b875260418552602487fd5b5080fd5b509080600319360112620000ef576020620003b76200038a843562000edc565b9054845163669f5a5160e01b81526024359681019687523360208801529586938492918391604090910190565b0392349160039190911b1c6001600160a01b03165af19081156200040c5750620003df575080f35b602090813d811162000404575b620003f8818362000d15565b810103126200031f5780f35b503d620003ec565b513d84823e3d90fd5b50919034620003665760209182600319360112620000ec576001600160a01b03843581811695919290869003620000ec57600180549390929082805b868210620005fa5762000465915062001191565b968398845b8781106200048557885180620004818c8262000dec565b0390f35b8284620004928362000edc565b929054888d51809481936321de0b0960e11b8352600397881b1c165afa908115620005f057879285888b9481948691620005bc575b501614620004e5575b50505050620004df9062000f3b565b6200046a565b620004f08562000edc565b9054911b1c168b5192838092633e135a4760e11b82525afa908115620005b25790889188916200058b575b5087915b62000530575b5086858792620004d0565b909b81518d10156200058457906200057d62000576838f8f958d966200055b6200056f938862001206565b5162000568838362001206565b5262001206565b5062000f3b565b9d62000f3b565b916200051f565b9b62000525565b620005ab91503d808a833e620005a2818362000d15565b81019062000fc6565b386200051b565b8a513d89823e3d90fd5b620005e191508a3d8c11620005e8575b620005d8818362000d15565b8101906200121b565b38620004c7565b503d620005cc565b8b513d8a823e3d90fd5b8883620006078462000edc565b929054878c51809481936321de0b0960e11b8352600397881b1c165afa908115620005b25786928d878a948f9482958792620006da575b505016146200065f575b5050505090620006589062000f3b565b9062000451565b6200066a8662000edc565b9054911b1c168a5192838092633e135a4760e11b82525afa908115620006d05791620006a69162000658938891620006b2575b50519062001183565b90508385843862000648565b620006c991503d808a833e620005a2818362000d15565b386200069d565b89513d88823e3d90fd5b620006f49250803d10620005e857620005d8818362000d15565b8f806200063e565b5050346200036657816003193601126200036657905490516001600160a01b039091168152602090f35b929050346200086a5760a03660031901126200086a576084356001600160401b03811162000865576200075d903690840162000d53565b916200076a813562000edc565b90546001600160a01b039160031b1c8116803b1562000861578584518092630c6aeadf60e21b825260443586830152866024830152818381620007b1604482018c62000dc5565b03925af1801562000857579086916200083f575b5050620007d460243562000edc565b90549060031b1c1692833b1562000185576200081793859283855180978195829463681cd54b60e11b845260643590840152886024840152604483019062000dc5565b03925af19081156200040c57506200082c5750f35b620008379062000ccf565b620000ec5780f35b6200084a9062000ccf565b62000185578438620007c5565b84513d88823e3d90fd5b8580fd5b505050fd5b5050fd5b8334620000ec5780600319360112620000ec576200088b62000f0e565b600080546001600160a01b0319811682556001600160a01b03167f8be0079c531659141344cd1fd0a4f28419497f9722a3daafe3b4186f6b6457e08280a380f35b509190346200036657602036600319011262000366576001600160a01b0383358181169390849003620000ec57908180916001928354945b858210620009f15762000918915062001191565b958297835b8681106200093457875180620004818b8262000dec565b83856024620009438462000edc565b919054918c5194859384926396abc52b60e01b84528a8a85015260031b1c165afa908115620006d0579087918791620009d3575b5086915b62000994575b50506200098e9062000f3b565b6200091d565b909a81518c1015620009cc5790620009c5620009be836200056f8f958f6200055b8e988862001206565b9c62000f3b565b916200097b565b9a62000981565b620009ea91503d8089833e620005a2818362000d15565b3862000977565b82848960248c62000a028762000edc565b9590548d5196879586946396abc52b60e01b865285015260031b1c165afa90811562000a68579162000a439162000a4a93879162000a515750519062001183565b9162000f3b565b9062000904565b620006c991503d8089833e620005a2818362000d15565b88513d87823e3d90fd5b509190346200036657816003193601126200036657600180549083805b83821062000b9f5762000aa3915062001191565b938095815b84811062000abf5785518062000481898262000dec565b8262000acb8262000edc565b90548851635fec6e6760e01b8152929183918691839160039190911b1c6001600160a01b03165afa90811562000b9557908591859162000b77575b5084915b62000b23575b505062000b1d9062000f3b565b62000aa8565b909881518a101562000b70579062000b6962000b62838b62000b558a968f62000b4d908862001206565b519262001206565b526200056f818d62001206565b9a62000f3b565b9162000b0a565b9862000b10565b62000b8e91503d8087833e620005a2818362000d15565b3862000b06565b87513d86823e3d90fd5b8562000bab8362000edc565b90548751635fec6e6760e01b8152929183918b91839160039190911b1c6001600160a01b03165afa90811562000c14579162000a439162000bf693899162000bfd5750519062001183565b9062000a8f565b620006c991503d808b833e620005a2818362000d15565b86513d89823e3d90fd5b509034620000ef576060366003190112620000ef57826044356001600160401b038111620003665762000c55903690850162000d53565b62000c61843562000edc565b905460039190911b1c6001600160a01b0316803b15620000ef5762000cab9483855180978195829463681cd54b60e11b845260243590840152886024840152604483019062000dc5565b03925af19081156200040c575062000cc1575080f35b62000ccc9062000ccf565b80f35b6001600160401b03811162000ce357604052565b634e487b7160e01b600052604160045260246000fd5b608081019081106001600160401b0382111762000ce357604052565b90601f801991011681019081106001600160401b0382111762000ce357604052565b6001600160401b03811162000ce357601f01601f191660200190565b81601f820112156200031f5780359062000d6d8262000d37565b9262000d7d604051948562000d15565b828452602083830101116200031f57816000926020809301838601378301015290565b60005b83811062000db45750506000910152565b818101518382015260200162000da3565b9060209162000de08151809281855285808601910162000da0565b601f01601f1916010190565b6020808201908083528351809252604092838101600594838186881b850101970195600080945b87861062000e275750505050505050505090565b90919293949580979899603f198382030187528a519081518152828201518382015262000e61878301516080808a85015283019062000dc5565b90606080930151928183039101528151808252838201908480828a1b850101940192875b82811062000eab57505050505090806001929b0196019601949796959392919062000e13565b9193958062000ec96001939597601f19878203018952895162000dc5565b970195019101918c959493919262000e85565b60015481101562000ef857600160005260206000200190600090565b634e487b7160e01b600052603260045260246000fd5b6000546001600160a01b0316330362000f2357565b60405163118cdaa760e01b8152336004820152602490fd5b600019811462000f4b5760010190565b634e487b7160e01b600052601160045260246000fd5b6001600160401b03811162000ce35760051b60200190565b81601f820112156200031f57805162000f928162000d37565b9262000fa2604051948562000d15565b818452602082840101116200031f5762000fc3916020808501910162000da0565b90565b906020828203126200031f578151906001600160401b0382116200031f5780601f8385010112156200031f578183015190620010028262000f61565b9362001012604051958662000d15565b82855260208501938260208560051b8385010101116200031f57602081830101945b60208560051b838501010186106200104f5750505050505090565b85516001600160401b0381116200031f578284010160809081601f1982880301126200031f5760405191620010848362000cf9565b6020820151835260408201516020840152606090818301516001600160401b0381116200031f57886020620010bc9286010162000f79565b6040850152820151916001600160401b0383116200031f5787603f8483010112156200031f5760208382010151620010f48162000f61565b9362001104604051958662000d15565b81855260208501908a60408460051b8387010101116200031f57604081850101915b60408460051b838701010183106200114f57505050505082015281526020958601950162001034565b82516001600160401b0381116200031f57602091620011778e60408594878b01010162000f79565b81520192019162001126565b9190820180921162000f4b57565b906200119d8262000f61565b6040620011ad8151928362000d15565b8382528193620011c0601f199162000f61565b0191600090815b848110620011d6575050505050565b6020908451620011e68162000cf9565b8481528285818301526060808884015280830152828501015201620011c7565b805182101562000ef85760209160051b010190565b908160209103126200031f57516001600160a01b03811681036200031f579056fe608034620003e157601f906001600160401b0390601f199062001fad3881900385810184168301919085831184841017620003cb578084926040948552833981010312620003e15780516020918201516001600160a01b03958682169592939291869003620003e15762000072620003e6565b92600a84526921b7b63632b1ba34b7b760b11b8185015262000093620003e6565b90600382526213919560ea1b81830152845196848811620003cb576000978854966001978881811c91168015620003c0575b85821014620003ac5790818784931162000359575b508490878311600114620002f8578b92620002ec575b5050600019600383901b1c191690871b1788555b8251948511620002d85785548681811c91168015620002cd575b83821014620002b95790818587969594931162000260575b5081938511600114620001fb5750508692620001ef575b5050600019600383901b1c191690821b1790555b3315620001d657600780546001600160a01b0319808216339081179093556040519690949291167f8be0079c531659141344cd1fd0a4f28419497f9722a3daafe3b4186f6b6457e08380a380600a55600b55662386f26fc10000600c556009556008541617600855611ba69081620004078239f35b604051631e4fbdf760e01b815260048101839052602490fd5b0151905038806200014d565b869593929193168589528389209389905b8282106200024657505084116200022c575b505050811b01905562000161565b015160001960f88460031b161c191690553880806200021e565b84840151865588979095019493840193908101906200020c565b9091929394508689528289208580880160051c820192858910620002af575b9188978a9297969594930160051c01915b828110620002a057505062000136565b8b815588975089910162000290565b925081926200027f565b634e487b7160e01b89526022600452602489fd5b90607f16906200011e565b634e487b7160e01b88526041600452602488fd5b015190503880620000f0565b90848a9416918c8052868d20928d5b8882821062000342575050841162000328575b505050811b01885562000104565b015160001960f88460031b161c191690553880806200031a565b8385015186558d9790950194938401930162000307565b9091508a8052848b208780850160051c820192878610620003a2575b918b91869594930160051c01915b82811062000393575050620000da565b8d81558594508b910162000383565b9250819262000375565b634e487b7160e01b8b52602260045260248bfd5b90607f1690620000c5565b634e487b7160e01b600052604160045260246000fd5b600080fd5b60408051919082016001600160401b03811183821017620003cb5760405256fe6080604081815260048036101561001557600080fd5b600092833560e01c90816301ffc9a7146111035750806306fdde031461107c578063081812fc14611041578063095ea7b314610f6557806323b872dd14610f4d57806331abab7c14610c9b57806342842e0e14610c7257806343bc161214610c495780635fec6e6714610bce5780636352211e14610b9d578063669f5a51146109fc57806370a08231146109a7578063715018a61461094a5780637c26b48e146108c0578063833b9499146108a15780638da5cb5b1461087857806395d89b41146107b657806396abc52b1461072c578063a22cb4651461068f578063b88d4fde14610628578063c87b56dd146105c1578063d039aa9614610515578063e985e9c5146104c7578063ee36675b146101c25763f2fde38b1461013657600080fd5b346101be5760203660031901126101be5761014f6111c9565b90610158611423565b6001600160a01b039182169283156101a8575050600780546001600160a01b031981168417909155167f8be0079c531659141344cd1fd0a4f28419497f9722a3daafe3b4186f6b6457e08380a380f35b51631e4fbdf760e01b8152908101849052602490fd5b8280fd5b5091346104c457602092836003193601126104c05780356001600160401b0381116101be576101f490369083016112ee565b91600a54600954928551916102088361122f565b8252868201938452858201948552606082019160608352838052600d885286842095865495600160401b96878110156103eb576001988982018082558210156104ad579060039188528b88209060021b018451815582518a820155610271845160028301611893565b0185519081519189831161049a578c9082548484558481811061041a575b505090809291019089528a828a20918a935b8585106103fe57505050505050600e54878110156103eb5780896102c89201600e55611847565b9390936103d957518355518783015551600391906102e99060028301611893565b0191519081519485116103c657508690825485845580861061034d575b50918352868320918791015b8484106103305750600a548661032782611997565b600a5551908152f35b85918161033f84935186611893565b019201920191908690610312565b838552868684872092830192015b828110610369575050610306565b909192935085610379825461144f565b8061038c575b505001908689939261035b565b601f8082116001146103a457505081555b853861037f565b6103bd908484528d8420920160051c820185830161187c565b8183555561039d565b634e487b7160e01b845260419052602483fd5b634e487b7160e01b8752868552602487fd5b634e487b7160e01b875260418552602487fd5b8161040b84935186611893565b019201920191908b908e6102a1565b50838b528c85848d2092830192015b8c83821061043a575050508461028f565b9091929394610449835461144f565b908161045e575b50505001908c8f9392610429565b601f8083116001146104795750505081555b8f388d91610450565b610491918585528420920160051c820185830161187c565b81835555610470565b634e487b7160e01b895260418752602489fd5b634e487b7160e01b885260328652602488fd5b5080fd5b80fd5b5050346104c057806003193601126104c05760ff816020936104e76111c9565b6104ef6111e4565b6001600160a01b0391821683526005875283832091168252855220549151911615158152f35b5082346104c4576105253661130c565b9091805b600e548110156105bd578361053d82611847565b505414610553575b61054e90611997565b610529565b600361055e82611847565b5001805490600160401b8210156105aa579061057f91600182018155611a87565b61059857906105918461054e93611893565b9050610545565b634e487b7160e01b8352828652602483fd5b634e487b7160e01b845260418752602484fd5b5080f35b50346101be5760203660031901126101be5790610624926105ff92356105e68161180c565b5081526006602052610606828220835194858092611489565b038461127b565b815161061181611260565b5251918291602083526020830190611189565b0390f35b8382346104c05760803660031901126104c0576106436111c9565b61064b6111e4565b906064356001600160401b03811161068b573660238201121561068b576106889381602461067e933693013591016112b7565b91604435916116be565b80f35b8480fd5b5090346101be57806003193601126101be576106a96111c9565b906024359182151580930361068b576001600160a01b03169283156107175750338452600560205280842083855260205280842060ff1981541660ff8416179055519081527f17307eab39ab6107e8899845ad3d59bd9653f200f220920489ca2b5937696c3160203392a380f35b836024925191630b61174360e31b8352820152fd5b509190346104c057602091826003193601126104c457926001600160a01b036107536111c9565b168452600d83528184209081549161076a836119bc565b946107778551968761127b565b83865280860191875280872096915b84831061079a57855180610624898261133b565b83826001926107a88b611a3f565b815201980192019196610786565b5050346104c057816003193601126104c0578051908260018054906107da8261144f565b808652918181169081156108505750600114610815575b5050506108038261062494038361127b565b51918291602083526020830190611189565b80955082526020948583205b82841061083d57505050826106249461080392820101946107f1565b8054868501880152928601928101610821565b61062497506108039450602092508693915060ff191682840152151560051b820101946107f1565b5050346104c057816003193601126104c05760075490516001600160a01b039091168152602090f35b5050346104c057816003193601126104c057602090600c549051908152f35b5090346101be57826003193601126101be57600e546108de816119bc565b926108eb8351948561127b565b818452600e85527fbb7b4a454dc3493923482f07822329ed19e8244eff582cc204f8554c3620c3fd9460208086015b84831061092e57855180610624898261133b565b838260019261093c8b611a3f565b81520198019201919661091a565b83346104c457806003193601126104c457610963611423565b600780546001600160a01b0319811690915581906001600160a01b03167f8be0079c531659141344cd1fd0a4f28419497f9722a3daafe3b4186f6b6457e08280a380f35b5091346104c45760203660031901126104c4576001600160a01b036109ca6111c9565b169283156109e75750806020938392526003845220549051908152f35b91516322718ad960e21b815291820152602490fd5b50816003193601126101be57610a106111e4565b92600c543410610b6057610a248235611ac6565b80516001600160a01b03959193918616908115610b4957808452602096600288528685205416918215159283610b16575b81865260038952878620805460010190558286526002895287862080546001600160a01b031916831790557fddf252ad1be2c89b69c2b068fc378daa952ba7f163c4a11628f55a4df523b3ef8680a4610b015750837ff8e1a15aba9398e019f0b49df1a4fde98ee17ae345cb5f6b5e2c27f5033e8ce791610ae58451918680870151918481526006865220611893565b8451908152a1610af6600b54611997565b600b55519051908152f35b6024918451916339e3563760e11b8352820152fd5b600083815260046020526040902080546001600160a01b0319169055808652600389528786208054600019019055610a55565b8551633250574960e11b8152808401859052602490fd5b506020606492519162461bcd60e51b83528201526017602482015276115d1a195c881c185a59081a5cc81a5b98dbdc9c9958dd604a1b6044820152fd5b5091346104c45760203660031901126104c45750610bbd6020923561180c565b90516001600160a01b039091168152f35b509190346104c057816003193601126104c0578180939252602091600d835281842090815491610bfd836119bc565b94610c0a8551968761127b565b83865280860191875280872096915b848310610c2d57855180610624898261133b565b8382600192610c3b8b611a3f565b815201980192019196610c19565b5050346104c057816003193601126104c05760085490516001600160a01b039091168152602090f35b5050346104c05761068890610c86366111fa565b91925192610c9384611260565b8584526116be565b50346101be57610caa3661130c565b919093805b600e548110156105bd5785610cc382611847565b505414610cd9575b610cd490611997565b610caf565b94815b610ce587611847565b50600380910154821015610f4157610d088282610d018b611847565b5001611a87565b5087518860209282610d238582019286845284830190611489565b0392610d37601f199485810183528261127b565b51902091610d6182519182610d558d88830196898852830190611189565b0390810183528261127b565b5190201480610f39575b610d7f575050610d7a90611997565b610cdc565b92610d9b82610d948b95979899949a9b611847565b50016119d3565b988951861015610f3557865b8a51811015610e415786811015610de55780610dc6610de0928d611ab2565b51610dd082611a9f565b52610dda81611a9f565b50611997565b610da7565b868111610df6575b610de090611997565b610e00818c611ab2565b51600019820190828211610e2e5781610e2691610e20610de09594611a9f565b52611a9f565b509050610ded565b634e487b7160e01b8a5260118b5260248afd5b509791969594509750919091610e5683611847565b506060519101600160401b8211610f22578054828255808310610eb3575b508452818420849260805b838510610e97575050505050610cd4905b9050610ccb565b60018282610ea783945187611893565b01930194019391610e7f565b8186528284872091820191015b818110610ecd5750610e74565b8087610edb6001935461144f565b80610ee9575b505001610ec0565b601f8082118514610f0057505081555b8738610ee1565b610f1990848452898420920160051c820185830161187c565b81835555610ef9565b634e487b7160e01b855260418652602485fd5b8680fd5b506001610d6b565b505094610cd490610e90565b83346104c457610688610f5f366111fa565b9161151f565b5090346101be57806003193601126101be57610f7f6111c9565b91602435610f8c8161180c565b3315158061102e575b80611005575b610fef576001600160a01b039485169482918691167f8c5be1e5ebec7d5bd14f71427d1e84f3dd0314c0f7b2291e5b200ac8c7c3b9258880a48452602052822080546001600160a01b031916909117905580f35b835163a9fbf51f60e01b81523381850152602490fd5b506001600160a01b03811686526005602090815284872033885290528386205460ff1615610f9b565b506001600160a01b038116331415610f95565b50346101be5760203660031901126101be579182602093356110628161180c565b50825283528190205490516001600160a01b039091168152f35b5050346104c057816003193601126104c05780519082805461109d8161144f565b8085529060019081811690811561085057506001146110c8575050506108038261062494038361127b565b94508180526020948583205b8284106110f057505050826106249461080392820101946107f1565b80548685018801529286019281016110d4565b925050346101be5760203660031901126101be573563ffffffff60e01b81168091036101be5760209250632483248360e11b8114908115611146575b5015158152f35b6380ac58cd60e01b811491508115611178575b8115611167575b503861113f565b6301ffc9a760e01b14905038611160565b635b5e139f60e01b81149150611159565b919082519283825260005b8481106111b5575050826000602080949584010152601f8019910116010190565b602081830181015184830182015201611194565b600435906001600160a01b03821682036111df57565b600080fd5b602435906001600160a01b03821682036111df57565b60609060031901126111df576001600160a01b039060043582811681036111df579160243590811681036111df579060443590565b608081019081106001600160401b0382111761124a57604052565b634e487b7160e01b600052604160045260246000fd5b602081019081106001600160401b0382111761124a57604052565b90601f801991011681019081106001600160401b0382111761124a57604052565b6001600160401b03811161124a57601f01601f191660200190565b9291926112c38261129c565b916112d1604051938461127b565b8294818452818301116111df578281602093846000960137010152565b9080601f830112156111df57816020611309933591016112b7565b90565b9060406003198301126111df5760043591602435906001600160401b0382116111df57611309916004016112ee565b6020808201908083528351809252604092838101600594838186881b850101970195600080945b8786106113755750505050505050505090565b90919293949580979899603f198382030187528a51908151815282820151838201526113ad878301516080808a850152830190611189565b90606080930151928183039101528151808252838201908480828a1b850101940192875b8281106113f557505050505090806001929b01960196019497969593929190611362565b919395806114116001939597601f198782030189528951611189565b970195019101918c95949391926113d1565b6007546001600160a01b0316330361143757565b60405163118cdaa760e01b8152336004820152602490fd5b90600182811c9216801561147f575b602083101461146957565b634e487b7160e01b600052602260045260246000fd5b91607f169161145e565b906000929180549161149a8361144f565b9182825260019384811690816000146114fc57506001146114bc575b50505050565b90919394506000526020928360002092846000945b8386106114e85750505050010190388080806114b6565b8054858701830152940193859082016114d1565b9294505050602093945060ff191683830152151560051b010190388080806114b6565b6001600160a01b0391821692909183156116a55760009282845282602095600287526040968488882054169687913315158061160f575b509060027fddf252ad1be2c89b69c2b068fc378daa952ba7f163c4a11628f55a4df523b3ef92846115dc575b858352600381528b8320805460010190558683525289812080546001600160a01b0319168517905580a416928383036115bb5750505050565b6064945051926364283d7b60e01b8452600484015260248301526044820152fd5b600087815260046020526040902080546001600160a01b0319169055848352600381528b83208054600019019055611582565b91939450915080611664575b1561162b57859291879138611556565b878688611648576024915190637e27328960e01b82526004820152fd5b604491519063177e802f60e01b82523360048301526024820152fd5b503387148015611689575b8061161b575085825260048152338589842054161461161b565b5086825260058152878220338352815260ff888320541661166f565b604051633250574960e11b815260006004820152602490fd5b6116c983838361151f565b813b6116d55750505050565b604051630a85bd0160e11b8082523360048301526001600160a01b03928316602483015260448201949094526080606482015260209592909116939092908390611723906084830190611189565b039285816000958187895af18491816117cc575b50611797575050503d60001461178f573d6117518161129c565b9061175f604051928361127b565b81528091843d92013e5b8051928361178a57604051633250574960e11b815260048101849052602490fd5b019050fd5b506060611769565b919450915063ffffffff60e01b16036117b45750388080806114b6565b60249060405190633250574960e11b82526004820152fd5b9091508681813d8311611805575b6117e4818361127b565b8101031261068b57516001600160e01b03198116810361068b579038611737565b503d6117da565b6000818152600260205260409020546001600160a01b031690811561182f575090565b60249060405190637e27328960e01b82526004820152fd5b600e5481101561186657600e60005260206000209060021b0190600090565b634e487b7160e01b600052603260045260246000fd5b818110611887575050565b6000815560010161187c565b91909182516001600160401b03811161124a576118b0825461144f565b601f811161195a575b50602080601f83116001146118f65750819293946000926118eb575b50508160011b916000199060031b1c1916179055565b0151905038806118d5565b90601f198316958460005282600020926000905b88821061194257505083600195969710611929575b505050811b019055565b015160001960f88460031b161c1916905538808061191f565b8060018596829496860151815501950193019061190a565b61198790836000526020600020601f840160051c8101916020851061198d575b601f0160051c019061187c565b386118b9565b909150819061197a565b60001981146119a65760010190565b634e487b7160e01b600052601160045260246000fd5b6001600160401b03811161124a5760051b60200190565b9081546119df816119bc565b926040936119ef8551918261127b565b828152809460208092019260005281600020906000935b858510611a1557505050505050565b60018481928451611a3181611a2a818a611489565b038261127b565b815201930194019391611a06565b90604051611a4c8161122f565b6060611a82600383958054855260018101546020860152604051611a7781611a2a8160028601611489565b6040860152016119d3565b910152565b80548210156118665760005260206000200190600090565b6060518110156118665760051b60800190565b80518210156118665760209160051b010190565b604090815190611ad58261122f565b606080600093848152846020820152818682015201528190600e54915b828110611b3957505050815190611b0882611260565b808252825192611b178461122f565b818452816020850152805191611b2c83611260565b8252830152606082015290565b81611b4382611847565b505414611b5857611b5390611997565b611af2565b9150506113099250611b6a9150611847565b50611a3f56fea2646970667358221220e3ebfa8a290e76f341b447b7c836130753cc908014f012b03e3f02ac20e0d27064736f6c63430008140033a2646970667358221220d1dffbddb40fcfb55f087777155d2d0701f80dad8e7083d00f5f444a9476e02164736f6c63430008140033","opcodes":"PUSH1 0x80 DUP1 PUSH1 0x40 MSTORE CALLVALUE PUSH2 0x7F JUMPI CALLER ISZERO PUSH2 0x69 JUMPI PUSH1 0x0 DUP1 SLOAD CALLER PUSH1 0x1 PUSH1 0x1 PUSH1 0xA0 SHL SUB NOT DUP3 AND DUP2 OR DUP4 SSTORE PUSH1 0x40 MLOAD SWAP3 SWAP1 SWAP2 PUSH1 0x1 PUSH1 0x1 PUSH1 0xA0 SHL SUB AND SWAP1 PUSH32 0x8BE0079C531659141344CD1FD0A4F28419497F9722A3DAAFE3B4186F6B6457E0 SWAP1 DUP1 LOG3 PUSH1 0x0 PUSH1 0x2 SSTORE PUSH2 0x321F SWAP1 DUP2 PUSH2 0x85 DUP3 CODECOPY RETURN JUMPDEST PUSH4 0x1E4FBDF7 PUSH1 0xE0 SHL DUP2 MSTORE PUSH1 0x0 PUSH1 0x4 DUP3 ADD MSTORE PUSH1 0x24 SWAP1 REVERT JUMPDEST PUSH1 0x0 DUP1 REVERT INVALID PUSH1 0x40 PUSH1 0x80 DUP2 MSTORE PUSH1 0x4 SWAP1 DUP2 CALLDATASIZE LT ISZERO PUSH3 0x16 JUMPI PUSH1 0x0 DUP1 REVERT JUMPDEST PUSH1 0x0 SWAP2 DUP3 CALLDATALOAD PUSH1 0xE0 SHR DUP1 PUSH4 0xE8AEF77 EQ PUSH3 0xC1E JUMPI DUP1 PUSH4 0x5FEC6E67 EQ PUSH3 0xA72 JUMPI DUP1 PUSH4 0x653E56F8 EQ PUSH3 0x8CC JUMPI DUP1 PUSH4 0x715018A6 EQ PUSH3 0x86E JUMPI DUP4 DUP2 PUSH4 0x803549BC EQ PUSH3 0x726 JUMPI POP DUP1 PUSH4 0x8DA5CB5B EQ PUSH3 0x6FC JUMPI DUP1 PUSH4 0x8DB77CCE EQ PUSH3 0x415 JUMPI DUP1 PUSH4 0xC48283FF EQ PUSH3 0x36A JUMPI DUP1 PUSH4 0xD6FAD3AE EQ PUSH3 0x189 JUMPI DUP1 PUSH4 0xF2FDE38B EQ PUSH3 0xF3 JUMPI PUSH4 0xFDBDA0EC EQ PUSH3 0xA8 JUMPI PUSH1 0x0 DUP1 REVERT JUMPDEST CALLVALUE PUSH3 0xEF JUMPI PUSH1 0x20 CALLDATASIZE PUSH1 0x3 NOT ADD SLT PUSH3 0xEF JUMPI CALLDATALOAD SWAP2 PUSH1 0x1 SLOAD DUP4 LT ISZERO PUSH3 0xEC JUMPI POP PUSH3 0xD6 PUSH1 0x20 SWAP3 PUSH3 0xEDC JUMP JUMPDEST SWAP1 SLOAD SWAP2 MLOAD SWAP2 PUSH1 0x1 DUP1 PUSH1 0xA0 SHL SUB SWAP2 PUSH1 0x3 SHL SHR AND DUP2 MSTORE RETURN JUMPDEST DUP1 REVERT JUMPDEST DUP3 DUP1 REVERT JUMPDEST POP SWAP1 CALLVALUE PUSH3 0xEF JUMPI PUSH1 0x20 CALLDATASIZE PUSH1 0x3 NOT ADD SLT PUSH3 0xEF JUMPI PUSH1 0x1 PUSH1 0x1 PUSH1 0xA0 SHL SUB DUP3 CALLDATALOAD DUP2 DUP2 AND SWAP4 SWAP2 SWAP3 SWAP1 DUP5 SWAP1 SUB PUSH3 0x185 JUMPI PUSH3 0x12B PUSH3 0xF0E JUMP JUMPDEST DUP4 ISZERO PUSH3 0x16F JUMPI POP POP PUSH1 0x0 SLOAD DUP3 PUSH1 0x1 DUP1 PUSH1 0xA0 SHL SUB NOT DUP3 AND OR PUSH1 0x0 SSTORE AND PUSH32 0x8BE0079C531659141344CD1FD0A4F28419497F9722A3DAAFE3B4186F6B6457E0 PUSH1 0x0 DUP1 LOG3 DUP1 RETURN JUMPDEST MLOAD PUSH4 0x1E4FBDF7 PUSH1 0xE0 SHL DUP2 MSTORE SWAP1 DUP2 ADD DUP5 SWAP1 MSTORE PUSH1 0x24 SWAP1 REVERT JUMPDEST DUP5 DUP1 REVERT JUMPDEST POP SWAP2 CALLVALUE PUSH3 0xEC JUMPI PUSH1 0x20 SWAP3 DUP4 PUSH1 0x3 NOT CALLDATASIZE ADD SLT PUSH3 0x366 JUMPI PUSH1 0x1 PUSH1 0x1 PUSH1 0x40 SHL SUB SWAP1 DUP1 CALLDATALOAD DUP3 DUP2 GT PUSH3 0x2F4 JUMPI PUSH3 0x1C2 SWAP1 CALLDATASIZE SWAP1 DUP4 ADD PUSH3 0xD53 JUMP JUMPDEST PUSH1 0x2 SLOAD DUP6 MLOAD SWAP2 SWAP4 PUSH2 0x1FAD DUP1 DUP5 ADD SWAP3 SWAP2 DUP4 GT DUP5 DUP5 LT OR PUSH3 0x353 JUMPI SWAP2 PUSH3 0x1F8 SWAP2 DUP5 SWAP4 PUSH3 0x123D DUP6 CODECOPY DUP2 MSTORE CALLER PUSH1 0x20 DUP3 ADD MSTORE PUSH1 0x40 ADD SWAP1 JUMP JUMPDEST SUB SWAP1 DUP5 CREATE DUP1 ISZERO PUSH3 0x349 JUMPI PUSH1 0x1 SLOAD PUSH1 0x1 PUSH1 0x40 SHL DUP2 LT ISZERO PUSH3 0x336 JUMPI DUP7 PUSH3 0x22A DUP3 PUSH1 0x1 PUSH3 0x269 SWAP5 ADD PUSH1 0x1 SSTORE PUSH3 0xEDC JUMP JUMPDEST SWAP6 SWAP1 PUSH1 0x1 DUP1 PUSH1 0xA0 SHL SUB DUP1 SWAP6 AND SWAP7 DUP2 SLOAD SWAP1 PUSH1 0x3 SHL SWAP1 DUP7 DUP10 DUP4 SHL SWAP3 SHL NOT AND OR SWAP1 SSTORE DUP8 MLOAD DUP1 SWAP4 DUP2 SWAP3 PUSH4 0xEE36675B PUSH1 0xE0 SHL DUP4 MSTORE DUP5 DUP9 DUP5 ADD MSTORE PUSH1 0x24 DUP4 ADD SWAP1 PUSH3 0xDC5 JUMP JUMPDEST SUB DUP2 DUP9 DUP9 GAS CALL DUP1 ISZERO PUSH3 0x32C JUMPI SWAP1 DUP8 SWAP2 PUSH3 0x2F8 JUMPI JUMPDEST POP POP DUP4 SLOAD AND SWAP1 DUP3 EXTCODESIZE ISZERO PUSH3 0x2F4 JUMPI SWAP1 PUSH1 0x24 DUP5 SWAP3 DUP4 DUP8 MLOAD SWAP6 DUP7 SWAP5 DUP6 SWAP4 PUSH4 0xF2FDE38B PUSH1 0xE0 SHL DUP6 MSTORE DUP5 ADD MSTORE GAS CALL DUP1 ISZERO PUSH3 0x2EA JUMPI PUSH3 0x2D2 JUMPI JUMPDEST POP POP PUSH3 0x2C5 PUSH1 0x2 SLOAD PUSH3 0xF3B JUMP JUMPDEST PUSH1 0x2 SSTORE PUSH1 0x1 SLOAD SWAP1 MLOAD SWAP1 DUP2 MSTORE RETURN JUMPDEST PUSH3 0x2DE DUP3 SWAP2 PUSH3 0xCCF JUMP JUMPDEST PUSH3 0xEC JUMPI DUP1 PUSH3 0x2B6 JUMP JUMPDEST DUP4 MLOAD RETURNDATASIZE DUP5 DUP3 RETURNDATACOPY RETURNDATASIZE SWAP1 REVERT JUMPDEST DUP4 DUP1 REVERT JUMPDEST DUP2 RETURNDATASIZE DUP4 GT PUSH3 0x324 JUMPI JUMPDEST PUSH3 0x30E DUP2 DUP4 PUSH3 0xD15 JUMP JUMPDEST DUP2 ADD SUB SLT PUSH3 0x31F JUMPI DUP6 CODESIZE PUSH3 0x27F JUMP JUMPDEST PUSH1 0x0 DUP1 REVERT JUMPDEST POP RETURNDATASIZE PUSH3 0x302 JUMP JUMPDEST DUP7 MLOAD RETURNDATASIZE DUP8 DUP3 RETURNDATACOPY RETURNDATASIZE SWAP1 REVERT JUMPDEST PUSH4 0x4E487B71 PUSH1 0xE0 SHL DUP6 MSTORE PUSH1 0x41 DUP4 MSTORE PUSH1 0x24 DUP6 REVERT JUMPDEST DUP5 MLOAD RETURNDATASIZE DUP6 DUP3 RETURNDATACOPY RETURNDATASIZE SWAP1 REVERT JUMPDEST PUSH4 0x4E487B71 PUSH1 0xE0 SHL DUP8 MSTORE PUSH1 0x41 DUP6 MSTORE PUSH1 0x24 DUP8 REVERT JUMPDEST POP DUP1 REVERT JUMPDEST POP SWAP1 DUP1 PUSH1 0x3 NOT CALLDATASIZE ADD SLT PUSH3 0xEF JUMPI PUSH1 0x20 PUSH3 0x3B7 PUSH3 0x38A DUP5 CALLDATALOAD PUSH3 0xEDC JUMP JUMPDEST SWAP1 SLOAD DUP5 MLOAD PUSH4 0x669F5A51 PUSH1 0xE0 SHL DUP2 MSTORE PUSH1 0x24 CALLDATALOAD SWAP7 DUP2 ADD SWAP7 DUP8 MSTORE CALLER PUSH1 0x20 DUP9 ADD MSTORE SWAP6 DUP7 SWAP4 DUP5 SWAP3 SWAP2 DUP4 SWAP2 PUSH1 0x40 SWAP1 SWAP2 ADD SWAP1 JUMP JUMPDEST SUB SWAP3 CALLVALUE SWAP2 PUSH1 0x3 SWAP2 SWAP1 SWAP2 SHL SHR PUSH1 0x1 PUSH1 0x1 PUSH1 0xA0 SHL SUB AND GAS CALL SWAP1 DUP2 ISZERO PUSH3 0x40C JUMPI POP PUSH3 0x3DF JUMPI POP DUP1 RETURN JUMPDEST PUSH1 0x20 SWAP1 DUP2 RETURNDATASIZE DUP2 GT PUSH3 0x404 JUMPI JUMPDEST PUSH3 0x3F8 DUP2 DUP4 PUSH3 0xD15 JUMP JUMPDEST DUP2 ADD SUB SLT PUSH3 0x31F JUMPI DUP1 RETURN JUMPDEST POP RETURNDATASIZE PUSH3 0x3EC JUMP JUMPDEST MLOAD RETURNDATASIZE DUP5 DUP3 RETURNDATACOPY RETURNDATASIZE SWAP1 REVERT JUMPDEST POP SWAP2 SWAP1 CALLVALUE PUSH3 0x366 JUMPI PUSH1 0x20 SWAP2 DUP3 PUSH1 0x3 NOT CALLDATASIZE ADD SLT PUSH3 0xEC JUMPI PUSH1 0x1 PUSH1 0x1 PUSH1 0xA0 SHL SUB DUP5 CALLDATALOAD DUP2 DUP2 AND SWAP6 SWAP2 SWAP3 SWAP1 DUP7 SWAP1 SUB PUSH3 0xEC JUMPI PUSH1 0x1 DUP1 SLOAD SWAP4 SWAP1 SWAP3 SWAP1 DUP3 DUP1 JUMPDEST DUP7 DUP3 LT PUSH3 0x5FA JUMPI PUSH3 0x465 SWAP2 POP PUSH3 0x1191 JUMP JUMPDEST SWAP7 DUP4 SWAP9 DUP5 JUMPDEST DUP8 DUP2 LT PUSH3 0x485 JUMPI DUP9 MLOAD DUP1 PUSH3 0x481 DUP13 DUP3 PUSH3 0xDEC JUMP JUMPDEST SUB SWAP1 RETURN JUMPDEST DUP3 DUP5 PUSH3 0x492 DUP4 PUSH3 0xEDC JUMP JUMPDEST SWAP3 SWAP1 SLOAD DUP9 DUP14 MLOAD DUP1 SWAP5 DUP2 SWAP4 PUSH4 0x21DE0B09 PUSH1 0xE1 SHL DUP4 MSTORE PUSH1 0x3 SWAP8 DUP9 SHL SHR AND GAS STATICCALL SWAP1 DUP2 ISZERO PUSH3 0x5F0 JUMPI DUP8 SWAP3 DUP6 DUP9 DUP12 SWAP5 DUP2 SWAP5 DUP7 SWAP2 PUSH3 0x5BC JUMPI JUMPDEST POP AND EQ PUSH3 0x4E5 JUMPI JUMPDEST POP POP POP POP PUSH3 0x4DF SWAP1 PUSH3 0xF3B JUMP JUMPDEST PUSH3 0x46A JUMP JUMPDEST PUSH3 0x4F0 DUP6 PUSH3 0xEDC JUMP JUMPDEST SWAP1 SLOAD SWAP2 SHL SHR AND DUP12 MLOAD SWAP3 DUP4 DUP1 SWAP3 PUSH4 0x3E135A47 PUSH1 0xE1 SHL DUP3 MSTORE GAS STATICCALL SWAP1 DUP2 ISZERO PUSH3 0x5B2 JUMPI SWAP1 DUP9 SWAP2 DUP9 SWAP2 PUSH3 0x58B JUMPI JUMPDEST POP DUP8 SWAP2 JUMPDEST PUSH3 0x530 JUMPI JUMPDEST POP DUP7 DUP6 DUP8 SWAP3 PUSH3 0x4D0 JUMP JUMPDEST SWAP1 SWAP12 DUP2 MLOAD DUP14 LT ISZERO PUSH3 0x584 JUMPI SWAP1 PUSH3 0x57D PUSH3 0x576 DUP4 DUP16 DUP16 SWAP6 DUP14 SWAP7 PUSH3 0x55B PUSH3 0x56F SWAP4 DUP9 PUSH3 0x1206 JUMP JUMPDEST MLOAD PUSH3 0x568 DUP4 DUP4 PUSH3 0x1206 JUMP JUMPDEST MSTORE PUSH3 0x1206 JUMP JUMPDEST POP PUSH3 0xF3B JUMP JUMPDEST SWAP14 PUSH3 0xF3B JUMP JUMPDEST SWAP2 PUSH3 0x51F JUMP JUMPDEST SWAP12 PUSH3 0x525 JUMP JUMPDEST PUSH3 0x5AB SWAP2 POP RETURNDATASIZE DUP1 DUP11 DUP4 RETURNDATACOPY PUSH3 0x5A2 DUP2 DUP4 PUSH3 0xD15 JUMP JUMPDEST DUP2 ADD SWAP1 PUSH3 0xFC6 JUMP JUMPDEST CODESIZE PUSH3 0x51B JUMP JUMPDEST DUP11 MLOAD RETURNDATASIZE DUP10 DUP3 RETURNDATACOPY RETURNDATASIZE SWAP1 REVERT JUMPDEST PUSH3 0x5E1 SWAP2 POP DUP11 RETURNDATASIZE DUP13 GT PUSH3 0x5E8 JUMPI JUMPDEST PUSH3 0x5D8 DUP2 DUP4 PUSH3 0xD15 JUMP JUMPDEST DUP2 ADD SWAP1 PUSH3 0x121B JUMP JUMPDEST CODESIZE PUSH3 0x4C7 JUMP JUMPDEST POP RETURNDATASIZE PUSH3 0x5CC JUMP JUMPDEST DUP12 MLOAD RETURNDATASIZE DUP11 DUP3 RETURNDATACOPY RETURNDATASIZE SWAP1 REVERT JUMPDEST DUP9 DUP4 PUSH3 0x607 DUP5 PUSH3 0xEDC JUMP JUMPDEST SWAP3 SWAP1 SLOAD DUP8 DUP13 MLOAD DUP1 SWAP5 DUP2 SWAP4 PUSH4 0x21DE0B09 PUSH1 0xE1 SHL DUP4 MSTORE PUSH1 0x3 SWAP8 DUP9 SHL SHR AND GAS STATICCALL SWAP1 DUP2 ISZERO PUSH3 0x5B2 JUMPI DUP7 SWAP3 DUP14 DUP8 DUP11 SWAP5 DUP16 SWAP5 DUP3 SWAP6 DUP8 SWAP3 PUSH3 0x6DA JUMPI JUMPDEST POP POP AND EQ PUSH3 0x65F JUMPI JUMPDEST POP POP POP POP SWAP1 PUSH3 0x658 SWAP1 PUSH3 0xF3B JUMP JUMPDEST SWAP1 PUSH3 0x451 JUMP JUMPDEST PUSH3 0x66A DUP7 PUSH3 0xEDC JUMP JUMPDEST SWAP1 SLOAD SWAP2 SHL SHR AND DUP11 MLOAD SWAP3 DUP4 DUP1 SWAP3 PUSH4 0x3E135A47 PUSH1 0xE1 SHL DUP3 MSTORE GAS STATICCALL SWAP1 DUP2 ISZERO PUSH3 0x6D0 JUMPI SWAP2 PUSH3 0x6A6 SWAP2 PUSH3 0x658 SWAP4 DUP9 SWAP2 PUSH3 0x6B2 JUMPI JUMPDEST POP MLOAD SWAP1 PUSH3 0x1183 JUMP JUMPDEST SWAP1 POP DUP4 DUP6 DUP5 CODESIZE PUSH3 0x648 JUMP JUMPDEST PUSH3 0x6C9 SWAP2 POP RETURNDATASIZE DUP1 DUP11 DUP4 RETURNDATACOPY PUSH3 0x5A2 DUP2 DUP4 PUSH3 0xD15 JUMP JUMPDEST CODESIZE PUSH3 0x69D JUMP JUMPDEST DUP10 MLOAD RETURNDATASIZE DUP9 DUP3 RETURNDATACOPY RETURNDATASIZE SWAP1 REVERT JUMPDEST PUSH3 0x6F4 SWAP3 POP DUP1 RETURNDATASIZE LT PUSH3 0x5E8 JUMPI PUSH3 0x5D8 DUP2 DUP4 PUSH3 0xD15 JUMP JUMPDEST DUP16 DUP1 PUSH3 0x63E JUMP JUMPDEST POP POP CALLVALUE PUSH3 0x366 JUMPI DUP2 PUSH1 0x3 NOT CALLDATASIZE ADD SLT PUSH3 0x366 JUMPI SWAP1 SLOAD SWAP1 MLOAD PUSH1 0x1 PUSH1 0x1 PUSH1 0xA0 SHL SUB SWAP1 SWAP2 AND DUP2 MSTORE PUSH1 0x20 SWAP1 RETURN JUMPDEST SWAP3 SWAP1 POP CALLVALUE PUSH3 0x86A JUMPI PUSH1 0xA0 CALLDATASIZE PUSH1 0x3 NOT ADD SLT PUSH3 0x86A JUMPI PUSH1 0x84 CALLDATALOAD PUSH1 0x1 PUSH1 0x1 PUSH1 0x40 SHL SUB DUP2 GT PUSH3 0x865 JUMPI PUSH3 0x75D SWAP1 CALLDATASIZE SWAP1 DUP5 ADD PUSH3 0xD53 JUMP JUMPDEST SWAP2 PUSH3 0x76A DUP2 CALLDATALOAD PUSH3 0xEDC JUMP JUMPDEST SWAP1 SLOAD PUSH1 0x1 PUSH1 0x1 PUSH1 0xA0 SHL SUB SWAP2 PUSH1 0x3 SHL SHR DUP2 AND DUP1 EXTCODESIZE ISZERO PUSH3 0x861 JUMPI DUP6 DUP5 MLOAD DUP1 SWAP3 PUSH4 0xC6AEADF PUSH1 0xE2 SHL DUP3 MSTORE PUSH1 0x44 CALLDATALOAD DUP7 DUP4 ADD MSTORE DUP7 PUSH1 0x24 DUP4 ADD MSTORE DUP2 DUP4 DUP2 PUSH3 0x7B1 PUSH1 0x44 DUP3 ADD DUP13 PUSH3 0xDC5 JUMP JUMPDEST SUB SWAP3 GAS CALL DUP1 ISZERO PUSH3 0x857 JUMPI SWAP1 DUP7 SWAP2 PUSH3 0x83F JUMPI JUMPDEST POP POP PUSH3 0x7D4 PUSH1 0x24 CALLDATALOAD PUSH3 0xEDC JUMP JUMPDEST SWAP1 SLOAD SWAP1 PUSH1 0x3 SHL SHR AND SWAP3 DUP4 EXTCODESIZE ISZERO PUSH3 0x185 JUMPI PUSH3 0x817 SWAP4 DUP6 SWAP3 DUP4 DUP6 MLOAD DUP1 SWAP8 DUP2 SWAP6 DUP3 SWAP5 PUSH4 0x681CD54B PUSH1 0xE1 SHL DUP5 MSTORE PUSH1 0x64 CALLDATALOAD SWAP1 DUP5 ADD MSTORE DUP9 PUSH1 0x24 DUP5 ADD MSTORE PUSH1 0x44 DUP4 ADD SWAP1 PUSH3 0xDC5 JUMP JUMPDEST SUB SWAP3 GAS CALL SWAP1 DUP2 ISZERO PUSH3 0x40C JUMPI POP PUSH3 0x82C JUMPI POP RETURN JUMPDEST PUSH3 0x837 SWAP1 PUSH3 0xCCF JUMP JUMPDEST PUSH3 0xEC JUMPI DUP1 RETURN JUMPDEST PUSH3 0x84A SWAP1 PUSH3 0xCCF JUMP JUMPDEST PUSH3 0x185 JUMPI DUP5 CODESIZE PUSH3 0x7C5 JUMP JUMPDEST DUP5 MLOAD RETURNDATASIZE DUP9 DUP3 RETURNDATACOPY RETURNDATASIZE SWAP1 REVERT JUMPDEST DUP6 DUP1 REVERT JUMPDEST POP POP POP REVERT JUMPDEST POP POP REVERT JUMPDEST DUP4 CALLVALUE PUSH3 0xEC JUMPI DUP1 PUSH1 0x3 NOT CALLDATASIZE ADD SLT PUSH3 0xEC JUMPI PUSH3 0x88B PUSH3 0xF0E JUMP JUMPDEST PUSH1 0x0 DUP1 SLOAD PUSH1 0x1 PUSH1 0x1 PUSH1 0xA0 SHL SUB NOT DUP2 AND DUP3 SSTORE PUSH1 0x1 PUSH1 0x1 PUSH1 0xA0 SHL SUB AND PUSH32 0x8BE0079C531659141344CD1FD0A4F28419497F9722A3DAAFE3B4186F6B6457E0 DUP3 DUP1 LOG3 DUP1 RETURN JUMPDEST POP SWAP2 SWAP1 CALLVALUE PUSH3 0x366 JUMPI PUSH1 0x20 CALLDATASIZE PUSH1 0x3 NOT ADD SLT PUSH3 0x366 JUMPI PUSH1 0x1 PUSH1 0x1 PUSH1 0xA0 SHL SUB DUP4 CALLDATALOAD DUP2 DUP2 AND SWAP4 SWAP1 DUP5 SWAP1 SUB PUSH3 0xEC JUMPI SWAP1 DUP2 DUP1 SWAP2 PUSH1 0x1 SWAP3 DUP4 SLOAD SWAP5 JUMPDEST DUP6 DUP3 LT PUSH3 0x9F1 JUMPI PUSH3 0x918 SWAP2 POP PUSH3 0x1191 JUMP JUMPDEST SWAP6 DUP3 SWAP8 DUP4 JUMPDEST DUP7 DUP2 LT PUSH3 0x934 JUMPI DUP8 MLOAD DUP1 PUSH3 0x481 DUP12 DUP3 PUSH3 0xDEC JUMP JUMPDEST DUP4 DUP6 PUSH1 0x24 PUSH3 0x943 DUP5 PUSH3 0xEDC JUMP JUMPDEST SWAP2 SWAP1 SLOAD SWAP2 DUP13 MLOAD SWAP5 DUP6 SWAP4 DUP5 SWAP3 PUSH4 0x96ABC52B PUSH1 0xE0 SHL DUP5 MSTORE DUP11 DUP11 DUP6 ADD MSTORE PUSH1 0x3 SHL SHR AND GAS STATICCALL SWAP1 DUP2 ISZERO PUSH3 0x6D0 JUMPI SWAP1 DUP8 SWAP2 DUP8 SWAP2 PUSH3 0x9D3 JUMPI JUMPDEST POP DUP7 SWAP2 JUMPDEST PUSH3 0x994 JUMPI JUMPDEST POP POP PUSH3 0x98E SWAP1 PUSH3 0xF3B JUMP JUMPDEST PUSH3 0x91D JUMP JUMPDEST SWAP1 SWAP11 DUP2 MLOAD DUP13 LT ISZERO PUSH3 0x9CC JUMPI SWAP1 PUSH3 0x9C5 PUSH3 0x9BE DUP4 PUSH3 0x56F DUP16 SWAP6 DUP16 PUSH3 0x55B DUP15 SWAP9 DUP9 PUSH3 0x1206 JUMP JUMPDEST SWAP13 PUSH3 0xF3B JUMP JUMPDEST SWAP2 PUSH3 0x97B JUMP JUMPDEST SWAP11 PUSH3 0x981 JUMP JUMPDEST PUSH3 0x9EA SWAP2 POP RETURNDATASIZE DUP1 DUP10 DUP4 RETURNDATACOPY PUSH3 0x5A2 DUP2 DUP4 PUSH3 0xD15 JUMP JUMPDEST CODESIZE PUSH3 0x977 JUMP JUMPDEST DUP3 DUP5 DUP10 PUSH1 0x24 DUP13 PUSH3 0xA02 DUP8 PUSH3 0xEDC JUMP JUMPDEST SWAP6 SWAP1 SLOAD DUP14 MLOAD SWAP7 DUP8 SWAP6 DUP7 SWAP5 PUSH4 0x96ABC52B PUSH1 0xE0 SHL DUP7 MSTORE DUP6 ADD MSTORE PUSH1 0x3 SHL SHR AND GAS STATICCALL SWAP1 DUP2 ISZERO PUSH3 0xA68 JUMPI SWAP2 PUSH3 0xA43 SWAP2 PUSH3 0xA4A SWAP4 DUP8 SWAP2 PUSH3 0xA51 JUMPI POP MLOAD SWAP1 PUSH3 0x1183 JUMP JUMPDEST SWAP2 PUSH3 0xF3B JUMP JUMPDEST SWAP1 PUSH3 0x904 JUMP JUMPDEST PUSH3 0x6C9 SWAP2 POP RETURNDATASIZE DUP1 DUP10 DUP4 RETURNDATACOPY PUSH3 0x5A2 DUP2 DUP4 PUSH3 0xD15 JUMP JUMPDEST DUP9 MLOAD RETURNDATASIZE DUP8 DUP3 RETURNDATACOPY RETURNDATASIZE SWAP1 REVERT JUMPDEST POP SWAP2 SWAP1 CALLVALUE PUSH3 0x366 JUMPI DUP2 PUSH1 0x3 NOT CALLDATASIZE ADD SLT PUSH3 0x366 JUMPI PUSH1 0x1 DUP1 SLOAD SWAP1 DUP4 DUP1 JUMPDEST DUP4 DUP3 LT PUSH3 0xB9F JUMPI PUSH3 0xAA3 SWAP2 POP PUSH3 0x1191 JUMP JUMPDEST SWAP4 DUP1 SWAP6 DUP2 JUMPDEST DUP5 DUP2 LT PUSH3 0xABF JUMPI DUP6 MLOAD DUP1 PUSH3 0x481 DUP10 DUP3 PUSH3 0xDEC JUMP JUMPDEST DUP3 PUSH3 0xACB DUP3 PUSH3 0xEDC JUMP JUMPDEST SWAP1 SLOAD DUP9 MLOAD PUSH4 0x5FEC6E67 PUSH1 0xE0 SHL DUP2 MSTORE SWAP3 SWAP2 DUP4 SWAP2 DUP7 SWAP2 DUP4 SWAP2 PUSH1 0x3 SWAP2 SWAP1 SWAP2 SHL SHR PUSH1 0x1 PUSH1 0x1 PUSH1 0xA0 SHL SUB AND GAS STATICCALL SWAP1 DUP2 ISZERO PUSH3 0xB95 JUMPI SWAP1 DUP6 SWAP2 DUP6 SWAP2 PUSH3 0xB77 JUMPI JUMPDEST POP DUP5 SWAP2 JUMPDEST PUSH3 0xB23 JUMPI JUMPDEST POP POP PUSH3 0xB1D SWAP1 PUSH3 0xF3B JUMP JUMPDEST PUSH3 0xAA8 JUMP JUMPDEST SWAP1 SWAP9 DUP2 MLOAD DUP11 LT ISZERO PUSH3 0xB70 JUMPI SWAP1 PUSH3 0xB69 PUSH3 0xB62 DUP4 DUP12 PUSH3 0xB55 DUP11 SWAP7 DUP16 PUSH3 0xB4D SWAP1 DUP9 PUSH3 0x1206 JUMP JUMPDEST MLOAD SWAP3 PUSH3 0x1206 JUMP JUMPDEST MSTORE PUSH3 0x56F DUP2 DUP14 PUSH3 0x1206 JUMP JUMPDEST SWAP11 PUSH3 0xF3B JUMP JUMPDEST SWAP2 PUSH3 0xB0A JUMP JUMPDEST SWAP9 PUSH3 0xB10 JUMP JUMPDEST PUSH3 0xB8E SWAP2 POP RETURNDATASIZE DUP1 DUP8 DUP4 RETURNDATACOPY PUSH3 0x5A2 DUP2 DUP4 PUSH3 0xD15 JUMP JUMPDEST CODESIZE PUSH3 0xB06 JUMP JUMPDEST DUP8 MLOAD RETURNDATASIZE DUP7 DUP3 RETURNDATACOPY RETURNDATASIZE SWAP1 REVERT JUMPDEST DUP6 PUSH3 0xBAB DUP4 PUSH3 0xEDC JUMP JUMPDEST SWAP1 SLOAD DUP8 MLOAD PUSH4 0x5FEC6E67 PUSH1 0xE0 SHL DUP2 MSTORE SWAP3 SWAP2 DUP4 SWAP2 DUP12 SWAP2 DUP4 SWAP2 PUSH1 0x3 SWAP2 SWAP1 SWAP2 SHL SHR PUSH1 0x1 PUSH1 0x1 PUSH1 0xA0 SHL SUB AND GAS STATICCALL SWAP1 DUP2 ISZERO PUSH3 0xC14 JUMPI SWAP2 PUSH3 0xA43 SWAP2 PUSH3 0xBF6 SWAP4 DUP10 SWAP2 PUSH3 0xBFD JUMPI POP MLOAD SWAP1 PUSH3 0x1183 JUMP JUMPDEST SWAP1 PUSH3 0xA8F JUMP JUMPDEST PUSH3 0x6C9 SWAP2 POP RETURNDATASIZE DUP1 DUP12 DUP4 RETURNDATACOPY PUSH3 0x5A2 DUP2 DUP4 PUSH3 0xD15 JUMP JUMPDEST DUP7 MLOAD RETURNDATASIZE DUP10 DUP3 RETURNDATACOPY RETURNDATASIZE SWAP1 REVERT JUMPDEST POP SWAP1 CALLVALUE PUSH3 0xEF JUMPI PUSH1 0x60 CALLDATASIZE PUSH1 0x3 NOT ADD SLT PUSH3 0xEF JUMPI DUP3 PUSH1 0x44 CALLDATALOAD PUSH1 0x1 PUSH1 0x1 PUSH1 0x40 SHL SUB DUP2 GT PUSH3 0x366 JUMPI PUSH3 0xC55 SWAP1 CALLDATASIZE SWAP1 DUP6 ADD PUSH3 0xD53 JUMP JUMPDEST PUSH3 0xC61 DUP5 CALLDATALOAD PUSH3 0xEDC JUMP JUMPDEST SWAP1 SLOAD PUSH1 0x3 SWAP2 SWAP1 SWAP2 SHL SHR PUSH1 0x1 PUSH1 0x1 PUSH1 0xA0 SHL SUB AND DUP1 EXTCODESIZE ISZERO PUSH3 0xEF JUMPI PUSH3 0xCAB SWAP5 DUP4 DUP6 MLOAD DUP1 SWAP8 DUP2 SWAP6 DUP3 SWAP5 PUSH4 0x681CD54B PUSH1 0xE1 SHL DUP5 MSTORE PUSH1 0x24 CALLDATALOAD SWAP1 DUP5 ADD MSTORE DUP9 PUSH1 0x24 DUP5 ADD MSTORE PUSH1 0x44 DUP4 ADD SWAP1 PUSH3 0xDC5 JUMP JUMPDEST SUB SWAP3 GAS CALL SWAP1 DUP2 ISZERO PUSH3 0x40C JUMPI POP PUSH3 0xCC1 JUMPI POP DUP1 RETURN JUMPDEST PUSH3 0xCCC SWAP1 PUSH3 0xCCF JUMP JUMPDEST DUP1 RETURN JUMPDEST PUSH1 0x1 PUSH1 0x1 PUSH1 0x40 SHL SUB DUP2 GT PUSH3 0xCE3 JUMPI PUSH1 0x40 MSTORE JUMP JUMPDEST PUSH4 0x4E487B71 PUSH1 0xE0 SHL PUSH1 0x0 MSTORE PUSH1 0x41 PUSH1 0x4 MSTORE PUSH1 0x24 PUSH1 0x0 REVERT JUMPDEST PUSH1 0x80 DUP2 ADD SWAP1 DUP2 LT PUSH1 0x1 PUSH1 0x1 PUSH1 0x40 SHL SUB DUP3 GT OR PUSH3 0xCE3 JUMPI PUSH1 0x40 MSTORE JUMP JUMPDEST SWAP1 PUSH1 0x1F DUP1 NOT SWAP2 ADD AND DUP2 ADD SWAP1 DUP2 LT PUSH1 0x1 PUSH1 0x1 PUSH1 0x40 SHL SUB DUP3 GT OR PUSH3 0xCE3 JUMPI PUSH1 0x40 MSTORE JUMP JUMPDEST PUSH1 0x1 PUSH1 0x1 PUSH1 0x40 SHL SUB DUP2 GT PUSH3 0xCE3 JUMPI PUSH1 0x1F ADD PUSH1 0x1F NOT AND PUSH1 0x20 ADD SWAP1 JUMP JUMPDEST DUP2 PUSH1 0x1F DUP3 ADD SLT ISZERO PUSH3 0x31F JUMPI DUP1 CALLDATALOAD SWAP1 PUSH3 0xD6D DUP3 PUSH3 0xD37 JUMP JUMPDEST SWAP3 PUSH3 0xD7D PUSH1 0x40 MLOAD SWAP5 DUP6 PUSH3 0xD15 JUMP JUMPDEST DUP3 DUP5 MSTORE PUSH1 0x20 DUP4 DUP4 ADD ADD GT PUSH3 0x31F JUMPI DUP2 PUSH1 0x0 SWAP3 PUSH1 0x20 DUP1 SWAP4 ADD DUP4 DUP7 ADD CALLDATACOPY DUP4 ADD ADD MSTORE SWAP1 JUMP JUMPDEST PUSH1 0x0 JUMPDEST DUP4 DUP2 LT PUSH3 0xDB4 JUMPI POP POP PUSH1 0x0 SWAP2 ADD MSTORE JUMP JUMPDEST DUP2 DUP2 ADD MLOAD DUP4 DUP3 ADD MSTORE PUSH1 0x20 ADD PUSH3 0xDA3 JUMP JUMPDEST SWAP1 PUSH1 0x20 SWAP2 PUSH3 0xDE0 DUP2 MLOAD DUP1 SWAP3 DUP2 DUP6 MSTORE DUP6 DUP1 DUP7 ADD SWAP2 ADD PUSH3 0xDA0 JUMP JUMPDEST PUSH1 0x1F ADD PUSH1 0x1F NOT AND ADD ADD SWAP1 JUMP JUMPDEST PUSH1 0x20 DUP1 DUP3 ADD SWAP1 DUP1 DUP4 MSTORE DUP4 MLOAD DUP1 SWAP3 MSTORE PUSH1 0x40 SWAP3 DUP4 DUP2 ADD PUSH1 0x5 SWAP5 DUP4 DUP2 DUP7 DUP9 SHL DUP6 ADD ADD SWAP8 ADD SWAP6 PUSH1 0x0 DUP1 SWAP5 JUMPDEST DUP8 DUP7 LT PUSH3 0xE27 JUMPI POP POP POP POP POP POP POP POP POP SWAP1 JUMP JUMPDEST SWAP1 SWAP2 SWAP3 SWAP4 SWAP5 SWAP6 DUP1 SWAP8 SWAP9 SWAP10 PUSH1 0x3F NOT DUP4 DUP3 SUB ADD DUP8 MSTORE DUP11 MLOAD SWAP1 DUP2 MLOAD DUP2 MSTORE DUP3 DUP3 ADD MLOAD DUP4 DUP3 ADD MSTORE PUSH3 0xE61 DUP8 DUP4 ADD MLOAD PUSH1 0x80 DUP1 DUP11 DUP6 ADD MSTORE DUP4 ADD SWAP1 PUSH3 0xDC5 JUMP JUMPDEST SWAP1 PUSH1 0x60 DUP1 SWAP4 ADD MLOAD SWAP3 DUP2 DUP4 SUB SWAP2 ADD MSTORE DUP2 MLOAD DUP1 DUP3 MSTORE DUP4 DUP3 ADD SWAP1 DUP5 DUP1 DUP3 DUP11 SHL DUP6 ADD ADD SWAP5 ADD SWAP3 DUP8 JUMPDEST DUP3 DUP2 LT PUSH3 0xEAB JUMPI POP POP POP POP POP SWAP1 DUP1 PUSH1 0x1 SWAP3 SWAP12 ADD SWAP7 ADD SWAP7 ADD SWAP5 SWAP8 SWAP7 SWAP6 SWAP4 SWAP3 SWAP2 SWAP1 PUSH3 0xE13 JUMP JUMPDEST SWAP2 SWAP4 SWAP6 DUP1 PUSH3 0xEC9 PUSH1 0x1 SWAP4 SWAP6 SWAP8 PUSH1 0x1F NOT DUP8 DUP3 SUB ADD DUP10 MSTORE DUP10 MLOAD PUSH3 0xDC5 JUMP JUMPDEST SWAP8 ADD SWAP6 ADD SWAP2 ADD SWAP2 DUP13 SWAP6 SWAP5 SWAP4 SWAP2 SWAP3 PUSH3 0xE85 JUMP JUMPDEST PUSH1 0x1 SLOAD DUP2 LT ISZERO PUSH3 0xEF8 JUMPI PUSH1 0x1 PUSH1 0x0 MSTORE PUSH1 0x20 PUSH1 0x0 KECCAK256 ADD SWAP1 PUSH1 0x0 SWAP1 JUMP JUMPDEST PUSH4 0x4E487B71 PUSH1 0xE0 SHL PUSH1 0x0 MSTORE PUSH1 0x32 PUSH1 0x4 MSTORE PUSH1 0x24 PUSH1 0x0 REVERT JUMPDEST PUSH1 0x0 SLOAD PUSH1 0x1 PUSH1 0x1 PUSH1 0xA0 SHL SUB AND CALLER SUB PUSH3 0xF23 JUMPI JUMP JUMPDEST PUSH1 0x40 MLOAD PUSH4 0x118CDAA7 PUSH1 0xE0 SHL DUP2 MSTORE CALLER PUSH1 0x4 DUP3 ADD MSTORE PUSH1 0x24 SWAP1 REVERT JUMPDEST PUSH1 0x0 NOT DUP2 EQ PUSH3 0xF4B JUMPI PUSH1 0x1 ADD SWAP1 JUMP JUMPDEST PUSH4 0x4E487B71 PUSH1 0xE0 SHL PUSH1 0x0 MSTORE PUSH1 0x11 PUSH1 0x4 MSTORE PUSH1 0x24 PUSH1 0x0 REVERT JUMPDEST PUSH1 0x1 PUSH1 0x1 PUSH1 0x40 SHL SUB DUP2 GT PUSH3 0xCE3 JUMPI PUSH1 0x5 SHL PUSH1 0x20 ADD SWAP1 JUMP JUMPDEST DUP2 PUSH1 0x1F DUP3 ADD SLT ISZERO PUSH3 0x31F JUMPI DUP1 MLOAD PUSH3 0xF92 DUP2 PUSH3 0xD37 JUMP JUMPDEST SWAP3 PUSH3 0xFA2 PUSH1 0x40 MLOAD SWAP5 DUP6 PUSH3 0xD15 JUMP JUMPDEST DUP2 DUP5 MSTORE PUSH1 0x20 DUP3 DUP5 ADD ADD GT PUSH3 0x31F JUMPI PUSH3 0xFC3 SWAP2 PUSH1 0x20 DUP1 DUP6 ADD SWAP2 ADD PUSH3 0xDA0 JUMP JUMPDEST SWAP1 JUMP JUMPDEST SWAP1 PUSH1 0x20 DUP3 DUP3 SUB SLT PUSH3 0x31F JUMPI DUP2 MLOAD SWAP1 PUSH1 0x1 PUSH1 0x1 PUSH1 0x40 SHL SUB DUP3 GT PUSH3 0x31F JUMPI DUP1 PUSH1 0x1F DUP4 DUP6 ADD ADD SLT ISZERO PUSH3 0x31F JUMPI DUP2 DUP4 ADD MLOAD SWAP1 PUSH3 0x1002 DUP3 PUSH3 0xF61 JUMP JUMPDEST SWAP4 PUSH3 0x1012 PUSH1 0x40 MLOAD SWAP6 DUP7 PUSH3 0xD15 JUMP JUMPDEST DUP3 DUP6 MSTORE PUSH1 0x20 DUP6 ADD SWAP4 DUP3 PUSH1 0x20 DUP6 PUSH1 0x5 SHL DUP4 DUP6 ADD ADD ADD GT PUSH3 0x31F JUMPI PUSH1 0x20 DUP2 DUP4 ADD ADD SWAP5 JUMPDEST PUSH1 0x20 DUP6 PUSH1 0x5 SHL DUP4 DUP6 ADD ADD ADD DUP7 LT PUSH3 0x104F JUMPI POP POP POP POP POP POP SWAP1 JUMP JUMPDEST DUP6 MLOAD PUSH1 0x1 PUSH1 0x1 PUSH1 0x40 SHL SUB DUP2 GT PUSH3 0x31F JUMPI DUP3 DUP5 ADD ADD PUSH1 0x80 SWAP1 DUP2 PUSH1 0x1F NOT DUP3 DUP9 SUB ADD SLT PUSH3 0x31F JUMPI PUSH1 0x40 MLOAD SWAP2 PUSH3 0x1084 DUP4 PUSH3 0xCF9 JUMP JUMPDEST PUSH1 0x20 DUP3 ADD MLOAD DUP4 MSTORE PUSH1 0x40 DUP3 ADD MLOAD PUSH1 0x20 DUP5 ADD MSTORE PUSH1 0x60 SWAP1 DUP2 DUP4 ADD MLOAD PUSH1 0x1 PUSH1 0x1 PUSH1 0x40 SHL SUB DUP2 GT PUSH3 0x31F JUMPI DUP9 PUSH1 0x20 PUSH3 0x10BC SWAP3 DUP7 ADD ADD PUSH3 0xF79 JUMP JUMPDEST PUSH1 0x40 DUP6 ADD MSTORE DUP3 ADD MLOAD SWAP2 PUSH1 0x1 PUSH1 0x1 PUSH1 0x40 SHL SUB DUP4 GT PUSH3 0x31F JUMPI DUP8 PUSH1 0x3F DUP5 DUP4 ADD ADD SLT ISZERO PUSH3 0x31F JUMPI PUSH1 0x20 DUP4 DUP3 ADD ADD MLOAD PUSH3 0x10F4 DUP2 PUSH3 0xF61 JUMP JUMPDEST SWAP4 PUSH3 0x1104 PUSH1 0x40 MLOAD SWAP6 DUP7 PUSH3 0xD15 JUMP JUMPDEST DUP2 DUP6 MSTORE PUSH1 0x20 DUP6 ADD SWAP1 DUP11 PUSH1 0x40 DUP5 PUSH1 0x5 SHL DUP4 DUP8 ADD ADD ADD GT PUSH3 0x31F JUMPI PUSH1 0x40 DUP2 DUP6 ADD ADD SWAP2 JUMPDEST PUSH1 0x40 DUP5 PUSH1 0x5 SHL DUP4 DUP8 ADD ADD ADD DUP4 LT PUSH3 0x114F JUMPI POP POP POP POP POP DUP3 ADD MSTORE DUP2 MSTORE PUSH1 0x20 SWAP6 DUP7 ADD SWAP6 ADD PUSH3 0x1034 JUMP JUMPDEST DUP3 MLOAD PUSH1 0x1 PUSH1 0x1 PUSH1 0x40 SHL SUB DUP2 GT PUSH3 0x31F JUMPI PUSH1 0x20 SWAP2 PUSH3 0x1177 DUP15 PUSH1 0x40 DUP6 SWAP5 DUP8 DUP12 ADD ADD ADD PUSH3 0xF79 JUMP JUMPDEST DUP2 MSTORE ADD SWAP3 ADD SWAP2 PUSH3 0x1126 JUMP JUMPDEST SWAP2 SWAP1 DUP3 ADD DUP1 SWAP3 GT PUSH3 0xF4B JUMPI JUMP JUMPDEST SWAP1 PUSH3 0x119D DUP3 PUSH3 0xF61 JUMP JUMPDEST PUSH1 0x40 PUSH3 0x11AD DUP2 MLOAD SWAP3 DUP4 PUSH3 0xD15 JUMP JUMPDEST DUP4 DUP3 MSTORE DUP2 SWAP4 PUSH3 0x11C0 PUSH1 0x1F NOT SWAP2 PUSH3 0xF61 JUMP JUMPDEST ADD SWAP2 PUSH1 0x0 SWAP1 DUP2 JUMPDEST DUP5 DUP2 LT PUSH3 0x11D6 JUMPI POP POP POP POP POP JUMP JUMPDEST PUSH1 0x20 SWAP1 DUP5 MLOAD PUSH3 0x11E6 DUP2 PUSH3 0xCF9 JUMP JUMPDEST DUP5 DUP2 MSTORE DUP3 DUP6 DUP2 DUP4 ADD MSTORE PUSH1 0x60 DUP1 DUP9 DUP5 ADD MSTORE DUP1 DUP4 ADD MSTORE DUP3 DUP6 ADD ADD MSTORE ADD PUSH3 0x11C7 JUMP JUMPDEST DUP1 MLOAD DUP3 LT ISZERO PUSH3 0xEF8 JUMPI PUSH1 0x20 SWAP2 PUSH1 0x5 SHL ADD ADD SWAP1 JUMP JUMPDEST SWAP1 DUP2 PUSH1 0x20 SWAP2 SUB SLT PUSH3 0x31F JUMPI MLOAD PUSH1 0x1 PUSH1 0x1 PUSH1 0xA0 SHL SUB DUP2 AND DUP2 SUB PUSH3 0x31F JUMPI SWAP1 JUMP INVALID PUSH1 0x80 CALLVALUE PUSH3 0x3E1 JUMPI PUSH1 0x1F SWAP1 PUSH1 0x1 PUSH1 0x1 PUSH1 0x40 SHL SUB SWAP1 PUSH1 0x1F NOT SWAP1 PUSH3 0x1FAD CODESIZE DUP2 SWAP1 SUB DUP6 DUP2 ADD DUP5 AND DUP4 ADD SWAP2 SWAP1 DUP6 DUP4 GT DUP5 DUP5 LT OR PUSH3 0x3CB JUMPI DUP1 DUP5 SWAP3 PUSH1 0x40 SWAP5 DUP6 MSTORE DUP4 CODECOPY DUP2 ADD SUB SLT PUSH3 0x3E1 JUMPI DUP1 MLOAD PUSH1 0x20 SWAP2 DUP3 ADD MLOAD PUSH1 0x1 PUSH1 0x1 PUSH1 0xA0 SHL SUB SWAP6 DUP7 DUP3 AND SWAP6 SWAP3 SWAP4 SWAP3 SWAP2 DUP7 SWAP1 SUB PUSH3 0x3E1 JUMPI PUSH3 0x72 PUSH3 0x3E6 JUMP JUMPDEST SWAP3 PUSH1 0xA DUP5 MSTORE PUSH10 0x21B7B63632B1BA34B7B7 PUSH1 0xB1 SHL DUP2 DUP6 ADD MSTORE PUSH3 0x93 PUSH3 0x3E6 JUMP JUMPDEST SWAP1 PUSH1 0x3 DUP3 MSTORE PUSH3 0x139195 PUSH1 0xEA SHL DUP2 DUP4 ADD MSTORE DUP5 MLOAD SWAP7 DUP5 DUP9 GT PUSH3 0x3CB JUMPI PUSH1 0x0 SWAP8 DUP9 SLOAD SWAP7 PUSH1 0x1 SWAP8 DUP9 DUP2 DUP2 SHR SWAP2 AND DUP1 ISZERO PUSH3 0x3C0 JUMPI JUMPDEST DUP6 DUP3 LT EQ PUSH3 0x3AC JUMPI SWAP1 DUP2 DUP8 DUP5 SWAP4 GT PUSH3 0x359 JUMPI JUMPDEST POP DUP5 SWAP1 DUP8 DUP4 GT PUSH1 0x1 EQ PUSH3 0x2F8 JUMPI DUP12 SWAP3 PUSH3 0x2EC JUMPI JUMPDEST POP POP PUSH1 0x0 NOT PUSH1 0x3 DUP4 SWAP1 SHL SHR NOT AND SWAP1 DUP8 SHL OR DUP9 SSTORE JUMPDEST DUP3 MLOAD SWAP5 DUP6 GT PUSH3 0x2D8 JUMPI DUP6 SLOAD DUP7 DUP2 DUP2 SHR SWAP2 AND DUP1 ISZERO PUSH3 0x2CD JUMPI JUMPDEST DUP4 DUP3 LT EQ PUSH3 0x2B9 JUMPI SWAP1 DUP2 DUP6 DUP8 SWAP7 SWAP6 SWAP5 SWAP4 GT PUSH3 0x260 JUMPI JUMPDEST POP DUP2 SWAP4 DUP6 GT PUSH1 0x1 EQ PUSH3 0x1FB JUMPI POP POP DUP7 SWAP3 PUSH3 0x1EF JUMPI JUMPDEST POP POP PUSH1 0x0 NOT PUSH1 0x3 DUP4 SWAP1 SHL SHR NOT AND SWAP1 DUP3 SHL OR SWAP1 SSTORE JUMPDEST CALLER ISZERO PUSH3 0x1D6 JUMPI PUSH1 0x7 DUP1 SLOAD PUSH1 0x1 PUSH1 0x1 PUSH1 0xA0 SHL SUB NOT DUP1 DUP3 AND CALLER SWAP1 DUP2 OR SWAP1 SWAP4 SSTORE PUSH1 0x40 MLOAD SWAP7 SWAP1 SWAP5 SWAP3 SWAP2 AND PUSH32 0x8BE0079C531659141344CD1FD0A4F28419497F9722A3DAAFE3B4186F6B6457E0 DUP4 DUP1 LOG3 DUP1 PUSH1 0xA SSTORE PUSH1 0xB SSTORE PUSH7 0x2386F26FC10000 PUSH1 0xC SSTORE PUSH1 0x9 SSTORE PUSH1 0x8 SLOAD AND OR PUSH1 0x8 SSTORE PUSH2 0x1BA6 SWAP1 DUP2 PUSH3 0x407 DUP3 CODECOPY RETURN JUMPDEST PUSH1 0x40 MLOAD PUSH4 0x1E4FBDF7 PUSH1 0xE0 SHL DUP2 MSTORE PUSH1 0x4 DUP2 ADD DUP4 SWAP1 MSTORE PUSH1 0x24 SWAP1 REVERT JUMPDEST ADD MLOAD SWAP1 POP CODESIZE DUP1 PUSH3 0x14D JUMP JUMPDEST DUP7 SWAP6 SWAP4 SWAP3 SWAP2 SWAP4 AND DUP6 DUP10 MSTORE DUP4 DUP10 KECCAK256 SWAP4 DUP10 SWAP1 JUMPDEST DUP3 DUP3 LT PUSH3 0x246 JUMPI POP POP DUP5 GT PUSH3 0x22C JUMPI JUMPDEST POP POP POP DUP2 SHL ADD SWAP1 SSTORE PUSH3 0x161 JUMP JUMPDEST ADD MLOAD PUSH1 0x0 NOT PUSH1 0xF8 DUP5 PUSH1 0x3 SHL AND SHR NOT AND SWAP1 SSTORE CODESIZE DUP1 DUP1 PUSH3 0x21E JUMP JUMPDEST DUP5 DUP5 ADD MLOAD DUP7 SSTORE DUP9 SWAP8 SWAP1 SWAP6 ADD SWAP5 SWAP4 DUP5 ADD SWAP4 SWAP1 DUP2 ADD SWAP1 PUSH3 0x20C JUMP JUMPDEST SWAP1 SWAP2 SWAP3 SWAP4 SWAP5 POP DUP7 DUP10 MSTORE DUP3 DUP10 KECCAK256 DUP6 DUP1 DUP9 ADD PUSH1 0x5 SHR DUP3 ADD SWAP3 DUP6 DUP10 LT PUSH3 0x2AF JUMPI JUMPDEST SWAP2 DUP9 SWAP8 DUP11 SWAP3 SWAP8 SWAP7 SWAP6 SWAP5 SWAP4 ADD PUSH1 0x5 SHR ADD SWAP2 JUMPDEST DUP3 DUP2 LT PUSH3 0x2A0 JUMPI POP POP PUSH3 0x136 JUMP JUMPDEST DUP12 DUP2 SSTORE DUP9 SWAP8 POP DUP10 SWAP2 ADD PUSH3 0x290 JUMP JUMPDEST SWAP3 POP DUP2 SWAP3 PUSH3 0x27F JUMP JUMPDEST PUSH4 0x4E487B71 PUSH1 0xE0 SHL DUP10 MSTORE PUSH1 0x22 PUSH1 0x4 MSTORE PUSH1 0x24 DUP10 REVERT JUMPDEST SWAP1 PUSH1 0x7F AND SWAP1 PUSH3 0x11E JUMP JUMPDEST PUSH4 0x4E487B71 PUSH1 0xE0 SHL DUP9 MSTORE PUSH1 0x41 PUSH1 0x4 MSTORE PUSH1 0x24 DUP9 REVERT JUMPDEST ADD MLOAD SWAP1 POP CODESIZE DUP1 PUSH3 0xF0 JUMP JUMPDEST SWAP1 DUP5 DUP11 SWAP5 AND SWAP2 DUP13 DUP1 MSTORE DUP7 DUP14 KECCAK256 SWAP3 DUP14 JUMPDEST DUP9 DUP3 DUP3 LT PUSH3 0x342 JUMPI POP POP DUP5 GT PUSH3 0x328 JUMPI JUMPDEST POP POP POP DUP2 SHL ADD DUP9 SSTORE PUSH3 0x104 JUMP JUMPDEST ADD MLOAD PUSH1 0x0 NOT PUSH1 0xF8 DUP5 PUSH1 0x3 SHL AND SHR NOT AND SWAP1 SSTORE CODESIZE DUP1 DUP1 PUSH3 0x31A JUMP JUMPDEST DUP4 DUP6 ADD MLOAD DUP7 SSTORE DUP14 SWAP8 SWAP1 SWAP6 ADD SWAP5 SWAP4 DUP5 ADD SWAP4 ADD PUSH3 0x307 JUMP JUMPDEST SWAP1 SWAP2 POP DUP11 DUP1 MSTORE DUP5 DUP12 KECCAK256 DUP8 DUP1 DUP6 ADD PUSH1 0x5 SHR DUP3 ADD SWAP3 DUP8 DUP7 LT PUSH3 0x3A2 JUMPI JUMPDEST SWAP2 DUP12 SWAP2 DUP7 SWAP6 SWAP5 SWAP4 ADD PUSH1 0x5 SHR ADD SWAP2 JUMPDEST DUP3 DUP2 LT PUSH3 0x393 JUMPI POP POP PUSH3 0xDA JUMP JUMPDEST DUP14 DUP2 SSTORE DUP6 SWAP5 POP DUP12 SWAP2 ADD PUSH3 0x383 JUMP JUMPDEST SWAP3 POP DUP2 SWAP3 PUSH3 0x375 JUMP JUMPDEST PUSH4 0x4E487B71 PUSH1 0xE0 SHL DUP12 MSTORE PUSH1 0x22 PUSH1 0x4 MSTORE PUSH1 0x24 DUP12 REVERT JUMPDEST SWAP1 PUSH1 0x7F AND SWAP1 PUSH3 0xC5 JUMP JUMPDEST PUSH4 0x4E487B71 PUSH1 0xE0 SHL PUSH1 0x0 MSTORE PUSH1 0x41 PUSH1 0x4 MSTORE PUSH1 0x24 PUSH1 0x0 REVERT JUMPDEST PUSH1 0x0 DUP1 REVERT JUMPDEST PUSH1 0x40 DUP1 MLOAD SWAP2 SWAP1 DUP3 ADD PUSH1 0x1 PUSH1 0x1 PUSH1 0x40 SHL SUB DUP2 GT DUP4 DUP3 LT OR PUSH3 0x3CB JUMPI PUSH1 0x40 MSTORE JUMP INVALID PUSH1 0x80 PUSH1 0x40 DUP2 DUP2 MSTORE PUSH1 0x4 DUP1 CALLDATASIZE LT ISZERO PUSH2 0x15 JUMPI PUSH1 0x0 DUP1 REVERT JUMPDEST PUSH1 0x0 SWAP3 DUP4 CALLDATALOAD PUSH1 0xE0 SHR SWAP1 DUP2 PUSH4 0x1FFC9A7 EQ PUSH2 0x1103 JUMPI POP DUP1 PUSH4 0x6FDDE03 EQ PUSH2 0x107C JUMPI DUP1 PUSH4 0x81812FC EQ PUSH2 0x1041 JUMPI DUP1 PUSH4 0x95EA7B3 EQ PUSH2 0xF65 JUMPI DUP1 PUSH4 0x23B872DD EQ PUSH2 0xF4D JUMPI DUP1 PUSH4 0x31ABAB7C EQ PUSH2 0xC9B JUMPI DUP1 PUSH4 0x42842E0E EQ PUSH2 0xC72 JUMPI DUP1 PUSH4 0x43BC1612 EQ PUSH2 0xC49 JUMPI DUP1 PUSH4 0x5FEC6E67 EQ PUSH2 0xBCE JUMPI DUP1 PUSH4 0x6352211E EQ PUSH2 0xB9D JUMPI DUP1 PUSH4 0x669F5A51 EQ PUSH2 0x9FC JUMPI DUP1 PUSH4 0x70A08231 EQ PUSH2 0x9A7 JUMPI DUP1 PUSH4 0x715018A6 EQ PUSH2 0x94A JUMPI DUP1 PUSH4 0x7C26B48E EQ PUSH2 0x8C0 JUMPI DUP1 PUSH4 0x833B9499 EQ PUSH2 0x8A1 JUMPI DUP1 PUSH4 0x8DA5CB5B EQ PUSH2 0x878 JUMPI DUP1 PUSH4 0x95D89B41 EQ PUSH2 0x7B6 JUMPI DUP1 PUSH4 0x96ABC52B EQ PUSH2 0x72C JUMPI DUP1 PUSH4 0xA22CB465 EQ PUSH2 0x68F JUMPI DUP1 PUSH4 0xB88D4FDE EQ PUSH2 0x628 JUMPI DUP1 PUSH4 0xC87B56DD EQ PUSH2 0x5C1 JUMPI DUP1 PUSH4 0xD039AA96 EQ PUSH2 0x515 JUMPI DUP1 PUSH4 0xE985E9C5 EQ PUSH2 0x4C7 JUMPI DUP1 PUSH4 0xEE36675B EQ PUSH2 0x1C2 JUMPI PUSH4 0xF2FDE38B EQ PUSH2 0x136 JUMPI PUSH1 0x0 DUP1 REVERT JUMPDEST CALLVALUE PUSH2 0x1BE JUMPI PUSH1 0x20 CALLDATASIZE PUSH1 0x3 NOT ADD SLT PUSH2 0x1BE JUMPI PUSH2 0x14F PUSH2 0x11C9 JUMP JUMPDEST SWAP1 PUSH2 0x158 PUSH2 0x1423 JUMP JUMPDEST PUSH1 0x1 PUSH1 0x1 PUSH1 0xA0 SHL SUB SWAP2 DUP3 AND SWAP3 DUP4 ISZERO PUSH2 0x1A8 JUMPI POP POP PUSH1 0x7 DUP1 SLOAD PUSH1 0x1 PUSH1 0x1 PUSH1 0xA0 SHL SUB NOT DUP2 AND DUP5 OR SWAP1 SWAP2 SSTORE AND PUSH32 0x8BE0079C531659141344CD1FD0A4F28419497F9722A3DAAFE3B4186F6B6457E0 DUP4 DUP1 LOG3 DUP1 RETURN JUMPDEST MLOAD PUSH4 0x1E4FBDF7 PUSH1 0xE0 SHL DUP2 MSTORE SWAP1 DUP2 ADD DUP5 SWAP1 MSTORE PUSH1 0x24 SWAP1 REVERT JUMPDEST DUP3 DUP1 REVERT JUMPDEST POP SWAP2 CALLVALUE PUSH2 0x4C4 JUMPI PUSH1 0x20 SWAP3 DUP4 PUSH1 0x3 NOT CALLDATASIZE ADD SLT PUSH2 0x4C0 JUMPI DUP1 CALLDATALOAD PUSH1 0x1 PUSH1 0x1 PUSH1 0x40 SHL SUB DUP2 GT PUSH2 0x1BE JUMPI PUSH2 0x1F4 SWAP1 CALLDATASIZE SWAP1 DUP4 ADD PUSH2 0x12EE JUMP JUMPDEST SWAP2 PUSH1 0xA SLOAD PUSH1 0x9 SLOAD SWAP3 DUP6 MLOAD SWAP2 PUSH2 0x208 DUP4 PUSH2 0x122F JUMP JUMPDEST DUP3 MSTORE DUP7 DUP3 ADD SWAP4 DUP5 MSTORE DUP6 DUP3 ADD SWAP5 DUP6 MSTORE PUSH1 0x60 DUP3 ADD SWAP2 PUSH1 0x60 DUP4 MSTORE DUP4 DUP1 MSTORE PUSH1 0xD DUP9 MSTORE DUP7 DUP5 KECCAK256 SWAP6 DUP7 SLOAD SWAP6 PUSH1 0x1 PUSH1 0x40 SHL SWAP7 DUP8 DUP2 LT ISZERO PUSH2 0x3EB JUMPI PUSH1 0x1 SWAP9 DUP10 DUP3 ADD DUP1 DUP3 SSTORE DUP3 LT ISZERO PUSH2 0x4AD JUMPI SWAP1 PUSH1 0x3 SWAP2 DUP9 MSTORE DUP12 DUP9 KECCAK256 SWAP1 PUSH1 0x2 SHL ADD DUP5 MLOAD DUP2 SSTORE DUP3 MLOAD DUP11 DUP3 ADD SSTORE PUSH2 0x271 DUP5 MLOAD PUSH1 0x2 DUP4 ADD PUSH2 0x1893 JUMP JUMPDEST ADD DUP6 MLOAD SWAP1 DUP2 MLOAD SWAP2 DUP10 DUP4 GT PUSH2 0x49A JUMPI DUP13 SWAP1 DUP3 SLOAD DUP5 DUP5 SSTORE DUP5 DUP2 DUP2 LT PUSH2 0x41A JUMPI JUMPDEST POP POP SWAP1 DUP1 SWAP3 SWAP2 ADD SWAP1 DUP10 MSTORE DUP11 DUP3 DUP11 KECCAK256 SWAP2 DUP11 SWAP4 JUMPDEST DUP6 DUP6 LT PUSH2 0x3FE JUMPI POP POP POP POP POP POP PUSH1 0xE SLOAD DUP8 DUP2 LT ISZERO PUSH2 0x3EB JUMPI DUP1 DUP10 PUSH2 0x2C8 SWAP3 ADD PUSH1 0xE SSTORE PUSH2 0x1847 JUMP JUMPDEST SWAP4 SWAP1 SWAP4 PUSH2 0x3D9 JUMPI MLOAD DUP4 SSTORE MLOAD DUP8 DUP4 ADD SSTORE MLOAD PUSH1 0x3 SWAP2 SWAP1 PUSH2 0x2E9 SWAP1 PUSH1 0x2 DUP4 ADD PUSH2 0x1893 JUMP JUMPDEST ADD SWAP2 MLOAD SWAP1 DUP2 MLOAD SWAP5 DUP6 GT PUSH2 0x3C6 JUMPI POP DUP7 SWAP1 DUP3 SLOAD DUP6 DUP5 SSTORE DUP1 DUP7 LT PUSH2 0x34D JUMPI JUMPDEST POP SWAP2 DUP4 MSTORE DUP7 DUP4 KECCAK256 SWAP2 DUP8 SWAP2 ADD JUMPDEST DUP5 DUP5 LT PUSH2 0x330 JUMPI POP PUSH1 0xA SLOAD DUP7 PUSH2 0x327 DUP3 PUSH2 0x1997 JUMP JUMPDEST PUSH1 0xA SSTORE MLOAD SWAP1 DUP2 MSTORE RETURN JUMPDEST DUP6 SWAP2 DUP2 PUSH2 0x33F DUP5 SWAP4 MLOAD DUP7 PUSH2 0x1893 JUMP JUMPDEST ADD SWAP3 ADD SWAP3 ADD SWAP2 SWAP1 DUP7 SWAP1 PUSH2 0x312 JUMP JUMPDEST DUP4 DUP6 MSTORE DUP7 DUP7 DUP5 DUP8 KECCAK256 SWAP3 DUP4 ADD SWAP3 ADD JUMPDEST DUP3 DUP2 LT PUSH2 0x369 JUMPI POP POP PUSH2 0x306 JUMP JUMPDEST SWAP1 SWAP2 SWAP3 SWAP4 POP DUP6 PUSH2 0x379 DUP3 SLOAD PUSH2 0x144F JUMP JUMPDEST DUP1 PUSH2 0x38C JUMPI JUMPDEST POP POP ADD SWAP1 DUP7 DUP10 SWAP4 SWAP3 PUSH2 0x35B JUMP JUMPDEST PUSH1 0x1F DUP1 DUP3 GT PUSH1 0x1 EQ PUSH2 0x3A4 JUMPI POP POP DUP2 SSTORE JUMPDEST DUP6 CODESIZE PUSH2 0x37F JUMP JUMPDEST PUSH2 0x3BD SWAP1 DUP5 DUP5 MSTORE DUP14 DUP5 KECCAK256 SWAP3 ADD PUSH1 0x5 SHR DUP3 ADD DUP6 DUP4 ADD PUSH2 0x187C JUMP JUMPDEST DUP2 DUP4 SSTORE SSTORE PUSH2 0x39D JUMP JUMPDEST PUSH4 0x4E487B71 PUSH1 0xE0 SHL DUP5 MSTORE PUSH1 0x41 SWAP1 MSTORE PUSH1 0x24 DUP4 REVERT JUMPDEST PUSH4 0x4E487B71 PUSH1 0xE0 SHL DUP8 MSTORE DUP7 DUP6 MSTORE PUSH1 0x24 DUP8 REVERT JUMPDEST PUSH4 0x4E487B71 PUSH1 0xE0 SHL DUP8 MSTORE PUSH1 0x41 DUP6 MSTORE PUSH1 0x24 DUP8 REVERT JUMPDEST DUP2 PUSH2 0x40B DUP5 SWAP4 MLOAD DUP7 PUSH2 0x1893 JUMP JUMPDEST ADD SWAP3 ADD SWAP3 ADD SWAP2 SWAP1 DUP12 SWAP1 DUP15 PUSH2 0x2A1 JUMP JUMPDEST POP DUP4 DUP12 MSTORE DUP13 DUP6 DUP5 DUP14 KECCAK256 SWAP3 DUP4 ADD SWAP3 ADD JUMPDEST DUP13 DUP4 DUP3 LT PUSH2 0x43A JUMPI POP POP POP DUP5 PUSH2 0x28F JUMP JUMPDEST SWAP1 SWAP2 SWAP3 SWAP4 SWAP5 PUSH2 0x449 DUP4 SLOAD PUSH2 0x144F JUMP JUMPDEST SWAP1 DUP2 PUSH2 0x45E JUMPI JUMPDEST POP POP POP ADD SWAP1 DUP13 DUP16 SWAP4 SWAP3 PUSH2 0x429 JUMP JUMPDEST PUSH1 0x1F DUP1 DUP4 GT PUSH1 0x1 EQ PUSH2 0x479 JUMPI POP POP POP DUP2 SSTORE JUMPDEST DUP16 CODESIZE DUP14 SWAP2 PUSH2 0x450 JUMP JUMPDEST PUSH2 0x491 SWAP2 DUP6 DUP6 MSTORE DUP5 KECCAK256 SWAP3 ADD PUSH1 0x5 SHR DUP3 ADD DUP6 DUP4 ADD PUSH2 0x187C JUMP JUMPDEST DUP2 DUP4 SSTORE SSTORE PUSH2 0x470 JUMP JUMPDEST PUSH4 0x4E487B71 PUSH1 0xE0 SHL DUP10 MSTORE PUSH1 0x41 DUP8 MSTORE PUSH1 0x24 DUP10 REVERT JUMPDEST PUSH4 0x4E487B71 PUSH1 0xE0 SHL DUP9 MSTORE PUSH1 0x32 DUP7 MSTORE PUSH1 0x24 DUP9 REVERT JUMPDEST POP DUP1 REVERT JUMPDEST DUP1 REVERT JUMPDEST POP POP CALLVALUE PUSH2 0x4C0 JUMPI DUP1 PUSH1 0x3 NOT CALLDATASIZE ADD SLT PUSH2 0x4C0 JUMPI PUSH1 0xFF DUP2 PUSH1 0x20 SWAP4 PUSH2 0x4E7 PUSH2 0x11C9 JUMP JUMPDEST PUSH2 0x4EF PUSH2 0x11E4 JUMP JUMPDEST PUSH1 0x1 PUSH1 0x1 PUSH1 0xA0 SHL SUB SWAP2 DUP3 AND DUP4 MSTORE PUSH1 0x5 DUP8 MSTORE DUP4 DUP4 KECCAK256 SWAP2 AND DUP3 MSTORE DUP6 MSTORE KECCAK256 SLOAD SWAP2 MLOAD SWAP2 AND ISZERO ISZERO DUP2 MSTORE RETURN JUMPDEST POP DUP3 CALLVALUE PUSH2 0x4C4 JUMPI PUSH2 0x525 CALLDATASIZE PUSH2 0x130C JUMP JUMPDEST SWAP1 SWAP2 DUP1 JUMPDEST PUSH1 0xE SLOAD DUP2 LT ISZERO PUSH2 0x5BD JUMPI DUP4 PUSH2 0x53D DUP3 PUSH2 0x1847 JUMP JUMPDEST POP SLOAD EQ PUSH2 0x553 JUMPI JUMPDEST PUSH2 0x54E SWAP1 PUSH2 0x1997 JUMP JUMPDEST PUSH2 0x529 JUMP JUMPDEST PUSH1 0x3 PUSH2 0x55E DUP3 PUSH2 0x1847 JUMP JUMPDEST POP ADD DUP1 SLOAD SWAP1 PUSH1 0x1 PUSH1 0x40 SHL DUP3 LT ISZERO PUSH2 0x5AA JUMPI SWAP1 PUSH2 0x57F SWAP2 PUSH1 0x1 DUP3 ADD DUP2 SSTORE PUSH2 0x1A87 JUMP JUMPDEST PUSH2 0x598 JUMPI SWAP1 PUSH2 0x591 DUP5 PUSH2 0x54E SWAP4 PUSH2 0x1893 JUMP JUMPDEST SWAP1 POP PUSH2 0x545 JUMP JUMPDEST PUSH4 0x4E487B71 PUSH1 0xE0 SHL DUP4 MSTORE DUP3 DUP7 MSTORE PUSH1 0x24 DUP4 REVERT JUMPDEST PUSH4 0x4E487B71 PUSH1 0xE0 SHL DUP5 MSTORE PUSH1 0x41 DUP8 MSTORE PUSH1 0x24 DUP5 REVERT JUMPDEST POP DUP1 RETURN JUMPDEST POP CALLVALUE PUSH2 0x1BE JUMPI PUSH1 0x20 CALLDATASIZE PUSH1 0x3 NOT ADD SLT PUSH2 0x1BE JUMPI SWAP1 PUSH2 0x624 SWAP3 PUSH2 0x5FF SWAP3 CALLDATALOAD PUSH2 0x5E6 DUP2 PUSH2 0x180C JUMP JUMPDEST POP DUP2 MSTORE PUSH1 0x6 PUSH1 0x20 MSTORE PUSH2 0x606 DUP3 DUP3 KECCAK256 DUP4 MLOAD SWAP5 DUP6 DUP1 SWAP3 PUSH2 0x1489 JUMP JUMPDEST SUB DUP5 PUSH2 0x127B JUMP JUMPDEST DUP2 MLOAD PUSH2 0x611 DUP2 PUSH2 0x1260 JUMP JUMPDEST MSTORE MLOAD SWAP2 DUP3 SWAP2 PUSH1 0x20 DUP4 MSTORE PUSH1 0x20 DUP4 ADD SWAP1 PUSH2 0x1189 JUMP JUMPDEST SUB SWAP1 RETURN JUMPDEST DUP4 DUP3 CALLVALUE PUSH2 0x4C0 JUMPI PUSH1 0x80 CALLDATASIZE PUSH1 0x3 NOT ADD SLT PUSH2 0x4C0 JUMPI PUSH2 0x643 PUSH2 0x11C9 JUMP JUMPDEST PUSH2 0x64B PUSH2 0x11E4 JUMP JUMPDEST SWAP1 PUSH1 0x64 CALLDATALOAD PUSH1 0x1 PUSH1 0x1 PUSH1 0x40 SHL SUB DUP2 GT PUSH2 0x68B JUMPI CALLDATASIZE PUSH1 0x23 DUP3 ADD SLT ISZERO PUSH2 0x68B JUMPI PUSH2 0x688 SWAP4 DUP2 PUSH1 0x24 PUSH2 0x67E SWAP4 CALLDATASIZE SWAP4 ADD CALLDATALOAD SWAP2 ADD PUSH2 0x12B7 JUMP JUMPDEST SWAP2 PUSH1 0x44 CALLDATALOAD SWAP2 PUSH2 0x16BE JUMP JUMPDEST DUP1 RETURN JUMPDEST DUP5 DUP1 REVERT JUMPDEST POP SWAP1 CALLVALUE PUSH2 0x1BE JUMPI DUP1 PUSH1 0x3 NOT CALLDATASIZE ADD SLT PUSH2 0x1BE JUMPI PUSH2 0x6A9 PUSH2 0x11C9 JUMP JUMPDEST SWAP1 PUSH1 0x24 CALLDATALOAD SWAP2 DUP3 ISZERO ISZERO DUP1 SWAP4 SUB PUSH2 0x68B JUMPI PUSH1 0x1 PUSH1 0x1 PUSH1 0xA0 SHL SUB AND SWAP3 DUP4 ISZERO PUSH2 0x717 JUMPI POP CALLER DUP5 MSTORE PUSH1 0x5 PUSH1 0x20 MSTORE DUP1 DUP5 KECCAK256 DUP4 DUP6 MSTORE PUSH1 0x20 MSTORE DUP1 DUP5 KECCAK256 PUSH1 0xFF NOT DUP2 SLOAD AND PUSH1 0xFF DUP5 AND OR SWAP1 SSTORE MLOAD SWAP1 DUP2 MSTORE PUSH32 0x17307EAB39AB6107E8899845AD3D59BD9653F200F220920489CA2B5937696C31 PUSH1 0x20 CALLER SWAP3 LOG3 DUP1 RETURN JUMPDEST DUP4 PUSH1 0x24 SWAP3 MLOAD SWAP2 PUSH4 0xB611743 PUSH1 0xE3 SHL DUP4 MSTORE DUP3 ADD MSTORE REVERT JUMPDEST POP SWAP2 SWAP1 CALLVALUE PUSH2 0x4C0 JUMPI PUSH1 0x20 SWAP2 DUP3 PUSH1 0x3 NOT CALLDATASIZE ADD SLT PUSH2 0x4C4 JUMPI SWAP3 PUSH1 0x1 PUSH1 0x1 PUSH1 0xA0 SHL SUB PUSH2 0x753 PUSH2 0x11C9 JUMP JUMPDEST AND DUP5 MSTORE PUSH1 0xD DUP4 MSTORE DUP2 DUP5 KECCAK256 SWAP1 DUP2 SLOAD SWAP2 PUSH2 0x76A DUP4 PUSH2 0x19BC JUMP JUMPDEST SWAP5 PUSH2 0x777 DUP6 MLOAD SWAP7 DUP8 PUSH2 0x127B JUMP JUMPDEST DUP4 DUP7 MSTORE DUP1 DUP7 ADD SWAP2 DUP8 MSTORE DUP1 DUP8 KECCAK256 SWAP7 SWAP2 JUMPDEST DUP5 DUP4 LT PUSH2 0x79A JUMPI DUP6 MLOAD DUP1 PUSH2 0x624 DUP10 DUP3 PUSH2 0x133B JUMP JUMPDEST DUP4 DUP3 PUSH1 0x1 SWAP3 PUSH2 0x7A8 DUP12 PUSH2 0x1A3F JUMP JUMPDEST DUP2 MSTORE ADD SWAP9 ADD SWAP3 ADD SWAP2 SWAP7 PUSH2 0x786 JUMP JUMPDEST POP POP CALLVALUE PUSH2 0x4C0 JUMPI DUP2 PUSH1 0x3 NOT CALLDATASIZE ADD SLT PUSH2 0x4C0 JUMPI DUP1 MLOAD SWAP1 DUP3 PUSH1 0x1 DUP1 SLOAD SWAP1 PUSH2 0x7DA DUP3 PUSH2 0x144F JUMP JUMPDEST DUP1 DUP7 MSTORE SWAP2 DUP2 DUP2 AND SWAP1 DUP2 ISZERO PUSH2 0x850 JUMPI POP PUSH1 0x1 EQ PUSH2 0x815 JUMPI JUMPDEST POP POP POP PUSH2 0x803 DUP3 PUSH2 0x624 SWAP5 SUB DUP4 PUSH2 0x127B JUMP JUMPDEST MLOAD SWAP2 DUP3 SWAP2 PUSH1 0x20 DUP4 MSTORE PUSH1 0x20 DUP4 ADD SWAP1 PUSH2 0x1189 JUMP JUMPDEST DUP1 SWAP6 POP DUP3 MSTORE PUSH1 0x20 SWAP5 DUP6 DUP4 KECCAK256 JUMPDEST DUP3 DUP5 LT PUSH2 0x83D JUMPI POP POP POP DUP3 PUSH2 0x624 SWAP5 PUSH2 0x803 SWAP3 DUP3 ADD ADD SWAP5 PUSH2 0x7F1 JUMP JUMPDEST DUP1 SLOAD DUP7 DUP6 ADD DUP9 ADD MSTORE SWAP3 DUP7 ADD SWAP3 DUP2 ADD PUSH2 0x821 JUMP JUMPDEST PUSH2 0x624 SWAP8 POP PUSH2 0x803 SWAP5 POP PUSH1 0x20 SWAP3 POP DUP7 SWAP4 SWAP2 POP PUSH1 0xFF NOT AND DUP3 DUP5 ADD MSTORE ISZERO ISZERO PUSH1 0x5 SHL DUP3 ADD ADD SWAP5 PUSH2 0x7F1 JUMP JUMPDEST POP POP CALLVALUE PUSH2 0x4C0 JUMPI DUP2 PUSH1 0x3 NOT CALLDATASIZE ADD SLT PUSH2 0x4C0 JUMPI PUSH1 0x7 SLOAD SWAP1 MLOAD PUSH1 0x1 PUSH1 0x1 PUSH1 0xA0 SHL SUB SWAP1 SWAP2 AND DUP2 MSTORE PUSH1 0x20 SWAP1 RETURN JUMPDEST POP POP CALLVALUE PUSH2 0x4C0 JUMPI DUP2 PUSH1 0x3 NOT CALLDATASIZE ADD SLT PUSH2 0x4C0 JUMPI PUSH1 0x20 SWAP1 PUSH1 0xC SLOAD SWAP1 MLOAD SWAP1 DUP2 MSTORE RETURN JUMPDEST POP SWAP1 CALLVALUE PUSH2 0x1BE JUMPI DUP3 PUSH1 0x3 NOT CALLDATASIZE ADD SLT PUSH2 0x1BE JUMPI PUSH1 0xE SLOAD PUSH2 0x8DE DUP2 PUSH2 0x19BC JUMP JUMPDEST SWAP3 PUSH2 0x8EB DUP4 MLOAD SWAP5 DUP6 PUSH2 0x127B JUMP JUMPDEST DUP2 DUP5 MSTORE PUSH1 0xE DUP6 MSTORE PUSH32 0xBB7B4A454DC3493923482F07822329ED19E8244EFF582CC204F8554C3620C3FD SWAP5 PUSH1 0x20 DUP1 DUP7 ADD JUMPDEST DUP5 DUP4 LT PUSH2 0x92E JUMPI DUP6 MLOAD DUP1 PUSH2 0x624 DUP10 DUP3 PUSH2 0x133B JUMP JUMPDEST DUP4 DUP3 PUSH1 0x1 SWAP3 PUSH2 0x93C DUP12 PUSH2 0x1A3F JUMP JUMPDEST DUP2 MSTORE ADD SWAP9 ADD SWAP3 ADD SWAP2 SWAP7 PUSH2 0x91A JUMP JUMPDEST DUP4 CALLVALUE PUSH2 0x4C4 JUMPI DUP1 PUSH1 0x3 NOT CALLDATASIZE ADD SLT PUSH2 0x4C4 JUMPI PUSH2 0x963 PUSH2 0x1423 JUMP JUMPDEST PUSH1 0x7 DUP1 SLOAD PUSH1 0x1 PUSH1 0x1 PUSH1 0xA0 SHL SUB NOT DUP2 AND SWAP1 SWAP2 SSTORE DUP2 SWAP1 PUSH1 0x1 PUSH1 0x1 PUSH1 0xA0 SHL SUB AND PUSH32 0x8BE0079C531659141344CD1FD0A4F28419497F9722A3DAAFE3B4186F6B6457E0 DUP3 DUP1 LOG3 DUP1 RETURN JUMPDEST POP SWAP2 CALLVALUE PUSH2 0x4C4 JUMPI PUSH1 0x20 CALLDATASIZE PUSH1 0x3 NOT ADD SLT PUSH2 0x4C4 JUMPI PUSH1 0x1 PUSH1 0x1 PUSH1 0xA0 SHL SUB PUSH2 0x9CA PUSH2 0x11C9 JUMP JUMPDEST AND SWAP3 DUP4 ISZERO PUSH2 0x9E7 JUMPI POP DUP1 PUSH1 0x20 SWAP4 DUP4 SWAP3 MSTORE PUSH1 0x3 DUP5 MSTORE KECCAK256 SLOAD SWAP1 MLOAD SWAP1 DUP2 MSTORE RETURN JUMPDEST SWAP2 MLOAD PUSH4 0x22718AD9 PUSH1 0xE2 SHL DUP2 MSTORE SWAP2 DUP3 ADD MSTORE PUSH1 0x24 SWAP1 REVERT JUMPDEST POP DUP2 PUSH1 0x3 NOT CALLDATASIZE ADD SLT PUSH2 0x1BE JUMPI PUSH2 0xA10 PUSH2 0x11E4 JUMP JUMPDEST SWAP3 PUSH1 0xC SLOAD CALLVALUE LT PUSH2 0xB60 JUMPI PUSH2 0xA24 DUP3 CALLDATALOAD PUSH2 0x1AC6 JUMP JUMPDEST DUP1 MLOAD PUSH1 0x1 PUSH1 0x1 PUSH1 0xA0 SHL SUB SWAP6 SWAP2 SWAP4 SWAP2 DUP7 AND SWAP1 DUP2 ISZERO PUSH2 0xB49 JUMPI DUP1 DUP5 MSTORE PUSH1 0x20 SWAP7 PUSH1 0x2 DUP9 MSTORE DUP7 DUP6 KECCAK256 SLOAD AND SWAP2 DUP3 ISZERO ISZERO SWAP3 DUP4 PUSH2 0xB16 JUMPI JUMPDEST DUP2 DUP7 MSTORE PUSH1 0x3 DUP10 MSTORE DUP8 DUP7 KECCAK256 DUP1 SLOAD PUSH1 0x1 ADD SWAP1 SSTORE DUP3 DUP7 MSTORE PUSH1 0x2 DUP10 MSTORE DUP8 DUP7 KECCAK256 DUP1 SLOAD PUSH1 0x1 PUSH1 0x1 PUSH1 0xA0 SHL SUB NOT AND DUP4 OR SWAP1 SSTORE PUSH32 0xDDF252AD1BE2C89B69C2B068FC378DAA952BA7F163C4A11628F55A4DF523B3EF DUP7 DUP1 LOG4 PUSH2 0xB01 JUMPI POP DUP4 PUSH32 0xF8E1A15ABA9398E019F0B49DF1A4FDE98EE17AE345CB5F6B5E2C27F5033E8CE7 SWAP2 PUSH2 0xAE5 DUP5 MLOAD SWAP2 DUP7 DUP1 DUP8 ADD MLOAD SWAP2 DUP5 DUP2 MSTORE PUSH1 0x6 DUP7 MSTORE KECCAK256 PUSH2 0x1893 JUMP JUMPDEST DUP5 MLOAD SWAP1 DUP2 MSTORE LOG1 PUSH2 0xAF6 PUSH1 0xB SLOAD PUSH2 0x1997 JUMP JUMPDEST PUSH1 0xB SSTORE MLOAD SWAP1 MLOAD SWAP1 DUP2 MSTORE RETURN JUMPDEST PUSH1 0x24 SWAP2 DUP5 MLOAD SWAP2 PUSH4 0x39E35637 PUSH1 0xE1 SHL DUP4 MSTORE DUP3 ADD MSTORE REVERT JUMPDEST PUSH1 0x0 DUP4 DUP2 MSTORE PUSH1 0x4 PUSH1 0x20 MSTORE PUSH1 0x40 SWAP1 KECCAK256 DUP1 SLOAD PUSH1 0x1 PUSH1 0x1 PUSH1 0xA0 SHL SUB NOT AND SWAP1 SSTORE DUP1 DUP7 MSTORE PUSH1 0x3 DUP10 MSTORE DUP8 DUP7 KECCAK256 DUP1 SLOAD PUSH1 0x0 NOT ADD SWAP1 SSTORE PUSH2 0xA55 JUMP JUMPDEST DUP6 MLOAD PUSH4 0x32505749 PUSH1 0xE1 SHL DUP2 MSTORE DUP1 DUP5 ADD DUP6 SWAP1 MSTORE PUSH1 0x24 SWAP1 REVERT JUMPDEST POP PUSH1 0x20 PUSH1 0x64 SWAP3 MLOAD SWAP2 PUSH3 0x461BCD PUSH1 0xE5 SHL DUP4 MSTORE DUP3 ADD MSTORE PUSH1 0x17 PUSH1 0x24 DUP3 ADD MSTORE PUSH23 0x115D1A195C881C185A59081A5CC81A5B98DBDC9C9958DD PUSH1 0x4A SHL PUSH1 0x44 DUP3 ADD MSTORE REVERT JUMPDEST POP SWAP2 CALLVALUE PUSH2 0x4C4 JUMPI PUSH1 0x20 CALLDATASIZE PUSH1 0x3 NOT ADD SLT PUSH2 0x4C4 JUMPI POP PUSH2 0xBBD PUSH1 0x20 SWAP3 CALLDATALOAD PUSH2 0x180C JUMP JUMPDEST SWAP1 MLOAD PUSH1 0x1 PUSH1 0x1 PUSH1 0xA0 SHL SUB SWAP1 SWAP2 AND DUP2 MSTORE RETURN JUMPDEST POP SWAP2 SWAP1 CALLVALUE PUSH2 0x4C0 JUMPI DUP2 PUSH1 0x3 NOT CALLDATASIZE ADD SLT PUSH2 0x4C0 JUMPI DUP2 DUP1 SWAP4 SWAP3 MSTORE PUSH1 0x20 SWAP2 PUSH1 0xD DUP4 MSTORE DUP2 DUP5 KECCAK256 SWAP1 DUP2 SLOAD SWAP2 PUSH2 0xBFD DUP4 PUSH2 0x19BC JUMP JUMPDEST SWAP5 PUSH2 0xC0A DUP6 MLOAD SWAP7 DUP8 PUSH2 0x127B JUMP JUMPDEST DUP4 DUP7 MSTORE DUP1 DUP7 ADD SWAP2 DUP8 MSTORE DUP1 DUP8 KECCAK256 SWAP7 SWAP2 JUMPDEST DUP5 DUP4 LT PUSH2 0xC2D JUMPI DUP6 MLOAD DUP1 PUSH2 0x624 DUP10 DUP3 PUSH2 0x133B JUMP JUMPDEST DUP4 DUP3 PUSH1 0x1 SWAP3 PUSH2 0xC3B DUP12 PUSH2 0x1A3F JUMP JUMPDEST DUP2 MSTORE ADD SWAP9 ADD SWAP3 ADD SWAP2 SWAP7 PUSH2 0xC19 JUMP JUMPDEST POP POP CALLVALUE PUSH2 0x4C0 JUMPI DUP2 PUSH1 0x3 NOT CALLDATASIZE ADD SLT PUSH2 0x4C0 JUMPI PUSH1 0x8 SLOAD SWAP1 MLOAD PUSH1 0x1 PUSH1 0x1 PUSH1 0xA0 SHL SUB SWAP1 SWAP2 AND DUP2 MSTORE PUSH1 0x20 SWAP1 RETURN JUMPDEST POP POP CALLVALUE PUSH2 0x4C0 JUMPI PUSH2 0x688 SWAP1 PUSH2 0xC86 CALLDATASIZE PUSH2 0x11FA JUMP JUMPDEST SWAP2 SWAP3 MLOAD SWAP3 PUSH2 0xC93 DUP5 PUSH2 0x1260 JUMP JUMPDEST DUP6 DUP5 MSTORE PUSH2 0x16BE JUMP JUMPDEST POP CALLVALUE PUSH2 0x1BE JUMPI PUSH2 0xCAA CALLDATASIZE PUSH2 0x130C JUMP JUMPDEST SWAP2 SWAP1 SWAP4 DUP1 JUMPDEST PUSH1 0xE SLOAD DUP2 LT ISZERO PUSH2 0x5BD JUMPI DUP6 PUSH2 0xCC3 DUP3 PUSH2 0x1847 JUMP JUMPDEST POP SLOAD EQ PUSH2 0xCD9 JUMPI JUMPDEST PUSH2 0xCD4 SWAP1 PUSH2 0x1997 JUMP JUMPDEST PUSH2 0xCAF JUMP JUMPDEST SWAP5 DUP2 JUMPDEST PUSH2 0xCE5 DUP8 PUSH2 0x1847 JUMP JUMPDEST POP PUSH1 0x3 DUP1 SWAP2 ADD SLOAD DUP3 LT ISZERO PUSH2 0xF41 JUMPI PUSH2 0xD08 DUP3 DUP3 PUSH2 0xD01 DUP12 PUSH2 0x1847 JUMP JUMPDEST POP ADD PUSH2 0x1A87 JUMP JUMPDEST POP DUP8 MLOAD DUP9 PUSH1 0x20 SWAP3 DUP3 PUSH2 0xD23 DUP6 DUP3 ADD SWAP3 DUP7 DUP5 MSTORE DUP5 DUP4 ADD SWAP1 PUSH2 0x1489 JUMP JUMPDEST SUB SWAP3 PUSH2 0xD37 PUSH1 0x1F NOT SWAP5 DUP6 DUP2 ADD DUP4 MSTORE DUP3 PUSH2 0x127B JUMP JUMPDEST MLOAD SWAP1 KECCAK256 SWAP2 PUSH2 0xD61 DUP3 MLOAD SWAP2 DUP3 PUSH2 0xD55 DUP14 DUP9 DUP4 ADD SWAP7 DUP10 DUP9 MSTORE DUP4 ADD SWAP1 PUSH2 0x1189 JUMP JUMPDEST SUB SWAP1 DUP2 ADD DUP4 MSTORE DUP3 PUSH2 0x127B JUMP JUMPDEST MLOAD SWAP1 KECCAK256 EQ DUP1 PUSH2 0xF39 JUMPI JUMPDEST PUSH2 0xD7F JUMPI POP POP PUSH2 0xD7A SWAP1 PUSH2 0x1997 JUMP JUMPDEST PUSH2 0xCDC JUMP JUMPDEST SWAP3 PUSH2 0xD9B DUP3 PUSH2 0xD94 DUP12 SWAP6 SWAP8 SWAP9 SWAP10 SWAP5 SWAP11 SWAP12 PUSH2 0x1847 JUMP JUMPDEST POP ADD PUSH2 0x19D3 JUMP JUMPDEST SWAP9 DUP10 MLOAD DUP7 LT ISZERO PUSH2 0xF35 JUMPI DUP7 JUMPDEST DUP11 MLOAD DUP2 LT ISZERO PUSH2 0xE41 JUMPI DUP7 DUP2 LT ISZERO PUSH2 0xDE5 JUMPI DUP1 PUSH2 0xDC6 PUSH2 0xDE0 SWAP3 DUP14 PUSH2 0x1AB2 JUMP JUMPDEST MLOAD PUSH2 0xDD0 DUP3 PUSH2 0x1A9F JUMP JUMPDEST MSTORE PUSH2 0xDDA DUP2 PUSH2 0x1A9F JUMP JUMPDEST POP PUSH2 0x1997 JUMP JUMPDEST PUSH2 0xDA7 JUMP JUMPDEST DUP7 DUP2 GT PUSH2 0xDF6 JUMPI JUMPDEST PUSH2 0xDE0 SWAP1 PUSH2 0x1997 JUMP JUMPDEST PUSH2 0xE00 DUP2 DUP13 PUSH2 0x1AB2 JUMP JUMPDEST MLOAD PUSH1 0x0 NOT DUP3 ADD SWAP1 DUP3 DUP3 GT PUSH2 0xE2E JUMPI DUP2 PUSH2 0xE26 SWAP2 PUSH2 0xE20 PUSH2 0xDE0 SWAP6 SWAP5 PUSH2 0x1A9F JUMP JUMPDEST MSTORE PUSH2 0x1A9F JUMP JUMPDEST POP SWAP1 POP PUSH2 0xDED JUMP JUMPDEST PUSH4 0x4E487B71 PUSH1 0xE0 SHL DUP11 MSTORE PUSH1 0x11 DUP12 MSTORE PUSH1 0x24 DUP11 REVERT JUMPDEST POP SWAP8 SWAP2 SWAP7 SWAP6 SWAP5 POP SWAP8 POP SWAP2 SWAP1 SWAP2 PUSH2 0xE56 DUP4 PUSH2 0x1847 JUMP JUMPDEST POP PUSH1 0x60 MLOAD SWAP2 ADD PUSH1 0x1 PUSH1 0x40 SHL DUP3 GT PUSH2 0xF22 JUMPI DUP1 SLOAD DUP3 DUP3 SSTORE DUP1 DUP4 LT PUSH2 0xEB3 JUMPI JUMPDEST POP DUP5 MSTORE DUP2 DUP5 KECCAK256 DUP5 SWAP3 PUSH1 0x80 JUMPDEST DUP4 DUP6 LT PUSH2 0xE97 JUMPI POP POP POP POP POP PUSH2 0xCD4 SWAP1 JUMPDEST SWAP1 POP PUSH2 0xCCB JUMP JUMPDEST PUSH1 0x1 DUP3 DUP3 PUSH2 0xEA7 DUP4 SWAP5 MLOAD DUP8 PUSH2 0x1893 JUMP JUMPDEST ADD SWAP4 ADD SWAP5 ADD SWAP4 SWAP2 PUSH2 0xE7F JUMP JUMPDEST DUP2 DUP7 MSTORE DUP3 DUP5 DUP8 KECCAK256 SWAP2 DUP3 ADD SWAP2 ADD JUMPDEST DUP2 DUP2 LT PUSH2 0xECD JUMPI POP PUSH2 0xE74 JUMP JUMPDEST DUP1 DUP8 PUSH2 0xEDB PUSH1 0x1 SWAP4 SLOAD PUSH2 0x144F JUMP JUMPDEST DUP1 PUSH2 0xEE9 JUMPI JUMPDEST POP POP ADD PUSH2 0xEC0 JUMP JUMPDEST PUSH1 0x1F DUP1 DUP3 GT DUP6 EQ PUSH2 0xF00 JUMPI POP POP DUP2 SSTORE JUMPDEST DUP8 CODESIZE PUSH2 0xEE1 JUMP JUMPDEST PUSH2 0xF19 SWAP1 DUP5 DUP5 MSTORE DUP10 DUP5 KECCAK256 SWAP3 ADD PUSH1 0x5 SHR DUP3 ADD DUP6 DUP4 ADD PUSH2 0x187C JUMP JUMPDEST DUP2 DUP4 SSTORE SSTORE PUSH2 0xEF9 JUMP JUMPDEST PUSH4 0x4E487B71 PUSH1 0xE0 SHL DUP6 MSTORE PUSH1 0x41 DUP7 MSTORE PUSH1 0x24 DUP6 REVERT JUMPDEST DUP7 DUP1 REVERT JUMPDEST POP PUSH1 0x1 PUSH2 0xD6B JUMP JUMPDEST POP POP SWAP5 PUSH2 0xCD4 SWAP1 PUSH2 0xE90 JUMP JUMPDEST DUP4 CALLVALUE PUSH2 0x4C4 JUMPI PUSH2 0x688 PUSH2 0xF5F CALLDATASIZE PUSH2 0x11FA JUMP JUMPDEST SWAP2 PUSH2 0x151F JUMP JUMPDEST POP SWAP1 CALLVALUE PUSH2 0x1BE JUMPI DUP1 PUSH1 0x3 NOT CALLDATASIZE ADD SLT PUSH2 0x1BE JUMPI PUSH2 0xF7F PUSH2 0x11C9 JUMP JUMPDEST SWAP2 PUSH1 0x24 CALLDATALOAD PUSH2 0xF8C DUP2 PUSH2 0x180C JUMP JUMPDEST CALLER ISZERO ISZERO DUP1 PUSH2 0x102E JUMPI JUMPDEST DUP1 PUSH2 0x1005 JUMPI JUMPDEST PUSH2 0xFEF JUMPI PUSH1 0x1 PUSH1 0x1 PUSH1 0xA0 SHL SUB SWAP5 DUP6 AND SWAP5 DUP3 SWAP2 DUP7 SWAP2 AND PUSH32 0x8C5BE1E5EBEC7D5BD14F71427D1E84F3DD0314C0F7B2291E5B200AC8C7C3B925 DUP9 DUP1 LOG4 DUP5 MSTORE PUSH1 0x20 MSTORE DUP3 KECCAK256 DUP1 SLOAD PUSH1 0x1 PUSH1 0x1 PUSH1 0xA0 SHL SUB NOT AND SWAP1 SWAP2 OR SWAP1 SSTORE DUP1 RETURN JUMPDEST DUP4 MLOAD PUSH4 0xA9FBF51F PUSH1 0xE0 SHL DUP2 MSTORE CALLER DUP2 DUP6 ADD MSTORE PUSH1 0x24 SWAP1 REVERT JUMPDEST POP PUSH1 0x1 PUSH1 0x1 PUSH1 0xA0 SHL SUB DUP2 AND DUP7 MSTORE PUSH1 0x5 PUSH1 0x20 SWAP1 DUP2 MSTORE DUP5 DUP8 KECCAK256 CALLER DUP9 MSTORE SWAP1 MSTORE DUP4 DUP7 KECCAK256 SLOAD PUSH1 0xFF AND ISZERO PUSH2 0xF9B JUMP JUMPDEST POP PUSH1 0x1 PUSH1 0x1 PUSH1 0xA0 SHL SUB DUP2 AND CALLER EQ ISZERO PUSH2 0xF95 JUMP JUMPDEST POP CALLVALUE PUSH2 0x1BE JUMPI PUSH1 0x20 CALLDATASIZE PUSH1 0x3 NOT ADD SLT PUSH2 0x1BE JUMPI SWAP2 DUP3 PUSH1 0x20 SWAP4 CALLDATALOAD PUSH2 0x1062 DUP2 PUSH2 0x180C JUMP JUMPDEST POP DUP3 MSTORE DUP4 MSTORE DUP2 SWAP1 KECCAK256 SLOAD SWAP1 MLOAD PUSH1 0x1 PUSH1 0x1 PUSH1 0xA0 SHL SUB SWAP1 SWAP2 AND DUP2 MSTORE RETURN JUMPDEST POP POP CALLVALUE PUSH2 0x4C0 JUMPI DUP2 PUSH1 0x3 NOT CALLDATASIZE ADD SLT PUSH2 0x4C0 JUMPI DUP1 MLOAD SWAP1 DUP3 DUP1 SLOAD PUSH2 0x109D DUP2 PUSH2 0x144F JUMP JUMPDEST DUP1 DUP6 MSTORE SWAP1 PUSH1 0x1 SWAP1 DUP2 DUP2 AND SWAP1 DUP2 ISZERO PUSH2 0x850 JUMPI POP PUSH1 0x1 EQ PUSH2 0x10C8 JUMPI POP POP POP PUSH2 0x803 DUP3 PUSH2 0x624 SWAP5 SUB DUP4 PUSH2 0x127B JUMP JUMPDEST SWAP5 POP DUP2 DUP1 MSTORE PUSH1 0x20 SWAP5 DUP6 DUP4 KECCAK256 JUMPDEST DUP3 DUP5 LT PUSH2 0x10F0 JUMPI POP POP POP DUP3 PUSH2 0x624 SWAP5 PUSH2 0x803 SWAP3 DUP3 ADD ADD SWAP5 PUSH2 0x7F1 JUMP JUMPDEST DUP1 SLOAD DUP7 DUP6 ADD DUP9 ADD MSTORE SWAP3 DUP7 ADD SWAP3 DUP2 ADD PUSH2 0x10D4 JUMP JUMPDEST SWAP3 POP POP CALLVALUE PUSH2 0x1BE JUMPI PUSH1 0x20 CALLDATASIZE PUSH1 0x3 NOT ADD SLT PUSH2 0x1BE JUMPI CALLDATALOAD PUSH4 0xFFFFFFFF PUSH1 0xE0 SHL DUP2 AND DUP1 SWAP2 SUB PUSH2 0x1BE JUMPI PUSH1 0x20 SWAP3 POP PUSH4 0x24832483 PUSH1 0xE1 SHL DUP2 EQ SWAP1 DUP2 ISZERO PUSH2 0x1146 JUMPI JUMPDEST POP ISZERO ISZERO DUP2 MSTORE RETURN JUMPDEST PUSH4 0x80AC58CD PUSH1 0xE0 SHL DUP2 EQ SWAP2 POP DUP2 ISZERO PUSH2 0x1178 JUMPI JUMPDEST DUP2 ISZERO PUSH2 0x1167 JUMPI JUMPDEST POP CODESIZE PUSH2 0x113F JUMP JUMPDEST PUSH4 0x1FFC9A7 PUSH1 0xE0 SHL EQ SWAP1 POP CODESIZE PUSH2 0x1160 JUMP JUMPDEST PUSH4 0x5B5E139F PUSH1 0xE0 SHL DUP2 EQ SWAP2 POP PUSH2 0x1159 JUMP JUMPDEST SWAP2 SWAP1 DUP3 MLOAD SWAP3 DUP4 DUP3 MSTORE PUSH1 0x0 JUMPDEST DUP5 DUP2 LT PUSH2 0x11B5 JUMPI POP POP DUP3 PUSH1 0x0 PUSH1 0x20 DUP1 SWAP5 SWAP6 DUP5 ADD ADD MSTORE PUSH1 0x1F DUP1 NOT SWAP2 ADD AND ADD ADD SWAP1 JUMP JUMPDEST PUSH1 0x20 DUP2 DUP4 ADD DUP2 ADD MLOAD DUP5 DUP4 ADD DUP3 ADD MSTORE ADD PUSH2 0x1194 JUMP JUMPDEST PUSH1 0x4 CALLDATALOAD SWAP1 PUSH1 0x1 PUSH1 0x1 PUSH1 0xA0 SHL SUB DUP3 AND DUP3 SUB PUSH2 0x11DF JUMPI JUMP JUMPDEST PUSH1 0x0 DUP1 REVERT JUMPDEST PUSH1 0x24 CALLDATALOAD SWAP1 PUSH1 0x1 PUSH1 0x1 PUSH1 0xA0 SHL SUB DUP3 AND DUP3 SUB PUSH2 0x11DF JUMPI JUMP JUMPDEST PUSH1 0x60 SWAP1 PUSH1 0x3 NOT ADD SLT PUSH2 0x11DF JUMPI PUSH1 0x1 PUSH1 0x1 PUSH1 0xA0 SHL SUB SWAP1 PUSH1 0x4 CALLDATALOAD DUP3 DUP2 AND DUP2 SUB PUSH2 0x11DF JUMPI SWAP2 PUSH1 0x24 CALLDATALOAD SWAP1 DUP2 AND DUP2 SUB PUSH2 0x11DF JUMPI SWAP1 PUSH1 0x44 CALLDATALOAD SWAP1 JUMP JUMPDEST PUSH1 0x80 DUP2 ADD SWAP1 DUP2 LT PUSH1 0x1 PUSH1 0x1 PUSH1 0x40 SHL SUB DUP3 GT OR PUSH2 0x124A JUMPI PUSH1 0x40 MSTORE JUMP JUMPDEST PUSH4 0x4E487B71 PUSH1 0xE0 SHL PUSH1 0x0 MSTORE PUSH1 0x41 PUSH1 0x4 MSTORE PUSH1 0x24 PUSH1 0x0 REVERT JUMPDEST PUSH1 0x20 DUP2 ADD SWAP1 DUP2 LT PUSH1 0x1 PUSH1 0x1 PUSH1 0x40 SHL SUB DUP3 GT OR PUSH2 0x124A JUMPI PUSH1 0x40 MSTORE JUMP JUMPDEST SWAP1 PUSH1 0x1F DUP1 NOT SWAP2 ADD AND DUP2 ADD SWAP1 DUP2 LT PUSH1 0x1 PUSH1 0x1 PUSH1 0x40 SHL SUB DUP3 GT OR PUSH2 0x124A JUMPI PUSH1 0x40 MSTORE JUMP JUMPDEST PUSH1 0x1 PUSH1 0x1 PUSH1 0x40 SHL SUB DUP2 GT PUSH2 0x124A JUMPI PUSH1 0x1F ADD PUSH1 0x1F NOT AND PUSH1 0x20 ADD SWAP1 JUMP JUMPDEST SWAP3 SWAP2 SWAP3 PUSH2 0x12C3 DUP3 PUSH2 0x129C JUMP JUMPDEST SWAP2 PUSH2 0x12D1 PUSH1 0x40 MLOAD SWAP4 DUP5 PUSH2 0x127B JUMP JUMPDEST DUP3 SWAP5 DUP2 DUP5 MSTORE DUP2 DUP4 ADD GT PUSH2 0x11DF JUMPI DUP3 DUP2 PUSH1 0x20 SWAP4 DUP5 PUSH1 0x0 SWAP7 ADD CALLDATACOPY ADD ADD MSTORE JUMP JUMPDEST SWAP1 DUP1 PUSH1 0x1F DUP4 ADD SLT ISZERO PUSH2 0x11DF JUMPI DUP2 PUSH1 0x20 PUSH2 0x1309 SWAP4 CALLDATALOAD SWAP2 ADD PUSH2 0x12B7 JUMP JUMPDEST SWAP1 JUMP JUMPDEST SWAP1 PUSH1 0x40 PUSH1 0x3 NOT DUP4 ADD SLT PUSH2 0x11DF JUMPI PUSH1 0x4 CALLDATALOAD SWAP2 PUSH1 0x24 CALLDATALOAD SWAP1 PUSH1 0x1 PUSH1 0x1 PUSH1 0x40 SHL SUB DUP3 GT PUSH2 0x11DF JUMPI PUSH2 0x1309 SWAP2 PUSH1 0x4 ADD PUSH2 0x12EE JUMP JUMPDEST PUSH1 0x20 DUP1 DUP3 ADD SWAP1 DUP1 DUP4 MSTORE DUP4 MLOAD DUP1 SWAP3 MSTORE PUSH1 0x40 SWAP3 DUP4 DUP2 ADD PUSH1 0x5 SWAP5 DUP4 DUP2 DUP7 DUP9 SHL DUP6 ADD ADD SWAP8 ADD SWAP6 PUSH1 0x0 DUP1 SWAP5 JUMPDEST DUP8 DUP7 LT PUSH2 0x1375 JUMPI POP POP POP POP POP POP POP POP POP SWAP1 JUMP JUMPDEST SWAP1 SWAP2 SWAP3 SWAP4 SWAP5 SWAP6 DUP1 SWAP8 SWAP9 SWAP10 PUSH1 0x3F NOT DUP4 DUP3 SUB ADD DUP8 MSTORE DUP11 MLOAD SWAP1 DUP2 MLOAD DUP2 MSTORE DUP3 DUP3 ADD MLOAD DUP4 DUP3 ADD MSTORE PUSH2 0x13AD DUP8 DUP4 ADD MLOAD PUSH1 0x80 DUP1 DUP11 DUP6 ADD MSTORE DUP4 ADD SWAP1 PUSH2 0x1189 JUMP JUMPDEST SWAP1 PUSH1 0x60 DUP1 SWAP4 ADD MLOAD SWAP3 DUP2 DUP4 SUB SWAP2 ADD MSTORE DUP2 MLOAD DUP1 DUP3 MSTORE DUP4 DUP3 ADD SWAP1 DUP5 DUP1 DUP3 DUP11 SHL DUP6 ADD ADD SWAP5 ADD SWAP3 DUP8 JUMPDEST DUP3 DUP2 LT PUSH2 0x13F5 JUMPI POP POP POP POP POP SWAP1 DUP1 PUSH1 0x1 SWAP3 SWAP12 ADD SWAP7 ADD SWAP7 ADD SWAP5 SWAP8 SWAP7 SWAP6 SWAP4 SWAP3 SWAP2 SWAP1 PUSH2 0x1362 JUMP JUMPDEST SWAP2 SWAP4 SWAP6 DUP1 PUSH2 0x1411 PUSH1 0x1 SWAP4 SWAP6 SWAP8 PUSH1 0x1F NOT DUP8 DUP3 SUB ADD DUP10 MSTORE DUP10 MLOAD PUSH2 0x1189 JUMP JUMPDEST SWAP8 ADD SWAP6 ADD SWAP2 ADD SWAP2 DUP13 SWAP6 SWAP5 SWAP4 SWAP2 SWAP3 PUSH2 0x13D1 JUMP JUMPDEST PUSH1 0x7 SLOAD PUSH1 0x1 PUSH1 0x1 PUSH1 0xA0 SHL SUB AND CALLER SUB PUSH2 0x1437 JUMPI JUMP JUMPDEST PUSH1 0x40 MLOAD PUSH4 0x118CDAA7 PUSH1 0xE0 SHL DUP2 MSTORE CALLER PUSH1 0x4 DUP3 ADD MSTORE PUSH1 0x24 SWAP1 REVERT JUMPDEST SWAP1 PUSH1 0x1 DUP3 DUP2 SHR SWAP3 AND DUP1 ISZERO PUSH2 0x147F JUMPI JUMPDEST PUSH1 0x20 DUP4 LT EQ PUSH2 0x1469 JUMPI JUMP JUMPDEST PUSH4 0x4E487B71 PUSH1 0xE0 SHL PUSH1 0x0 MSTORE PUSH1 0x22 PUSH1 0x4 MSTORE PUSH1 0x24 PUSH1 0x0 REVERT JUMPDEST SWAP2 PUSH1 0x7F AND SWAP2 PUSH2 0x145E JUMP JUMPDEST SWAP1 PUSH1 0x0 SWAP3 SWAP2 DUP1 SLOAD SWAP2 PUSH2 0x149A DUP4 PUSH2 0x144F JUMP JUMPDEST SWAP2 DUP3 DUP3 MSTORE PUSH1 0x1 SWAP4 DUP5 DUP2 AND SWAP1 DUP2 PUSH1 0x0 EQ PUSH2 0x14FC JUMPI POP PUSH1 0x1 EQ PUSH2 0x14BC JUMPI JUMPDEST POP POP POP POP JUMP JUMPDEST SWAP1 SWAP2 SWAP4 SWAP5 POP PUSH1 0x0 MSTORE PUSH1 0x20 SWAP3 DUP4 PUSH1 0x0 KECCAK256 SWAP3 DUP5 PUSH1 0x0 SWAP5 JUMPDEST DUP4 DUP7 LT PUSH2 0x14E8 JUMPI POP POP POP POP ADD ADD SWAP1 CODESIZE DUP1 DUP1 DUP1 PUSH2 0x14B6 JUMP JUMPDEST DUP1 SLOAD DUP6 DUP8 ADD DUP4 ADD MSTORE SWAP5 ADD SWAP4 DUP6 SWAP1 DUP3 ADD PUSH2 0x14D1 JUMP JUMPDEST SWAP3 SWAP5 POP POP POP PUSH1 0x20 SWAP4 SWAP5 POP PUSH1 0xFF NOT AND DUP4 DUP4 ADD MSTORE ISZERO ISZERO PUSH1 0x5 SHL ADD ADD SWAP1 CODESIZE DUP1 DUP1 DUP1 PUSH2 0x14B6 JUMP JUMPDEST PUSH1 0x1 PUSH1 0x1 PUSH1 0xA0 SHL SUB SWAP2 DUP3 AND SWAP3 SWAP1 SWAP2 DUP4 ISZERO PUSH2 0x16A5 JUMPI PUSH1 0x0 SWAP3 DUP3 DUP5 MSTORE DUP3 PUSH1 0x20 SWAP6 PUSH1 0x2 DUP8 MSTORE PUSH1 0x40 SWAP7 DUP5 DUP9 DUP9 KECCAK256 SLOAD AND SWAP7 DUP8 SWAP2 CALLER ISZERO ISZERO DUP1 PUSH2 0x160F JUMPI JUMPDEST POP SWAP1 PUSH1 0x2 PUSH32 0xDDF252AD1BE2C89B69C2B068FC378DAA952BA7F163C4A11628F55A4DF523B3EF SWAP3 DUP5 PUSH2 0x15DC JUMPI JUMPDEST DUP6 DUP4 MSTORE PUSH1 0x3 DUP2 MSTORE DUP12 DUP4 KECCAK256 DUP1 SLOAD PUSH1 0x1 ADD SWAP1 SSTORE DUP7 DUP4 MSTORE MSTORE DUP10 DUP2 KECCAK256 DUP1 SLOAD PUSH1 0x1 PUSH1 0x1 PUSH1 0xA0 SHL SUB NOT AND DUP6 OR SWAP1 SSTORE DUP1 LOG4 AND SWAP3 DUP4 DUP4 SUB PUSH2 0x15BB JUMPI POP POP POP POP JUMP JUMPDEST PUSH1 0x64 SWAP5 POP MLOAD SWAP3 PUSH4 0x64283D7B PUSH1 0xE0 SHL DUP5 MSTORE PUSH1 0x4 DUP5 ADD MSTORE PUSH1 0x24 DUP4 ADD MSTORE PUSH1 0x44 DUP3 ADD MSTORE REVERT JUMPDEST PUSH1 0x0 DUP8 DUP2 MSTORE PUSH1 0x4 PUSH1 0x20 MSTORE PUSH1 0x40 SWAP1 KECCAK256 DUP1 SLOAD PUSH1 0x1 PUSH1 0x1 PUSH1 0xA0 SHL SUB NOT AND SWAP1 SSTORE DUP5 DUP4 MSTORE PUSH1 0x3 DUP2 MSTORE DUP12 DUP4 KECCAK256 DUP1 SLOAD PUSH1 0x0 NOT ADD SWAP1 SSTORE PUSH2 0x1582 JUMP JUMPDEST SWAP2 SWAP4 SWAP5 POP SWAP2 POP DUP1 PUSH2 0x1664 JUMPI JUMPDEST ISZERO PUSH2 0x162B JUMPI DUP6 SWAP3 SWAP2 DUP8 SWAP2 CODESIZE PUSH2 0x1556 JUMP JUMPDEST DUP8 DUP7 DUP9 PUSH2 0x1648 JUMPI PUSH1 0x24 SWAP2 MLOAD SWAP1 PUSH4 0x7E273289 PUSH1 0xE0 SHL DUP3 MSTORE PUSH1 0x4 DUP3 ADD MSTORE REVERT JUMPDEST PUSH1 0x44 SWAP2 MLOAD SWAP1 PUSH4 0x177E802F PUSH1 0xE0 SHL DUP3 MSTORE CALLER PUSH1 0x4 DUP4 ADD MSTORE PUSH1 0x24 DUP3 ADD MSTORE REVERT JUMPDEST POP CALLER DUP8 EQ DUP1 ISZERO PUSH2 0x1689 JUMPI JUMPDEST DUP1 PUSH2 0x161B JUMPI POP DUP6 DUP3 MSTORE PUSH1 0x4 DUP2 MSTORE CALLER DUP6 DUP10 DUP5 KECCAK256 SLOAD AND EQ PUSH2 0x161B JUMP JUMPDEST POP DUP7 DUP3 MSTORE PUSH1 0x5 DUP2 MSTORE DUP8 DUP3 KECCAK256 CALLER DUP4 MSTORE DUP2 MSTORE PUSH1 0xFF DUP9 DUP4 KECCAK256 SLOAD AND PUSH2 0x166F JUMP JUMPDEST PUSH1 0x40 MLOAD PUSH4 0x32505749 PUSH1 0xE1 SHL DUP2 MSTORE PUSH1 0x0 PUSH1 0x4 DUP3 ADD MSTORE PUSH1 0x24 SWAP1 REVERT JUMPDEST PUSH2 0x16C9 DUP4 DUP4 DUP4 PUSH2 0x151F JUMP JUMPDEST DUP2 EXTCODESIZE PUSH2 0x16D5 JUMPI POP POP POP POP JUMP JUMPDEST PUSH1 0x40 MLOAD PUSH4 0xA85BD01 PUSH1 0xE1 SHL DUP1 DUP3 MSTORE CALLER PUSH1 0x4 DUP4 ADD MSTORE PUSH1 0x1 PUSH1 0x1 PUSH1 0xA0 SHL SUB SWAP3 DUP4 AND PUSH1 0x24 DUP4 ADD MSTORE PUSH1 0x44 DUP3 ADD SWAP5 SWAP1 SWAP5 MSTORE PUSH1 0x80 PUSH1 0x64 DUP3 ADD MSTORE PUSH1 0x20 SWAP6 SWAP3 SWAP1 SWAP2 AND SWAP4 SWAP1 SWAP3 SWAP1 DUP4 SWAP1 PUSH2 0x1723 SWAP1 PUSH1 0x84 DUP4 ADD SWAP1 PUSH2 0x1189 JUMP JUMPDEST SUB SWAP3 DUP6 DUP2 PUSH1 0x0 SWAP6 DUP2 DUP8 DUP10 GAS CALL DUP5 SWAP2 DUP2 PUSH2 0x17CC JUMPI JUMPDEST POP PUSH2 0x1797 JUMPI POP POP POP RETURNDATASIZE PUSH1 0x0 EQ PUSH2 0x178F JUMPI RETURNDATASIZE PUSH2 0x1751 DUP2 PUSH2 0x129C JUMP JUMPDEST SWAP1 PUSH2 0x175F PUSH1 0x40 MLOAD SWAP3 DUP4 PUSH2 0x127B JUMP JUMPDEST DUP2 MSTORE DUP1 SWAP2 DUP5 RETURNDATASIZE SWAP3 ADD RETURNDATACOPY JUMPDEST DUP1 MLOAD SWAP3 DUP4 PUSH2 0x178A JUMPI PUSH1 0x40 MLOAD PUSH4 0x32505749 PUSH1 0xE1 SHL DUP2 MSTORE PUSH1 0x4 DUP2 ADD DUP5 SWAP1 MSTORE PUSH1 0x24 SWAP1 REVERT JUMPDEST ADD SWAP1 POP REVERT JUMPDEST POP PUSH1 0x60 PUSH2 0x1769 JUMP JUMPDEST SWAP2 SWAP5 POP SWAP2 POP PUSH4 0xFFFFFFFF PUSH1 0xE0 SHL AND SUB PUSH2 0x17B4 JUMPI POP CODESIZE DUP1 DUP1 DUP1 PUSH2 0x14B6 JUMP JUMPDEST PUSH1 0x24 SWAP1 PUSH1 0x40 MLOAD SWAP1 PUSH4 0x32505749 PUSH1 0xE1 SHL DUP3 MSTORE PUSH1 0x4 DUP3 ADD MSTORE REVERT JUMPDEST SWAP1 SWAP2 POP DUP7 DUP2 DUP2 RETURNDATASIZE DUP4 GT PUSH2 0x1805 JUMPI JUMPDEST PUSH2 0x17E4 DUP2 DUP4 PUSH2 0x127B JUMP JUMPDEST DUP2 ADD SUB SLT PUSH2 0x68B JUMPI MLOAD PUSH1 0x1 PUSH1 0x1 PUSH1 0xE0 SHL SUB NOT DUP2 AND DUP2 SUB PUSH2 0x68B JUMPI SWAP1 CODESIZE PUSH2 0x1737 JUMP JUMPDEST POP RETURNDATASIZE PUSH2 0x17DA JUMP JUMPDEST PUSH1 0x0 DUP2 DUP2 MSTORE PUSH1 0x2 PUSH1 0x20 MSTORE PUSH1 0x40 SWAP1 KECCAK256 SLOAD PUSH1 0x1 PUSH1 0x1 PUSH1 0xA0 SHL SUB AND SWAP1 DUP2 ISZERO PUSH2 0x182F JUMPI POP SWAP1 JUMP JUMPDEST PUSH1 0x24 SWAP1 PUSH1 0x40 MLOAD SWAP1 PUSH4 0x7E273289 PUSH1 0xE0 SHL DUP3 MSTORE PUSH1 0x4 DUP3 ADD MSTORE REVERT JUMPDEST PUSH1 0xE SLOAD DUP2 LT ISZERO PUSH2 0x1866 JUMPI PUSH1 0xE PUSH1 0x0 MSTORE PUSH1 0x20 PUSH1 0x0 KECCAK256 SWAP1 PUSH1 0x2 SHL ADD SWAP1 PUSH1 0x0 SWAP1 JUMP JUMPDEST PUSH4 0x4E487B71 PUSH1 0xE0 SHL PUSH1 0x0 MSTORE PUSH1 0x32 PUSH1 0x4 MSTORE PUSH1 0x24 PUSH1 0x0 REVERT JUMPDEST DUP2 DUP2 LT PUSH2 0x1887 JUMPI POP POP JUMP JUMPDEST PUSH1 0x0 DUP2 SSTORE PUSH1 0x1 ADD PUSH2 0x187C JUMP JUMPDEST SWAP2 SWAP1 SWAP2 DUP3 MLOAD PUSH1 0x1 PUSH1 0x1 PUSH1 0x40 SHL SUB DUP2 GT PUSH2 0x124A JUMPI PUSH2 0x18B0 DUP3 SLOAD PUSH2 0x144F JUMP JUMPDEST PUSH1 0x1F DUP2 GT PUSH2 0x195A JUMPI JUMPDEST POP PUSH1 0x20 DUP1 PUSH1 0x1F DUP4 GT PUSH1 0x1 EQ PUSH2 0x18F6 JUMPI POP DUP2 SWAP3 SWAP4 SWAP5 PUSH1 0x0 SWAP3 PUSH2 0x18EB JUMPI JUMPDEST POP POP DUP2 PUSH1 0x1 SHL SWAP2 PUSH1 0x0 NOT SWAP1 PUSH1 0x3 SHL SHR NOT AND OR SWAP1 SSTORE JUMP JUMPDEST ADD MLOAD SWAP1 POP CODESIZE DUP1 PUSH2 0x18D5 JUMP JUMPDEST SWAP1 PUSH1 0x1F NOT DUP4 AND SWAP6 DUP5 PUSH1 0x0 MSTORE DUP3 PUSH1 0x0 KECCAK256 SWAP3 PUSH1 0x0 SWAP1 JUMPDEST DUP9 DUP3 LT PUSH2 0x1942 JUMPI POP POP DUP4 PUSH1 0x1 SWAP6 SWAP7 SWAP8 LT PUSH2 0x1929 JUMPI JUMPDEST POP POP POP DUP2 SHL ADD SWAP1 SSTORE JUMP JUMPDEST ADD MLOAD PUSH1 0x0 NOT PUSH1 0xF8 DUP5 PUSH1 0x3 SHL AND SHR NOT AND SWAP1 SSTORE CODESIZE DUP1 DUP1 PUSH2 0x191F JUMP JUMPDEST DUP1 PUSH1 0x1 DUP6 SWAP7 DUP3 SWAP5 SWAP7 DUP7 ADD MLOAD DUP2 SSTORE ADD SWAP6 ADD SWAP4 ADD SWAP1 PUSH2 0x190A JUMP JUMPDEST PUSH2 0x1987 SWAP1 DUP4 PUSH1 0x0 MSTORE PUSH1 0x20 PUSH1 0x0 KECCAK256 PUSH1 0x1F DUP5 ADD PUSH1 0x5 SHR DUP2 ADD SWAP2 PUSH1 0x20 DUP6 LT PUSH2 0x198D JUMPI JUMPDEST PUSH1 0x1F ADD PUSH1 0x5 SHR ADD SWAP1 PUSH2 0x187C JUMP JUMPDEST CODESIZE PUSH2 0x18B9 JUMP JUMPDEST SWAP1 SWAP2 POP DUP2 SWAP1 PUSH2 0x197A JUMP JUMPDEST PUSH1 0x0 NOT DUP2 EQ PUSH2 0x19A6 JUMPI PUSH1 0x1 ADD SWAP1 JUMP JUMPDEST PUSH4 0x4E487B71 PUSH1 0xE0 SHL PUSH1 0x0 MSTORE PUSH1 0x11 PUSH1 0x4 MSTORE PUSH1 0x24 PUSH1 0x0 REVERT JUMPDEST PUSH1 0x1 PUSH1 0x1 PUSH1 0x40 SHL SUB DUP2 GT PUSH2 0x124A JUMPI PUSH1 0x5 SHL PUSH1 0x20 ADD SWAP1 JUMP JUMPDEST SWAP1 DUP2 SLOAD PUSH2 0x19DF DUP2 PUSH2 0x19BC JUMP JUMPDEST SWAP3 PUSH1 0x40 SWAP4 PUSH2 0x19EF DUP6 MLOAD SWAP2 DUP3 PUSH2 0x127B JUMP JUMPDEST DUP3 DUP2 MSTORE DUP1 SWAP5 PUSH1 0x20 DUP1 SWAP3 ADD SWAP3 PUSH1 0x0 MSTORE DUP2 PUSH1 0x0 KECCAK256 SWAP1 PUSH1 0x0 SWAP4 JUMPDEST DUP6 DUP6 LT PUSH2 0x1A15 JUMPI POP POP POP POP POP POP JUMP JUMPDEST PUSH1 0x1 DUP5 DUP2 SWAP3 DUP5 MLOAD PUSH2 0x1A31 DUP2 PUSH2 0x1A2A DUP2 DUP11 PUSH2 0x1489 JUMP JUMPDEST SUB DUP3 PUSH2 0x127B JUMP JUMPDEST DUP2 MSTORE ADD SWAP4 ADD SWAP5 ADD SWAP4 SWAP2 PUSH2 0x1A06 JUMP JUMPDEST SWAP1 PUSH1 0x40 MLOAD PUSH2 0x1A4C DUP2 PUSH2 0x122F JUMP JUMPDEST PUSH1 0x60 PUSH2 0x1A82 PUSH1 0x3 DUP4 SWAP6 DUP1 SLOAD DUP6 MSTORE PUSH1 0x1 DUP2 ADD SLOAD PUSH1 0x20 DUP7 ADD MSTORE PUSH1 0x40 MLOAD PUSH2 0x1A77 DUP2 PUSH2 0x1A2A DUP2 PUSH1 0x2 DUP7 ADD PUSH2 0x1489 JUMP JUMPDEST PUSH1 0x40 DUP7 ADD MSTORE ADD PUSH2 0x19D3 JUMP JUMPDEST SWAP2 ADD MSTORE JUMP JUMPDEST DUP1 SLOAD DUP3 LT ISZERO PUSH2 0x1866 JUMPI PUSH1 0x0 MSTORE PUSH1 0x20 PUSH1 0x0 KECCAK256 ADD SWAP1 PUSH1 0x0 SWAP1 JUMP JUMPDEST PUSH1 0x60 MLOAD DUP2 LT ISZERO PUSH2 0x1866 JUMPI PUSH1 0x5 SHL PUSH1 0x80 ADD SWAP1 JUMP JUMPDEST DUP1 MLOAD DUP3 LT ISZERO PUSH2 0x1866 JUMPI PUSH1 0x20 SWAP2 PUSH1 0x5 SHL ADD ADD SWAP1 JUMP JUMPDEST PUSH1 0x40 SWAP1 DUP2 MLOAD SWAP1 PUSH2 0x1AD5 DUP3 PUSH2 0x122F JUMP JUMPDEST PUSH1 0x60 DUP1 PUSH1 0x0 SWAP4 DUP5 DUP2 MSTORE DUP5 PUSH1 0x20 DUP3 ADD MSTORE DUP2 DUP7 DUP3 ADD MSTORE ADD MSTORE DUP2 SWAP1 PUSH1 0xE SLOAD SWAP2 JUMPDEST DUP3 DUP2 LT PUSH2 0x1B39 JUMPI POP POP POP DUP2 MLOAD SWAP1 PUSH2 0x1B08 DUP3 PUSH2 0x1260 JUMP JUMPDEST DUP1 DUP3 MSTORE DUP3 MLOAD SWAP3 PUSH2 0x1B17 DUP5 PUSH2 0x122F JUMP JUMPDEST DUP2 DUP5 MSTORE DUP2 PUSH1 0x20 DUP6 ADD MSTORE DUP1 MLOAD SWAP2 PUSH2 0x1B2C DUP4 PUSH2 0x1260 JUMP JUMPDEST DUP3 MSTORE DUP4 ADD MSTORE PUSH1 0x60 DUP3 ADD MSTORE SWAP1 JUMP JUMPDEST DUP2 PUSH2 0x1B43 DUP3 PUSH2 0x1847 JUMP JUMPDEST POP SLOAD EQ PUSH2 0x1B58 JUMPI PUSH2 0x1B53 SWAP1 PUSH2 0x1997 JUMP JUMPDEST PUSH2 0x1AF2 JUMP JUMPDEST SWAP2 POP POP PUSH2 0x1309 SWAP3 POP PUSH2 0x1B6A SWAP2 POP PUSH2 0x1847 JUMP JUMPDEST POP PUSH2 0x1A3F JUMP INVALID LOG2 PUSH5 0x6970667358 0x22 SLT KECCAK256 0xE3 0xEB STATICCALL DUP11 0x29 0xE PUSH23 0xF341B447B7C836130753CC908014F012B03E3F02AC20E0 0xD2 PUSH17 0x64736F6C63430008140033A26469706673 PC 0x22 SLT KECCAK256 0xD1 0xDF 0xFB 0xDD 0xB4 0xF 0xCF 0xB5 PUSH0 ADDMOD PUSH24 0x77155D2D0701F80DAD8E7083D00F5F444A9476E02164736F PUSH13 0x63430008140033000000000000 "},"methodIdentifiers":{"AddNFTs(string)":"d6fad3ae","AddVote(uint256,uint256,string)":"0e8aef77","ChangeVote(uint256,uint256,uint256,uint256,string)":"803549bc","GetAllNFTs(address)":"8db77cce","GetAvailableNFTs()":"5fec6e67","GetNFTsByOwner(address)":"653e56f8","collections(uint256)":"fdbda0ec","mintNFT(uint256,uint256)":"c48283ff","owner()":"8da5cb5b","renounceOwnership()":"715018a6","transferOwnership(address)":"f2fde38b"}}}}}