{"contracts/Collection.sol":{"Gallery":{"abi":[{"inputs":[],"stateMutability":"nonpayable","type":"constructor"},{"inputs":[{"internalType":"address","name":"owner","type":"address"}],"name":"OwnableInvalidOwner","type":"error"},{"inputs":[{"internalType":"address","name":"account","type":"address"}],"name":"OwnableUnauthorizedAccount","type":"error"},{"anonymous":false,"inputs":[{"indexed":true,"internalType":"address","name":"previousOwner","type":"address"},{"indexed":true,"internalType":"address","name":"newOwner","type":"address"}],"name":"OwnershipTransferred","type":"event"},{"inputs":[{"internalType":"string","name":"_collectionURIs","type":"string"}],"name":"AddNFTs","outputs":[{"internalType":"uint256","name":"","type":"uint256"}],"stateMutability":"nonpayable","type":"function"},{"inputs":[{"internalType":"uint256","name":"collectionId","type":"uint256"},{"internalType":"uint256","name":"tokenId","type":"uint256"},{"internalType":"string","name":"voterName","type":"string"}],"name":"AddVote","outputs":[],"stateMutability":"nonpayable","type":"function"},{"inputs":[{"internalType":"address","name":"seller","type":"address"}],"name":"GetAllNFTs","outputs":[{"components":[{"internalType":"uint256","name":"id","type":"uint256"},{"internalType":"uint256","name":"collectionId","type":"uint256"},{"internalType":"string","name":"uri","type":"string"},{"internalType":"string[]","name":"voters","type":"string[]"}],"internalType":"struct Token[]","name":"","type":"tuple[]"}],"stateMutability":"view","type":"function"},{"inputs":[],"name":"GetAvailableNFTs","outputs":[{"components":[{"internalType":"uint256","name":"id","type":"uint256"},{"internalType":"uint256","name":"collectionId","type":"uint256"},{"internalType":"string","name":"uri","type":"string"},{"internalType":"string[]","name":"voters","type":"string[]"}],"internalType":"struct Token[]","name":"","type":"tuple[]"}],"stateMutability":"view","type":"function"},{"inputs":[{"internalType":"uint256","name":"","type":"uint256"}],"name":"collections","outputs":[{"internalType":"contract Collection","name":"","type":"address"}],"stateMutability":"view","type":"function"},{"inputs":[{"internalType":"uint256","name":"collectionID","type":"uint256"},{"internalType":"uint256","name":"tokenID","type":"uint256"}],"name":"mintNFT","outputs":[],"stateMutability":"payable","type":"function"},{"inputs":[],"name":"owner","outputs":[{"internalType":"address","name":"","type":"address"}],"stateMutability":"view","type":"function"},{"inputs":[],"name":"renounceOwnership","outputs":[],"stateMutability":"nonpayable","type":"function"},{"inputs":[{"internalType":"address","name":"newOwner","type":"address"}],"name":"transferOwnership","outputs":[],"stateMutability":"nonpayable","type":"function"},{"inputs":[{"internalType":"uint256","name":"","type":"uint256"}],"name":"voters","outputs":[{"internalType":"uint256","name":"tokenId","type":"uint256"},{"internalType":"uint256","name":"collectionId","type":"uint256"},{"internalType":"address","name":"voterAddress","type":"address"},{"internalType":"string","name":"name","type":"string"}],"stateMutability":"view","type":"function"}],"evm":{"bytecode":{"linkReferences":{},"object":"6080806040523461007f5733156100695760008054336001600160a01b03198216811783556040519290916001600160a01b0316907f8be0079c531659141344cd1fd0a4f28419497f9722a3daafe3b4186f6b6457e09080a360006003556131d090816100858239f35b631e4fbdf760e01b815260006004820152602490fd5b600080fdfe604060808152600490813610156200001657600080fd5b600091823560e01c80630e8aef771462000a315780635fec6e67146200087e578063715018a614620008205780638da5cb5b14620007f65780638db77cce1462000513578063c48283ff1462000468578063d6fad3ae1462000299578063da58c7d91462000179578063f2fde38b14620000e55763fdbda0ec146200009a57600080fd5b34620000e1576020366003190112620000e1573591600154831015620000de5750620000c860209262000d1a565b905491519160018060a01b039160031b1c168152f35b80fd5b8280fd5b509034620000e1576020366003190112620000e1576001600160a01b0382358181169391929084900362000175576200011d62000d36565b83156200015f57505082546001600160a01b0319811683178455167f8be0079c531659141344cd1fd0a4f28419497f9722a3daafe3b4186f6b6457e08380a380f35b51631e4fbdf760e01b8152908101849052602490fd5b8480fd5b50919034620002955760209283600319360112620000e15735600254811015620000e157620001a89062000c8d565b509081549160019182820154600360018060a01b0360028501541693018783519588835493620001d88562000cdd565b808a52948381169081156200026d57506001146200022c575b50505050506200020984620002289697038562000ac1565b8151968796875286015284015260806060840152608083019062000b76565b0390f35b908094939a50528883205b82841062000259575050508401909501946200020987620002288638620001f1565b80548885018b015292890192810162000237565b60ff1916858b01525050505090151560051b85010195506200020987620002288638620001f1565b5080fd5b5034620000e15760209283600319360112620000de576001600160401b03918035838111620000e157620002d1903690830162000aff565b60035485519194611d9e808401929183118484101762000455579162000307918493620013fd8539815233602082015260400190565b039083f080156200044b57600154600160401b8110156200043857866200033982600162000378940160015562000d1a565b969060018060a01b038095169781549060031b90868a831b921b191617905587518093819263ee36675b60e01b83528488840152602483019062000b76565b038187895af180156200042e57908791620003ff575b505082541690833b15620000e1579060248392838751968794859363f2fde38b60e01b85528401525af1908115620003f45750620003e2575b50620003d560035462000d63565b6003556001549051908152f35b620003ed9062000a7b565b38620003c7565b8351903d90823e3d90fd5b813d831162000426575b62000415818362000ac1565b81010312620000e15785386200038e565b503d62000409565b86513d86823e3d90fd5b634e487b7160e01b845260418352602484fd5b84513d84823e3d90fd5b634e487b7160e01b865260418552602486fd5b509080600319360112620000e1576020620004b562000488843562000d1a565b9054845163669f5a5160e01b81526024359681019687523360208801529586938492918391604090910190565b0392349160039190911b1c6001600160a01b03165af19081156200050a5750620004dd575080f35b602090813d811162000502575b620004f6818362000ac1565b81010312620000de5780f35b503d620004ea565b513d84823e3d90fd5b50919034620002955760209182600319360112620000de576001600160a01b03843581811695919290869003620000de57600180549390929082805b868210620006f45762000563915062001372565b968398845b8781106200057f57885180620002288c8262000b9d565b82846200058c8362000d1a565b929054888d51809481936321de0b0960e11b8352600397881b1c165afa908115620006ea57879285888b9481948691620006b6575b501614620005df575b50505050620005d99062000d63565b62000568565b620005ea8562000d1a565b9054911b1c168b5192838092633e135a4760e11b82525afa908115620006ac57908891889162000685575b5087915b6200062a575b5086858792620005ca565b909b81518d10156200067e57906200067762000670838f8f958d9662000655620006699388620013e7565b51620006628383620013e7565b52620013e7565b5062000d63565b9d62000d63565b9162000619565b9b6200061f565b620006a591503d808a833e6200069c818362000ac1565b810190620011a7565b3862000615565b8a513d89823e3d90fd5b620006db91508a3d8c11620006e2575b620006d2818362000ac1565b81019062001121565b38620005c1565b503d620006c6565b8b513d8a823e3d90fd5b8883620007018462000d1a565b929054878c51809481936321de0b0960e11b8352600397881b1c165afa908115620006ac5786928d878a948f9482958792620007d4575b5050161462000759575b5050505090620007529062000d63565b906200054f565b620007648662000d1a565b9054911b1c168a5192838092633e135a4760e11b82525afa908115620007ca5791620007a09162000752938891620007ac575b50519062001364565b90508385843862000742565b620007c391503d808a833e6200069c818362000ac1565b3862000797565b89513d88823e3d90fd5b620007ee9250803d10620006e257620006d2818362000ac1565b8f8062000738565b5050346200029557816003193601126200029557905490516001600160a01b039091168152602090f35b8334620000de5780600319360112620000de576200083d62000d36565b80546001600160a01b03198116825581906001600160a01b03167f8be0079c531659141344cd1fd0a4f28419497f9722a3daafe3b4186f6b6457e08280a380f35b509190346200029557816003193601126200029557600180549083805b838210620009ab57620008af915062001372565b938095815b848110620008cb5785518062000228898262000b9d565b82620008d78262000d1a565b90548851635fec6e6760e01b8152929183918691839160039190911b1c6001600160a01b03165afa908115620009a157908591859162000983575b5084915b6200092f575b5050620009299062000d63565b620008b4565b909881518a10156200097c5790620009756200096e838b620009618a968f620009599088620013e7565b5192620013e7565b5262000669818d620013e7565b9a62000d63565b9162000916565b986200091c565b6200099a91503d8087833e6200069c818362000ac1565b3862000912565b87513d86823e3d90fd5b85620009b78362000d1a565b90548751635fec6e6760e01b8152929183918b91839160039190911b1c6001600160a01b03165afa90811562000a27579162000a029162000a0993899162000a105750519062001364565b9162000d63565b906200089b565b620007c391503d808b833e6200069c818362000ac1565b86513d89823e3d90fd5b838234620002955760603660031901126200029557604435906001600160401b038211620000e15762000a6c62000a78923690830162000aff565b90602435903562000ef9565b80f35b6001600160401b03811162000a8f57604052565b634e487b7160e01b600052604160045260246000fd5b608081019081106001600160401b0382111762000a8f57604052565b90601f801991011681019081106001600160401b0382111762000a8f57604052565b6001600160401b03811162000a8f57601f01601f191660200190565b81601f8201121562000b4c5780359062000b198262000ae3565b9262000b29604051948562000ac1565b8284526020838301011162000b4c57816000926020809301838601378301015290565b600080fd5b60005b83811062000b655750506000910152565b818101518382015260200162000b54565b9060209162000b918151809281855285808601910162000b51565b601f01601f1916010190565b6020808201908083528351809252604092838101600594838186881b850101970195600080945b87861062000bd85750505050505050505090565b90919293949580979899603f198382030187528a519081518152828201518382015262000c12878301516080808a85015283019062000b76565b90606080930151928183039101528151808252838201908480828a1b850101940192875b82811062000c5c57505050505090806001929b0196019601949796959392919062000bc4565b9193958062000c7a6001939597601f19878203018952895162000b76565b970195019101918c959493919262000c36565b60025481101562000cc7576002600081815291901b7f405787fa12a823e0f2b7631cc41b3ba8828b3321ca811111fa75cd3aa3bb5ace0191565b634e487b7160e01b600052603260045260246000fd5b90600182811c9216801562000d0f575b602083101462000cf957565b634e487b7160e01b600052602260045260246000fd5b91607f169162000ced565b60015481101562000cc757600160005260206000200190600090565b6000546001600160a01b0316330362000d4b57565b60405163118cdaa760e01b8152336004820152602490fd5b600019811462000d735760010190565b634e487b7160e01b600052601160045260246000fd5b9062000ee357815181556020606060038285015193600194858201556002810160018060a01b0360408801511660018060a01b031982541617905501930151908151916001600160401b03831162000a8f5762000de7855462000cdd565b601f811162000e95575b5081601f841160011462000e2e575092829391839260009462000e22575b50501b916000199060031b1c1916179055565b01519250388062000e0f565b919083601f1981168760005284600020946000905b8883831062000e7a575050501062000e60575b505050811b019055565b015160001960f88460031b161c1916905538808062000e56565b85870151885590960195948501948793509081019062000e43565b6000868152838120601f860160051c81019285871062000ed8575b601f0160051c019186905b83811062000ecc5750505062000df1565b82815501869062000ebb565b909250829062000eb0565b634e487b7160e01b600052600060045260246000fd5b91909160409182519062000f0d8262000aa5565b848252826020830152338483015280606083015260005b60028054821015620010765762000f3b8262000c8d565b5001546001600160a01b03908116331462000f62575062000f5c9062000d63565b62000f24565b93949590849362000f7762000f7e9262000c8d565b9062000d89565b62000f898562000d1a565b949054600395861b1c1692833b1562000b4c5762000fd194875196630c6aeadf60e21b885260049784898201526000816024988c8a83015281838160449d8e82018d62000b76565b03925af180156200106b579062000ff0929162001059575b5062000d1a565b9054911b1c1691823b1562000b4c5786956200102d60009692879389519a8b988997889663681cd54b60e11b885287015285015283019062000b76565b03925af19081156200104f5750620010425750565b6200104d9062000a7b565b565b513d6000823e3d90fd5b620010649062000a7b565b3862000fe9565b8a513d6000823e3d90fd5b50509291620010889094919462000d1a565b905460039190911b1c6001600160a01b031692833b1562000b4c57620010d49360009283855180978195829463681cd54b60e11b84526004840152886024840152604483019062000b76565b03925af19081156200104f57506200110f575b5060025490600160401b82101562000a8f5762000f778260016200104d940160025562000c8d565b6200111a9062000a7b565b38620010e7565b9081602091031262000b4c57516001600160a01b038116810362000b4c5790565b6001600160401b03811162000a8f5760051b60200190565b81601f8201121562000b4c578051620011738162000ae3565b9262001183604051948562000ac1565b8184526020828401011162000b4c57620011a4916020808501910162000b51565b90565b9060208282031262000b4c578151906001600160401b03821162000b4c5780601f83850101121562000b4c578183015190620011e38262001142565b93620011f3604051958662000ac1565b82855260208501938260208560051b83850101011162000b4c57602081830101945b60208560051b83850101018610620012305750505050505090565b85516001600160401b03811162000b4c578284010160809081601f19828803011262000b4c5760405191620012658362000aa5565b6020820151835260408201516020840152606090818301516001600160401b03811162000b4c578860206200129d928601016200115a565b6040850152820151916001600160401b03831162000b4c5787603f84830101121562000b4c5760208382010151620012d58162001142565b93620012e5604051958662000ac1565b81855260208501908a60408460051b83870101011162000b4c57604081850101915b60408460051b838701010183106200133057505050505082015281526020958601950162001215565b82516001600160401b03811162000b4c57602091620013588e60408594878b0101016200115a565b81520192019162001307565b9190820180921162000d7357565b906200137e8262001142565b60406200138e8151928362000ac1565b8382528193620013a1601f199162001142565b0191600090815b848110620013b7575050505050565b6020908451620013c78162000aa5565b8481528285818301526060808884015280830152828501015201620013a8565b805182101562000cc75760209160051b01019056fe608034620003e157601f906001600160401b0390601f199062001d9e3881900385810184168301919085831184841017620003cb578084926040948552833981010312620003e15780516020918201516001600160a01b03958682169592939291869003620003e15762000072620003e6565b92600a84526921b7b63632b1ba34b7b760b11b8185015262000093620003e6565b90600382526213919560ea1b81830152845196848811620003cb576000978854966001978881811c91168015620003c0575b85821014620003ac5790818784931162000359575b508490878311600114620002f8578b92620002ec575b5050600019600383901b1c191690871b1788555b8251948511620002d85785548681811c91168015620002cd575b83821014620002b95790818587969594931162000260575b5081938511600114620001fb5750508692620001ef575b5050600019600383901b1c191690821b1790555b3315620001d657600780546001600160a01b0319808216339081179093556040519690949291167f8be0079c531659141344cd1fd0a4f28419497f9722a3daafe3b4186f6b6457e08380a380600a55600b55662386f26fc10000600c5560095560085416176008556119979081620004078239f35b604051631e4fbdf760e01b815260048101839052602490fd5b0151905038806200014d565b869593929193168589528389209389905b8282106200024657505084116200022c575b505050811b01905562000161565b015160001960f88460031b161c191690553880806200021e565b84840151865588979095019493840193908101906200020c565b9091929394508689528289208580880160051c820192858910620002af575b9188978a9297969594930160051c01915b828110620002a057505062000136565b8b815588975089910162000290565b925081926200027f565b634e487b7160e01b89526022600452602489fd5b90607f16906200011e565b634e487b7160e01b88526041600452602488fd5b015190503880620000f0565b90848a9416918c8052868d20928d5b8882821062000342575050841162000328575b505050811b01885562000104565b015160001960f88460031b161c191690553880806200031a565b8385015186558d9790950194938401930162000307565b9091508a8052848b208780850160051c820192878610620003a2575b918b91869594930160051c01915b82811062000393575050620000da565b8d81558594508b910162000383565b9250819262000375565b634e487b7160e01b8b52602260045260248bfd5b90607f1690620000c5565b634e487b7160e01b600052604160045260246000fd5b600080fd5b60408051919082016001600160401b03811183821017620003cb5760405256fe6080604081815260048036101561001557600080fd5b600092833560e01c90816301ffc9a714610e725750806306fdde0314610deb578063081812fc14610db0578063095ea7b314610cd457806323b872dd14610cbc57806331abab7c146109fb57806342842e0e146109d257806343bc1612146109a95780635fec6e67146107205780636352211e14610978578063669f5a51146107d757806370a0823114610782578063715018a6146107255780637c26b48e14610720578063833b9499146107015780638da5cb5b146106d857806395d89b4114610616578063a22cb46514610579578063b88d4fde14610512578063c87b56dd146104ab578063d039aa96146103ff578063e985e9c5146103b1578063ee36675b146101b75763f2fde38b1461012b57600080fd5b346101b35760203660031901126101b357610144610f38565b9061014d611214565b6001600160a01b0391821692831561019d575050600780546001600160a01b031981168417909155167f8be0079c531659141344cd1fd0a4f28419497f9722a3daafe3b4186f6b6457e08380a380f35b51631e4fbdf760e01b8152908101849052602490fd5b8280fd5b50346101b357602092836003193601126103ae5781356001600160401b0381116103aa576101e8903690840161105d565b600a54600954908551906101fb82610fcf565b84825286519061020a82610f9e565b815287810192835286810193845260608101918252600d5493600160401b938486101561039757610242600196878101600d5561164f565b9390936103855751835551858301555160039190610263906002830161169b565b019051805192831161037257879082548484558085106102f8575b50019084528684208785925b8484106102db5750878787600d549160001983019283116102c85750506102b09061164f565b5050600a54906102bf8261179f565b600a5551908152f35b634e487b7160e01b825260119052602490fd5b8591816102ea8493518661169b565b01920192019190889061028a565b838752858584892092830192015b82811061031457505061027e565b9091929350876103248254611240565b80610337575b50500190858a9392610306565b8c601f8083116001146103515750505081555b873861032a565b610369918585528420920160051c8201858301611684565b8183555561034a565b634e487b7160e01b855260418652602485fd5b634e487b7160e01b8852878952602488fd5b634e487b7160e01b875260418852602487fd5b5080fd5b80fd5b5050346103aa57806003193601126103aa5760ff816020936103d1610f38565b6103d9610f53565b6001600160a01b0391821683526005875283832091168252855220549151911615158152f35b5082346103ae5761040f3661107b565b9091805b600d548110156104a757836104278261164f565b50541461043d575b6104389061179f565b610413565b60036104488261164f565b5001805490600160401b8210156104945790610469916001820181556117c4565b610482579061047b846104389361169b565b905061042f565b634e487b7160e01b8352828652602483fd5b634e487b7160e01b845260418752602484fd5b5080f35b50346101b35760203660031901126101b3579061050e926104e992356104d0816115fd565b50815260066020526104f082822083519485809261127a565b0384610fea565b81516104fb81610fcf565b5251918291602083526020830190610ef8565b0390f35b8382346103aa5760803660031901126103aa5761052d610f38565b610535610f53565b906064356001600160401b0381116105755736602382011215610575576105729381602461056893369301359101611026565b91604435916114af565b80f35b8480fd5b5090346101b357806003193601126101b357610593610f38565b9060243591821515809303610575576001600160a01b03169283156106015750338452600560205280842083855260205280842060ff1981541660ff8416179055519081527f17307eab39ab6107e8899845ad3d59bd9653f200f220920489ca2b5937696c3160203392a380f35b836024925191630b61174360e31b8352820152fd5b5050346103aa57816003193601126103aa5780519082600180549061063a82611240565b808652918181169081156106b05750600114610675575b5050506106638261050e940383610fea565b51918291602083526020830190610ef8565b80955082526020948583205b82841061069d575050508261050e946106639282010194610651565b8054868501880152928601928101610681565b61050e97506106639450602092508693915060ff191682840152151560051b82010194610651565b5050346103aa57816003193601126103aa5760075490516001600160a01b039091168152602090f35b5050346103aa57816003193601126103aa57602090600c549051908152f35b6110aa565b83346103ae57806003193601126103ae5761073e611214565b600780546001600160a01b0319811690915581906001600160a01b03167f8be0079c531659141344cd1fd0a4f28419497f9722a3daafe3b4186f6b6457e08280a380f35b5091346103ae5760203660031901126103ae576001600160a01b036107a5610f38565b169283156107c25750806020938392526003845220549051908152f35b91516322718ad960e21b815291820152602490fd5b50816003193601126101b3576107eb610f53565b92600c54341061093b576107ff82356118b7565b80516001600160a01b03959193918616908115610924578084526020966002885286852054169182151592836108f1575b81865260038952878620805460010190558286526002895287862080546001600160a01b031916831790557fddf252ad1be2c89b69c2b068fc378daa952ba7f163c4a11628f55a4df523b3ef8680a46108dc5750837ff8e1a15aba9398e019f0b49df1a4fde98ee17ae345cb5f6b5e2c27f5033e8ce7916108c0845191868087015191848152600686522061169b565b8451908152a16108d1600b5461179f565b600b55519051908152f35b6024918451916339e3563760e11b8352820152fd5b600083815260046020526040902080546001600160a01b0319169055808652600389528786208054600019019055610830565b8551633250574960e11b8152808401859052602490fd5b506020606492519162461bcd60e51b83528201526017602482015276115d1a195c881c185a59081a5cc81a5b98dbdc9c9958dd604a1b6044820152fd5b5091346103ae5760203660031901126103ae5750610998602092356115fd565b90516001600160a01b039091168152f35b5050346103aa57816003193601126103aa5760085490516001600160a01b039091168152602090f35b5050346103aa57610572906109e636610f69565b919251926109f384610fcf565b8584526114af565b509190346103aa57610a0c3661107b565b9390928092815b600d54811015610cb85785610a278261164f565b505414610a3d575b610a389061179f565b610a13565b9394825b610a4a8661164f565b50600380910154821015610caf57610a6d8282610a668a61164f565b50016117c4565b509084518a60209382610a89868201928784528a83019061127a565b0392610a9d601f1994858101835282610fea565b51902091610ac788519182610abb888201958987528c830190610ef8565b03908101835282610fea565b5190201480610ca7575b610ae6575b5050610ae19061179f565b610a41565b92989093919495969750610b0483610afd8a61164f565b50016117dc565b988951861015610ca357865b8a51811015610baa5786811015610b4e5780610b2f610b49928d61185b565b51610b3982611848565b52610b4381611848565b5061179f565b610b10565b868111610b5f575b610b499061179f565b610b69818c61185b565b51600019820190828211610b975781610b8f91610b89610b499594611848565b52611848565b509050610b56565b634e487b7160e01b8a5260118b5260248afd5b50929098509695949396929092610bc08761164f565b50606051910191600160401b8211610c90578254828455808310610c21575b5091855281852091859060805b838310610c05575050505050610ae16001969038610ad6565b60018282610c158394518961169b565b01950192019193610bec565b8387528282882091820191015b818110610c3b5750610bdf565b8088610c4960019354611240565b80610c57575b505001610c2e565b601f8082118514610c6e57505081555b8838610c4f565b610c8790848452878420920160051c8201858301611684565b81835555610c67565b634e487b7160e01b865260418752602486fd5b8680fd5b508815610ad1565b50509493610a2f565b8280f35b83346103ae57610572610cce36610f69565b91611310565b5090346101b357806003193601126101b357610cee610f38565b91602435610cfb816115fd565b33151580610d9d575b80610d74575b610d5e576001600160a01b039485169482918691167f8c5be1e5ebec7d5bd14f71427d1e84f3dd0314c0f7b2291e5b200ac8c7c3b9258880a48452602052822080546001600160a01b031916909117905580f35b835163a9fbf51f60e01b81523381850152602490fd5b506001600160a01b03811686526005602090815284872033885290528386205460ff1615610d0a565b506001600160a01b038116331415610d04565b50346101b35760203660031901126101b357918260209335610dd1816115fd565b50825283528190205490516001600160a01b039091168152f35b5050346103aa57816003193601126103aa57805190828054610e0c81611240565b808552906001908181169081156106b05750600114610e37575050506106638261050e940383610fea565b94508180526020948583205b828410610e5f575050508261050e946106639282010194610651565b8054868501880152928601928101610e43565b925050346101b35760203660031901126101b3573563ffffffff60e01b81168091036101b35760209250632483248360e11b8114908115610eb5575b5015158152f35b6380ac58cd60e01b811491508115610ee7575b8115610ed6575b5038610eae565b6301ffc9a760e01b14905038610ecf565b635b5e139f60e01b81149150610ec8565b919082519283825260005b848110610f24575050826000602080949584010152601f8019910116010190565b602081830181015184830182015201610f03565b600435906001600160a01b0382168203610f4e57565b600080fd5b602435906001600160a01b0382168203610f4e57565b6060906003190112610f4e576001600160a01b03906004358281168103610f4e57916024359081168103610f4e579060443590565b608081019081106001600160401b03821117610fb957604052565b634e487b7160e01b600052604160045260246000fd5b602081019081106001600160401b03821117610fb957604052565b90601f801991011681019081106001600160401b03821117610fb957604052565b6001600160401b038111610fb957601f01601f191660200190565b9291926110328261100b565b916110406040519384610fea565b829481845281830111610f4e578281602093846000960137010152565b9080601f83011215610f4e5781602061107893359101611026565b90565b906040600319830112610f4e5760043591602435906001600160401b038211610f4e576110789160040161105d565b34610f4e576000806003193601126103ae57600d54906110c982611638565b916040926110d984519182610fea565b818152600d8352602080820192847fd7b6990105719101dabeb77144f2a3385c8033acd3af97e9423a695e81ad1eb5855b8383106111ed575050505084519381850192828652518093528585016005968085891b8801019597835b8685106111415788880389f35b9091929394809697603f198a82030186528a51908151815282820151838201526111778683015160808089850152830190610ef8565b9060608093015192818303910152815180825283820190848082891b850101940192865b8281106111bf57505050505090806001929b01950195019398969594929190611134565b919395806111db6001939597601f198782030189528951610ef8565b970195019101918b959493919261119b565b600485600192611201859c98999a9c61186f565b815201920192019190979594939761110a565b6007546001600160a01b0316330361122857565b60405163118cdaa760e01b8152336004820152602490fd5b90600182811c92168015611270575b602083101461125a57565b634e487b7160e01b600052602260045260246000fd5b91607f169161124f565b906000929180549161128b83611240565b9182825260019384811690816000146112ed57506001146112ad575b50505050565b90919394506000526020928360002092846000945b8386106112d95750505050010190388080806112a7565b8054858701830152940193859082016112c2565b9294505050602093945060ff191683830152151560051b010190388080806112a7565b6001600160a01b03918216929091831561149657600092828452826020956002875260409684888820541696879133151580611400575b509060027fddf252ad1be2c89b69c2b068fc378daa952ba7f163c4a11628f55a4df523b3ef92846113cd575b858352600381528b8320805460010190558683525289812080546001600160a01b0319168517905580a416928383036113ac5750505050565b6064945051926364283d7b60e01b8452600484015260248301526044820152fd5b600087815260046020526040902080546001600160a01b0319169055848352600381528b83208054600019019055611373565b91939450915080611455575b1561141c57859291879138611347565b878688611439576024915190637e27328960e01b82526004820152fd5b604491519063177e802f60e01b82523360048301526024820152fd5b50338714801561147a575b8061140c575085825260048152338589842054161461140c565b5086825260058152878220338352815260ff8883205416611460565b604051633250574960e11b815260006004820152602490fd5b6114ba838383611310565b813b6114c65750505050565b604051630a85bd0160e11b8082523360048301526001600160a01b03928316602483015260448201949094526080606482015260209592909116939092908390611514906084830190610ef8565b039285816000958187895af18491816115bd575b50611588575050503d600014611580573d6115428161100b565b906115506040519283610fea565b81528091843d92013e5b8051928361157b57604051633250574960e11b815260048101849052602490fd5b019050fd5b50606061155a565b919450915063ffffffff60e01b16036115a55750388080806112a7565b60249060405190633250574960e11b82526004820152fd5b9091508681813d83116115f6575b6115d58183610fea565b8101031261057557516001600160e01b031981168103610575579038611528565b503d6115cb565b6000818152600260205260409020546001600160a01b0316908115611620575090565b60249060405190637e27328960e01b82526004820152fd5b6001600160401b038111610fb95760051b60200190565b600d5481101561166e57600d60005260206000209060021b0190600090565b634e487b7160e01b600052603260045260246000fd5b81811061168f575050565b60008155600101611684565b91909182516001600160401b038111610fb9576116b88254611240565b601f8111611762575b50602080601f83116001146116fe5750819293946000926116f3575b50508160011b916000199060031b1c1916179055565b0151905038806116dd565b90601f198316958460005282600020926000905b88821061174a57505083600195969710611731575b505050811b019055565b015160001960f88460031b161c19169055388080611727565b80600185968294968601518155019501930190611712565b61178f90836000526020600020601f840160051c81019160208510611795575b601f0160051c0190611684565b386116c1565b9091508190611782565b60001981146117ae5760010190565b634e487b7160e01b600052601160045260246000fd5b805482101561166e5760005260206000200190600090565b9081546117e881611638565b926040936117f885519182610fea565b828152809460208092019260005281600020906000935b85851061181e57505050505050565b6001848192845161183a81611833818a61127a565b0382610fea565b81520193019401939161180f565b60605181101561166e5760051b60800190565b805182101561166e5760209160051b010190565b9060405161187c81610f9e565b60606118b26003839580548552600181015460208601526040516118a781611833816002860161127a565b6040860152016117dc565b910152565b6040908151906118c682610f9e565b606080600093848152846020820152818682015201528190600d54915b82811061192a575050508151906118f982610fcf565b80825282519261190884610f9e565b81845281602085015280519161191d83610fcf565b8252830152606082015290565b816119348261164f565b505414611949576119449061179f565b6118e3565b915050611078925061195b915061164f565b5061186f56fea2646970667358221220f41772b4fdf3a2e170cd46c5faf518acb2a7771dd4635a1772e4a2613b2dfa8164736f6c63430008140033a264697066735822122001bc28acee8c5b5aefdbb14fe5a383ba8a7d0ba659def114514529d13372a85264736f6c63430008140033","opcodes":"PUSH1 0x80 DUP1 PUSH1 0x40 MSTORE CALLVALUE PUSH2 0x7F JUMPI CALLER ISZERO PUSH2 0x69 JUMPI PUSH1 0x0 DUP1 SLOAD CALLER PUSH1 0x1 PUSH1 0x1 PUSH1 0xA0 SHL SUB NOT DUP3 AND DUP2 OR DUP4 SSTORE PUSH1 0x40 MLOAD SWAP3 SWAP1 SWAP2 PUSH1 0x1 PUSH1 0x1 PUSH1 0xA0 SHL SUB AND SWAP1 PUSH32 0x8BE0079C531659141344CD1FD0A4F28419497F9722A3DAAFE3B4186F6B6457E0 SWAP1 DUP1 LOG3 PUSH1 0x0 PUSH1 0x3 SSTORE PUSH2 0x31D0 SWAP1 DUP2 PUSH2 0x85 DUP3 CODECOPY RETURN JUMPDEST PUSH4 0x1E4FBDF7 PUSH1 0xE0 SHL DUP2 MSTORE PUSH1 0x0 PUSH1 0x4 DUP3 ADD MSTORE PUSH1 0x24 SWAP1 REVERT JUMPDEST PUSH1 0x0 DUP1 REVERT INVALID PUSH1 0x40 PUSH1 0x80 DUP2 MSTORE PUSH1 0x4 SWAP1 DUP2 CALLDATASIZE LT ISZERO PUSH3 0x16 JUMPI PUSH1 0x0 DUP1 REVERT JUMPDEST PUSH1 0x0 SWAP2 DUP3 CALLDATALOAD PUSH1 0xE0 SHR DUP1 PUSH4 0xE8AEF77 EQ PUSH3 0xA31 JUMPI DUP1 PUSH4 0x5FEC6E67 EQ PUSH3 0x87E JUMPI DUP1 PUSH4 0x715018A6 EQ PUSH3 0x820 JUMPI DUP1 PUSH4 0x8DA5CB5B EQ PUSH3 0x7F6 JUMPI DUP1 PUSH4 0x8DB77CCE EQ PUSH3 0x513 JUMPI DUP1 PUSH4 0xC48283FF EQ PUSH3 0x468 JUMPI DUP1 PUSH4 0xD6FAD3AE EQ PUSH3 0x299 JUMPI DUP1 PUSH4 0xDA58C7D9 EQ PUSH3 0x179 JUMPI DUP1 PUSH4 0xF2FDE38B EQ PUSH3 0xE5 JUMPI PUSH4 0xFDBDA0EC EQ PUSH3 0x9A JUMPI PUSH1 0x0 DUP1 REVERT JUMPDEST CALLVALUE PUSH3 0xE1 JUMPI PUSH1 0x20 CALLDATASIZE PUSH1 0x3 NOT ADD SLT PUSH3 0xE1 JUMPI CALLDATALOAD SWAP2 PUSH1 0x1 SLOAD DUP4 LT ISZERO PUSH3 0xDE JUMPI POP PUSH3 0xC8 PUSH1 0x20 SWAP3 PUSH3 0xD1A JUMP JUMPDEST SWAP1 SLOAD SWAP2 MLOAD SWAP2 PUSH1 0x1 DUP1 PUSH1 0xA0 SHL SUB SWAP2 PUSH1 0x3 SHL SHR AND DUP2 MSTORE RETURN JUMPDEST DUP1 REVERT JUMPDEST DUP3 DUP1 REVERT JUMPDEST POP SWAP1 CALLVALUE PUSH3 0xE1 JUMPI PUSH1 0x20 CALLDATASIZE PUSH1 0x3 NOT ADD SLT PUSH3 0xE1 JUMPI PUSH1 0x1 PUSH1 0x1 PUSH1 0xA0 SHL SUB DUP3 CALLDATALOAD DUP2 DUP2 AND SWAP4 SWAP2 SWAP3 SWAP1 DUP5 SWAP1 SUB PUSH3 0x175 JUMPI PUSH3 0x11D PUSH3 0xD36 JUMP JUMPDEST DUP4 ISZERO PUSH3 0x15F JUMPI POP POP DUP3 SLOAD PUSH1 0x1 PUSH1 0x1 PUSH1 0xA0 SHL SUB NOT DUP2 AND DUP4 OR DUP5 SSTORE AND PUSH32 0x8BE0079C531659141344CD1FD0A4F28419497F9722A3DAAFE3B4186F6B6457E0 DUP4 DUP1 LOG3 DUP1 RETURN JUMPDEST MLOAD PUSH4 0x1E4FBDF7 PUSH1 0xE0 SHL DUP2 MSTORE SWAP1 DUP2 ADD DUP5 SWAP1 MSTORE PUSH1 0x24 SWAP1 REVERT JUMPDEST DUP5 DUP1 REVERT JUMPDEST POP SWAP2 SWAP1 CALLVALUE PUSH3 0x295 JUMPI PUSH1 0x20 SWAP3 DUP4 PUSH1 0x3 NOT CALLDATASIZE ADD SLT PUSH3 0xE1 JUMPI CALLDATALOAD PUSH1 0x2 SLOAD DUP2 LT ISZERO PUSH3 0xE1 JUMPI PUSH3 0x1A8 SWAP1 PUSH3 0xC8D JUMP JUMPDEST POP SWAP1 DUP2 SLOAD SWAP2 PUSH1 0x1 SWAP2 DUP3 DUP3 ADD SLOAD PUSH1 0x3 PUSH1 0x1 DUP1 PUSH1 0xA0 SHL SUB PUSH1 0x2 DUP6 ADD SLOAD AND SWAP4 ADD DUP8 DUP4 MLOAD SWAP6 DUP9 DUP4 SLOAD SWAP4 PUSH3 0x1D8 DUP6 PUSH3 0xCDD JUMP JUMPDEST DUP1 DUP11 MSTORE SWAP5 DUP4 DUP2 AND SWAP1 DUP2 ISZERO PUSH3 0x26D JUMPI POP PUSH1 0x1 EQ PUSH3 0x22C JUMPI JUMPDEST POP POP POP POP POP PUSH3 0x209 DUP5 PUSH3 0x228 SWAP7 SWAP8 SUB DUP6 PUSH3 0xAC1 JUMP JUMPDEST DUP2 MLOAD SWAP7 DUP8 SWAP7 DUP8 MSTORE DUP7 ADD MSTORE DUP5 ADD MSTORE PUSH1 0x80 PUSH1 0x60 DUP5 ADD MSTORE PUSH1 0x80 DUP4 ADD SWAP1 PUSH3 0xB76 JUMP JUMPDEST SUB SWAP1 RETURN JUMPDEST SWAP1 DUP1 SWAP5 SWAP4 SWAP11 POP MSTORE DUP9 DUP4 KECCAK256 JUMPDEST DUP3 DUP5 LT PUSH3 0x259 JUMPI POP POP POP DUP5 ADD SWAP1 SWAP6 ADD SWAP5 PUSH3 0x209 DUP8 PUSH3 0x228 DUP7 CODESIZE PUSH3 0x1F1 JUMP JUMPDEST DUP1 SLOAD DUP9 DUP6 ADD DUP12 ADD MSTORE SWAP3 DUP10 ADD SWAP3 DUP2 ADD PUSH3 0x237 JUMP JUMPDEST PUSH1 0xFF NOT AND DUP6 DUP12 ADD MSTORE POP POP POP POP SWAP1 ISZERO ISZERO PUSH1 0x5 SHL DUP6 ADD ADD SWAP6 POP PUSH3 0x209 DUP8 PUSH3 0x228 DUP7 CODESIZE PUSH3 0x1F1 JUMP JUMPDEST POP DUP1 REVERT JUMPDEST POP CALLVALUE PUSH3 0xE1 JUMPI PUSH1 0x20 SWAP3 DUP4 PUSH1 0x3 NOT CALLDATASIZE ADD SLT PUSH3 0xDE JUMPI PUSH1 0x1 PUSH1 0x1 PUSH1 0x40 SHL SUB SWAP2 DUP1 CALLDATALOAD DUP4 DUP2 GT PUSH3 0xE1 JUMPI PUSH3 0x2D1 SWAP1 CALLDATASIZE SWAP1 DUP4 ADD PUSH3 0xAFF JUMP JUMPDEST PUSH1 0x3 SLOAD DUP6 MLOAD SWAP2 SWAP5 PUSH2 0x1D9E DUP1 DUP5 ADD SWAP3 SWAP2 DUP4 GT DUP5 DUP5 LT OR PUSH3 0x455 JUMPI SWAP2 PUSH3 0x307 SWAP2 DUP5 SWAP4 PUSH3 0x13FD DUP6 CODECOPY DUP2 MSTORE CALLER PUSH1 0x20 DUP3 ADD MSTORE PUSH1 0x40 ADD SWAP1 JUMP JUMPDEST SUB SWAP1 DUP4 CREATE DUP1 ISZERO PUSH3 0x44B JUMPI PUSH1 0x1 SLOAD PUSH1 0x1 PUSH1 0x40 SHL DUP2 LT ISZERO PUSH3 0x438 JUMPI DUP7 PUSH3 0x339 DUP3 PUSH1 0x1 PUSH3 0x378 SWAP5 ADD PUSH1 0x1 SSTORE PUSH3 0xD1A JUMP JUMPDEST SWAP7 SWAP1 PUSH1 0x1 DUP1 PUSH1 0xA0 SHL SUB DUP1 SWAP6 AND SWAP8 DUP2 SLOAD SWAP1 PUSH1 0x3 SHL SWAP1 DUP7 DUP11 DUP4 SHL SWAP3 SHL NOT AND OR SWAP1 SSTORE DUP8 MLOAD DUP1 SWAP4 DUP2 SWAP3 PUSH4 0xEE36675B PUSH1 0xE0 SHL DUP4 MSTORE DUP5 DUP9 DUP5 ADD MSTORE PUSH1 0x24 DUP4 ADD SWAP1 PUSH3 0xB76 JUMP JUMPDEST SUB DUP2 DUP8 DUP10 GAS CALL DUP1 ISZERO PUSH3 0x42E JUMPI SWAP1 DUP8 SWAP2 PUSH3 0x3FF JUMPI JUMPDEST POP POP DUP3 SLOAD AND SWAP1 DUP4 EXTCODESIZE ISZERO PUSH3 0xE1 JUMPI SWAP1 PUSH1 0x24 DUP4 SWAP3 DUP4 DUP8 MLOAD SWAP7 DUP8 SWAP5 DUP6 SWAP4 PUSH4 0xF2FDE38B PUSH1 0xE0 SHL DUP6 MSTORE DUP5 ADD MSTORE GAS CALL SWAP1 DUP2 ISZERO PUSH3 0x3F4 JUMPI POP PUSH3 0x3E2 JUMPI JUMPDEST POP PUSH3 0x3D5 PUSH1 0x3 SLOAD PUSH3 0xD63 JUMP JUMPDEST PUSH1 0x3 SSTORE PUSH1 0x1 SLOAD SWAP1 MLOAD SWAP1 DUP2 MSTORE RETURN JUMPDEST PUSH3 0x3ED SWAP1 PUSH3 0xA7B JUMP JUMPDEST CODESIZE PUSH3 0x3C7 JUMP JUMPDEST DUP4 MLOAD SWAP1 RETURNDATASIZE SWAP1 DUP3 RETURNDATACOPY RETURNDATASIZE SWAP1 REVERT JUMPDEST DUP2 RETURNDATASIZE DUP4 GT PUSH3 0x426 JUMPI JUMPDEST PUSH3 0x415 DUP2 DUP4 PUSH3 0xAC1 JUMP JUMPDEST DUP2 ADD SUB SLT PUSH3 0xE1 JUMPI DUP6 CODESIZE PUSH3 0x38E JUMP JUMPDEST POP RETURNDATASIZE PUSH3 0x409 JUMP JUMPDEST DUP7 MLOAD RETURNDATASIZE DUP7 DUP3 RETURNDATACOPY RETURNDATASIZE SWAP1 REVERT JUMPDEST PUSH4 0x4E487B71 PUSH1 0xE0 SHL DUP5 MSTORE PUSH1 0x41 DUP4 MSTORE PUSH1 0x24 DUP5 REVERT JUMPDEST DUP5 MLOAD RETURNDATASIZE DUP5 DUP3 RETURNDATACOPY RETURNDATASIZE SWAP1 REVERT JUMPDEST PUSH4 0x4E487B71 PUSH1 0xE0 SHL DUP7 MSTORE PUSH1 0x41 DUP6 MSTORE PUSH1 0x24 DUP7 REVERT JUMPDEST POP SWAP1 DUP1 PUSH1 0x3 NOT CALLDATASIZE ADD SLT PUSH3 0xE1 JUMPI PUSH1 0x20 PUSH3 0x4B5 PUSH3 0x488 DUP5 CALLDATALOAD PUSH3 0xD1A JUMP JUMPDEST SWAP1 SLOAD DUP5 MLOAD PUSH4 0x669F5A51 PUSH1 0xE0 SHL DUP2 MSTORE PUSH1 0x24 CALLDATALOAD SWAP7 DUP2 ADD SWAP7 DUP8 MSTORE CALLER PUSH1 0x20 DUP9 ADD MSTORE SWAP6 DUP7 SWAP4 DUP5 SWAP3 SWAP2 DUP4 SWAP2 PUSH1 0x40 SWAP1 SWAP2 ADD SWAP1 JUMP JUMPDEST SUB SWAP3 CALLVALUE SWAP2 PUSH1 0x3 SWAP2 SWAP1 SWAP2 SHL SHR PUSH1 0x1 PUSH1 0x1 PUSH1 0xA0 SHL SUB AND GAS CALL SWAP1 DUP2 ISZERO PUSH3 0x50A JUMPI POP PUSH3 0x4DD JUMPI POP DUP1 RETURN JUMPDEST PUSH1 0x20 SWAP1 DUP2 RETURNDATASIZE DUP2 GT PUSH3 0x502 JUMPI JUMPDEST PUSH3 0x4F6 DUP2 DUP4 PUSH3 0xAC1 JUMP JUMPDEST DUP2 ADD SUB SLT PUSH3 0xDE JUMPI DUP1 RETURN JUMPDEST POP RETURNDATASIZE PUSH3 0x4EA JUMP JUMPDEST MLOAD RETURNDATASIZE DUP5 DUP3 RETURNDATACOPY RETURNDATASIZE SWAP1 REVERT JUMPDEST POP SWAP2 SWAP1 CALLVALUE PUSH3 0x295 JUMPI PUSH1 0x20 SWAP2 DUP3 PUSH1 0x3 NOT CALLDATASIZE ADD SLT PUSH3 0xDE JUMPI PUSH1 0x1 PUSH1 0x1 PUSH1 0xA0 SHL SUB DUP5 CALLDATALOAD DUP2 DUP2 AND SWAP6 SWAP2 SWAP3 SWAP1 DUP7 SWAP1 SUB PUSH3 0xDE JUMPI PUSH1 0x1 DUP1 SLOAD SWAP4 SWAP1 SWAP3 SWAP1 DUP3 DUP1 JUMPDEST DUP7 DUP3 LT PUSH3 0x6F4 JUMPI PUSH3 0x563 SWAP2 POP PUSH3 0x1372 JUMP JUMPDEST SWAP7 DUP4 SWAP9 DUP5 JUMPDEST DUP8 DUP2 LT PUSH3 0x57F JUMPI DUP9 MLOAD DUP1 PUSH3 0x228 DUP13 DUP3 PUSH3 0xB9D JUMP JUMPDEST DUP3 DUP5 PUSH3 0x58C DUP4 PUSH3 0xD1A JUMP JUMPDEST SWAP3 SWAP1 SLOAD DUP9 DUP14 MLOAD DUP1 SWAP5 DUP2 SWAP4 PUSH4 0x21DE0B09 PUSH1 0xE1 SHL DUP4 MSTORE PUSH1 0x3 SWAP8 DUP9 SHL SHR AND GAS STATICCALL SWAP1 DUP2 ISZERO PUSH3 0x6EA JUMPI DUP8 SWAP3 DUP6 DUP9 DUP12 SWAP5 DUP2 SWAP5 DUP7 SWAP2 PUSH3 0x6B6 JUMPI JUMPDEST POP AND EQ PUSH3 0x5DF JUMPI JUMPDEST POP POP POP POP PUSH3 0x5D9 SWAP1 PUSH3 0xD63 JUMP JUMPDEST PUSH3 0x568 JUMP JUMPDEST PUSH3 0x5EA DUP6 PUSH3 0xD1A JUMP JUMPDEST SWAP1 SLOAD SWAP2 SHL SHR AND DUP12 MLOAD SWAP3 DUP4 DUP1 SWAP3 PUSH4 0x3E135A47 PUSH1 0xE1 SHL DUP3 MSTORE GAS STATICCALL SWAP1 DUP2 ISZERO PUSH3 0x6AC JUMPI SWAP1 DUP9 SWAP2 DUP9 SWAP2 PUSH3 0x685 JUMPI JUMPDEST POP DUP8 SWAP2 JUMPDEST PUSH3 0x62A JUMPI JUMPDEST POP DUP7 DUP6 DUP8 SWAP3 PUSH3 0x5CA JUMP JUMPDEST SWAP1 SWAP12 DUP2 MLOAD DUP14 LT ISZERO PUSH3 0x67E JUMPI SWAP1 PUSH3 0x677 PUSH3 0x670 DUP4 DUP16 DUP16 SWAP6 DUP14 SWAP7 PUSH3 0x655 PUSH3 0x669 SWAP4 DUP9 PUSH3 0x13E7 JUMP JUMPDEST MLOAD PUSH3 0x662 DUP4 DUP4 PUSH3 0x13E7 JUMP JUMPDEST MSTORE PUSH3 0x13E7 JUMP JUMPDEST POP PUSH3 0xD63 JUMP JUMPDEST SWAP14 PUSH3 0xD63 JUMP JUMPDEST SWAP2 PUSH3 0x619 JUMP JUMPDEST SWAP12 PUSH3 0x61F JUMP JUMPDEST PUSH3 0x6A5 SWAP2 POP RETURNDATASIZE DUP1 DUP11 DUP4 RETURNDATACOPY PUSH3 0x69C DUP2 DUP4 PUSH3 0xAC1 JUMP JUMPDEST DUP2 ADD SWAP1 PUSH3 0x11A7 JUMP JUMPDEST CODESIZE PUSH3 0x615 JUMP JUMPDEST DUP11 MLOAD RETURNDATASIZE DUP10 DUP3 RETURNDATACOPY RETURNDATASIZE SWAP1 REVERT JUMPDEST PUSH3 0x6DB SWAP2 POP DUP11 RETURNDATASIZE DUP13 GT PUSH3 0x6E2 JUMPI JUMPDEST PUSH3 0x6D2 DUP2 DUP4 PUSH3 0xAC1 JUMP JUMPDEST DUP2 ADD SWAP1 PUSH3 0x1121 JUMP JUMPDEST CODESIZE PUSH3 0x5C1 JUMP JUMPDEST POP RETURNDATASIZE PUSH3 0x6C6 JUMP JUMPDEST DUP12 MLOAD RETURNDATASIZE DUP11 DUP3 RETURNDATACOPY RETURNDATASIZE SWAP1 REVERT JUMPDEST DUP9 DUP4 PUSH3 0x701 DUP5 PUSH3 0xD1A JUMP JUMPDEST SWAP3 SWAP1 SLOAD DUP8 DUP13 MLOAD DUP1 SWAP5 DUP2 SWAP4 PUSH4 0x21DE0B09 PUSH1 0xE1 SHL DUP4 MSTORE PUSH1 0x3 SWAP8 DUP9 SHL SHR AND GAS STATICCALL SWAP1 DUP2 ISZERO PUSH3 0x6AC JUMPI DUP7 SWAP3 DUP14 DUP8 DUP11 SWAP5 DUP16 SWAP5 DUP3 SWAP6 DUP8 SWAP3 PUSH3 0x7D4 JUMPI JUMPDEST POP POP AND EQ PUSH3 0x759 JUMPI JUMPDEST POP POP POP POP SWAP1 PUSH3 0x752 SWAP1 PUSH3 0xD63 JUMP JUMPDEST SWAP1 PUSH3 0x54F JUMP JUMPDEST PUSH3 0x764 DUP7 PUSH3 0xD1A JUMP JUMPDEST SWAP1 SLOAD SWAP2 SHL SHR AND DUP11 MLOAD SWAP3 DUP4 DUP1 SWAP3 PUSH4 0x3E135A47 PUSH1 0xE1 SHL DUP3 MSTORE GAS STATICCALL SWAP1 DUP2 ISZERO PUSH3 0x7CA JUMPI SWAP2 PUSH3 0x7A0 SWAP2 PUSH3 0x752 SWAP4 DUP9 SWAP2 PUSH3 0x7AC JUMPI JUMPDEST POP MLOAD SWAP1 PUSH3 0x1364 JUMP JUMPDEST SWAP1 POP DUP4 DUP6 DUP5 CODESIZE PUSH3 0x742 JUMP JUMPDEST PUSH3 0x7C3 SWAP2 POP RETURNDATASIZE DUP1 DUP11 DUP4 RETURNDATACOPY PUSH3 0x69C DUP2 DUP4 PUSH3 0xAC1 JUMP JUMPDEST CODESIZE PUSH3 0x797 JUMP JUMPDEST DUP10 MLOAD RETURNDATASIZE DUP9 DUP3 RETURNDATACOPY RETURNDATASIZE SWAP1 REVERT JUMPDEST PUSH3 0x7EE SWAP3 POP DUP1 RETURNDATASIZE LT PUSH3 0x6E2 JUMPI PUSH3 0x6D2 DUP2 DUP4 PUSH3 0xAC1 JUMP JUMPDEST DUP16 DUP1 PUSH3 0x738 JUMP JUMPDEST POP POP CALLVALUE PUSH3 0x295 JUMPI DUP2 PUSH1 0x3 NOT CALLDATASIZE ADD SLT PUSH3 0x295 JUMPI SWAP1 SLOAD SWAP1 MLOAD PUSH1 0x1 PUSH1 0x1 PUSH1 0xA0 SHL SUB SWAP1 SWAP2 AND DUP2 MSTORE PUSH1 0x20 SWAP1 RETURN JUMPDEST DUP4 CALLVALUE PUSH3 0xDE JUMPI DUP1 PUSH1 0x3 NOT CALLDATASIZE ADD SLT PUSH3 0xDE JUMPI PUSH3 0x83D PUSH3 0xD36 JUMP JUMPDEST DUP1 SLOAD PUSH1 0x1 PUSH1 0x1 PUSH1 0xA0 SHL SUB NOT DUP2 AND DUP3 SSTORE DUP2 SWAP1 PUSH1 0x1 PUSH1 0x1 PUSH1 0xA0 SHL SUB AND PUSH32 0x8BE0079C531659141344CD1FD0A4F28419497F9722A3DAAFE3B4186F6B6457E0 DUP3 DUP1 LOG3 DUP1 RETURN JUMPDEST POP SWAP2 SWAP1 CALLVALUE PUSH3 0x295 JUMPI DUP2 PUSH1 0x3 NOT CALLDATASIZE ADD SLT PUSH3 0x295 JUMPI PUSH1 0x1 DUP1 SLOAD SWAP1 DUP4 DUP1 JUMPDEST DUP4 DUP3 LT PUSH3 0x9AB JUMPI PUSH3 0x8AF SWAP2 POP PUSH3 0x1372 JUMP JUMPDEST SWAP4 DUP1 SWAP6 DUP2 JUMPDEST DUP5 DUP2 LT PUSH3 0x8CB JUMPI DUP6 MLOAD DUP1 PUSH3 0x228 DUP10 DUP3 PUSH3 0xB9D JUMP JUMPDEST DUP3 PUSH3 0x8D7 DUP3 PUSH3 0xD1A JUMP JUMPDEST SWAP1 SLOAD DUP9 MLOAD PUSH4 0x5FEC6E67 PUSH1 0xE0 SHL DUP2 MSTORE SWAP3 SWAP2 DUP4 SWAP2 DUP7 SWAP2 DUP4 SWAP2 PUSH1 0x3 SWAP2 SWAP1 SWAP2 SHL SHR PUSH1 0x1 PUSH1 0x1 PUSH1 0xA0 SHL SUB AND GAS STATICCALL SWAP1 DUP2 ISZERO PUSH3 0x9A1 JUMPI SWAP1 DUP6 SWAP2 DUP6 SWAP2 PUSH3 0x983 JUMPI JUMPDEST POP DUP5 SWAP2 JUMPDEST PUSH3 0x92F JUMPI JUMPDEST POP POP PUSH3 0x929 SWAP1 PUSH3 0xD63 JUMP JUMPDEST PUSH3 0x8B4 JUMP JUMPDEST SWAP1 SWAP9 DUP2 MLOAD DUP11 LT ISZERO PUSH3 0x97C JUMPI SWAP1 PUSH3 0x975 PUSH3 0x96E DUP4 DUP12 PUSH3 0x961 DUP11 SWAP7 DUP16 PUSH3 0x959 SWAP1 DUP9 PUSH3 0x13E7 JUMP JUMPDEST MLOAD SWAP3 PUSH3 0x13E7 JUMP JUMPDEST MSTORE PUSH3 0x669 DUP2 DUP14 PUSH3 0x13E7 JUMP JUMPDEST SWAP11 PUSH3 0xD63 JUMP JUMPDEST SWAP2 PUSH3 0x916 JUMP JUMPDEST SWAP9 PUSH3 0x91C JUMP JUMPDEST PUSH3 0x99A SWAP2 POP RETURNDATASIZE DUP1 DUP8 DUP4 RETURNDATACOPY PUSH3 0x69C DUP2 DUP4 PUSH3 0xAC1 JUMP JUMPDEST CODESIZE PUSH3 0x912 JUMP JUMPDEST DUP8 MLOAD RETURNDATASIZE DUP7 DUP3 RETURNDATACOPY RETURNDATASIZE SWAP1 REVERT JUMPDEST DUP6 PUSH3 0x9B7 DUP4 PUSH3 0xD1A JUMP JUMPDEST SWAP1 SLOAD DUP8 MLOAD PUSH4 0x5FEC6E67 PUSH1 0xE0 SHL DUP2 MSTORE SWAP3 SWAP2 DUP4 SWAP2 DUP12 SWAP2 DUP4 SWAP2 PUSH1 0x3 SWAP2 SWAP1 SWAP2 SHL SHR PUSH1 0x1 PUSH1 0x1 PUSH1 0xA0 SHL SUB AND GAS STATICCALL SWAP1 DUP2 ISZERO PUSH3 0xA27 JUMPI SWAP2 PUSH3 0xA02 SWAP2 PUSH3 0xA09 SWAP4 DUP10 SWAP2 PUSH3 0xA10 JUMPI POP MLOAD SWAP1 PUSH3 0x1364 JUMP JUMPDEST SWAP2 PUSH3 0xD63 JUMP JUMPDEST SWAP1 PUSH3 0x89B JUMP JUMPDEST PUSH3 0x7C3 SWAP2 POP RETURNDATASIZE DUP1 DUP12 DUP4 RETURNDATACOPY PUSH3 0x69C DUP2 DUP4 PUSH3 0xAC1 JUMP JUMPDEST DUP7 MLOAD RETURNDATASIZE DUP10 DUP3 RETURNDATACOPY RETURNDATASIZE SWAP1 REVERT JUMPDEST DUP4 DUP3 CALLVALUE PUSH3 0x295 JUMPI PUSH1 0x60 CALLDATASIZE PUSH1 0x3 NOT ADD SLT PUSH3 0x295 JUMPI PUSH1 0x44 CALLDATALOAD SWAP1 PUSH1 0x1 PUSH1 0x1 PUSH1 0x40 SHL SUB DUP3 GT PUSH3 0xE1 JUMPI PUSH3 0xA6C PUSH3 0xA78 SWAP3 CALLDATASIZE SWAP1 DUP4 ADD PUSH3 0xAFF JUMP JUMPDEST SWAP1 PUSH1 0x24 CALLDATALOAD SWAP1 CALLDATALOAD PUSH3 0xEF9 JUMP JUMPDEST DUP1 RETURN JUMPDEST PUSH1 0x1 PUSH1 0x1 PUSH1 0x40 SHL SUB DUP2 GT PUSH3 0xA8F JUMPI PUSH1 0x40 MSTORE JUMP JUMPDEST PUSH4 0x4E487B71 PUSH1 0xE0 SHL PUSH1 0x0 MSTORE PUSH1 0x41 PUSH1 0x4 MSTORE PUSH1 0x24 PUSH1 0x0 REVERT JUMPDEST PUSH1 0x80 DUP2 ADD SWAP1 DUP2 LT PUSH1 0x1 PUSH1 0x1 PUSH1 0x40 SHL SUB DUP3 GT OR PUSH3 0xA8F JUMPI PUSH1 0x40 MSTORE JUMP JUMPDEST SWAP1 PUSH1 0x1F DUP1 NOT SWAP2 ADD AND DUP2 ADD SWAP1 DUP2 LT PUSH1 0x1 PUSH1 0x1 PUSH1 0x40 SHL SUB DUP3 GT OR PUSH3 0xA8F JUMPI PUSH1 0x40 MSTORE JUMP JUMPDEST PUSH1 0x1 PUSH1 0x1 PUSH1 0x40 SHL SUB DUP2 GT PUSH3 0xA8F JUMPI PUSH1 0x1F ADD PUSH1 0x1F NOT AND PUSH1 0x20 ADD SWAP1 JUMP JUMPDEST DUP2 PUSH1 0x1F DUP3 ADD SLT ISZERO PUSH3 0xB4C JUMPI DUP1 CALLDATALOAD SWAP1 PUSH3 0xB19 DUP3 PUSH3 0xAE3 JUMP JUMPDEST SWAP3 PUSH3 0xB29 PUSH1 0x40 MLOAD SWAP5 DUP6 PUSH3 0xAC1 JUMP JUMPDEST DUP3 DUP5 MSTORE PUSH1 0x20 DUP4 DUP4 ADD ADD GT PUSH3 0xB4C JUMPI DUP2 PUSH1 0x0 SWAP3 PUSH1 0x20 DUP1 SWAP4 ADD DUP4 DUP7 ADD CALLDATACOPY DUP4 ADD ADD MSTORE SWAP1 JUMP JUMPDEST PUSH1 0x0 DUP1 REVERT JUMPDEST PUSH1 0x0 JUMPDEST DUP4 DUP2 LT PUSH3 0xB65 JUMPI POP POP PUSH1 0x0 SWAP2 ADD MSTORE JUMP JUMPDEST DUP2 DUP2 ADD MLOAD DUP4 DUP3 ADD MSTORE PUSH1 0x20 ADD PUSH3 0xB54 JUMP JUMPDEST SWAP1 PUSH1 0x20 SWAP2 PUSH3 0xB91 DUP2 MLOAD DUP1 SWAP3 DUP2 DUP6 MSTORE DUP6 DUP1 DUP7 ADD SWAP2 ADD PUSH3 0xB51 JUMP JUMPDEST PUSH1 0x1F ADD PUSH1 0x1F NOT AND ADD ADD SWAP1 JUMP JUMPDEST PUSH1 0x20 DUP1 DUP3 ADD SWAP1 DUP1 DUP4 MSTORE DUP4 MLOAD DUP1 SWAP3 MSTORE PUSH1 0x40 SWAP3 DUP4 DUP2 ADD PUSH1 0x5 SWAP5 DUP4 DUP2 DUP7 DUP9 SHL DUP6 ADD ADD SWAP8 ADD SWAP6 PUSH1 0x0 DUP1 SWAP5 JUMPDEST DUP8 DUP7 LT PUSH3 0xBD8 JUMPI POP POP POP POP POP POP POP POP POP SWAP1 JUMP JUMPDEST SWAP1 SWAP2 SWAP3 SWAP4 SWAP5 SWAP6 DUP1 SWAP8 SWAP9 SWAP10 PUSH1 0x3F NOT DUP4 DUP3 SUB ADD DUP8 MSTORE DUP11 MLOAD SWAP1 DUP2 MLOAD DUP2 MSTORE DUP3 DUP3 ADD MLOAD DUP4 DUP3 ADD MSTORE PUSH3 0xC12 DUP8 DUP4 ADD MLOAD PUSH1 0x80 DUP1 DUP11 DUP6 ADD MSTORE DUP4 ADD SWAP1 PUSH3 0xB76 JUMP JUMPDEST SWAP1 PUSH1 0x60 DUP1 SWAP4 ADD MLOAD SWAP3 DUP2 DUP4 SUB SWAP2 ADD MSTORE DUP2 MLOAD DUP1 DUP3 MSTORE DUP4 DUP3 ADD SWAP1 DUP5 DUP1 DUP3 DUP11 SHL DUP6 ADD ADD SWAP5 ADD SWAP3 DUP8 JUMPDEST DUP3 DUP2 LT PUSH3 0xC5C JUMPI POP POP POP POP POP SWAP1 DUP1 PUSH1 0x1 SWAP3 SWAP12 ADD SWAP7 ADD SWAP7 ADD SWAP5 SWAP8 SWAP7 SWAP6 SWAP4 SWAP3 SWAP2 SWAP1 PUSH3 0xBC4 JUMP JUMPDEST SWAP2 SWAP4 SWAP6 DUP1 PUSH3 0xC7A PUSH1 0x1 SWAP4 SWAP6 SWAP8 PUSH1 0x1F NOT DUP8 DUP3 SUB ADD DUP10 MSTORE DUP10 MLOAD PUSH3 0xB76 JUMP JUMPDEST SWAP8 ADD SWAP6 ADD SWAP2 ADD SWAP2 DUP13 SWAP6 SWAP5 SWAP4 SWAP2 SWAP3 PUSH3 0xC36 JUMP JUMPDEST PUSH1 0x2 SLOAD DUP2 LT ISZERO PUSH3 0xCC7 JUMPI PUSH1 0x2 PUSH1 0x0 DUP2 DUP2 MSTORE SWAP2 SWAP1 SHL PUSH32 0x405787FA12A823E0F2B7631CC41B3BA8828B3321CA811111FA75CD3AA3BB5ACE ADD SWAP2 JUMP JUMPDEST PUSH4 0x4E487B71 PUSH1 0xE0 SHL PUSH1 0x0 MSTORE PUSH1 0x32 PUSH1 0x4 MSTORE PUSH1 0x24 PUSH1 0x0 REVERT JUMPDEST SWAP1 PUSH1 0x1 DUP3 DUP2 SHR SWAP3 AND DUP1 ISZERO PUSH3 0xD0F JUMPI JUMPDEST PUSH1 0x20 DUP4 LT EQ PUSH3 0xCF9 JUMPI JUMP JUMPDEST PUSH4 0x4E487B71 PUSH1 0xE0 SHL PUSH1 0x0 MSTORE PUSH1 0x22 PUSH1 0x4 MSTORE PUSH1 0x24 PUSH1 0x0 REVERT JUMPDEST SWAP2 PUSH1 0x7F AND SWAP2 PUSH3 0xCED JUMP JUMPDEST PUSH1 0x1 SLOAD DUP2 LT ISZERO PUSH3 0xCC7 JUMPI PUSH1 0x1 PUSH1 0x0 MSTORE PUSH1 0x20 PUSH1 0x0 KECCAK256 ADD SWAP1 PUSH1 0x0 SWAP1 JUMP JUMPDEST PUSH1 0x0 SLOAD PUSH1 0x1 PUSH1 0x1 PUSH1 0xA0 SHL SUB AND CALLER SUB PUSH3 0xD4B JUMPI JUMP JUMPDEST PUSH1 0x40 MLOAD PUSH4 0x118CDAA7 PUSH1 0xE0 SHL DUP2 MSTORE CALLER PUSH1 0x4 DUP3 ADD MSTORE PUSH1 0x24 SWAP1 REVERT JUMPDEST PUSH1 0x0 NOT DUP2 EQ PUSH3 0xD73 JUMPI PUSH1 0x1 ADD SWAP1 JUMP JUMPDEST PUSH4 0x4E487B71 PUSH1 0xE0 SHL PUSH1 0x0 MSTORE PUSH1 0x11 PUSH1 0x4 MSTORE PUSH1 0x24 PUSH1 0x0 REVERT JUMPDEST SWAP1 PUSH3 0xEE3 JUMPI DUP2 MLOAD DUP2 SSTORE PUSH1 0x20 PUSH1 0x60 PUSH1 0x3 DUP3 DUP6 ADD MLOAD SWAP4 PUSH1 0x1 SWAP5 DUP6 DUP3 ADD SSTORE PUSH1 0x2 DUP2 ADD PUSH1 0x1 DUP1 PUSH1 0xA0 SHL SUB PUSH1 0x40 DUP9 ADD MLOAD AND PUSH1 0x1 DUP1 PUSH1 0xA0 SHL SUB NOT DUP3 SLOAD AND OR SWAP1 SSTORE ADD SWAP4 ADD MLOAD SWAP1 DUP2 MLOAD SWAP2 PUSH1 0x1 PUSH1 0x1 PUSH1 0x40 SHL SUB DUP4 GT PUSH3 0xA8F JUMPI PUSH3 0xDE7 DUP6 SLOAD PUSH3 0xCDD JUMP JUMPDEST PUSH1 0x1F DUP2 GT PUSH3 0xE95 JUMPI JUMPDEST POP DUP2 PUSH1 0x1F DUP5 GT PUSH1 0x1 EQ PUSH3 0xE2E JUMPI POP SWAP3 DUP3 SWAP4 SWAP2 DUP4 SWAP3 PUSH1 0x0 SWAP5 PUSH3 0xE22 JUMPI JUMPDEST POP POP SHL SWAP2 PUSH1 0x0 NOT SWAP1 PUSH1 0x3 SHL SHR NOT AND OR SWAP1 SSTORE JUMP JUMPDEST ADD MLOAD SWAP3 POP CODESIZE DUP1 PUSH3 0xE0F JUMP JUMPDEST SWAP2 SWAP1 DUP4 PUSH1 0x1F NOT DUP2 AND DUP8 PUSH1 0x0 MSTORE DUP5 PUSH1 0x0 KECCAK256 SWAP5 PUSH1 0x0 SWAP1 JUMPDEST DUP9 DUP4 DUP4 LT PUSH3 0xE7A JUMPI POP POP POP LT PUSH3 0xE60 JUMPI JUMPDEST POP POP POP DUP2 SHL ADD SWAP1 SSTORE JUMP JUMPDEST ADD MLOAD PUSH1 0x0 NOT PUSH1 0xF8 DUP5 PUSH1 0x3 SHL AND SHR NOT AND SWAP1 SSTORE CODESIZE DUP1 DUP1 PUSH3 0xE56 JUMP JUMPDEST DUP6 DUP8 ADD MLOAD DUP9 SSTORE SWAP1 SWAP7 ADD SWAP6 SWAP5 DUP6 ADD SWAP5 DUP8 SWAP4 POP SWAP1 DUP2 ADD SWAP1 PUSH3 0xE43 JUMP JUMPDEST PUSH1 0x0 DUP7 DUP2 MSTORE DUP4 DUP2 KECCAK256 PUSH1 0x1F DUP7 ADD PUSH1 0x5 SHR DUP2 ADD SWAP3 DUP6 DUP8 LT PUSH3 0xED8 JUMPI JUMPDEST PUSH1 0x1F ADD PUSH1 0x5 SHR ADD SWAP2 DUP7 SWAP1 JUMPDEST DUP4 DUP2 LT PUSH3 0xECC JUMPI POP POP POP PUSH3 0xDF1 JUMP JUMPDEST DUP3 DUP2 SSTORE ADD DUP7 SWAP1 PUSH3 0xEBB JUMP JUMPDEST SWAP1 SWAP3 POP DUP3 SWAP1 PUSH3 0xEB0 JUMP JUMPDEST PUSH4 0x4E487B71 PUSH1 0xE0 SHL PUSH1 0x0 MSTORE PUSH1 0x0 PUSH1 0x4 MSTORE PUSH1 0x24 PUSH1 0x0 REVERT JUMPDEST SWAP2 SWAP1 SWAP2 PUSH1 0x40 SWAP2 DUP3 MLOAD SWAP1 PUSH3 0xF0D DUP3 PUSH3 0xAA5 JUMP JUMPDEST DUP5 DUP3 MSTORE DUP3 PUSH1 0x20 DUP4 ADD MSTORE CALLER DUP5 DUP4 ADD MSTORE DUP1 PUSH1 0x60 DUP4 ADD MSTORE PUSH1 0x0 JUMPDEST PUSH1 0x2 DUP1 SLOAD DUP3 LT ISZERO PUSH3 0x1076 JUMPI PUSH3 0xF3B DUP3 PUSH3 0xC8D JUMP JUMPDEST POP ADD SLOAD PUSH1 0x1 PUSH1 0x1 PUSH1 0xA0 SHL SUB SWAP1 DUP2 AND CALLER EQ PUSH3 0xF62 JUMPI POP PUSH3 0xF5C SWAP1 PUSH3 0xD63 JUMP JUMPDEST PUSH3 0xF24 JUMP JUMPDEST SWAP4 SWAP5 SWAP6 SWAP1 DUP5 SWAP4 PUSH3 0xF77 PUSH3 0xF7E SWAP3 PUSH3 0xC8D JUMP JUMPDEST SWAP1 PUSH3 0xD89 JUMP JUMPDEST PUSH3 0xF89 DUP6 PUSH3 0xD1A JUMP JUMPDEST SWAP5 SWAP1 SLOAD PUSH1 0x3 SWAP6 DUP7 SHL SHR AND SWAP3 DUP4 EXTCODESIZE ISZERO PUSH3 0xB4C JUMPI PUSH3 0xFD1 SWAP5 DUP8 MLOAD SWAP7 PUSH4 0xC6AEADF PUSH1 0xE2 SHL DUP9 MSTORE PUSH1 0x4 SWAP8 DUP5 DUP10 DUP3 ADD MSTORE PUSH1 0x0 DUP2 PUSH1 0x24 SWAP9 DUP13 DUP11 DUP4 ADD MSTORE DUP2 DUP4 DUP2 PUSH1 0x44 SWAP14 DUP15 DUP3 ADD DUP14 PUSH3 0xB76 JUMP JUMPDEST SUB SWAP3 GAS CALL DUP1 ISZERO PUSH3 0x106B JUMPI SWAP1 PUSH3 0xFF0 SWAP3 SWAP2 PUSH3 0x1059 JUMPI JUMPDEST POP PUSH3 0xD1A JUMP JUMPDEST SWAP1 SLOAD SWAP2 SHL SHR AND SWAP2 DUP3 EXTCODESIZE ISZERO PUSH3 0xB4C JUMPI DUP7 SWAP6 PUSH3 0x102D PUSH1 0x0 SWAP7 SWAP3 DUP8 SWAP4 DUP10 MLOAD SWAP11 DUP12 SWAP9 DUP10 SWAP8 DUP9 SWAP7 PUSH4 0x681CD54B PUSH1 0xE1 SHL DUP9 MSTORE DUP8 ADD MSTORE DUP6 ADD MSTORE DUP4 ADD SWAP1 PUSH3 0xB76 JUMP JUMPDEST SUB SWAP3 GAS CALL SWAP1 DUP2 ISZERO PUSH3 0x104F JUMPI POP PUSH3 0x1042 JUMPI POP JUMP JUMPDEST PUSH3 0x104D SWAP1 PUSH3 0xA7B JUMP JUMPDEST JUMP JUMPDEST MLOAD RETURNDATASIZE PUSH1 0x0 DUP3 RETURNDATACOPY RETURNDATASIZE SWAP1 REVERT JUMPDEST PUSH3 0x1064 SWAP1 PUSH3 0xA7B JUMP JUMPDEST CODESIZE PUSH3 0xFE9 JUMP JUMPDEST DUP11 MLOAD RETURNDATASIZE PUSH1 0x0 DUP3 RETURNDATACOPY RETURNDATASIZE SWAP1 REVERT JUMPDEST POP POP SWAP3 SWAP2 PUSH3 0x1088 SWAP1 SWAP5 SWAP2 SWAP5 PUSH3 0xD1A JUMP JUMPDEST SWAP1 SLOAD PUSH1 0x3 SWAP2 SWAP1 SWAP2 SHL SHR PUSH1 0x1 PUSH1 0x1 PUSH1 0xA0 SHL SUB AND SWAP3 DUP4 EXTCODESIZE ISZERO PUSH3 0xB4C JUMPI PUSH3 0x10D4 SWAP4 PUSH1 0x0 SWAP3 DUP4 DUP6 MLOAD DUP1 SWAP8 DUP2 SWAP6 DUP3 SWAP5 PUSH4 0x681CD54B PUSH1 0xE1 SHL DUP5 MSTORE PUSH1 0x4 DUP5 ADD MSTORE DUP9 PUSH1 0x24 DUP5 ADD MSTORE PUSH1 0x44 DUP4 ADD SWAP1 PUSH3 0xB76 JUMP JUMPDEST SUB SWAP3 GAS CALL SWAP1 DUP2 ISZERO PUSH3 0x104F JUMPI POP PUSH3 0x110F JUMPI JUMPDEST POP PUSH1 0x2 SLOAD SWAP1 PUSH1 0x1 PUSH1 0x40 SHL DUP3 LT ISZERO PUSH3 0xA8F JUMPI PUSH3 0xF77 DUP3 PUSH1 0x1 PUSH3 0x104D SWAP5 ADD PUSH1 0x2 SSTORE PUSH3 0xC8D JUMP JUMPDEST PUSH3 0x111A SWAP1 PUSH3 0xA7B JUMP JUMPDEST CODESIZE PUSH3 0x10E7 JUMP JUMPDEST SWAP1 DUP2 PUSH1 0x20 SWAP2 SUB SLT PUSH3 0xB4C JUMPI MLOAD PUSH1 0x1 PUSH1 0x1 PUSH1 0xA0 SHL SUB DUP2 AND DUP2 SUB PUSH3 0xB4C JUMPI SWAP1 JUMP JUMPDEST PUSH1 0x1 PUSH1 0x1 PUSH1 0x40 SHL SUB DUP2 GT PUSH3 0xA8F JUMPI PUSH1 0x5 SHL PUSH1 0x20 ADD SWAP1 JUMP JUMPDEST DUP2 PUSH1 0x1F DUP3 ADD SLT ISZERO PUSH3 0xB4C JUMPI DUP1 MLOAD PUSH3 0x1173 DUP2 PUSH3 0xAE3 JUMP JUMPDEST SWAP3 PUSH3 0x1183 PUSH1 0x40 MLOAD SWAP5 DUP6 PUSH3 0xAC1 JUMP JUMPDEST DUP2 DUP5 MSTORE PUSH1 0x20 DUP3 DUP5 ADD ADD GT PUSH3 0xB4C JUMPI PUSH3 0x11A4 SWAP2 PUSH1 0x20 DUP1 DUP6 ADD SWAP2 ADD PUSH3 0xB51 JUMP JUMPDEST SWAP1 JUMP JUMPDEST SWAP1 PUSH1 0x20 DUP3 DUP3 SUB SLT PUSH3 0xB4C JUMPI DUP2 MLOAD SWAP1 PUSH1 0x1 PUSH1 0x1 PUSH1 0x40 SHL SUB DUP3 GT PUSH3 0xB4C JUMPI DUP1 PUSH1 0x1F DUP4 DUP6 ADD ADD SLT ISZERO PUSH3 0xB4C JUMPI DUP2 DUP4 ADD MLOAD SWAP1 PUSH3 0x11E3 DUP3 PUSH3 0x1142 JUMP JUMPDEST SWAP4 PUSH3 0x11F3 PUSH1 0x40 MLOAD SWAP6 DUP7 PUSH3 0xAC1 JUMP JUMPDEST DUP3 DUP6 MSTORE PUSH1 0x20 DUP6 ADD SWAP4 DUP3 PUSH1 0x20 DUP6 PUSH1 0x5 SHL DUP4 DUP6 ADD ADD ADD GT PUSH3 0xB4C JUMPI PUSH1 0x20 DUP2 DUP4 ADD ADD SWAP5 JUMPDEST PUSH1 0x20 DUP6 PUSH1 0x5 SHL DUP4 DUP6 ADD ADD ADD DUP7 LT PUSH3 0x1230 JUMPI POP POP POP POP POP POP SWAP1 JUMP JUMPDEST DUP6 MLOAD PUSH1 0x1 PUSH1 0x1 PUSH1 0x40 SHL SUB DUP2 GT PUSH3 0xB4C JUMPI DUP3 DUP5 ADD ADD PUSH1 0x80 SWAP1 DUP2 PUSH1 0x1F NOT DUP3 DUP9 SUB ADD SLT PUSH3 0xB4C JUMPI PUSH1 0x40 MLOAD SWAP2 PUSH3 0x1265 DUP4 PUSH3 0xAA5 JUMP JUMPDEST PUSH1 0x20 DUP3 ADD MLOAD DUP4 MSTORE PUSH1 0x40 DUP3 ADD MLOAD PUSH1 0x20 DUP5 ADD MSTORE PUSH1 0x60 SWAP1 DUP2 DUP4 ADD MLOAD PUSH1 0x1 PUSH1 0x1 PUSH1 0x40 SHL SUB DUP2 GT PUSH3 0xB4C JUMPI DUP9 PUSH1 0x20 PUSH3 0x129D SWAP3 DUP7 ADD ADD PUSH3 0x115A JUMP JUMPDEST PUSH1 0x40 DUP6 ADD MSTORE DUP3 ADD MLOAD SWAP2 PUSH1 0x1 PUSH1 0x1 PUSH1 0x40 SHL SUB DUP4 GT PUSH3 0xB4C JUMPI DUP8 PUSH1 0x3F DUP5 DUP4 ADD ADD SLT ISZERO PUSH3 0xB4C JUMPI PUSH1 0x20 DUP4 DUP3 ADD ADD MLOAD PUSH3 0x12D5 DUP2 PUSH3 0x1142 JUMP JUMPDEST SWAP4 PUSH3 0x12E5 PUSH1 0x40 MLOAD SWAP6 DUP7 PUSH3 0xAC1 JUMP JUMPDEST DUP2 DUP6 MSTORE PUSH1 0x20 DUP6 ADD SWAP1 DUP11 PUSH1 0x40 DUP5 PUSH1 0x5 SHL DUP4 DUP8 ADD ADD ADD GT PUSH3 0xB4C JUMPI PUSH1 0x40 DUP2 DUP6 ADD ADD SWAP2 JUMPDEST PUSH1 0x40 DUP5 PUSH1 0x5 SHL DUP4 DUP8 ADD ADD ADD DUP4 LT PUSH3 0x1330 JUMPI POP POP POP POP POP DUP3 ADD MSTORE DUP2 MSTORE PUSH1 0x20 SWAP6 DUP7 ADD SWAP6 ADD PUSH3 0x1215 JUMP JUMPDEST DUP3 MLOAD PUSH1 0x1 PUSH1 0x1 PUSH1 0x40 SHL SUB DUP2 GT PUSH3 0xB4C JUMPI PUSH1 0x20 SWAP2 PUSH3 0x1358 DUP15 PUSH1 0x40 DUP6 SWAP5 DUP8 DUP12 ADD ADD ADD PUSH3 0x115A JUMP JUMPDEST DUP2 MSTORE ADD SWAP3 ADD SWAP2 PUSH3 0x1307 JUMP JUMPDEST SWAP2 SWAP1 DUP3 ADD DUP1 SWAP3 GT PUSH3 0xD73 JUMPI JUMP JUMPDEST SWAP1 PUSH3 0x137E DUP3 PUSH3 0x1142 JUMP JUMPDEST PUSH1 0x40 PUSH3 0x138E DUP2 MLOAD SWAP3 DUP4 PUSH3 0xAC1 JUMP JUMPDEST DUP4 DUP3 MSTORE DUP2 SWAP4 PUSH3 0x13A1 PUSH1 0x1F NOT SWAP2 PUSH3 0x1142 JUMP JUMPDEST ADD SWAP2 PUSH1 0x0 SWAP1 DUP2 JUMPDEST DUP5 DUP2 LT PUSH3 0x13B7 JUMPI POP POP POP POP POP JUMP JUMPDEST PUSH1 0x20 SWAP1 DUP5 MLOAD PUSH3 0x13C7 DUP2 PUSH3 0xAA5 JUMP JUMPDEST DUP5 DUP2 MSTORE DUP3 DUP6 DUP2 DUP4 ADD MSTORE PUSH1 0x60 DUP1 DUP9 DUP5 ADD MSTORE DUP1 DUP4 ADD MSTORE DUP3 DUP6 ADD ADD MSTORE ADD PUSH3 0x13A8 JUMP JUMPDEST DUP1 MLOAD DUP3 LT ISZERO PUSH3 0xCC7 JUMPI PUSH1 0x20 SWAP2 PUSH1 0x5 SHL ADD ADD SWAP1 JUMP INVALID PUSH1 0x80 CALLVALUE PUSH3 0x3E1 JUMPI PUSH1 0x1F SWAP1 PUSH1 0x1 PUSH1 0x1 PUSH1 0x40 SHL SUB SWAP1 PUSH1 0x1F NOT SWAP1 PUSH3 0x1D9E CODESIZE DUP2 SWAP1 SUB DUP6 DUP2 ADD DUP5 AND DUP4 ADD SWAP2 SWAP1 DUP6 DUP4 GT DUP5 DUP5 LT OR PUSH3 0x3CB JUMPI DUP1 DUP5 SWAP3 PUSH1 0x40 SWAP5 DUP6 MSTORE DUP4 CODECOPY DUP2 ADD SUB SLT PUSH3 0x3E1 JUMPI DUP1 MLOAD PUSH1 0x20 SWAP2 DUP3 ADD MLOAD PUSH1 0x1 PUSH1 0x1 PUSH1 0xA0 SHL SUB SWAP6 DUP7 DUP3 AND SWAP6 SWAP3 SWAP4 SWAP3 SWAP2 DUP7 SWAP1 SUB PUSH3 0x3E1 JUMPI PUSH3 0x72 PUSH3 0x3E6 JUMP JUMPDEST SWAP3 PUSH1 0xA DUP5 MSTORE PUSH10 0x21B7B63632B1BA34B7B7 PUSH1 0xB1 SHL DUP2 DUP6 ADD MSTORE PUSH3 0x93 PUSH3 0x3E6 JUMP JUMPDEST SWAP1 PUSH1 0x3 DUP3 MSTORE PUSH3 0x139195 PUSH1 0xEA SHL DUP2 DUP4 ADD MSTORE DUP5 MLOAD SWAP7 DUP5 DUP9 GT PUSH3 0x3CB JUMPI PUSH1 0x0 SWAP8 DUP9 SLOAD SWAP7 PUSH1 0x1 SWAP8 DUP9 DUP2 DUP2 SHR SWAP2 AND DUP1 ISZERO PUSH3 0x3C0 JUMPI JUMPDEST DUP6 DUP3 LT EQ PUSH3 0x3AC JUMPI SWAP1 DUP2 DUP8 DUP5 SWAP4 GT PUSH3 0x359 JUMPI JUMPDEST POP DUP5 SWAP1 DUP8 DUP4 GT PUSH1 0x1 EQ PUSH3 0x2F8 JUMPI DUP12 SWAP3 PUSH3 0x2EC JUMPI JUMPDEST POP POP PUSH1 0x0 NOT PUSH1 0x3 DUP4 SWAP1 SHL SHR NOT AND SWAP1 DUP8 SHL OR DUP9 SSTORE JUMPDEST DUP3 MLOAD SWAP5 DUP6 GT PUSH3 0x2D8 JUMPI DUP6 SLOAD DUP7 DUP2 DUP2 SHR SWAP2 AND DUP1 ISZERO PUSH3 0x2CD JUMPI JUMPDEST DUP4 DUP3 LT EQ PUSH3 0x2B9 JUMPI SWAP1 DUP2 DUP6 DUP8 SWAP7 SWAP6 SWAP5 SWAP4 GT PUSH3 0x260 JUMPI JUMPDEST POP DUP2 SWAP4 DUP6 GT PUSH1 0x1 EQ PUSH3 0x1FB JUMPI POP POP DUP7 SWAP3 PUSH3 0x1EF JUMPI JUMPDEST POP POP PUSH1 0x0 NOT PUSH1 0x3 DUP4 SWAP1 SHL SHR NOT AND SWAP1 DUP3 SHL OR SWAP1 SSTORE JUMPDEST CALLER ISZERO PUSH3 0x1D6 JUMPI PUSH1 0x7 DUP1 SLOAD PUSH1 0x1 PUSH1 0x1 PUSH1 0xA0 SHL SUB NOT DUP1 DUP3 AND CALLER SWAP1 DUP2 OR SWAP1 SWAP4 SSTORE PUSH1 0x40 MLOAD SWAP7 SWAP1 SWAP5 SWAP3 SWAP2 AND PUSH32 0x8BE0079C531659141344CD1FD0A4F28419497F9722A3DAAFE3B4186F6B6457E0 DUP4 DUP1 LOG3 DUP1 PUSH1 0xA SSTORE PUSH1 0xB SSTORE PUSH7 0x2386F26FC10000 PUSH1 0xC SSTORE PUSH1 0x9 SSTORE PUSH1 0x8 SLOAD AND OR PUSH1 0x8 SSTORE PUSH2 0x1997 SWAP1 DUP2 PUSH3 0x407 DUP3 CODECOPY RETURN JUMPDEST PUSH1 0x40 MLOAD PUSH4 0x1E4FBDF7 PUSH1 0xE0 SHL DUP2 MSTORE PUSH1 0x4 DUP2 ADD DUP4 SWAP1 MSTORE PUSH1 0x24 SWAP1 REVERT JUMPDEST ADD MLOAD SWAP1 POP CODESIZE DUP1 PUSH3 0x14D JUMP JUMPDEST DUP7 SWAP6 SWAP4 SWAP3 SWAP2 SWAP4 AND DUP6 DUP10 MSTORE DUP4 DUP10 KECCAK256 SWAP4 DUP10 SWAP1 JUMPDEST DUP3 DUP3 LT PUSH3 0x246 JUMPI POP POP DUP5 GT PUSH3 0x22C JUMPI JUMPDEST POP POP POP DUP2 SHL ADD SWAP1 SSTORE PUSH3 0x161 JUMP JUMPDEST ADD MLOAD PUSH1 0x0 NOT PUSH1 0xF8 DUP5 PUSH1 0x3 SHL AND SHR NOT AND SWAP1 SSTORE CODESIZE DUP1 DUP1 PUSH3 0x21E JUMP JUMPDEST DUP5 DUP5 ADD MLOAD DUP7 SSTORE DUP9 SWAP8 SWAP1 SWAP6 ADD SWAP5 SWAP4 DUP5 ADD SWAP4 SWAP1 DUP2 ADD SWAP1 PUSH3 0x20C JUMP JUMPDEST SWAP1 SWAP2 SWAP3 SWAP4 SWAP5 POP DUP7 DUP10 MSTORE DUP3 DUP10 KECCAK256 DUP6 DUP1 DUP9 ADD PUSH1 0x5 SHR DUP3 ADD SWAP3 DUP6 DUP10 LT PUSH3 0x2AF JUMPI JUMPDEST SWAP2 DUP9 SWAP8 DUP11 SWAP3 SWAP8 SWAP7 SWAP6 SWAP5 SWAP4 ADD PUSH1 0x5 SHR ADD SWAP2 JUMPDEST DUP3 DUP2 LT PUSH3 0x2A0 JUMPI POP POP PUSH3 0x136 JUMP JUMPDEST DUP12 DUP2 SSTORE DUP9 SWAP8 POP DUP10 SWAP2 ADD PUSH3 0x290 JUMP JUMPDEST SWAP3 POP DUP2 SWAP3 PUSH3 0x27F JUMP JUMPDEST PUSH4 0x4E487B71 PUSH1 0xE0 SHL DUP10 MSTORE PUSH1 0x22 PUSH1 0x4 MSTORE PUSH1 0x24 DUP10 REVERT JUMPDEST SWAP1 PUSH1 0x7F AND SWAP1 PUSH3 0x11E JUMP JUMPDEST PUSH4 0x4E487B71 PUSH1 0xE0 SHL DUP9 MSTORE PUSH1 0x41 PUSH1 0x4 MSTORE PUSH1 0x24 DUP9 REVERT JUMPDEST ADD MLOAD SWAP1 POP CODESIZE DUP1 PUSH3 0xF0 JUMP JUMPDEST SWAP1 DUP5 DUP11 SWAP5 AND SWAP2 DUP13 DUP1 MSTORE DUP7 DUP14 KECCAK256 SWAP3 DUP14 JUMPDEST DUP9 DUP3 DUP3 LT PUSH3 0x342 JUMPI POP POP DUP5 GT PUSH3 0x328 JUMPI JUMPDEST POP POP POP DUP2 SHL ADD DUP9 SSTORE PUSH3 0x104 JUMP JUMPDEST ADD MLOAD PUSH1 0x0 NOT PUSH1 0xF8 DUP5 PUSH1 0x3 SHL AND SHR NOT AND SWAP1 SSTORE CODESIZE DUP1 DUP1 PUSH3 0x31A JUMP JUMPDEST DUP4 DUP6 ADD MLOAD DUP7 SSTORE DUP14 SWAP8 SWAP1 SWAP6 ADD SWAP5 SWAP4 DUP5 ADD SWAP4 ADD PUSH3 0x307 JUMP JUMPDEST SWAP1 SWAP2 POP DUP11 DUP1 MSTORE DUP5 DUP12 KECCAK256 DUP8 DUP1 DUP6 ADD PUSH1 0x5 SHR DUP3 ADD SWAP3 DUP8 DUP7 LT PUSH3 0x3A2 JUMPI JUMPDEST SWAP2 DUP12 SWAP2 DUP7 SWAP6 SWAP5 SWAP4 ADD PUSH1 0x5 SHR ADD SWAP2 JUMPDEST DUP3 DUP2 LT PUSH3 0x393 JUMPI POP POP PUSH3 0xDA JUMP JUMPDEST DUP14 DUP2 SSTORE DUP6 SWAP5 POP DUP12 SWAP2 ADD PUSH3 0x383 JUMP JUMPDEST SWAP3 POP DUP2 SWAP3 PUSH3 0x375 JUMP JUMPDEST PUSH4 0x4E487B71 PUSH1 0xE0 SHL DUP12 MSTORE PUSH1 0x22 PUSH1 0x4 MSTORE PUSH1 0x24 DUP12 REVERT JUMPDEST SWAP1 PUSH1 0x7F AND SWAP1 PUSH3 0xC5 JUMP JUMPDEST PUSH4 0x4E487B71 PUSH1 0xE0 SHL PUSH1 0x0 MSTORE PUSH1 0x41 PUSH1 0x4 MSTORE PUSH1 0x24 PUSH1 0x0 REVERT JUMPDEST PUSH1 0x0 DUP1 REVERT JUMPDEST PUSH1 0x40 DUP1 MLOAD SWAP2 SWAP1 DUP3 ADD PUSH1 0x1 PUSH1 0x1 PUSH1 0x40 SHL SUB DUP2 GT DUP4 DUP3 LT OR PUSH3 0x3CB JUMPI PUSH1 0x40 MSTORE JUMP INVALID PUSH1 0x80 PUSH1 0x40 DUP2 DUP2 MSTORE PUSH1 0x4 DUP1 CALLDATASIZE LT ISZERO PUSH2 0x15 JUMPI PUSH1 0x0 DUP1 REVERT JUMPDEST PUSH1 0x0 SWAP3 DUP4 CALLDATALOAD PUSH1 0xE0 SHR SWAP1 DUP2 PUSH4 0x1FFC9A7 EQ PUSH2 0xE72 JUMPI POP DUP1 PUSH4 0x6FDDE03 EQ PUSH2 0xDEB JUMPI DUP1 PUSH4 0x81812FC EQ PUSH2 0xDB0 JUMPI DUP1 PUSH4 0x95EA7B3 EQ PUSH2 0xCD4 JUMPI DUP1 PUSH4 0x23B872DD EQ PUSH2 0xCBC JUMPI DUP1 PUSH4 0x31ABAB7C EQ PUSH2 0x9FB JUMPI DUP1 PUSH4 0x42842E0E EQ PUSH2 0x9D2 JUMPI DUP1 PUSH4 0x43BC1612 EQ PUSH2 0x9A9 JUMPI DUP1 PUSH4 0x5FEC6E67 EQ PUSH2 0x720 JUMPI DUP1 PUSH4 0x6352211E EQ PUSH2 0x978 JUMPI DUP1 PUSH4 0x669F5A51 EQ PUSH2 0x7D7 JUMPI DUP1 PUSH4 0x70A08231 EQ PUSH2 0x782 JUMPI DUP1 PUSH4 0x715018A6 EQ PUSH2 0x725 JUMPI DUP1 PUSH4 0x7C26B48E EQ PUSH2 0x720 JUMPI DUP1 PUSH4 0x833B9499 EQ PUSH2 0x701 JUMPI DUP1 PUSH4 0x8DA5CB5B EQ PUSH2 0x6D8 JUMPI DUP1 PUSH4 0x95D89B41 EQ PUSH2 0x616 JUMPI DUP1 PUSH4 0xA22CB465 EQ PUSH2 0x579 JUMPI DUP1 PUSH4 0xB88D4FDE EQ PUSH2 0x512 JUMPI DUP1 PUSH4 0xC87B56DD EQ PUSH2 0x4AB JUMPI DUP1 PUSH4 0xD039AA96 EQ PUSH2 0x3FF JUMPI DUP1 PUSH4 0xE985E9C5 EQ PUSH2 0x3B1 JUMPI DUP1 PUSH4 0xEE36675B EQ PUSH2 0x1B7 JUMPI PUSH4 0xF2FDE38B EQ PUSH2 0x12B JUMPI PUSH1 0x0 DUP1 REVERT JUMPDEST CALLVALUE PUSH2 0x1B3 JUMPI PUSH1 0x20 CALLDATASIZE PUSH1 0x3 NOT ADD SLT PUSH2 0x1B3 JUMPI PUSH2 0x144 PUSH2 0xF38 JUMP JUMPDEST SWAP1 PUSH2 0x14D PUSH2 0x1214 JUMP JUMPDEST PUSH1 0x1 PUSH1 0x1 PUSH1 0xA0 SHL SUB SWAP2 DUP3 AND SWAP3 DUP4 ISZERO PUSH2 0x19D JUMPI POP POP PUSH1 0x7 DUP1 SLOAD PUSH1 0x1 PUSH1 0x1 PUSH1 0xA0 SHL SUB NOT DUP2 AND DUP5 OR SWAP1 SWAP2 SSTORE AND PUSH32 0x8BE0079C531659141344CD1FD0A4F28419497F9722A3DAAFE3B4186F6B6457E0 DUP4 DUP1 LOG3 DUP1 RETURN JUMPDEST MLOAD PUSH4 0x1E4FBDF7 PUSH1 0xE0 SHL DUP2 MSTORE SWAP1 DUP2 ADD DUP5 SWAP1 MSTORE PUSH1 0x24 SWAP1 REVERT JUMPDEST DUP3 DUP1 REVERT JUMPDEST POP CALLVALUE PUSH2 0x1B3 JUMPI PUSH1 0x20 SWAP3 DUP4 PUSH1 0x3 NOT CALLDATASIZE ADD SLT PUSH2 0x3AE JUMPI DUP2 CALLDATALOAD PUSH1 0x1 PUSH1 0x1 PUSH1 0x40 SHL SUB DUP2 GT PUSH2 0x3AA JUMPI PUSH2 0x1E8 SWAP1 CALLDATASIZE SWAP1 DUP5 ADD PUSH2 0x105D JUMP JUMPDEST PUSH1 0xA SLOAD PUSH1 0x9 SLOAD SWAP1 DUP6 MLOAD SWAP1 PUSH2 0x1FB DUP3 PUSH2 0xFCF JUMP JUMPDEST DUP5 DUP3 MSTORE DUP7 MLOAD SWAP1 PUSH2 0x20A DUP3 PUSH2 0xF9E JUMP JUMPDEST DUP2 MSTORE DUP8 DUP2 ADD SWAP3 DUP4 MSTORE DUP7 DUP2 ADD SWAP4 DUP5 MSTORE PUSH1 0x60 DUP2 ADD SWAP2 DUP3 MSTORE PUSH1 0xD SLOAD SWAP4 PUSH1 0x1 PUSH1 0x40 SHL SWAP4 DUP5 DUP7 LT ISZERO PUSH2 0x397 JUMPI PUSH2 0x242 PUSH1 0x1 SWAP7 DUP8 DUP2 ADD PUSH1 0xD SSTORE PUSH2 0x164F JUMP JUMPDEST SWAP4 SWAP1 SWAP4 PUSH2 0x385 JUMPI MLOAD DUP4 SSTORE MLOAD DUP6 DUP4 ADD SSTORE MLOAD PUSH1 0x3 SWAP2 SWAP1 PUSH2 0x263 SWAP1 PUSH1 0x2 DUP4 ADD PUSH2 0x169B JUMP JUMPDEST ADD SWAP1 MLOAD DUP1 MLOAD SWAP3 DUP4 GT PUSH2 0x372 JUMPI DUP8 SWAP1 DUP3 SLOAD DUP5 DUP5 SSTORE DUP1 DUP6 LT PUSH2 0x2F8 JUMPI JUMPDEST POP ADD SWAP1 DUP5 MSTORE DUP7 DUP5 KECCAK256 DUP8 DUP6 SWAP3 JUMPDEST DUP5 DUP5 LT PUSH2 0x2DB JUMPI POP DUP8 DUP8 DUP8 PUSH1 0xD SLOAD SWAP2 PUSH1 0x0 NOT DUP4 ADD SWAP3 DUP4 GT PUSH2 0x2C8 JUMPI POP POP PUSH2 0x2B0 SWAP1 PUSH2 0x164F JUMP JUMPDEST POP POP PUSH1 0xA SLOAD SWAP1 PUSH2 0x2BF DUP3 PUSH2 0x179F JUMP JUMPDEST PUSH1 0xA SSTORE MLOAD SWAP1 DUP2 MSTORE RETURN JUMPDEST PUSH4 0x4E487B71 PUSH1 0xE0 SHL DUP3 MSTORE PUSH1 0x11 SWAP1 MSTORE PUSH1 0x24 SWAP1 REVERT JUMPDEST DUP6 SWAP2 DUP2 PUSH2 0x2EA DUP5 SWAP4 MLOAD DUP7 PUSH2 0x169B JUMP JUMPDEST ADD SWAP3 ADD SWAP3 ADD SWAP2 SWAP1 DUP9 SWAP1 PUSH2 0x28A JUMP JUMPDEST DUP4 DUP8 MSTORE DUP6 DUP6 DUP5 DUP10 KECCAK256 SWAP3 DUP4 ADD SWAP3 ADD JUMPDEST DUP3 DUP2 LT PUSH2 0x314 JUMPI POP POP PUSH2 0x27E JUMP JUMPDEST SWAP1 SWAP2 SWAP3 SWAP4 POP DUP8 PUSH2 0x324 DUP3 SLOAD PUSH2 0x1240 JUMP JUMPDEST DUP1 PUSH2 0x337 JUMPI JUMPDEST POP POP ADD SWAP1 DUP6 DUP11 SWAP4 SWAP3 PUSH2 0x306 JUMP JUMPDEST DUP13 PUSH1 0x1F DUP1 DUP4 GT PUSH1 0x1 EQ PUSH2 0x351 JUMPI POP POP POP DUP2 SSTORE JUMPDEST DUP8 CODESIZE PUSH2 0x32A JUMP JUMPDEST PUSH2 0x369 SWAP2 DUP6 DUP6 MSTORE DUP5 KECCAK256 SWAP3 ADD PUSH1 0x5 SHR DUP3 ADD DUP6 DUP4 ADD PUSH2 0x1684 JUMP JUMPDEST DUP2 DUP4 SSTORE SSTORE PUSH2 0x34A JUMP JUMPDEST PUSH4 0x4E487B71 PUSH1 0xE0 SHL DUP6 MSTORE PUSH1 0x41 DUP7 MSTORE PUSH1 0x24 DUP6 REVERT JUMPDEST PUSH4 0x4E487B71 PUSH1 0xE0 SHL DUP9 MSTORE DUP8 DUP10 MSTORE PUSH1 0x24 DUP9 REVERT JUMPDEST PUSH4 0x4E487B71 PUSH1 0xE0 SHL DUP8 MSTORE PUSH1 0x41 DUP9 MSTORE PUSH1 0x24 DUP8 REVERT JUMPDEST POP DUP1 REVERT JUMPDEST DUP1 REVERT JUMPDEST POP POP CALLVALUE PUSH2 0x3AA JUMPI DUP1 PUSH1 0x3 NOT CALLDATASIZE ADD SLT PUSH2 0x3AA JUMPI PUSH1 0xFF DUP2 PUSH1 0x20 SWAP4 PUSH2 0x3D1 PUSH2 0xF38 JUMP JUMPDEST PUSH2 0x3D9 PUSH2 0xF53 JUMP JUMPDEST PUSH1 0x1 PUSH1 0x1 PUSH1 0xA0 SHL SUB SWAP2 DUP3 AND DUP4 MSTORE PUSH1 0x5 DUP8 MSTORE DUP4 DUP4 KECCAK256 SWAP2 AND DUP3 MSTORE DUP6 MSTORE KECCAK256 SLOAD SWAP2 MLOAD SWAP2 AND ISZERO ISZERO DUP2 MSTORE RETURN JUMPDEST POP DUP3 CALLVALUE PUSH2 0x3AE JUMPI PUSH2 0x40F CALLDATASIZE PUSH2 0x107B JUMP JUMPDEST SWAP1 SWAP2 DUP1 JUMPDEST PUSH1 0xD SLOAD DUP2 LT ISZERO PUSH2 0x4A7 JUMPI DUP4 PUSH2 0x427 DUP3 PUSH2 0x164F JUMP JUMPDEST POP SLOAD EQ PUSH2 0x43D JUMPI JUMPDEST PUSH2 0x438 SWAP1 PUSH2 0x179F JUMP JUMPDEST PUSH2 0x413 JUMP JUMPDEST PUSH1 0x3 PUSH2 0x448 DUP3 PUSH2 0x164F JUMP JUMPDEST POP ADD DUP1 SLOAD SWAP1 PUSH1 0x1 PUSH1 0x40 SHL DUP3 LT ISZERO PUSH2 0x494 JUMPI SWAP1 PUSH2 0x469 SWAP2 PUSH1 0x1 DUP3 ADD DUP2 SSTORE PUSH2 0x17C4 JUMP JUMPDEST PUSH2 0x482 JUMPI SWAP1 PUSH2 0x47B DUP5 PUSH2 0x438 SWAP4 PUSH2 0x169B JUMP JUMPDEST SWAP1 POP PUSH2 0x42F JUMP JUMPDEST PUSH4 0x4E487B71 PUSH1 0xE0 SHL DUP4 MSTORE DUP3 DUP7 MSTORE PUSH1 0x24 DUP4 REVERT JUMPDEST PUSH4 0x4E487B71 PUSH1 0xE0 SHL DUP5 MSTORE PUSH1 0x41 DUP8 MSTORE PUSH1 0x24 DUP5 REVERT JUMPDEST POP DUP1 RETURN JUMPDEST POP CALLVALUE PUSH2 0x1B3 JUMPI PUSH1 0x20 CALLDATASIZE PUSH1 0x3 NOT ADD SLT PUSH2 0x1B3 JUMPI SWAP1 PUSH2 0x50E SWAP3 PUSH2 0x4E9 SWAP3 CALLDATALOAD PUSH2 0x4D0 DUP2 PUSH2 0x15FD JUMP JUMPDEST POP DUP2 MSTORE PUSH1 0x6 PUSH1 0x20 MSTORE PUSH2 0x4F0 DUP3 DUP3 KECCAK256 DUP4 MLOAD SWAP5 DUP6 DUP1 SWAP3 PUSH2 0x127A JUMP JUMPDEST SUB DUP5 PUSH2 0xFEA JUMP JUMPDEST DUP2 MLOAD PUSH2 0x4FB DUP2 PUSH2 0xFCF JUMP JUMPDEST MSTORE MLOAD SWAP2 DUP3 SWAP2 PUSH1 0x20 DUP4 MSTORE PUSH1 0x20 DUP4 ADD SWAP1 PUSH2 0xEF8 JUMP JUMPDEST SUB SWAP1 RETURN JUMPDEST DUP4 DUP3 CALLVALUE PUSH2 0x3AA JUMPI PUSH1 0x80 CALLDATASIZE PUSH1 0x3 NOT ADD SLT PUSH2 0x3AA JUMPI PUSH2 0x52D PUSH2 0xF38 JUMP JUMPDEST PUSH2 0x535 PUSH2 0xF53 JUMP JUMPDEST SWAP1 PUSH1 0x64 CALLDATALOAD PUSH1 0x1 PUSH1 0x1 PUSH1 0x40 SHL SUB DUP2 GT PUSH2 0x575 JUMPI CALLDATASIZE PUSH1 0x23 DUP3 ADD SLT ISZERO PUSH2 0x575 JUMPI PUSH2 0x572 SWAP4 DUP2 PUSH1 0x24 PUSH2 0x568 SWAP4 CALLDATASIZE SWAP4 ADD CALLDATALOAD SWAP2 ADD PUSH2 0x1026 JUMP JUMPDEST SWAP2 PUSH1 0x44 CALLDATALOAD SWAP2 PUSH2 0x14AF JUMP JUMPDEST DUP1 RETURN JUMPDEST DUP5 DUP1 REVERT JUMPDEST POP SWAP1 CALLVALUE PUSH2 0x1B3 JUMPI DUP1 PUSH1 0x3 NOT CALLDATASIZE ADD SLT PUSH2 0x1B3 JUMPI PUSH2 0x593 PUSH2 0xF38 JUMP JUMPDEST SWAP1 PUSH1 0x24 CALLDATALOAD SWAP2 DUP3 ISZERO ISZERO DUP1 SWAP4 SUB PUSH2 0x575 JUMPI PUSH1 0x1 PUSH1 0x1 PUSH1 0xA0 SHL SUB AND SWAP3 DUP4 ISZERO PUSH2 0x601 JUMPI POP CALLER DUP5 MSTORE PUSH1 0x5 PUSH1 0x20 MSTORE DUP1 DUP5 KECCAK256 DUP4 DUP6 MSTORE PUSH1 0x20 MSTORE DUP1 DUP5 KECCAK256 PUSH1 0xFF NOT DUP2 SLOAD AND PUSH1 0xFF DUP5 AND OR SWAP1 SSTORE MLOAD SWAP1 DUP2 MSTORE PUSH32 0x17307EAB39AB6107E8899845AD3D59BD9653F200F220920489CA2B5937696C31 PUSH1 0x20 CALLER SWAP3 LOG3 DUP1 RETURN JUMPDEST DUP4 PUSH1 0x24 SWAP3 MLOAD SWAP2 PUSH4 0xB611743 PUSH1 0xE3 SHL DUP4 MSTORE DUP3 ADD MSTORE REVERT JUMPDEST POP POP CALLVALUE PUSH2 0x3AA JUMPI DUP2 PUSH1 0x3 NOT CALLDATASIZE ADD SLT PUSH2 0x3AA JUMPI DUP1 MLOAD SWAP1 DUP3 PUSH1 0x1 DUP1 SLOAD SWAP1 PUSH2 0x63A DUP3 PUSH2 0x1240 JUMP JUMPDEST DUP1 DUP7 MSTORE SWAP2 DUP2 DUP2 AND SWAP1 DUP2 ISZERO PUSH2 0x6B0 JUMPI POP PUSH1 0x1 EQ PUSH2 0x675 JUMPI JUMPDEST POP POP POP PUSH2 0x663 DUP3 PUSH2 0x50E SWAP5 SUB DUP4 PUSH2 0xFEA JUMP JUMPDEST MLOAD SWAP2 DUP3 SWAP2 PUSH1 0x20 DUP4 MSTORE PUSH1 0x20 DUP4 ADD SWAP1 PUSH2 0xEF8 JUMP JUMPDEST DUP1 SWAP6 POP DUP3 MSTORE PUSH1 0x20 SWAP5 DUP6 DUP4 KECCAK256 JUMPDEST DUP3 DUP5 LT PUSH2 0x69D JUMPI POP POP POP DUP3 PUSH2 0x50E SWAP5 PUSH2 0x663 SWAP3 DUP3 ADD ADD SWAP5 PUSH2 0x651 JUMP JUMPDEST DUP1 SLOAD DUP7 DUP6 ADD DUP9 ADD MSTORE SWAP3 DUP7 ADD SWAP3 DUP2 ADD PUSH2 0x681 JUMP JUMPDEST PUSH2 0x50E SWAP8 POP PUSH2 0x663 SWAP5 POP PUSH1 0x20 SWAP3 POP DUP7 SWAP4 SWAP2 POP PUSH1 0xFF NOT AND DUP3 DUP5 ADD MSTORE ISZERO ISZERO PUSH1 0x5 SHL DUP3 ADD ADD SWAP5 PUSH2 0x651 JUMP JUMPDEST POP POP CALLVALUE PUSH2 0x3AA JUMPI DUP2 PUSH1 0x3 NOT CALLDATASIZE ADD SLT PUSH2 0x3AA JUMPI PUSH1 0x7 SLOAD SWAP1 MLOAD PUSH1 0x1 PUSH1 0x1 PUSH1 0xA0 SHL SUB SWAP1 SWAP2 AND DUP2 MSTORE PUSH1 0x20 SWAP1 RETURN JUMPDEST POP POP CALLVALUE PUSH2 0x3AA JUMPI DUP2 PUSH1 0x3 NOT CALLDATASIZE ADD SLT PUSH2 0x3AA JUMPI PUSH1 0x20 SWAP1 PUSH1 0xC SLOAD SWAP1 MLOAD SWAP1 DUP2 MSTORE RETURN JUMPDEST PUSH2 0x10AA JUMP JUMPDEST DUP4 CALLVALUE PUSH2 0x3AE JUMPI DUP1 PUSH1 0x3 NOT CALLDATASIZE ADD SLT PUSH2 0x3AE JUMPI PUSH2 0x73E PUSH2 0x1214 JUMP JUMPDEST PUSH1 0x7 DUP1 SLOAD PUSH1 0x1 PUSH1 0x1 PUSH1 0xA0 SHL SUB NOT DUP2 AND SWAP1 SWAP2 SSTORE DUP2 SWAP1 PUSH1 0x1 PUSH1 0x1 PUSH1 0xA0 SHL SUB AND PUSH32 0x8BE0079C531659141344CD1FD0A4F28419497F9722A3DAAFE3B4186F6B6457E0 DUP3 DUP1 LOG3 DUP1 RETURN JUMPDEST POP SWAP2 CALLVALUE PUSH2 0x3AE JUMPI PUSH1 0x20 CALLDATASIZE PUSH1 0x3 NOT ADD SLT PUSH2 0x3AE JUMPI PUSH1 0x1 PUSH1 0x1 PUSH1 0xA0 SHL SUB PUSH2 0x7A5 PUSH2 0xF38 JUMP JUMPDEST AND SWAP3 DUP4 ISZERO PUSH2 0x7C2 JUMPI POP DUP1 PUSH1 0x20 SWAP4 DUP4 SWAP3 MSTORE PUSH1 0x3 DUP5 MSTORE KECCAK256 SLOAD SWAP1 MLOAD SWAP1 DUP2 MSTORE RETURN JUMPDEST SWAP2 MLOAD PUSH4 0x22718AD9 PUSH1 0xE2 SHL DUP2 MSTORE SWAP2 DUP3 ADD MSTORE PUSH1 0x24 SWAP1 REVERT JUMPDEST POP DUP2 PUSH1 0x3 NOT CALLDATASIZE ADD SLT PUSH2 0x1B3 JUMPI PUSH2 0x7EB PUSH2 0xF53 JUMP JUMPDEST SWAP3 PUSH1 0xC SLOAD CALLVALUE LT PUSH2 0x93B JUMPI PUSH2 0x7FF DUP3 CALLDATALOAD PUSH2 0x18B7 JUMP JUMPDEST DUP1 MLOAD PUSH1 0x1 PUSH1 0x1 PUSH1 0xA0 SHL SUB SWAP6 SWAP2 SWAP4 SWAP2 DUP7 AND SWAP1 DUP2 ISZERO PUSH2 0x924 JUMPI DUP1 DUP5 MSTORE PUSH1 0x20 SWAP7 PUSH1 0x2 DUP9 MSTORE DUP7 DUP6 KECCAK256 SLOAD AND SWAP2 DUP3 ISZERO ISZERO SWAP3 DUP4 PUSH2 0x8F1 JUMPI JUMPDEST DUP2 DUP7 MSTORE PUSH1 0x3 DUP10 MSTORE DUP8 DUP7 KECCAK256 DUP1 SLOAD PUSH1 0x1 ADD SWAP1 SSTORE DUP3 DUP7 MSTORE PUSH1 0x2 DUP10 MSTORE DUP8 DUP7 KECCAK256 DUP1 SLOAD PUSH1 0x1 PUSH1 0x1 PUSH1 0xA0 SHL SUB NOT AND DUP4 OR SWAP1 SSTORE PUSH32 0xDDF252AD1BE2C89B69C2B068FC378DAA952BA7F163C4A11628F55A4DF523B3EF DUP7 DUP1 LOG4 PUSH2 0x8DC JUMPI POP DUP4 PUSH32 0xF8E1A15ABA9398E019F0B49DF1A4FDE98EE17AE345CB5F6B5E2C27F5033E8CE7 SWAP2 PUSH2 0x8C0 DUP5 MLOAD SWAP2 DUP7 DUP1 DUP8 ADD MLOAD SWAP2 DUP5 DUP2 MSTORE PUSH1 0x6 DUP7 MSTORE KECCAK256 PUSH2 0x169B JUMP JUMPDEST DUP5 MLOAD SWAP1 DUP2 MSTORE LOG1 PUSH2 0x8D1 PUSH1 0xB SLOAD PUSH2 0x179F JUMP JUMPDEST PUSH1 0xB SSTORE MLOAD SWAP1 MLOAD SWAP1 DUP2 MSTORE RETURN JUMPDEST PUSH1 0x24 SWAP2 DUP5 MLOAD SWAP2 PUSH4 0x39E35637 PUSH1 0xE1 SHL DUP4 MSTORE DUP3 ADD MSTORE REVERT JUMPDEST PUSH1 0x0 DUP4 DUP2 MSTORE PUSH1 0x4 PUSH1 0x20 MSTORE PUSH1 0x40 SWAP1 KECCAK256 DUP1 SLOAD PUSH1 0x1 PUSH1 0x1 PUSH1 0xA0 SHL SUB NOT AND SWAP1 SSTORE DUP1 DUP7 MSTORE PUSH1 0x3 DUP10 MSTORE DUP8 DUP7 KECCAK256 DUP1 SLOAD PUSH1 0x0 NOT ADD SWAP1 SSTORE PUSH2 0x830 JUMP JUMPDEST DUP6 MLOAD PUSH4 0x32505749 PUSH1 0xE1 SHL DUP2 MSTORE DUP1 DUP5 ADD DUP6 SWAP1 MSTORE PUSH1 0x24 SWAP1 REVERT JUMPDEST POP PUSH1 0x20 PUSH1 0x64 SWAP3 MLOAD SWAP2 PUSH3 0x461BCD PUSH1 0xE5 SHL DUP4 MSTORE DUP3 ADD MSTORE PUSH1 0x17 PUSH1 0x24 DUP3 ADD MSTORE PUSH23 0x115D1A195C881C185A59081A5CC81A5B98DBDC9C9958DD PUSH1 0x4A SHL PUSH1 0x44 DUP3 ADD MSTORE REVERT JUMPDEST POP SWAP2 CALLVALUE PUSH2 0x3AE JUMPI PUSH1 0x20 CALLDATASIZE PUSH1 0x3 NOT ADD SLT PUSH2 0x3AE JUMPI POP PUSH2 0x998 PUSH1 0x20 SWAP3 CALLDATALOAD PUSH2 0x15FD JUMP JUMPDEST SWAP1 MLOAD PUSH1 0x1 PUSH1 0x1 PUSH1 0xA0 SHL SUB SWAP1 SWAP2 AND DUP2 MSTORE RETURN JUMPDEST POP POP CALLVALUE PUSH2 0x3AA JUMPI DUP2 PUSH1 0x3 NOT CALLDATASIZE ADD SLT PUSH2 0x3AA JUMPI PUSH1 0x8 SLOAD SWAP1 MLOAD PUSH1 0x1 PUSH1 0x1 PUSH1 0xA0 SHL SUB SWAP1 SWAP2 AND DUP2 MSTORE PUSH1 0x20 SWAP1 RETURN JUMPDEST POP POP CALLVALUE PUSH2 0x3AA JUMPI PUSH2 0x572 SWAP1 PUSH2 0x9E6 CALLDATASIZE PUSH2 0xF69 JUMP JUMPDEST SWAP2 SWAP3 MLOAD SWAP3 PUSH2 0x9F3 DUP5 PUSH2 0xFCF JUMP JUMPDEST DUP6 DUP5 MSTORE PUSH2 0x14AF JUMP JUMPDEST POP SWAP2 SWAP1 CALLVALUE PUSH2 0x3AA JUMPI PUSH2 0xA0C CALLDATASIZE PUSH2 0x107B JUMP JUMPDEST SWAP4 SWAP1 SWAP3 DUP1 SWAP3 DUP2 JUMPDEST PUSH1 0xD SLOAD DUP2 LT ISZERO PUSH2 0xCB8 JUMPI DUP6 PUSH2 0xA27 DUP3 PUSH2 0x164F JUMP JUMPDEST POP SLOAD EQ PUSH2 0xA3D JUMPI JUMPDEST PUSH2 0xA38 SWAP1 PUSH2 0x179F JUMP JUMPDEST PUSH2 0xA13 JUMP JUMPDEST SWAP4 SWAP5 DUP3 JUMPDEST PUSH2 0xA4A DUP7 PUSH2 0x164F JUMP JUMPDEST POP PUSH1 0x3 DUP1 SWAP2 ADD SLOAD DUP3 LT ISZERO PUSH2 0xCAF JUMPI PUSH2 0xA6D DUP3 DUP3 PUSH2 0xA66 DUP11 PUSH2 0x164F JUMP JUMPDEST POP ADD PUSH2 0x17C4 JUMP JUMPDEST POP SWAP1 DUP5 MLOAD DUP11 PUSH1 0x20 SWAP4 DUP3 PUSH2 0xA89 DUP7 DUP3 ADD SWAP3 DUP8 DUP5 MSTORE DUP11 DUP4 ADD SWAP1 PUSH2 0x127A JUMP JUMPDEST SUB SWAP3 PUSH2 0xA9D PUSH1 0x1F NOT SWAP5 DUP6 DUP2 ADD DUP4 MSTORE DUP3 PUSH2 0xFEA JUMP JUMPDEST MLOAD SWAP1 KECCAK256 SWAP2 PUSH2 0xAC7 DUP9 MLOAD SWAP2 DUP3 PUSH2 0xABB DUP9 DUP3 ADD SWAP6 DUP10 DUP8 MSTORE DUP13 DUP4 ADD SWAP1 PUSH2 0xEF8 JUMP JUMPDEST SUB SWAP1 DUP2 ADD DUP4 MSTORE DUP3 PUSH2 0xFEA JUMP JUMPDEST MLOAD SWAP1 KECCAK256 EQ DUP1 PUSH2 0xCA7 JUMPI JUMPDEST PUSH2 0xAE6 JUMPI JUMPDEST POP POP PUSH2 0xAE1 SWAP1 PUSH2 0x179F JUMP JUMPDEST PUSH2 0xA41 JUMP JUMPDEST SWAP3 SWAP9 SWAP1 SWAP4 SWAP2 SWAP5 SWAP6 SWAP7 SWAP8 POP PUSH2 0xB04 DUP4 PUSH2 0xAFD DUP11 PUSH2 0x164F JUMP JUMPDEST POP ADD PUSH2 0x17DC JUMP JUMPDEST SWAP9 DUP10 MLOAD DUP7 LT ISZERO PUSH2 0xCA3 JUMPI DUP7 JUMPDEST DUP11 MLOAD DUP2 LT ISZERO PUSH2 0xBAA JUMPI DUP7 DUP2 LT ISZERO PUSH2 0xB4E JUMPI DUP1 PUSH2 0xB2F PUSH2 0xB49 SWAP3 DUP14 PUSH2 0x185B JUMP JUMPDEST MLOAD PUSH2 0xB39 DUP3 PUSH2 0x1848 JUMP JUMPDEST MSTORE PUSH2 0xB43 DUP2 PUSH2 0x1848 JUMP JUMPDEST POP PUSH2 0x179F JUMP JUMPDEST PUSH2 0xB10 JUMP JUMPDEST DUP7 DUP2 GT PUSH2 0xB5F JUMPI JUMPDEST PUSH2 0xB49 SWAP1 PUSH2 0x179F JUMP JUMPDEST PUSH2 0xB69 DUP2 DUP13 PUSH2 0x185B JUMP JUMPDEST MLOAD PUSH1 0x0 NOT DUP3 ADD SWAP1 DUP3 DUP3 GT PUSH2 0xB97 JUMPI DUP2 PUSH2 0xB8F SWAP2 PUSH2 0xB89 PUSH2 0xB49 SWAP6 SWAP5 PUSH2 0x1848 JUMP JUMPDEST MSTORE PUSH2 0x1848 JUMP JUMPDEST POP SWAP1 POP PUSH2 0xB56 JUMP JUMPDEST PUSH4 0x4E487B71 PUSH1 0xE0 SHL DUP11 MSTORE PUSH1 0x11 DUP12 MSTORE PUSH1 0x24 DUP11 REVERT JUMPDEST POP SWAP3 SWAP1 SWAP9 POP SWAP7 SWAP6 SWAP5 SWAP4 SWAP7 SWAP3 SWAP1 SWAP3 PUSH2 0xBC0 DUP8 PUSH2 0x164F JUMP JUMPDEST POP PUSH1 0x60 MLOAD SWAP2 ADD SWAP2 PUSH1 0x1 PUSH1 0x40 SHL DUP3 GT PUSH2 0xC90 JUMPI DUP3 SLOAD DUP3 DUP5 SSTORE DUP1 DUP4 LT PUSH2 0xC21 JUMPI JUMPDEST POP SWAP2 DUP6 MSTORE DUP2 DUP6 KECCAK256 SWAP2 DUP6 SWAP1 PUSH1 0x80 JUMPDEST DUP4 DUP4 LT PUSH2 0xC05 JUMPI POP POP POP POP POP PUSH2 0xAE1 PUSH1 0x1 SWAP7 SWAP1 CODESIZE PUSH2 0xAD6 JUMP JUMPDEST PUSH1 0x1 DUP3 DUP3 PUSH2 0xC15 DUP4 SWAP5 MLOAD DUP10 PUSH2 0x169B JUMP JUMPDEST ADD SWAP6 ADD SWAP3 ADD SWAP2 SWAP4 PUSH2 0xBEC JUMP JUMPDEST DUP4 DUP8 MSTORE DUP3 DUP3 DUP9 KECCAK256 SWAP2 DUP3 ADD SWAP2 ADD JUMPDEST DUP2 DUP2 LT PUSH2 0xC3B JUMPI POP PUSH2 0xBDF JUMP JUMPDEST DUP1 DUP9 PUSH2 0xC49 PUSH1 0x1 SWAP4 SLOAD PUSH2 0x1240 JUMP JUMPDEST DUP1 PUSH2 0xC57 JUMPI JUMPDEST POP POP ADD PUSH2 0xC2E JUMP JUMPDEST PUSH1 0x1F DUP1 DUP3 GT DUP6 EQ PUSH2 0xC6E JUMPI POP POP DUP2 SSTORE JUMPDEST DUP9 CODESIZE PUSH2 0xC4F JUMP JUMPDEST PUSH2 0xC87 SWAP1 DUP5 DUP5 MSTORE DUP8 DUP5 KECCAK256 SWAP3 ADD PUSH1 0x5 SHR DUP3 ADD DUP6 DUP4 ADD PUSH2 0x1684 JUMP JUMPDEST DUP2 DUP4 SSTORE SSTORE PUSH2 0xC67 JUMP JUMPDEST PUSH4 0x4E487B71 PUSH1 0xE0 SHL DUP7 MSTORE PUSH1 0x41 DUP8 MSTORE PUSH1 0x24 DUP7 REVERT JUMPDEST DUP7 DUP1 REVERT JUMPDEST POP DUP9 ISZERO PUSH2 0xAD1 JUMP JUMPDEST POP POP SWAP5 SWAP4 PUSH2 0xA2F JUMP JUMPDEST DUP3 DUP1 RETURN JUMPDEST DUP4 CALLVALUE PUSH2 0x3AE JUMPI PUSH2 0x572 PUSH2 0xCCE CALLDATASIZE PUSH2 0xF69 JUMP JUMPDEST SWAP2 PUSH2 0x1310 JUMP JUMPDEST POP SWAP1 CALLVALUE PUSH2 0x1B3 JUMPI DUP1 PUSH1 0x3 NOT CALLDATASIZE ADD SLT PUSH2 0x1B3 JUMPI PUSH2 0xCEE PUSH2 0xF38 JUMP JUMPDEST SWAP2 PUSH1 0x24 CALLDATALOAD PUSH2 0xCFB DUP2 PUSH2 0x15FD JUMP JUMPDEST CALLER ISZERO ISZERO DUP1 PUSH2 0xD9D JUMPI JUMPDEST DUP1 PUSH2 0xD74 JUMPI JUMPDEST PUSH2 0xD5E JUMPI PUSH1 0x1 PUSH1 0x1 PUSH1 0xA0 SHL SUB SWAP5 DUP6 AND SWAP5 DUP3 SWAP2 DUP7 SWAP2 AND PUSH32 0x8C5BE1E5EBEC7D5BD14F71427D1E84F3DD0314C0F7B2291E5B200AC8C7C3B925 DUP9 DUP1 LOG4 DUP5 MSTORE PUSH1 0x20 MSTORE DUP3 KECCAK256 DUP1 SLOAD PUSH1 0x1 PUSH1 0x1 PUSH1 0xA0 SHL SUB NOT AND SWAP1 SWAP2 OR SWAP1 SSTORE DUP1 RETURN JUMPDEST DUP4 MLOAD PUSH4 0xA9FBF51F PUSH1 0xE0 SHL DUP2 MSTORE CALLER DUP2 DUP6 ADD MSTORE PUSH1 0x24 SWAP1 REVERT JUMPDEST POP PUSH1 0x1 PUSH1 0x1 PUSH1 0xA0 SHL SUB DUP2 AND DUP7 MSTORE PUSH1 0x5 PUSH1 0x20 SWAP1 DUP2 MSTORE DUP5 DUP8 KECCAK256 CALLER DUP9 MSTORE SWAP1 MSTORE DUP4 DUP7 KECCAK256 SLOAD PUSH1 0xFF AND ISZERO PUSH2 0xD0A JUMP JUMPDEST POP PUSH1 0x1 PUSH1 0x1 PUSH1 0xA0 SHL SUB DUP2 AND CALLER EQ ISZERO PUSH2 0xD04 JUMP JUMPDEST POP CALLVALUE PUSH2 0x1B3 JUMPI PUSH1 0x20 CALLDATASIZE PUSH1 0x3 NOT ADD SLT PUSH2 0x1B3 JUMPI SWAP2 DUP3 PUSH1 0x20 SWAP4 CALLDATALOAD PUSH2 0xDD1 DUP2 PUSH2 0x15FD JUMP JUMPDEST POP DUP3 MSTORE DUP4 MSTORE DUP2 SWAP1 KECCAK256 SLOAD SWAP1 MLOAD PUSH1 0x1 PUSH1 0x1 PUSH1 0xA0 SHL SUB SWAP1 SWAP2 AND DUP2 MSTORE RETURN JUMPDEST POP POP CALLVALUE PUSH2 0x3AA JUMPI DUP2 PUSH1 0x3 NOT CALLDATASIZE ADD SLT PUSH2 0x3AA JUMPI DUP1 MLOAD SWAP1 DUP3 DUP1 SLOAD PUSH2 0xE0C DUP2 PUSH2 0x1240 JUMP JUMPDEST DUP1 DUP6 MSTORE SWAP1 PUSH1 0x1 SWAP1 DUP2 DUP2 AND SWAP1 DUP2 ISZERO PUSH2 0x6B0 JUMPI POP PUSH1 0x1 EQ PUSH2 0xE37 JUMPI POP POP POP PUSH2 0x663 DUP3 PUSH2 0x50E SWAP5 SUB DUP4 PUSH2 0xFEA JUMP JUMPDEST SWAP5 POP DUP2 DUP1 MSTORE PUSH1 0x20 SWAP5 DUP6 DUP4 KECCAK256 JUMPDEST DUP3 DUP5 LT PUSH2 0xE5F JUMPI POP POP POP DUP3 PUSH2 0x50E SWAP5 PUSH2 0x663 SWAP3 DUP3 ADD ADD SWAP5 PUSH2 0x651 JUMP JUMPDEST DUP1 SLOAD DUP7 DUP6 ADD DUP9 ADD MSTORE SWAP3 DUP7 ADD SWAP3 DUP2 ADD PUSH2 0xE43 JUMP JUMPDEST SWAP3 POP POP CALLVALUE PUSH2 0x1B3 JUMPI PUSH1 0x20 CALLDATASIZE PUSH1 0x3 NOT ADD SLT PUSH2 0x1B3 JUMPI CALLDATALOAD PUSH4 0xFFFFFFFF PUSH1 0xE0 SHL DUP2 AND DUP1 SWAP2 SUB PUSH2 0x1B3 JUMPI PUSH1 0x20 SWAP3 POP PUSH4 0x24832483 PUSH1 0xE1 SHL DUP2 EQ SWAP1 DUP2 ISZERO PUSH2 0xEB5 JUMPI JUMPDEST POP ISZERO ISZERO DUP2 MSTORE RETURN JUMPDEST PUSH4 0x80AC58CD PUSH1 0xE0 SHL DUP2 EQ SWAP2 POP DUP2 ISZERO PUSH2 0xEE7 JUMPI JUMPDEST DUP2 ISZERO PUSH2 0xED6 JUMPI JUMPDEST POP CODESIZE PUSH2 0xEAE JUMP JUMPDEST PUSH4 0x1FFC9A7 PUSH1 0xE0 SHL EQ SWAP1 POP CODESIZE PUSH2 0xECF JUMP JUMPDEST PUSH4 0x5B5E139F PUSH1 0xE0 SHL DUP2 EQ SWAP2 POP PUSH2 0xEC8 JUMP JUMPDEST SWAP2 SWAP1 DUP3 MLOAD SWAP3 DUP4 DUP3 MSTORE PUSH1 0x0 JUMPDEST DUP5 DUP2 LT PUSH2 0xF24 JUMPI POP POP DUP3 PUSH1 0x0 PUSH1 0x20 DUP1 SWAP5 SWAP6 DUP5 ADD ADD MSTORE PUSH1 0x1F DUP1 NOT SWAP2 ADD AND ADD ADD SWAP1 JUMP JUMPDEST PUSH1 0x20 DUP2 DUP4 ADD DUP2 ADD MLOAD DUP5 DUP4 ADD DUP3 ADD MSTORE ADD PUSH2 0xF03 JUMP JUMPDEST PUSH1 0x4 CALLDATALOAD SWAP1 PUSH1 0x1 PUSH1 0x1 PUSH1 0xA0 SHL SUB DUP3 AND DUP3 SUB PUSH2 0xF4E JUMPI JUMP JUMPDEST PUSH1 0x0 DUP1 REVERT JUMPDEST PUSH1 0x24 CALLDATALOAD SWAP1 PUSH1 0x1 PUSH1 0x1 PUSH1 0xA0 SHL SUB DUP3 AND DUP3 SUB PUSH2 0xF4E JUMPI JUMP JUMPDEST PUSH1 0x60 SWAP1 PUSH1 0x3 NOT ADD SLT PUSH2 0xF4E JUMPI PUSH1 0x1 PUSH1 0x1 PUSH1 0xA0 SHL SUB SWAP1 PUSH1 0x4 CALLDATALOAD DUP3 DUP2 AND DUP2 SUB PUSH2 0xF4E JUMPI SWAP2 PUSH1 0x24 CALLDATALOAD SWAP1 DUP2 AND DUP2 SUB PUSH2 0xF4E JUMPI SWAP1 PUSH1 0x44 CALLDATALOAD SWAP1 JUMP JUMPDEST PUSH1 0x80 DUP2 ADD SWAP1 DUP2 LT PUSH1 0x1 PUSH1 0x1 PUSH1 0x40 SHL SUB DUP3 GT OR PUSH2 0xFB9 JUMPI PUSH1 0x40 MSTORE JUMP JUMPDEST PUSH4 0x4E487B71 PUSH1 0xE0 SHL PUSH1 0x0 MSTORE PUSH1 0x41 PUSH1 0x4 MSTORE PUSH1 0x24 PUSH1 0x0 REVERT JUMPDEST PUSH1 0x20 DUP2 ADD SWAP1 DUP2 LT PUSH1 0x1 PUSH1 0x1 PUSH1 0x40 SHL SUB DUP3 GT OR PUSH2 0xFB9 JUMPI PUSH1 0x40 MSTORE JUMP JUMPDEST SWAP1 PUSH1 0x1F DUP1 NOT SWAP2 ADD AND DUP2 ADD SWAP1 DUP2 LT PUSH1 0x1 PUSH1 0x1 PUSH1 0x40 SHL SUB DUP3 GT OR PUSH2 0xFB9 JUMPI PUSH1 0x40 MSTORE JUMP JUMPDEST PUSH1 0x1 PUSH1 0x1 PUSH1 0x40 SHL SUB DUP2 GT PUSH2 0xFB9 JUMPI PUSH1 0x1F ADD PUSH1 0x1F NOT AND PUSH1 0x20 ADD SWAP1 JUMP JUMPDEST SWAP3 SWAP2 SWAP3 PUSH2 0x1032 DUP3 PUSH2 0x100B JUMP JUMPDEST SWAP2 PUSH2 0x1040 PUSH1 0x40 MLOAD SWAP4 DUP5 PUSH2 0xFEA JUMP JUMPDEST DUP3 SWAP5 DUP2 DUP5 MSTORE DUP2 DUP4 ADD GT PUSH2 0xF4E JUMPI DUP3 DUP2 PUSH1 0x20 SWAP4 DUP5 PUSH1 0x0 SWAP7 ADD CALLDATACOPY ADD ADD MSTORE JUMP JUMPDEST SWAP1 DUP1 PUSH1 0x1F DUP4 ADD SLT ISZERO PUSH2 0xF4E JUMPI DUP2 PUSH1 0x20 PUSH2 0x1078 SWAP4 CALLDATALOAD SWAP2 ADD PUSH2 0x1026 JUMP JUMPDEST SWAP1 JUMP JUMPDEST SWAP1 PUSH1 0x40 PUSH1 0x3 NOT DUP4 ADD SLT PUSH2 0xF4E JUMPI PUSH1 0x4 CALLDATALOAD SWAP2 PUSH1 0x24 CALLDATALOAD SWAP1 PUSH1 0x1 PUSH1 0x1 PUSH1 0x40 SHL SUB DUP3 GT PUSH2 0xF4E JUMPI PUSH2 0x1078 SWAP2 PUSH1 0x4 ADD PUSH2 0x105D JUMP JUMPDEST CALLVALUE PUSH2 0xF4E JUMPI PUSH1 0x0 DUP1 PUSH1 0x3 NOT CALLDATASIZE ADD SLT PUSH2 0x3AE JUMPI PUSH1 0xD SLOAD SWAP1 PUSH2 0x10C9 DUP3 PUSH2 0x1638 JUMP JUMPDEST SWAP2 PUSH1 0x40 SWAP3 PUSH2 0x10D9 DUP5 MLOAD SWAP2 DUP3 PUSH2 0xFEA JUMP JUMPDEST DUP2 DUP2 MSTORE PUSH1 0xD DUP4 MSTORE PUSH1 0x20 DUP1 DUP3 ADD SWAP3 DUP5 PUSH32 0xD7B6990105719101DABEB77144F2A3385C8033ACD3AF97E9423A695E81AD1EB5 DUP6 JUMPDEST DUP4 DUP4 LT PUSH2 0x11ED JUMPI POP POP POP POP DUP5 MLOAD SWAP4 DUP2 DUP6 ADD SWAP3 DUP3 DUP7 MSTORE MLOAD DUP1 SWAP4 MSTORE DUP6 DUP6 ADD PUSH1 0x5 SWAP7 DUP1 DUP6 DUP10 SHL DUP9 ADD ADD SWAP6 SWAP8 DUP4 JUMPDEST DUP7 DUP6 LT PUSH2 0x1141 JUMPI DUP9 DUP9 SUB DUP10 RETURN JUMPDEST SWAP1 SWAP2 SWAP3 SWAP4 SWAP5 DUP1 SWAP7 SWAP8 PUSH1 0x3F NOT DUP11 DUP3 SUB ADD DUP7 MSTORE DUP11 MLOAD SWAP1 DUP2 MLOAD DUP2 MSTORE DUP3 DUP3 ADD MLOAD DUP4 DUP3 ADD MSTORE PUSH2 0x1177 DUP7 DUP4 ADD MLOAD PUSH1 0x80 DUP1 DUP10 DUP6 ADD MSTORE DUP4 ADD SWAP1 PUSH2 0xEF8 JUMP JUMPDEST SWAP1 PUSH1 0x60 DUP1 SWAP4 ADD MLOAD SWAP3 DUP2 DUP4 SUB SWAP2 ADD MSTORE DUP2 MLOAD DUP1 DUP3 MSTORE DUP4 DUP3 ADD SWAP1 DUP5 DUP1 DUP3 DUP10 SHL DUP6 ADD ADD SWAP5 ADD SWAP3 DUP7 JUMPDEST DUP3 DUP2 LT PUSH2 0x11BF JUMPI POP POP POP POP POP SWAP1 DUP1 PUSH1 0x1 SWAP3 SWAP12 ADD SWAP6 ADD SWAP6 ADD SWAP4 SWAP9 SWAP7 SWAP6 SWAP5 SWAP3 SWAP2 SWAP1 PUSH2 0x1134 JUMP JUMPDEST SWAP2 SWAP4 SWAP6 DUP1 PUSH2 0x11DB PUSH1 0x1 SWAP4 SWAP6 SWAP8 PUSH1 0x1F NOT DUP8 DUP3 SUB ADD DUP10 MSTORE DUP10 MLOAD PUSH2 0xEF8 JUMP JUMPDEST SWAP8 ADD SWAP6 ADD SWAP2 ADD SWAP2 DUP12 SWAP6 SWAP5 SWAP4 SWAP2 SWAP3 PUSH2 0x119B JUMP JUMPDEST PUSH1 0x4 DUP6 PUSH1 0x1 SWAP3 PUSH2 0x1201 DUP6 SWAP13 SWAP9 SWAP10 SWAP11 SWAP13 PUSH2 0x186F JUMP JUMPDEST DUP2 MSTORE ADD SWAP3 ADD SWAP3 ADD SWAP2 SWAP1 SWAP8 SWAP6 SWAP5 SWAP4 SWAP8 PUSH2 0x110A JUMP JUMPDEST PUSH1 0x7 SLOAD PUSH1 0x1 PUSH1 0x1 PUSH1 0xA0 SHL SUB AND CALLER SUB PUSH2 0x1228 JUMPI JUMP JUMPDEST PUSH1 0x40 MLOAD PUSH4 0x118CDAA7 PUSH1 0xE0 SHL DUP2 MSTORE CALLER PUSH1 0x4 DUP3 ADD MSTORE PUSH1 0x24 SWAP1 REVERT JUMPDEST SWAP1 PUSH1 0x1 DUP3 DUP2 SHR SWAP3 AND DUP1 ISZERO PUSH2 0x1270 JUMPI JUMPDEST PUSH1 0x20 DUP4 LT EQ PUSH2 0x125A JUMPI JUMP JUMPDEST PUSH4 0x4E487B71 PUSH1 0xE0 SHL PUSH1 0x0 MSTORE PUSH1 0x22 PUSH1 0x4 MSTORE PUSH1 0x24 PUSH1 0x0 REVERT JUMPDEST SWAP2 PUSH1 0x7F AND SWAP2 PUSH2 0x124F JUMP JUMPDEST SWAP1 PUSH1 0x0 SWAP3 SWAP2 DUP1 SLOAD SWAP2 PUSH2 0x128B DUP4 PUSH2 0x1240 JUMP JUMPDEST SWAP2 DUP3 DUP3 MSTORE PUSH1 0x1 SWAP4 DUP5 DUP2 AND SWAP1 DUP2 PUSH1 0x0 EQ PUSH2 0x12ED JUMPI POP PUSH1 0x1 EQ PUSH2 0x12AD JUMPI JUMPDEST POP POP POP POP JUMP JUMPDEST SWAP1 SWAP2 SWAP4 SWAP5 POP PUSH1 0x0 MSTORE PUSH1 0x20 SWAP3 DUP4 PUSH1 0x0 KECCAK256 SWAP3 DUP5 PUSH1 0x0 SWAP5 JUMPDEST DUP4 DUP7 LT PUSH2 0x12D9 JUMPI POP POP POP POP ADD ADD SWAP1 CODESIZE DUP1 DUP1 DUP1 PUSH2 0x12A7 JUMP JUMPDEST DUP1 SLOAD DUP6 DUP8 ADD DUP4 ADD MSTORE SWAP5 ADD SWAP4 DUP6 SWAP1 DUP3 ADD PUSH2 0x12C2 JUMP JUMPDEST SWAP3 SWAP5 POP POP POP PUSH1 0x20 SWAP4 SWAP5 POP PUSH1 0xFF NOT AND DUP4 DUP4 ADD MSTORE ISZERO ISZERO PUSH1 0x5 SHL ADD ADD SWAP1 CODESIZE DUP1 DUP1 DUP1 PUSH2 0x12A7 JUMP JUMPDEST PUSH1 0x1 PUSH1 0x1 PUSH1 0xA0 SHL SUB SWAP2 DUP3 AND SWAP3 SWAP1 SWAP2 DUP4 ISZERO PUSH2 0x1496 JUMPI PUSH1 0x0 SWAP3 DUP3 DUP5 MSTORE DUP3 PUSH1 0x20 SWAP6 PUSH1 0x2 DUP8 MSTORE PUSH1 0x40 SWAP7 DUP5 DUP9 DUP9 KECCAK256 SLOAD AND SWAP7 DUP8 SWAP2 CALLER ISZERO ISZERO DUP1 PUSH2 0x1400 JUMPI JUMPDEST POP SWAP1 PUSH1 0x2 PUSH32 0xDDF252AD1BE2C89B69C2B068FC378DAA952BA7F163C4A11628F55A4DF523B3EF SWAP3 DUP5 PUSH2 0x13CD JUMPI JUMPDEST DUP6 DUP4 MSTORE PUSH1 0x3 DUP2 MSTORE DUP12 DUP4 KECCAK256 DUP1 SLOAD PUSH1 0x1 ADD SWAP1 SSTORE DUP7 DUP4 MSTORE MSTORE DUP10 DUP2 KECCAK256 DUP1 SLOAD PUSH1 0x1 PUSH1 0x1 PUSH1 0xA0 SHL SUB NOT AND DUP6 OR SWAP1 SSTORE DUP1 LOG4 AND SWAP3 DUP4 DUP4 SUB PUSH2 0x13AC JUMPI POP POP POP POP JUMP JUMPDEST PUSH1 0x64 SWAP5 POP MLOAD SWAP3 PUSH4 0x64283D7B PUSH1 0xE0 SHL DUP5 MSTORE PUSH1 0x4 DUP5 ADD MSTORE PUSH1 0x24 DUP4 ADD MSTORE PUSH1 0x44 DUP3 ADD MSTORE REVERT JUMPDEST PUSH1 0x0 DUP8 DUP2 MSTORE PUSH1 0x4 PUSH1 0x20 MSTORE PUSH1 0x40 SWAP1 KECCAK256 DUP1 SLOAD PUSH1 0x1 PUSH1 0x1 PUSH1 0xA0 SHL SUB NOT AND SWAP1 SSTORE DUP5 DUP4 MSTORE PUSH1 0x3 DUP2 MSTORE DUP12 DUP4 KECCAK256 DUP1 SLOAD PUSH1 0x0 NOT ADD SWAP1 SSTORE PUSH2 0x1373 JUMP JUMPDEST SWAP2 SWAP4 SWAP5 POP SWAP2 POP DUP1 PUSH2 0x1455 JUMPI JUMPDEST ISZERO PUSH2 0x141C JUMPI DUP6 SWAP3 SWAP2 DUP8 SWAP2 CODESIZE PUSH2 0x1347 JUMP JUMPDEST DUP8 DUP7 DUP9 PUSH2 0x1439 JUMPI PUSH1 0x24 SWAP2 MLOAD SWAP1 PUSH4 0x7E273289 PUSH1 0xE0 SHL DUP3 MSTORE PUSH1 0x4 DUP3 ADD MSTORE REVERT JUMPDEST PUSH1 0x44 SWAP2 MLOAD SWAP1 PUSH4 0x177E802F PUSH1 0xE0 SHL DUP3 MSTORE CALLER PUSH1 0x4 DUP4 ADD MSTORE PUSH1 0x24 DUP3 ADD MSTORE REVERT JUMPDEST POP CALLER DUP8 EQ DUP1 ISZERO PUSH2 0x147A JUMPI JUMPDEST DUP1 PUSH2 0x140C JUMPI POP DUP6 DUP3 MSTORE PUSH1 0x4 DUP2 MSTORE CALLER DUP6 DUP10 DUP5 KECCAK256 SLOAD AND EQ PUSH2 0x140C JUMP JUMPDEST POP DUP7 DUP3 MSTORE PUSH1 0x5 DUP2 MSTORE DUP8 DUP3 KECCAK256 CALLER DUP4 MSTORE DUP2 MSTORE PUSH1 0xFF DUP9 DUP4 KECCAK256 SLOAD AND PUSH2 0x1460 JUMP JUMPDEST PUSH1 0x40 MLOAD PUSH4 0x32505749 PUSH1 0xE1 SHL DUP2 MSTORE PUSH1 0x0 PUSH1 0x4 DUP3 ADD MSTORE PUSH1 0x24 SWAP1 REVERT JUMPDEST PUSH2 0x14BA DUP4 DUP4 DUP4 PUSH2 0x1310 JUMP JUMPDEST DUP2 EXTCODESIZE PUSH2 0x14C6 JUMPI POP POP POP POP JUMP JUMPDEST PUSH1 0x40 MLOAD PUSH4 0xA85BD01 PUSH1 0xE1 SHL DUP1 DUP3 MSTORE CALLER PUSH1 0x4 DUP4 ADD MSTORE PUSH1 0x1 PUSH1 0x1 PUSH1 0xA0 SHL SUB SWAP3 DUP4 AND PUSH1 0x24 DUP4 ADD MSTORE PUSH1 0x44 DUP3 ADD SWAP5 SWAP1 SWAP5 MSTORE PUSH1 0x80 PUSH1 0x64 DUP3 ADD MSTORE PUSH1 0x20 SWAP6 SWAP3 SWAP1 SWAP2 AND SWAP4 SWAP1 SWAP3 SWAP1 DUP4 SWAP1 PUSH2 0x1514 SWAP1 PUSH1 0x84 DUP4 ADD SWAP1 PUSH2 0xEF8 JUMP JUMPDEST SUB SWAP3 DUP6 DUP2 PUSH1 0x0 SWAP6 DUP2 DUP8 DUP10 GAS CALL DUP5 SWAP2 DUP2 PUSH2 0x15BD JUMPI JUMPDEST POP PUSH2 0x1588 JUMPI POP POP POP RETURNDATASIZE PUSH1 0x0 EQ PUSH2 0x1580 JUMPI RETURNDATASIZE PUSH2 0x1542 DUP2 PUSH2 0x100B JUMP JUMPDEST SWAP1 PUSH2 0x1550 PUSH1 0x40 MLOAD SWAP3 DUP4 PUSH2 0xFEA JUMP JUMPDEST DUP2 MSTORE DUP1 SWAP2 DUP5 RETURNDATASIZE SWAP3 ADD RETURNDATACOPY JUMPDEST DUP1 MLOAD SWAP3 DUP4 PUSH2 0x157B JUMPI PUSH1 0x40 MLOAD PUSH4 0x32505749 PUSH1 0xE1 SHL DUP2 MSTORE PUSH1 0x4 DUP2 ADD DUP5 SWAP1 MSTORE PUSH1 0x24 SWAP1 REVERT JUMPDEST ADD SWAP1 POP REVERT JUMPDEST POP PUSH1 0x60 PUSH2 0x155A JUMP JUMPDEST SWAP2 SWAP5 POP SWAP2 POP PUSH4 0xFFFFFFFF PUSH1 0xE0 SHL AND SUB PUSH2 0x15A5 JUMPI POP CODESIZE DUP1 DUP1 DUP1 PUSH2 0x12A7 JUMP JUMPDEST PUSH1 0x24 SWAP1 PUSH1 0x40 MLOAD SWAP1 PUSH4 0x32505749 PUSH1 0xE1 SHL DUP3 MSTORE PUSH1 0x4 DUP3 ADD MSTORE REVERT JUMPDEST SWAP1 SWAP2 POP DUP7 DUP2 DUP2 RETURNDATASIZE DUP4 GT PUSH2 0x15F6 JUMPI JUMPDEST PUSH2 0x15D5 DUP2 DUP4 PUSH2 0xFEA JUMP JUMPDEST DUP2 ADD SUB SLT PUSH2 0x575 JUMPI MLOAD PUSH1 0x1 PUSH1 0x1 PUSH1 0xE0 SHL SUB NOT DUP2 AND DUP2 SUB PUSH2 0x575 JUMPI SWAP1 CODESIZE PUSH2 0x1528 JUMP JUMPDEST POP RETURNDATASIZE PUSH2 0x15CB JUMP JUMPDEST PUSH1 0x0 DUP2 DUP2 MSTORE PUSH1 0x2 PUSH1 0x20 MSTORE PUSH1 0x40 SWAP1 KECCAK256 SLOAD PUSH1 0x1 PUSH1 0x1 PUSH1 0xA0 SHL SUB AND SWAP1 DUP2 ISZERO PUSH2 0x1620 JUMPI POP SWAP1 JUMP JUMPDEST PUSH1 0x24 SWAP1 PUSH1 0x40 MLOAD SWAP1 PUSH4 0x7E273289 PUSH1 0xE0 SHL DUP3 MSTORE PUSH1 0x4 DUP3 ADD MSTORE REVERT JUMPDEST PUSH1 0x1 PUSH1 0x1 PUSH1 0x40 SHL SUB DUP2 GT PUSH2 0xFB9 JUMPI PUSH1 0x5 SHL PUSH1 0x20 ADD SWAP1 JUMP JUMPDEST PUSH1 0xD SLOAD DUP2 LT ISZERO PUSH2 0x166E JUMPI PUSH1 0xD PUSH1 0x0 MSTORE PUSH1 0x20 PUSH1 0x0 KECCAK256 SWAP1 PUSH1 0x2 SHL ADD SWAP1 PUSH1 0x0 SWAP1 JUMP JUMPDEST PUSH4 0x4E487B71 PUSH1 0xE0 SHL PUSH1 0x0 MSTORE PUSH1 0x32 PUSH1 0x4 MSTORE PUSH1 0x24 PUSH1 0x0 REVERT JUMPDEST DUP2 DUP2 LT PUSH2 0x168F JUMPI POP POP JUMP JUMPDEST PUSH1 0x0 DUP2 SSTORE PUSH1 0x1 ADD PUSH2 0x1684 JUMP JUMPDEST SWAP2 SWAP1 SWAP2 DUP3 MLOAD PUSH1 0x1 PUSH1 0x1 PUSH1 0x40 SHL SUB DUP2 GT PUSH2 0xFB9 JUMPI PUSH2 0x16B8 DUP3 SLOAD PUSH2 0x1240 JUMP JUMPDEST PUSH1 0x1F DUP2 GT PUSH2 0x1762 JUMPI JUMPDEST POP PUSH1 0x20 DUP1 PUSH1 0x1F DUP4 GT PUSH1 0x1 EQ PUSH2 0x16FE JUMPI POP DUP2 SWAP3 SWAP4 SWAP5 PUSH1 0x0 SWAP3 PUSH2 0x16F3 JUMPI JUMPDEST POP POP DUP2 PUSH1 0x1 SHL SWAP2 PUSH1 0x0 NOT SWAP1 PUSH1 0x3 SHL SHR NOT AND OR SWAP1 SSTORE JUMP JUMPDEST ADD MLOAD SWAP1 POP CODESIZE DUP1 PUSH2 0x16DD JUMP JUMPDEST SWAP1 PUSH1 0x1F NOT DUP4 AND SWAP6 DUP5 PUSH1 0x0 MSTORE DUP3 PUSH1 0x0 KECCAK256 SWAP3 PUSH1 0x0 SWAP1 JUMPDEST DUP9 DUP3 LT PUSH2 0x174A JUMPI POP POP DUP4 PUSH1 0x1 SWAP6 SWAP7 SWAP8 LT PUSH2 0x1731 JUMPI JUMPDEST POP POP POP DUP2 SHL ADD SWAP1 SSTORE JUMP JUMPDEST ADD MLOAD PUSH1 0x0 NOT PUSH1 0xF8 DUP5 PUSH1 0x3 SHL AND SHR NOT AND SWAP1 SSTORE CODESIZE DUP1 DUP1 PUSH2 0x1727 JUMP JUMPDEST DUP1 PUSH1 0x1 DUP6 SWAP7 DUP3 SWAP5 SWAP7 DUP7 ADD MLOAD DUP2 SSTORE ADD SWAP6 ADD SWAP4 ADD SWAP1 PUSH2 0x1712 JUMP JUMPDEST PUSH2 0x178F SWAP1 DUP4 PUSH1 0x0 MSTORE PUSH1 0x20 PUSH1 0x0 KECCAK256 PUSH1 0x1F DUP5 ADD PUSH1 0x5 SHR DUP2 ADD SWAP2 PUSH1 0x20 DUP6 LT PUSH2 0x1795 JUMPI JUMPDEST PUSH1 0x1F ADD PUSH1 0x5 SHR ADD SWAP1 PUSH2 0x1684 JUMP JUMPDEST CODESIZE PUSH2 0x16C1 JUMP JUMPDEST SWAP1 SWAP2 POP DUP2 SWAP1 PUSH2 0x1782 JUMP JUMPDEST PUSH1 0x0 NOT DUP2 EQ PUSH2 0x17AE JUMPI PUSH1 0x1 ADD SWAP1 JUMP JUMPDEST PUSH4 0x4E487B71 PUSH1 0xE0 SHL PUSH1 0x0 MSTORE PUSH1 0x11 PUSH1 0x4 MSTORE PUSH1 0x24 PUSH1 0x0 REVERT JUMPDEST DUP1 SLOAD DUP3 LT ISZERO PUSH2 0x166E JUMPI PUSH1 0x0 MSTORE PUSH1 0x20 PUSH1 0x0 KECCAK256 ADD SWAP1 PUSH1 0x0 SWAP1 JUMP JUMPDEST SWAP1 DUP2 SLOAD PUSH2 0x17E8 DUP2 PUSH2 0x1638 JUMP JUMPDEST SWAP3 PUSH1 0x40 SWAP4 PUSH2 0x17F8 DUP6 MLOAD SWAP2 DUP3 PUSH2 0xFEA JUMP JUMPDEST DUP3 DUP2 MSTORE DUP1 SWAP5 PUSH1 0x20 DUP1 SWAP3 ADD SWAP3 PUSH1 0x0 MSTORE DUP2 PUSH1 0x0 KECCAK256 SWAP1 PUSH1 0x0 SWAP4 JUMPDEST DUP6 DUP6 LT PUSH2 0x181E JUMPI POP POP POP POP POP POP JUMP JUMPDEST PUSH1 0x1 DUP5 DUP2 SWAP3 DUP5 MLOAD PUSH2 0x183A DUP2 PUSH2 0x1833 DUP2 DUP11 PUSH2 0x127A JUMP JUMPDEST SUB DUP3 PUSH2 0xFEA JUMP JUMPDEST DUP2 MSTORE ADD SWAP4 ADD SWAP5 ADD SWAP4 SWAP2 PUSH2 0x180F JUMP JUMPDEST PUSH1 0x60 MLOAD DUP2 LT ISZERO PUSH2 0x166E JUMPI PUSH1 0x5 SHL PUSH1 0x80 ADD SWAP1 JUMP JUMPDEST DUP1 MLOAD DUP3 LT ISZERO PUSH2 0x166E JUMPI PUSH1 0x20 SWAP2 PUSH1 0x5 SHL ADD ADD SWAP1 JUMP JUMPDEST SWAP1 PUSH1 0x40 MLOAD PUSH2 0x187C DUP2 PUSH2 0xF9E JUMP JUMPDEST PUSH1 0x60 PUSH2 0x18B2 PUSH1 0x3 DUP4 SWAP6 DUP1 SLOAD DUP6 MSTORE PUSH1 0x1 DUP2 ADD SLOAD PUSH1 0x20 DUP7 ADD MSTORE PUSH1 0x40 MLOAD PUSH2 0x18A7 DUP2 PUSH2 0x1833 DUP2 PUSH1 0x2 DUP7 ADD PUSH2 0x127A JUMP JUMPDEST PUSH1 0x40 DUP7 ADD MSTORE ADD PUSH2 0x17DC JUMP JUMPDEST SWAP2 ADD MSTORE JUMP JUMPDEST PUSH1 0x40 SWAP1 DUP2 MLOAD SWAP1 PUSH2 0x18C6 DUP3 PUSH2 0xF9E JUMP JUMPDEST PUSH1 0x60 DUP1 PUSH1 0x0 SWAP4 DUP5 DUP2 MSTORE DUP5 PUSH1 0x20 DUP3 ADD MSTORE DUP2 DUP7 DUP3 ADD MSTORE ADD MSTORE DUP2 SWAP1 PUSH1 0xD SLOAD SWAP2 JUMPDEST DUP3 DUP2 LT PUSH2 0x192A JUMPI POP POP POP DUP2 MLOAD SWAP1 PUSH2 0x18F9 DUP3 PUSH2 0xFCF JUMP JUMPDEST DUP1 DUP3 MSTORE DUP3 MLOAD SWAP3 PUSH2 0x1908 DUP5 PUSH2 0xF9E JUMP JUMPDEST DUP2 DUP5 MSTORE DUP2 PUSH1 0x20 DUP6 ADD MSTORE DUP1 MLOAD SWAP2 PUSH2 0x191D DUP4 PUSH2 0xFCF JUMP JUMPDEST DUP3 MSTORE DUP4 ADD MSTORE PUSH1 0x60 DUP3 ADD MSTORE SWAP1 JUMP JUMPDEST DUP2 PUSH2 0x1934 DUP3 PUSH2 0x164F JUMP JUMPDEST POP SLOAD EQ PUSH2 0x1949 JUMPI PUSH2 0x1944 SWAP1 PUSH2 0x179F JUMP JUMPDEST PUSH2 0x18E3 JUMP JUMPDEST SWAP2 POP POP PUSH2 0x1078 SWAP3 POP PUSH2 0x195B SWAP2 POP PUSH2 0x164F JUMP JUMPDEST POP PUSH2 0x186F JUMP INVALID LOG2 PUSH5 0x6970667358 0x22 SLT KECCAK256 DELEGATECALL OR PUSH19 0xB4FDF3A2E170CD46C5FAF518ACB2A7771DD463 GAS OR PUSH19 0xE4A2613B2DFA8164736F6C63430008140033A2 PUSH5 0x6970667358 0x22 SLT KECCAK256 ADD 0xBC 0x28 0xAC 0xEE DUP13 JUMPDEST GAS 0xEF 0xDB 0xB1 0x4F 0xE5 LOG3 DUP4 0xBA DUP11 PUSH30 0xBA659DEF114514529D13372A85264736F6C634300081400330000000000 "},"methodIdentifiers":{"AddNFTs(string)":"d6fad3ae","AddVote(uint256,uint256,string)":"0e8aef77","GetAllNFTs(address)":"8db77cce","GetAvailableNFTs()":"5fec6e67","collections(uint256)":"fdbda0ec","mintNFT(uint256,uint256)":"c48283ff","owner()":"8da5cb5b","renounceOwnership()":"715018a6","transferOwnership(address)":"f2fde38b","voters(uint256)":"da58c7d9"}}}}}