{
  "_format": "hh-sol-artifact-1",
  "contractName": "Gallery",
  "sourceName": "contracts/Collection.sol",
  "abi": [
    {
      "inputs": [],
      "stateMutability": "nonpayable",
      "type": "constructor"
    },
    {
      "inputs": [
        {
          "internalType": "address",
          "name": "owner",
          "type": "address"
        }
      ],
      "name": "OwnableInvalidOwner",
      "type": "error"
    },
    {
      "inputs": [
        {
          "internalType": "address",
          "name": "account",
          "type": "address"
        }
      ],
      "name": "OwnableUnauthorizedAccount",
      "type": "error"
    },
    {
      "anonymous": false,
      "inputs": [
        {
          "indexed": true,
          "internalType": "address",
          "name": "previousOwner",
          "type": "address"
        },
        {
          "indexed": true,
          "internalType": "address",
          "name": "newOwner",
          "type": "address"
        }
      ],
      "name": "OwnershipTransferred",
      "type": "event"
    },
    {
      "inputs": [
        {
          "internalType": "string",
          "name": "_collectionURI",
          "type": "string"
        }
      ],
      "name": "AddNFT",
      "outputs": [
        {
          "internalType": "uint256",
          "name": "",
          "type": "uint256"
        }
      ],
      "stateMutability": "nonpayable",
      "type": "function"
    },
    {
      "inputs": [],
      "name": "GetAvailableNFTs",
      "outputs": [
        {
          "internalType": "string[]",
          "name": "",
          "type": "string[]"
        }
      ],
      "stateMutability": "view",
      "type": "function"
    },
    {
      "inputs": [],
      "name": "UpdateMetadata",
      "outputs": [],
      "stateMutability": "nonpayable",
      "type": "function"
    },
    {
      "inputs": [
        {
          "internalType": "uint256",
          "name": "",
          "type": "uint256"
        }
      ],
      "name": "collections",
      "outputs": [
        {
          "internalType": "contract Collection",
          "name": "",
          "type": "address"
        }
      ],
      "stateMutability": "view",
      "type": "function"
    },
    {
      "inputs": [
        {
          "internalType": "string",
          "name": "tokenURI",
          "type": "string"
        }
      ],
      "name": "mintNFT",
      "outputs": [],
      "stateMutability": "payable",
      "type": "function"
    },
    {
      "inputs": [],
      "name": "owner",
      "outputs": [
        {
          "internalType": "address",
          "name": "",
          "type": "address"
        }
      ],
      "stateMutability": "view",
      "type": "function"
    },
    {
      "inputs": [],
      "name": "renounceOwnership",
      "outputs": [],
      "stateMutability": "nonpayable",
      "type": "function"
    },
    {
      "inputs": [
        {
          "internalType": "address",
          "name": "newOwner",
          "type": "address"
        }
      ],
      "name": "transferOwnership",
      "outputs": [],
      "stateMutability": "nonpayable",
      "type": "function"
    }
  ],
  "bytecode": "0x608060405260006003553480156200001657600080fd5b5033600073ffffffffffffffffffffffffffffffffffffffff168173ffffffffffffffffffffffffffffffffffffffff16036200008d5760006040517f1e4fbdf7000000000000000000000000000000000000000000000000000000008152600401620000849190620001ae565b60405180910390fd5b6200009e81620000a560201b60201c565b50620001cb565b60008060009054906101000a900473ffffffffffffffffffffffffffffffffffffffff169050816000806101000a81548173ffffffffffffffffffffffffffffffffffffffff021916908373ffffffffffffffffffffffffffffffffffffffff1602179055508173ffffffffffffffffffffffffffffffffffffffff168173ffffffffffffffffffffffffffffffffffffffff167f8be0079c531659141344cd1fd0a4f28419497f9722a3daafe3b4186f6b6457e060405160405180910390a35050565b600073ffffffffffffffffffffffffffffffffffffffff82169050919050565b6000620001968262000169565b9050919050565b620001a88162000189565b82525050565b6000602082019050620001c560008301846200019d565b92915050565b614c8b80620001db6000396000f3fe608060405260043610620000865760003560e01c8063e0ff3adb1162000055578063e0ff3adb1462000149578063f2fde38b1462000163578063fb37e8831462000191578063fdbda0ec14620001b15762000086565b80635fec6e67146200008b578063660f648e14620000bb578063715018a614620000ff5780638da5cb5b1462000119575b600080fd5b3480156200009857600080fd5b50620000a3620001f5565b604051620000b2919062000c04565b60405180910390f35b348015620000c857600080fd5b50620000e76004803603810190620000e1919062000d8d565b620004a1565b604051620000f6919062000df9565b60405180910390f35b3480156200010c57600080fd5b506200011762000731565b005b3480156200012657600080fd5b506200013162000749565b60405162000140919062000e5b565b60405180910390f35b3480156200015657600080fd5b506200016162000772565b005b3480156200017057600080fd5b506200018f600480360381019062000189919062000ea9565b62000774565b005b620001af6004803603810190620001a9919062000d8d565b62000801565b005b348015620001be57600080fd5b50620001dd6004803603810190620001d7919062000f0c565b620008f0565b604051620001ec919062000fa9565b60405180910390f35b60606000805b600180549050811015620002e7576001818154811062000220576200021f62000fc6565b5b9060005260206000200160009054906101000a900473ffffffffffffffffffffffffffffffffffffffff1673ffffffffffffffffffffffffffffffffffffffff16635fec6e676040518163ffffffff1660e01b8152600401600060405180830381865afa15801562000296573d6000803e3d6000fd5b505050506040513d6000823e3d601f19601f82011682018060405250810190620002c191906200116f565b5182620002cf9190620011ef565b91508080620002de906200122a565b915050620001fb565b5060008167ffffffffffffffff81111562000307576200030662000c46565b5b6040519080825280602002602001820160405280156200033c57816020015b6060815260200190600190039081620003265790505b5090506000805b60018054905081101562000497576000600182815481106200036a576200036962000fc6565b5b9060005260206000200160009054906101000a900473ffffffffffffffffffffffffffffffffffffffff1673ffffffffffffffffffffffffffffffffffffffff16635fec6e676040518163ffffffff1660e01b8152600401600060405180830381865afa158015620003e0573d6000803e3d6000fd5b505050506040513d6000823e3d601f19601f820116820180604052508101906200040b91906200116f565b905060005b81518110156200047f5781818151811062000430576200042f62000fc6565b5b60200260200101518585815181106200044e576200044d62000fc6565b5b6020026020010181905250838062000466906200122a565b945050808062000476906200122a565b91505062000410565b505080806200048e906200122a565b91505062000343565b5081935050505090565b600080604051620004b29062000a8c565b604051809103906000f080158015620004cf573d6000803e3d6000fd5b5090506001819080600181540180825580915050600190039060005260206000200160009091909190916101000a81548173ffffffffffffffffffffffffffffffffffffffff021916908373ffffffffffffffffffffffffffffffffffffffff1602179055506003546002846040516200054a9190620012b9565b9081526020016040518091039020819055508073ffffffffffffffffffffffffffffffffffffffff166302f32770846040518263ffffffff1660e01b815260040162000597919062001324565b6020604051808303816000875af1158015620005b7573d6000803e3d6000fd5b505050506040513d601f19601f82011682018060405250810190620005dd91906200135f565b508073ffffffffffffffffffffffffffffffffffffffff1663f2fde38b6200060462000749565b6040518263ffffffff1660e01b815260040162000622919062000e5b565b600060405180830381600087803b1580156200063d57600080fd5b505af115801562000652573d6000803e3d6000fd5b50505050600260018054905010620007095760016000815481106200067c576200067b62000fc6565b5b9060005260206000200160009054906101000a900473ffffffffffffffffffffffffffffffffffffffff1673ffffffffffffffffffffffffffffffffffffffff1663e0ff3adb6040518163ffffffff1660e01b8152600401600060405180830381600087803b158015620006ef57600080fd5b505af115801562000704573d6000803e3d6000fd5b505050505b600360008154809291906200071e906200122a565b9190505550600180549050915050919050565b6200073b62000930565b620007476000620009c0565b565b60008060009054906101000a900473ffffffffffffffffffffffffffffffffffffffff16905090565b565b6200077e62000930565b600073ffffffffffffffffffffffffffffffffffffffff168173ffffffffffffffffffffffffffffffffffffffff1603620007f35760006040517f1e4fbdf7000000000000000000000000000000000000000000000000000000008152600401620007ea919062000e5b565b60405180910390fd5b620007fe81620009c0565b50565b6000600282604051620008159190620012b9565b9081526020016040518091039020549050600181815481106200083d576200083c62000fc6565b5b9060005260206000200160009054906101000a900473ffffffffffffffffffffffffffffffffffffffff1673ffffffffffffffffffffffffffffffffffffffff166304f322793484336040518463ffffffff1660e01b8152600401620008a592919062001391565b60206040518083038185885af1158015620008c4573d6000803e3d6000fd5b50505050506040513d601f19601f82011682018060405250810190620008eb91906200135f565b505050565b600181815481106200090157600080fd5b906000526020600020016000915054906101000a900473ffffffffffffffffffffffffffffffffffffffff1681565b6200093a62000a84565b73ffffffffffffffffffffffffffffffffffffffff166200095a62000749565b73ffffffffffffffffffffffffffffffffffffffff1614620009be576200098062000a84565b6040517f118cdaa7000000000000000000000000000000000000000000000000000000008152600401620009b5919062000e5b565b60405180910390fd5b565b60008060009054906101000a900473ffffffffffffffffffffffffffffffffffffffff169050816000806101000a81548173ffffffffffffffffffffffffffffffffffffffff021916908373ffffffffffffffffffffffffffffffffffffffff1602179055508173ffffffffffffffffffffffffffffffffffffffff168173ffffffffffffffffffffffffffffffffffffffff167f8be0079c531659141344cd1fd0a4f28419497f9722a3daafe3b4186f6b6457e060405160405180910390a35050565b600033905090565b61389080620013c683390190565b600081519050919050565b600082825260208201905092915050565b6000819050602082019050919050565b600081519050919050565b600082825260208201905092915050565b60005b8381101562000b0257808201518184015260208101905062000ae5565b60008484015250505050565b6000601f19601f8301169050919050565b600062000b2c8262000ac6565b62000b38818562000ad1565b935062000b4a81856020860162000ae2565b62000b558162000b0e565b840191505092915050565b600062000b6e838362000b1f565b905092915050565b6000602082019050919050565b600062000b908262000a9a565b62000b9c818562000aa5565b93508360208202850162000bb08562000ab6565b8060005b8581101562000bf2578484038952815162000bd0858262000b60565b945062000bdd8362000b76565b925060208a0199505060018101905062000bb4565b50829750879550505050505092915050565b6000602082019050818103600083015262000c20818462000b83565b905092915050565b6000604051905090565b600080fd5b600080fd5b600080fd5b600080fd5b7f4e487b7100000000000000000000000000000000000000000000000000000000600052604160045260246000fd5b62000c808262000b0e565b810181811067ffffffffffffffff8211171562000ca25762000ca162000c46565b5b80604052505050565b600062000cb762000c28565b905062000cc5828262000c75565b919050565b600067ffffffffffffffff82111562000ce85762000ce762000c46565b5b62000cf38262000b0e565b9050602081019050919050565b82818337600083830152505050565b600062000d2662000d208462000cca565b62000cab565b90508281526020810184848401111562000d455762000d4462000c41565b5b62000d5284828562000d00565b509392505050565b600082601f83011262000d725762000d7162000c3c565b5b813562000d8484826020860162000d0f565b91505092915050565b60006020828403121562000da65762000da562000c32565b5b600082013567ffffffffffffffff81111562000dc75762000dc662000c37565b5b62000dd58482850162000d5a565b91505092915050565b6000819050919050565b62000df38162000dde565b82525050565b600060208201905062000e10600083018462000de8565b92915050565b600073ffffffffffffffffffffffffffffffffffffffff82169050919050565b600062000e438262000e16565b9050919050565b62000e558162000e36565b82525050565b600060208201905062000e72600083018462000e4a565b92915050565b62000e838162000e36565b811462000e8f57600080fd5b50565b60008135905062000ea38162000e78565b92915050565b60006020828403121562000ec25762000ec162000c32565b5b600062000ed28482850162000e92565b91505092915050565b62000ee68162000dde565b811462000ef257600080fd5b50565b60008135905062000f068162000edb565b92915050565b60006020828403121562000f255762000f2462000c32565b5b600062000f358482850162000ef5565b91505092915050565b6000819050919050565b600062000f6962000f6362000f5d8462000e16565b62000f3e565b62000e16565b9050919050565b600062000f7d8262000f48565b9050919050565b600062000f918262000f70565b9050919050565b62000fa38162000f84565b82525050565b600060208201905062000fc0600083018462000f98565b92915050565b7f4e487b7100000000000000000000000000000000000000000000000000000000600052603260045260246000fd5b600067ffffffffffffffff82111562001013576200101262000c46565b5b602082029050602081019050919050565b600080fd5b6000620010406200103a8462000cca565b62000cab565b9050828152602081018484840111156200105f576200105e62000c41565b5b6200106c84828562000ae2565b509392505050565b600082601f8301126200108c576200108b62000c3c565b5b81516200109e84826020860162001029565b91505092915050565b6000620010be620010b88462000ff5565b62000cab565b90508083825260208201905060208402830185811115620010e457620010e362001024565b5b835b818110156200113257805167ffffffffffffffff8111156200110d576200110c62000c3c565b5b8086016200111c898262001074565b85526020850194505050602081019050620010e6565b5050509392505050565b600082601f83011262001154576200115362000c3c565b5b815162001166848260208601620010a7565b91505092915050565b60006020828403121562001188576200118762000c32565b5b600082015167ffffffffffffffff811115620011a957620011a862000c37565b5b620011b7848285016200113c565b91505092915050565b7f4e487b7100000000000000000000000000000000000000000000000000000000600052601160045260246000fd5b6000620011fc8262000dde565b9150620012098362000dde565b9250828201905080821115620012245762001223620011c0565b5b92915050565b6000620012378262000dde565b91507fffffffffffffffffffffffffffffffffffffffffffffffffffffffffffffffff82036200126c576200126b620011c0565b5b600182019050919050565b600081905092915050565b60006200128f8262000ac6565b6200129b818562001277565b9350620012ad81856020860162000ae2565b80840191505092915050565b6000620012c7828462001282565b915081905092915050565b600082825260208201905092915050565b6000620012f08262000ac6565b620012fc8185620012d2565b93506200130e81856020860162000ae2565b620013198162000b0e565b840191505092915050565b60006020820190508181036000830152620013408184620012e3565b905092915050565b600081519050620013598162000edb565b92915050565b60006020828403121562001378576200137762000c32565b5b6000620013888482850162001348565b91505092915050565b60006040820190508181036000830152620013ad8185620012e3565b9050620013be602083018462000e4a565b939250505056fe608060405260006008556000600955662386f26fc10000600d556005600e556005600f553480156200003057600080fd5b50336040518060400160405280600a81526020017f436f6c6c656374696f6e000000000000000000000000000000000000000000008152506040518060400160405280600381526020017f4e465400000000000000000000000000000000000000000000000000000000008152508160009081620000af919062000491565b508060019081620000c1919062000491565b505050600073ffffffffffffffffffffffffffffffffffffffff168173ffffffffffffffffffffffffffffffffffffffff1603620001395760006040517f1e4fbdf7000000000000000000000000000000000000000000000000000000008152600401620001309190620005bd565b60405180910390fd5b6200014a816200015160201b60201c565b50620005da565b6000600760009054906101000a900473ffffffffffffffffffffffffffffffffffffffff16905081600760006101000a81548173ffffffffffffffffffffffffffffffffffffffff021916908373ffffffffffffffffffffffffffffffffffffffff1602179055508173ffffffffffffffffffffffffffffffffffffffff168173ffffffffffffffffffffffffffffffffffffffff167f8be0079c531659141344cd1fd0a4f28419497f9722a3daafe3b4186f6b6457e060405160405180910390a35050565b600081519050919050565b7f4e487b7100000000000000000000000000000000000000000000000000000000600052604160045260246000fd5b7f4e487b7100000000000000000000000000000000000000000000000000000000600052602260045260246000fd5b600060028204905060018216806200029957607f821691505b602082108103620002af57620002ae62000251565b5b50919050565b60008190508160005260206000209050919050565b60006020601f8301049050919050565b600082821b905092915050565b600060088302620003197fffffffffffffffffffffffffffffffffffffffffffffffffffffffffffffffff82620002da565b620003258683620002da565b95508019841693508086168417925050509392505050565b6000819050919050565b6000819050919050565b6000620003726200036c62000366846200033d565b62000347565b6200033d565b9050919050565b6000819050919050565b6200038e8362000351565b620003a66200039d8262000379565b848454620002e7565b825550505050565b600090565b620003bd620003ae565b620003ca81848462000383565b505050565b5b81811015620003f257620003e6600082620003b3565b600181019050620003d0565b5050565b601f82111562000441576200040b81620002b5565b6200041684620002ca565b8101602085101562000426578190505b6200043e6200043585620002ca565b830182620003cf565b50505b505050565b600082821c905092915050565b6000620004666000198460080262000446565b1980831691505092915050565b600062000481838362000453565b9150826002028217905092915050565b6200049c8262000217565b67ffffffffffffffff811115620004b857620004b762000222565b5b620004c4825462000280565b620004d1828285620003f6565b600060209050601f831160018114620005095760008415620004f4578287015190505b62000500858262000473565b86555062000570565b601f1984166200051986620002b5565b60005b8281101562000543578489015182556001820191506020850194506020810190506200051c565b868310156200056357848901516200055f601f89168262000453565b8355505b6001600288020188555050505b505050505050565b600073ffffffffffffffffffffffffffffffffffffffff82169050919050565b6000620005a58262000578565b9050919050565b620005b78162000598565b82525050565b6000602082019050620005d46000830184620005ac565b92915050565b6132a680620005ea6000396000f3fe60806040526004361061019c5760003560e01c80636f8b44b0116100ec578063a22cb4651161008a578063c87b56dd11610064578063c87b56dd146105a5578063e0ff3adb146105e2578063e985e9c5146105f9578063f2fde38b146106365761019c565b8063a22cb4651461053c578063ac44600214610565578063b88d4fde1461057c5761019c565b8063833b9499116100c6578063833b9499146104925780638da5cb5b146104bd57806391b7f5ed146104e857806395d89b41146105115761019c565b80636f8b44b01461041557806370a082311461043e578063715018a61461047b5761019c565b806323b872dd11610159578063417bac1a11610133578063417bac1a1461035957806342842e0e146103845780635fec6e67146103ad5780636352211e146103d85761019c565b806323b872dd146102dc57806327ea6f2b1461030557806332cb6b0c1461032e5761019c565b806301ffc9a7146101a157806302f32770146101de57806304f322791461021b57806306fdde031461024b578063081812fc14610276578063095ea7b3146102b3575b600080fd5b3480156101ad57600080fd5b506101c860048036038101906101c391906122ed565b61065f565b6040516101d59190612335565b60405180910390f35b3480156101ea57600080fd5b5061020560048036038101906102009190612496565b6106c0565b60405161021291906124f8565b60405180910390f35b61023560048036038101906102309190612571565b610700565b60405161024291906124f8565b60405180910390f35b34801561025757600080fd5b506102606109ba565b60405161026d919061264c565b60405180910390f35b34801561028257600080fd5b5061029d6004803603810190610298919061269a565b610a4c565b6040516102aa91906126d6565b60405180910390f35b3480156102bf57600080fd5b506102da60048036038101906102d591906126f1565b610a68565b005b3480156102e857600080fd5b5061030360048036038101906102fe9190612731565b610a7e565b005b34801561031157600080fd5b5061032c6004803603810190610327919061269a565b610b80565b005b34801561033a57600080fd5b50610343610b92565b60405161035091906124f8565b60405180910390f35b34801561036557600080fd5b5061036e610b98565b60405161037b91906124f8565b60405180910390f35b34801561039057600080fd5b506103ab60048036038101906103a69190612731565b610b9e565b005b3480156103b957600080fd5b506103c2610bbe565b6040516103cf9190612890565b60405180910390f35b3480156103e457600080fd5b506103ff60048036038101906103fa919061269a565b610c97565b60405161040c91906126d6565b60405180910390f35b34801561042157600080fd5b5061043c6004803603810190610437919061269a565b610ca9565b005b34801561044a57600080fd5b50610465600480360381019061046091906128b2565b610cbb565b60405161047291906124f8565b60405180910390f35b34801561048757600080fd5b50610490610d75565b005b34801561049e57600080fd5b506104a7610d89565b6040516104b491906124f8565b60405180910390f35b3480156104c957600080fd5b506104d2610d8f565b6040516104df91906126d6565b60405180910390f35b3480156104f457600080fd5b5061050f600480360381019061050a919061269a565b610db9565b005b34801561051d57600080fd5b50610526610dcb565b604051610533919061264c565b60405180910390f35b34801561054857600080fd5b50610563600480360381019061055e919061290b565b610e5d565b005b34801561057157600080fd5b5061057a610e73565b005b34801561058857600080fd5b506105a3600480360381019061059e91906129ec565b610eca565b005b3480156105b157600080fd5b506105cc60048036038101906105c7919061269a565b610ee7565b6040516105d9919061264c565b60405180910390f35b3480156105ee57600080fd5b506105f7610ffa565b005b34801561060557600080fd5b50610620600480360381019061061b9190612a6f565b611049565b60405161062d9190612335565b60405180910390f35b34801561064257600080fd5b5061065d600480360381019061065891906128b2565b6110dd565b005b6000634906490660e01b7bffffffffffffffffffffffffffffffffffffffffffffffffffffffff1916827bffffffffffffffffffffffffffffffffffffffffffffffffffffffff191614806106b957506106b882611163565b5b9050919050565b6000600c829080600181540180825580915050600190039060005260206000200160009091909190915090816106f69190612cbb565b5060649050919050565b600034600d541115610747576040517f08c379a000000000000000000000000000000000000000000000000000000000815260040161073e90612dd9565b60405180910390fd5b600e54600a60003373ffffffffffffffffffffffffffffffffffffffff1673ffffffffffffffffffffffffffffffffffffffff16815260200190815260200160002060009054906101000a900460ff1660ff16106107da576040517f08c379a00000000000000000000000000000000000000000000000000000000081526004016107d190612e45565b60405180910390fd5b600f5460016009546107ec9190612e94565b111561082d576040517f08c379a000000000000000000000000000000000000000000000000000000000815260040161082490612f14565b60405180910390fd5b6000600b8460405161083f9190612f70565b908152602001604051809103902060009054906101000a900460ff1660ff161461089e576040517f08c379a000000000000000000000000000000000000000000000000000000000815260040161089590612fd3565b60405180910390fd5b6001600b846040516108b09190612f70565b908152602001604051809103902060008282829054906101000a900460ff166108d99190613000565b92506101000a81548160ff021916908360ff1602179055506001600a60003373ffffffffffffffffffffffffffffffffffffffff1673ffffffffffffffffffffffffffffffffffffffff16815260200190815260200160002060008282829054906101000a900460ff1661094d9190613000565b92506101000a81548160ff021916908360ff160217905550600060085490506109768382611245565b610980818561133e565b6008600081548092919061099390613035565b9190505550600960008154809291906109ab90613035565b91905055508091505092915050565b6060600080546109c990612ade565b80601f01602080910402602001604051908101604052809291908181526020018280546109f590612ade565b8015610a425780601f10610a1757610100808354040283529160200191610a42565b820191906000526020600020905b815481529060010190602001808311610a2557829003601f168201915b5050505050905090565b6000610a578261139a565b50610a6182611422565b9050919050565b610a7a8282610a7561145f565b611467565b5050565b600073ffffffffffffffffffffffffffffffffffffffff168273ffffffffffffffffffffffffffffffffffffffff1603610af05760006040517f64a0ae92000000000000000000000000000000000000000000000000000000008152600401610ae791906126d6565b60405180910390fd5b6000610b048383610aff61145f565b611479565b90508373ffffffffffffffffffffffffffffffffffffffff168173ffffffffffffffffffffffffffffffffffffffff1614610b7a578382826040517f64283d7b000000000000000000000000000000000000000000000000000000008152600401610b719392919061307d565b60405180910390fd5b50505050565b610b88611693565b80600e8190555050565b600f5481565b600e5481565b610bb983838360405180602001604052806000815250610eca565b505050565b6060600c805480602002602001604051908101604052809291908181526020016000905b82821015610c8e578382906000526020600020018054610c0190612ade565b80601f0160208091040260200160405190810160405280929190818152602001828054610c2d90612ade565b8015610c7a5780601f10610c4f57610100808354040283529160200191610c7a565b820191906000526020600020905b815481529060010190602001808311610c5d57829003601f168201915b505050505081526020019060010190610be2565b50505050905090565b6000610ca28261139a565b9050919050565b610cb1611693565b80600f8190555050565b60008073ffffffffffffffffffffffffffffffffffffffff168273ffffffffffffffffffffffffffffffffffffffff1603610d2e5760006040517f89c62b64000000000000000000000000000000000000000000000000000000008152600401610d2591906126d6565b60405180910390fd5b600360008373ffffffffffffffffffffffffffffffffffffffff1673ffffffffffffffffffffffffffffffffffffffff168152602001908152602001600020549050919050565b610d7d611693565b610d87600061171a565b565b600d5481565b6000600760009054906101000a900473ffffffffffffffffffffffffffffffffffffffff16905090565b610dc1611693565b80600d8190555050565b606060018054610dda90612ade565b80601f0160208091040260200160405190810160405280929190818152602001828054610e0690612ade565b8015610e535780601f10610e2857610100808354040283529160200191610e53565b820191906000526020600020905b815481529060010190602001808311610e3657829003601f168201915b5050505050905090565b610e6f610e6861145f565b83836117e0565b5050565b610e7b611693565b60003390508073ffffffffffffffffffffffffffffffffffffffff166108fc479081150290604051600060405180830381858888f19350505050158015610ec6573d6000803e3d6000fd5b5050565b610ed5848484610a7e565b610ee18484848461194f565b50505050565b6060610ef28261139a565b506000600660008481526020019081526020016000208054610f1390612ade565b80601f0160208091040260200160405190810160405280929190818152602001828054610f3f90612ade565b8015610f8c5780601f10610f6157610100808354040283529160200191610f8c565b820191906000526020600020905b815481529060010190602001808311610f6f57829003601f168201915b505050505090506000610f9d611b06565b90506000815103610fb2578192505050610ff5565b600082511115610fe7578082604051602001610fcf9291906130b4565b60405160208183030381529060405292505050610ff5565b610ff084611b1d565b925050505b919050565b61100c6110076000610ee7565b611b86565b60006040518060600160405280602e8152602001613243602e9139905061103460008261133e565b6110466110416000610ee7565b611b86565b50565b6000600560008473ffffffffffffffffffffffffffffffffffffffff1673ffffffffffffffffffffffffffffffffffffffff16815260200190815260200160002060008373ffffffffffffffffffffffffffffffffffffffff1673ffffffffffffffffffffffffffffffffffffffff16815260200190815260200160002060009054906101000a900460ff16905092915050565b6110e5611693565b600073ffffffffffffffffffffffffffffffffffffffff168173ffffffffffffffffffffffffffffffffffffffff16036111575760006040517f1e4fbdf700000000000000000000000000000000000000000000000000000000815260040161114e91906126d6565b60405180910390fd5b6111608161171a565b50565b60007f80ac58cd000000000000000000000000000000000000000000000000000000007bffffffffffffffffffffffffffffffffffffffffffffffffffffffff1916827bffffffffffffffffffffffffffffffffffffffffffffffffffffffff1916148061122e57507f5b5e139f000000000000000000000000000000000000000000000000000000007bffffffffffffffffffffffffffffffffffffffffffffffffffffffff1916827bffffffffffffffffffffffffffffffffffffffffffffffffffffffff1916145b8061123e575061123d82611c1f565b5b9050919050565b600073ffffffffffffffffffffffffffffffffffffffff168273ffffffffffffffffffffffffffffffffffffffff16036112b75760006040517f64a0ae920000000000000000000000000000000000000000000000000000000081526004016112ae91906126d6565b60405180910390fd5b60006112c583836000611479565b9050600073ffffffffffffffffffffffffffffffffffffffff168173ffffffffffffffffffffffffffffffffffffffff16146113395760006040517f73c6ac6e00000000000000000000000000000000000000000000000000000000815260040161133091906126d6565b60405180910390fd5b505050565b8060066000848152602001908152602001600020908161135e9190612cbb565b507ff8e1a15aba9398e019f0b49df1a4fde98ee17ae345cb5f6b5e2c27f5033e8ce78260405161138e91906124f8565b60405180910390a15050565b6000806113a683611c89565b9050600073ffffffffffffffffffffffffffffffffffffffff168173ffffffffffffffffffffffffffffffffffffffff160361141957826040517f7e27328900000000000000000000000000000000000000000000000000000000815260040161141091906124f8565b60405180910390fd5b80915050919050565b60006004600083815260200190815260200160002060009054906101000a900473ffffffffffffffffffffffffffffffffffffffff169050919050565b600033905090565b6114748383836001611cc6565b505050565b60008061148584611c89565b9050600073ffffffffffffffffffffffffffffffffffffffff168373ffffffffffffffffffffffffffffffffffffffff16146114c7576114c6818486611e8b565b5b600073ffffffffffffffffffffffffffffffffffffffff168173ffffffffffffffffffffffffffffffffffffffff161461155857611509600085600080611cc6565b6001600360008373ffffffffffffffffffffffffffffffffffffffff1673ffffffffffffffffffffffffffffffffffffffff168152602001908152602001600020600082825403925050819055505b600073ffffffffffffffffffffffffffffffffffffffff168573ffffffffffffffffffffffffffffffffffffffff16146115db576001600360008773ffffffffffffffffffffffffffffffffffffffff1673ffffffffffffffffffffffffffffffffffffffff168152602001908152602001600020600082825401925050819055505b846002600086815260200190815260200160002060006101000a81548173ffffffffffffffffffffffffffffffffffffffff021916908373ffffffffffffffffffffffffffffffffffffffff160217905550838573ffffffffffffffffffffffffffffffffffffffff168273ffffffffffffffffffffffffffffffffffffffff167fddf252ad1be2c89b69c2b068fc378daa952ba7f163c4a11628f55a4df523b3ef60405160405180910390a4809150509392505050565b61169b61145f565b73ffffffffffffffffffffffffffffffffffffffff166116b9610d8f565b73ffffffffffffffffffffffffffffffffffffffff1614611718576116dc61145f565b6040517f118cdaa700000000000000000000000000000000000000000000000000000000815260040161170f91906126d6565b60405180910390fd5b565b6000600760009054906101000a900473ffffffffffffffffffffffffffffffffffffffff16905081600760006101000a81548173ffffffffffffffffffffffffffffffffffffffff021916908373ffffffffffffffffffffffffffffffffffffffff1602179055508173ffffffffffffffffffffffffffffffffffffffff168173ffffffffffffffffffffffffffffffffffffffff167f8be0079c531659141344cd1fd0a4f28419497f9722a3daafe3b4186f6b6457e060405160405180910390a35050565b600073ffffffffffffffffffffffffffffffffffffffff168273ffffffffffffffffffffffffffffffffffffffff160361185157816040517f5b08ba1800000000000000000000000000000000000000000000000000000000815260040161184891906126d6565b60405180910390fd5b80600560008573ffffffffffffffffffffffffffffffffffffffff1673ffffffffffffffffffffffffffffffffffffffff16815260200190815260200160002060008473ffffffffffffffffffffffffffffffffffffffff1673ffffffffffffffffffffffffffffffffffffffff16815260200190815260200160002060006101000a81548160ff0219169083151502179055508173ffffffffffffffffffffffffffffffffffffffff168373ffffffffffffffffffffffffffffffffffffffff167f17307eab39ab6107e8899845ad3d59bd9653f200f220920489ca2b5937696c31836040516119429190612335565b60405180910390a3505050565b60008373ffffffffffffffffffffffffffffffffffffffff163b1115611b00578273ffffffffffffffffffffffffffffffffffffffff1663150b7a0261199361145f565b8685856040518563ffffffff1660e01b81526004016119b5949392919061312d565b6020604051808303816000875af19250505080156119f157506040513d601f19601f820116820180604052508101906119ee919061318e565b60015b611a75573d8060008114611a21576040519150601f19603f3d011682016040523d82523d6000602084013e611a26565b606091505b506000815103611a6d57836040517f64a0ae92000000000000000000000000000000000000000000000000000000008152600401611a6491906126d6565b60405180910390fd5b805181602001fd5b63150b7a0260e01b7bffffffffffffffffffffffffffffffffffffffffffffffffffffffff1916817bffffffffffffffffffffffffffffffffffffffffffffffffffffffff191614611afe57836040517f64a0ae92000000000000000000000000000000000000000000000000000000008152600401611af591906126d6565b60405180910390fd5b505b50505050565b606060405180602001604052806000815250905090565b6060611b288261139a565b506000611b33611b06565b90506000815111611b535760405180602001604052806000815250611b7e565b80611b5d84611f4f565b604051602001611b6e9291906130b4565b6040516020818303038152906040525b915050919050565b611c1c81604051602401611b9a919061264c565b6040516020818303038152906040527f41304fac000000000000000000000000000000000000000000000000000000007bffffffffffffffffffffffffffffffffffffffffffffffffffffffff19166020820180517bffffffffffffffffffffffffffffffffffffffffffffffffffffffff838183161783525050505061201d565b50565b60007f01ffc9a7000000000000000000000000000000000000000000000000000000007bffffffffffffffffffffffffffffffffffffffffffffffffffffffff1916827bffffffffffffffffffffffffffffffffffffffffffffffffffffffff1916149050919050565b60006002600083815260200190815260200160002060009054906101000a900473ffffffffffffffffffffffffffffffffffffffff169050919050565b8080611cff5750600073ffffffffffffffffffffffffffffffffffffffff168273ffffffffffffffffffffffffffffffffffffffff1614155b15611e33576000611d0f8461139a565b9050600073ffffffffffffffffffffffffffffffffffffffff168373ffffffffffffffffffffffffffffffffffffffff1614158015611d7a57508273ffffffffffffffffffffffffffffffffffffffff168173ffffffffffffffffffffffffffffffffffffffff1614155b8015611d8d5750611d8b8184611049565b155b15611dcf57826040517fa9fbf51f000000000000000000000000000000000000000000000000000000008152600401611dc691906126d6565b60405180910390fd5b8115611e3157838573ffffffffffffffffffffffffffffffffffffffff168273ffffffffffffffffffffffffffffffffffffffff167f8c5be1e5ebec7d5bd14f71427d1e84f3dd0314c0f7b2291e5b200ac8c7c3b92560405160405180910390a45b505b836004600085815260200190815260200160002060006101000a81548173ffffffffffffffffffffffffffffffffffffffff021916908373ffffffffffffffffffffffffffffffffffffffff16021790555050505050565b611e96838383612037565b611f4a57600073ffffffffffffffffffffffffffffffffffffffff168373ffffffffffffffffffffffffffffffffffffffff1603611f0b57806040517f7e273289000000000000000000000000000000000000000000000000000000008152600401611f0291906124f8565b60405180910390fd5b81816040517f177e802f000000000000000000000000000000000000000000000000000000008152600401611f419291906131bb565b60405180910390fd5b505050565b606060006001611f5e846120f8565b01905060008167ffffffffffffffff811115611f7d57611f7c61236b565b5b6040519080825280601f01601f191660200182016040528015611faf5781602001600182028036833780820191505090505b509050600082602001820190505b600115612012578080600190039150507f3031323334353637383961626364656600000000000000000000000000000000600a86061a8153600a8581612006576120056131e4565b5b04945060008503611fbd575b819350505050919050565b6120348161202c61224b61226c565b63ffffffff16565b50565b60008073ffffffffffffffffffffffffffffffffffffffff168373ffffffffffffffffffffffffffffffffffffffff16141580156120ef57508273ffffffffffffffffffffffffffffffffffffffff168473ffffffffffffffffffffffffffffffffffffffff1614806120b057506120af8484611049565b5b806120ee57508273ffffffffffffffffffffffffffffffffffffffff166120d683611422565b73ffffffffffffffffffffffffffffffffffffffff16145b5b90509392505050565b600080600090507a184f03e93ff9f4daa797ed6e38ed64bf6a1f0100000000000000008310612156577a184f03e93ff9f4daa797ed6e38ed64bf6a1f010000000000000000838161214c5761214b6131e4565b5b0492506040810190505b6d04ee2d6d415b85acef81000000008310612193576d04ee2d6d415b85acef81000000008381612189576121886131e4565b5b0492506020810190505b662386f26fc1000083106121c257662386f26fc1000083816121b8576121b76131e4565b5b0492506010810190505b6305f5e10083106121eb576305f5e10083816121e1576121e06131e4565b5b0492506008810190505b6127108310612210576127108381612206576122056131e4565b5b0492506004810190505b606483106122335760648381612229576122286131e4565b5b0492506002810190505b600a8310612242576001810190505b80915050919050565b60006a636f6e736f6c652e6c6f679050600080835160208501845afa505050565b612277819050919050565b61227f613213565b565b6000604051905090565b600080fd5b600080fd5b60007fffffffff0000000000000000000000000000000000000000000000000000000082169050919050565b6122ca81612295565b81146122d557600080fd5b50565b6000813590506122e7816122c1565b92915050565b6000602082840312156123035761230261228b565b5b6000612311848285016122d8565b91505092915050565b60008115159050919050565b61232f8161231a565b82525050565b600060208201905061234a6000830184612326565b92915050565b600080fd5b600080fd5b6000601f19601f8301169050919050565b7f4e487b7100000000000000000000000000000000000000000000000000000000600052604160045260246000fd5b6123a38261235a565b810181811067ffffffffffffffff821117156123c2576123c161236b565b5b80604052505050565b60006123d5612281565b90506123e1828261239a565b919050565b600067ffffffffffffffff8211156124015761240061236b565b5b61240a8261235a565b9050602081019050919050565b82818337600083830152505050565b6000612439612434846123e6565b6123cb565b90508281526020810184848401111561245557612454612355565b5b612460848285612417565b509392505050565b600082601f83011261247d5761247c612350565b5b813561248d848260208601612426565b91505092915050565b6000602082840312156124ac576124ab61228b565b5b600082013567ffffffffffffffff8111156124ca576124c9612290565b5b6124d684828501612468565b91505092915050565b6000819050919050565b6124f2816124df565b82525050565b600060208201905061250d60008301846124e9565b92915050565b600073ffffffffffffffffffffffffffffffffffffffff82169050919050565b600061253e82612513565b9050919050565b61254e81612533565b811461255957600080fd5b50565b60008135905061256b81612545565b92915050565b600080604083850312156125885761258761228b565b5b600083013567ffffffffffffffff8111156125a6576125a5612290565b5b6125b285828601612468565b92505060206125c38582860161255c565b9150509250929050565b600081519050919050565b600082825260208201905092915050565b60005b838110156126075780820151818401526020810190506125ec565b60008484015250505050565b600061261e826125cd565b61262881856125d8565b93506126388185602086016125e9565b6126418161235a565b840191505092915050565b600060208201905081810360008301526126668184612613565b905092915050565b612677816124df565b811461268257600080fd5b50565b6000813590506126948161266e565b92915050565b6000602082840312156126b0576126af61228b565b5b60006126be84828501612685565b91505092915050565b6126d081612533565b82525050565b60006020820190506126eb60008301846126c7565b92915050565b600080604083850312156127085761270761228b565b5b60006127168582860161255c565b925050602061272785828601612685565b9150509250929050565b60008060006060848603121561274a5761274961228b565b5b60006127588682870161255c565b93505060206127698682870161255c565b925050604061277a86828701612685565b9150509250925092565b600081519050919050565b600082825260208201905092915050565b6000819050602082019050919050565b600082825260208201905092915050565b60006127cc826125cd565b6127d681856127b0565b93506127e68185602086016125e9565b6127ef8161235a565b840191505092915050565b600061280683836127c1565b905092915050565b6000602082019050919050565b600061282682612784565b612830818561278f565b935083602082028501612842856127a0565b8060005b8581101561287e578484038952815161285f85826127fa565b945061286a8361280e565b925060208a01995050600181019050612846565b50829750879550505050505092915050565b600060208201905081810360008301526128aa818461281b565b905092915050565b6000602082840312156128c8576128c761228b565b5b60006128d68482850161255c565b91505092915050565b6128e88161231a565b81146128f357600080fd5b50565b600081359050612905816128df565b92915050565b600080604083850312156129225761292161228b565b5b60006129308582860161255c565b9250506020612941858286016128f6565b9150509250929050565b600067ffffffffffffffff8211156129665761296561236b565b5b61296f8261235a565b9050602081019050919050565b600061298f61298a8461294b565b6123cb565b9050828152602081018484840111156129ab576129aa612355565b5b6129b6848285612417565b509392505050565b600082601f8301126129d3576129d2612350565b5b81356129e384826020860161297c565b91505092915050565b60008060008060808587031215612a0657612a0561228b565b5b6000612a148782880161255c565b9450506020612a258782880161255c565b9350506040612a3687828801612685565b925050606085013567ffffffffffffffff811115612a5757612a56612290565b5b612a63878288016129be565b91505092959194509250565b60008060408385031215612a8657612a8561228b565b5b6000612a948582860161255c565b9250506020612aa58582860161255c565b9150509250929050565b7f4e487b7100000000000000000000000000000000000000000000000000000000600052602260045260246000fd5b60006002820490506001821680612af657607f821691505b602082108103612b0957612b08612aaf565b5b50919050565b60008190508160005260206000209050919050565b60006020601f8301049050919050565b600082821b905092915050565b600060088302612b717fffffffffffffffffffffffffffffffffffffffffffffffffffffffffffffffff82612b34565b612b7b8683612b34565b95508019841693508086168417925050509392505050565b6000819050919050565b6000612bb8612bb3612bae846124df565b612b93565b6124df565b9050919050565b6000819050919050565b612bd283612b9d565b612be6612bde82612bbf565b848454612b41565b825550505050565b600090565b612bfb612bee565b612c06818484612bc9565b505050565b5b81811015612c2a57612c1f600082612bf3565b600181019050612c0c565b5050565b601f821115612c6f57612c4081612b0f565b612c4984612b24565b81016020851015612c58578190505b612c6c612c6485612b24565b830182612c0b565b50505b505050565b600082821c905092915050565b6000612c9260001984600802612c74565b1980831691505092915050565b6000612cab8383612c81565b9150826002028217905092915050565b612cc4826125cd565b67ffffffffffffffff811115612cdd57612cdc61236b565b5b612ce78254612ade565b612cf2828285612c2e565b600060209050601f831160018114612d255760008415612d13578287015190505b612d1d8582612c9f565b865550612d85565b601f198416612d3386612b0f565b60005b82811015612d5b57848901518255600182019150602085019450602081019050612d36565b86831015612d785784890151612d74601f891682612c81565b8355505b6001600288020188555050505b505050505050565b7f4574686572207061696420697320696e636f7272656374000000000000000000600082015250565b6000612dc36017836125d8565b9150612dce82612d8d565b602082019050919050565b60006020820190508181036000830152612df281612db6565b9050919050565b7f596f752068617665206578636565646564206d696e74696e67206c696d697400600082015250565b6000612e2f601f836125d8565b9150612e3a82612df9565b602082019050919050565b60006020820190508181036000830152612e5e81612e22565b9050919050565b7f4e487b7100000000000000000000000000000000000000000000000000000000600052601160045260246000fd5b6000612e9f826124df565b9150612eaa836124df565b9250828201905080821115612ec257612ec1612e65565b5b92915050565b7f596f752068617665206578636565646564204d617820537570706c7900000000600082015250565b6000612efe601c836125d8565b9150612f0982612ec8565b602082019050919050565b60006020820190508181036000830152612f2d81612ef1565b9050919050565b600081905092915050565b6000612f4a826125cd565b612f548185612f34565b9350612f648185602086016125e9565b80840191505092915050565b6000612f7c8284612f3f565b915081905092915050565b7f54686973204e46542068617320616c7265616479206265656e206d696e746564600082015250565b6000612fbd6020836125d8565b9150612fc882612f87565b602082019050919050565b60006020820190508181036000830152612fec81612fb0565b9050919050565b600060ff82169050919050565b600061300b82612ff3565b915061301683612ff3565b9250828201905060ff81111561302f5761302e612e65565b5b92915050565b6000613040826124df565b91507fffffffffffffffffffffffffffffffffffffffffffffffffffffffffffffffff820361307257613071612e65565b5b600182019050919050565b600060608201905061309260008301866126c7565b61309f60208301856124e9565b6130ac60408301846126c7565b949350505050565b60006130c08285612f3f565b91506130cc8284612f3f565b91508190509392505050565b600081519050919050565b600082825260208201905092915050565b60006130ff826130d8565b61310981856130e3565b93506131198185602086016125e9565b6131228161235a565b840191505092915050565b600060808201905061314260008301876126c7565b61314f60208301866126c7565b61315c60408301856124e9565b818103606083015261316e81846130f4565b905095945050505050565b600081519050613188816122c1565b92915050565b6000602082840312156131a4576131a361228b565b5b60006131b284828501613179565b91505092915050565b60006040820190506131d060008301856126c7565b6131dd60208301846124e9565b9392505050565b7f4e487b7100000000000000000000000000000000000000000000000000000000600052601260045260246000fd5b7f4e487b7100000000000000000000000000000000000000000000000000000000600052605160045260246000fdfe516d5665796a374168486448366577574e41634b50743667546f5437737a454e4a6848756a534271385939626357a2646970667358221220e254816e48629b8d8f33026b761e1eba5e5cf5cf19f5872791837ad438d80d7064736f6c63430008140033a2646970667358221220484408c7d85a77e92cbdcff3f61e0a6c6366185edbcfc3b0c38a5cef08f9f34164736f6c63430008140033",
  "linkReferences": {},
  "deployedLinkReferences": {}
}