{
  "_format": "hh-sol-artifact-1",
  "contractName": "Gallery",
  "sourceName": "contracts/Collection.sol",
  "abi": [
    {
      "inputs": [],
      "stateMutability": "nonpayable",
      "type": "constructor"
    },
    {
      "inputs": [
        {
          "internalType": "address",
          "name": "owner",
          "type": "address"
        }
      ],
      "name": "OwnableInvalidOwner",
      "type": "error"
    },
    {
      "inputs": [
        {
          "internalType": "address",
          "name": "account",
          "type": "address"
        }
      ],
      "name": "OwnableUnauthorizedAccount",
      "type": "error"
    },
    {
      "anonymous": false,
      "inputs": [
        {
          "indexed": true,
          "internalType": "address",
          "name": "previousOwner",
          "type": "address"
        },
        {
          "indexed": true,
          "internalType": "address",
          "name": "newOwner",
          "type": "address"
        }
      ],
      "name": "OwnershipTransferred",
      "type": "event"
    },
    {
      "inputs": [
        {
          "internalType": "string",
          "name": "_collectionURIs",
          "type": "string"
        }
      ],
      "name": "AddNFTs",
      "outputs": [
        {
          "internalType": "uint256",
          "name": "",
          "type": "uint256"
        }
      ],
      "stateMutability": "nonpayable",
      "type": "function"
    },
    {
      "inputs": [
        {
          "internalType": "uint256",
          "name": "collectionId",
          "type": "uint256"
        },
        {
          "internalType": "uint256",
          "name": "tokenId",
          "type": "uint256"
        },
        {
          "internalType": "string",
          "name": "voterName",
          "type": "string"
        }
      ],
      "name": "AddVote",
      "outputs": [],
      "stateMutability": "nonpayable",
      "type": "function"
    },
    {
      "inputs": [
        {
          "internalType": "address",
          "name": "seller",
          "type": "address"
        }
      ],
      "name": "GetAllNFTs",
      "outputs": [
        {
          "components": [
            {
              "internalType": "uint256",
              "name": "id",
              "type": "uint256"
            },
            {
              "internalType": "uint256",
              "name": "collectionId",
              "type": "uint256"
            },
            {
              "internalType": "string",
              "name": "uri",
              "type": "string"
            },
            {
              "internalType": "string[]",
              "name": "voters",
              "type": "string[]"
            }
          ],
          "internalType": "struct Token[]",
          "name": "",
          "type": "tuple[]"
        }
      ],
      "stateMutability": "view",
      "type": "function"
    },
    {
      "inputs": [],
      "name": "GetAvailableNFTs",
      "outputs": [
        {
          "components": [
            {
              "internalType": "uint256",
              "name": "id",
              "type": "uint256"
            },
            {
              "internalType": "uint256",
              "name": "collectionId",
              "type": "uint256"
            },
            {
              "internalType": "string",
              "name": "uri",
              "type": "string"
            },
            {
              "internalType": "string[]",
              "name": "voters",
              "type": "string[]"
            }
          ],
          "internalType": "struct Token[]",
          "name": "",
          "type": "tuple[]"
        }
      ],
      "stateMutability": "view",
      "type": "function"
    },
    {
      "inputs": [
        {
          "internalType": "uint256",
          "name": "",
          "type": "uint256"
        }
      ],
      "name": "collections",
      "outputs": [
        {
          "internalType": "contract Collection",
          "name": "",
          "type": "address"
        }
      ],
      "stateMutability": "view",
      "type": "function"
    },
    {
      "inputs": [
        {
          "internalType": "uint256",
          "name": "collectionID",
          "type": "uint256"
        },
        {
          "internalType": "uint256",
          "name": "tokenID",
          "type": "uint256"
        }
      ],
      "name": "mintNFT",
      "outputs": [],
      "stateMutability": "payable",
      "type": "function"
    },
    {
      "inputs": [],
      "name": "owner",
      "outputs": [
        {
          "internalType": "address",
          "name": "",
          "type": "address"
        }
      ],
      "stateMutability": "view",
      "type": "function"
    },
    {
      "inputs": [],
      "name": "renounceOwnership",
      "outputs": [],
      "stateMutability": "nonpayable",
      "type": "function"
    },
    {
      "inputs": [
        {
          "internalType": "address",
          "name": "newOwner",
          "type": "address"
        }
      ],
      "name": "transferOwnership",
      "outputs": [],
      "stateMutability": "nonpayable",
      "type": "function"
    },
    {
      "inputs": [
        {
          "internalType": "uint256",
          "name": "",
          "type": "uint256"
        }
      ],
      "name": "voters",
      "outputs": [
        {
          "internalType": "uint256",
          "name": "tokenId",
          "type": "uint256"
        },
        {
          "internalType": "uint256",
          "name": "collectionId",
          "type": "uint256"
        },
        {
          "internalType": "address",
          "name": "voterAddress",
          "type": "address"
        },
        {
          "internalType": "string",
          "name": "name",
          "type": "string"
        }
      ],
      "stateMutability": "view",
      "type": "function"
    }
  ],
  "bytecode": "0x6080806040523461007f5733156100695760008054336001600160a01b03198216811783556040519290916001600160a01b0316907f8be0079c531659141344cd1fd0a4f28419497f9722a3daafe3b4186f6b6457e09080a360006003556131d690816100858239f35b631e4fbdf760e01b815260006004820152602490fd5b600080fdfe604060808152600490813610156200001657600080fd5b600091823560e01c80630e8aef7714620009a45780635fec6e6714620007f1578063715018a614620007935780638da5cb5b14620007695780638db77cce1462000486578063c48283ff14620003db578063d6fad3ae146200020c578063da58c7d91462000179578063f2fde38b14620000e55763fdbda0ec146200009a57600080fd5b34620000e1576020366003190112620000e1573591600154831015620000de5750620000c860209262000d2b565b905491519160018060a01b039160031b1c168152f35b80fd5b8280fd5b509034620000e1576020366003190112620000e1576001600160a01b0382358181169391929084900362000175576200011d62000d47565b83156200015f57505082546001600160a01b0319811683178455167f8be0079c531659141344cd1fd0a4f28419497f9722a3daafe3b4186f6b6457e08380a380f35b51631e4fbdf760e01b8152908101849052602490fd5b8480fd5b508290346200020857602036600319011262000208573590600254821015620000de5750620001a89062000c00565b50620002046003825492600181015494620001e360018060a01b0360028401541692620001db8351809681930162000c8d565b038462000a34565b80519586958652602086015284015260806060840152608083019062000ae9565b0390f35b5080fd5b5034620000e15760209283600319360112620000de576001600160401b03918035838111620000e15762000244903690830162000a72565b60035485519194611d6e8084019291831184841017620003c857916200027a918493620014338539815233602082015260400190565b039083f08015620003be57600154600160401b811015620003ab5786620002ac826001620002eb940160015562000d2b565b969060018060a01b038095169781549060031b90868a831b921b191617905587518093819263ee36675b60e01b83528488840152602483019062000ae9565b038187895af18015620003a15790879162000372575b505082541690833b15620000e1579060248392838751968794859363f2fde38b60e01b85528401525af190811562000367575062000355575b506200034860035462000d74565b6003556001549051908152f35b6200036090620009ee565b386200033a565b8351903d90823e3d90fd5b813d831162000399575b62000388818362000a34565b81010312620000e157853862000301565b503d6200037c565b86513d86823e3d90fd5b634e487b7160e01b845260418352602484fd5b84513d84823e3d90fd5b634e487b7160e01b865260418552602486fd5b509080600319360112620000e157602062000428620003fb843562000d2b565b9054845163669f5a5160e01b81526024359681019687523360208801529586938492918391604090910190565b0392349160039190911b1c6001600160a01b03165af19081156200047d575062000450575080f35b602090813d811162000475575b62000469818362000a34565b81010312620000de5780f35b503d6200045d565b513d84823e3d90fd5b50919034620002085760209182600319360112620000de576001600160a01b03843581811695919290869003620000de57600180549390929082805b8682106200066757620004d69150620013a8565b968398845b878110620004f257885180620002048c8262000b10565b8284620004ff8362000d2b565b929054888d51809481936321de0b0960e11b8352600397881b1c165afa9081156200065d57879285888b948194869162000629575b50161462000552575b505050506200054c9062000d74565b620004db565b6200055d8562000d2b565b9054911b1c168b5192838092633e135a4760e11b82525afa9081156200061f579088918891620005f8575b5087915b6200059d575b50868587926200053d565b909b81518d1015620005f15790620005ea620005e3838f8f958d96620005c8620005dc93886200141d565b51620005d583836200141d565b526200141d565b5062000d74565b9d62000d74565b916200058c565b9b62000592565b6200061891503d808a833e6200060f818362000a34565b810190620011dd565b3862000588565b8a513d89823e3d90fd5b6200064e91508a3d8c1162000655575b62000645818362000a34565b81019062001157565b3862000534565b503d62000639565b8b513d8a823e3d90fd5b8883620006748462000d2b565b929054878c51809481936321de0b0960e11b8352600397881b1c165afa9081156200061f5786928d878a948f948295879262000747575b50501614620006cc575b5050505090620006c59062000d74565b90620004c2565b620006d78662000d2b565b9054911b1c168a5192838092633e135a4760e11b82525afa9081156200073d57916200071391620006c59388916200071f575b5051906200139a565b905083858438620006b5565b6200073691503d808a833e6200060f818362000a34565b386200070a565b89513d88823e3d90fd5b620007619250803d10620006555762000645818362000a34565b8f80620006ab565b5050346200020857816003193601126200020857905490516001600160a01b039091168152602090f35b8334620000de5780600319360112620000de57620007b062000d47565b80546001600160a01b03198116825581906001600160a01b03167f8be0079c531659141344cd1fd0a4f28419497f9722a3daafe3b4186f6b6457e08280a380f35b509190346200020857816003193601126200020857600180549083805b8382106200091e57620008229150620013a8565b938095815b8481106200083e5785518062000204898262000b10565b826200084a8262000d2b565b90548851635fec6e6760e01b8152929183918691839160039190911b1c6001600160a01b03165afa90811562000914579085918591620008f6575b5084915b620008a2575b50506200089c9062000d74565b62000827565b909881518a1015620008ef5790620008e8620008e1838b620008d48a968f620008cc90886200141d565b51926200141d565b52620005dc818d6200141d565b9a62000d74565b9162000889565b986200088f565b6200090d91503d8087833e6200060f818362000a34565b3862000885565b87513d86823e3d90fd5b856200092a8362000d2b565b90548751635fec6e6760e01b8152929183918b91839160039190911b1c6001600160a01b03165afa9081156200099a579162000975916200097c93899162000983575051906200139a565b9162000d74565b906200080e565b6200073691503d808b833e6200060f818362000a34565b86513d89823e3d90fd5b838234620002085760603660031901126200020857604435906001600160401b038211620000e157620009df620009eb923690830162000a72565b90602435903562000f0a565b80f35b6001600160401b03811162000a0257604052565b634e487b7160e01b600052604160045260246000fd5b608081019081106001600160401b0382111762000a0257604052565b90601f801991011681019081106001600160401b0382111762000a0257604052565b6001600160401b03811162000a0257601f01601f191660200190565b81601f8201121562000abf5780359062000a8c8262000a56565b9262000a9c604051948562000a34565b8284526020838301011162000abf57816000926020809301838601378301015290565b600080fd5b60005b83811062000ad85750506000910152565b818101518382015260200162000ac7565b9060209162000b048151809281855285808601910162000ac4565b601f01601f1916010190565b6020808201908083528351809252604092838101600594838186881b850101970195600080945b87861062000b4b5750505050505050505090565b90919293949580979899603f198382030187528a519081518152828201518382015262000b85878301516080808a85015283019062000ae9565b90606080930151928183039101528151808252838201908480828a1b850101940192875b82811062000bcf57505050505090806001929b0196019601949796959392919062000b37565b9193958062000bed6001939597601f19878203018952895162000ae9565b970195019101918c959493919262000ba9565b60025481101562000c3a576002600081815291901b7f405787fa12a823e0f2b7631cc41b3ba8828b3321ca811111fa75cd3aa3bb5ace0191565b634e487b7160e01b600052603260045260246000fd5b90600182811c9216801562000c82575b602083101462000c6c57565b634e487b7160e01b600052602260045260246000fd5b91607f169162000c60565b906000929180549162000ca08362000c50565b91828252600193848116908160001462000d07575060011462000cc4575b50505050565b90919394506000526020928360002092846000945b83861062000cf257505050500101903880808062000cbe565b80548587018301529401938590820162000cd9565b9294505050602093945060ff191683830152151560051b0101903880808062000cbe565b60015481101562000c3a57600160005260206000200190600090565b6000546001600160a01b0316330362000d5c57565b60405163118cdaa760e01b8152336004820152602490fd5b600019811462000d845760010190565b634e487b7160e01b600052601160045260246000fd5b9062000ef457815181556020606060038285015193600194858201556002810160018060a01b0360408801511660018060a01b031982541617905501930151908151916001600160401b03831162000a025762000df8855462000c50565b601f811162000ea6575b5081601f841160011462000e3f575092829391839260009462000e33575b50501b916000199060031b1c1916179055565b01519250388062000e20565b919083601f1981168760005284600020946000905b8883831062000e8b575050501062000e71575b505050811b019055565b015160001960f88460031b161c1916905538808062000e67565b85870151885590960195948501948793509081019062000e54565b6000868152838120601f860160051c81019285871062000ee9575b601f0160051c019186905b83811062000edd5750505062000e02565b82815501869062000ecc565b909250829062000ec1565b634e487b7160e01b600052600060045260246000fd5b60409081519262000f1b8462000a18565b808452816020850152338385015284606085015260005b60028054821015620010ad5762000f498262000c00565b5001546001600160a01b03908116331462000f70575062000f6a9062000d74565b62000f32565b919581959662000f90600162000f87869562000c00565b50015462000d2b565b949054600395861b1c169262000fa68862000c00565b5094843b1562000abf57875196630c6aeadf60e21b885260049784898201526024968a88830152818060449a868c830191019062000fe49162000c8d565b03815a6000948591f18015620010a2579062001008929162001090575b5062000d2b565b9054911b1c1691823b1562000abf5786956200104560009692879389519a8b988997889663681cd54b60e11b885287015285015283019062000ae9565b03925af1908115620010865750916200106b9162001072949362001074575b5062000c00565b9062000d9a565b565b6200107f90620009ee565b3862001064565b513d6000823e3d90fd5b6200109b90620009ee565b3862001001565b8a513d6000823e3d90fd5b505090620010be9094939462000d2b565b905460039190911b1c6001600160a01b031692833b1562000abf576200110a9360009283855180978195829463681cd54b60e11b84526004840152886024840152604483019062000ae9565b03925af190811562001086575062001145575b5060025490600160401b82101562000a02576200106b82600162001072940160025562000c00565b6200115090620009ee565b386200111d565b9081602091031262000abf57516001600160a01b038116810362000abf5790565b6001600160401b03811162000a025760051b60200190565b81601f8201121562000abf578051620011a98162000a56565b92620011b9604051948562000a34565b8184526020828401011162000abf57620011da916020808501910162000ac4565b90565b9060208282031262000abf578151906001600160401b03821162000abf5780601f83850101121562000abf578183015190620012198262001178565b9362001229604051958662000a34565b82855260208501938260208560051b83850101011162000abf57602081830101945b60208560051b83850101018610620012665750505050505090565b85516001600160401b03811162000abf578284010160809081601f19828803011262000abf57604051916200129b8362000a18565b6020820151835260408201516020840152606090818301516001600160401b03811162000abf57886020620012d39286010162001190565b6040850152820151916001600160401b03831162000abf5787603f84830101121562000abf57602083820101516200130b8162001178565b936200131b604051958662000a34565b81855260208501908a60408460051b83870101011162000abf57604081850101915b60408460051b83870101018310620013665750505050508201528152602095860195016200124b565b82516001600160401b03811162000abf576020916200138e8e60408594878b01010162001190565b8152019201916200133d565b9190820180921162000d8457565b90620013b48262001178565b6040620013c48151928362000a34565b8382528193620013d7601f199162001178565b0191600090815b848110620013ed575050505050565b6020908451620013fd8162000a18565b8481528285818301526060808884015280830152828501015201620013de565b805182101562000c3a5760209160051b01019056fe608034620003e157601f906001600160401b0390601f199062001d6e3881900385810184168301919085831184841017620003cb578084926040948552833981010312620003e15780516020918201516001600160a01b03958682169592939291869003620003e15762000072620003e6565b92600a84526921b7b63632b1ba34b7b760b11b8185015262000093620003e6565b90600382526213919560ea1b81830152845196848811620003cb576000978854966001978881811c91168015620003c0575b85821014620003ac5790818784931162000359575b508490878311600114620002f8578b92620002ec575b5050600019600383901b1c191690871b1788555b8251948511620002d85785548681811c91168015620002cd575b83821014620002b95790818587969594931162000260575b5081938511600114620001fb5750508692620001ef575b5050600019600383901b1c191690821b1790555b3315620001d657600780546001600160a01b0319808216339081179093556040519690949291167f8be0079c531659141344cd1fd0a4f28419497f9722a3daafe3b4186f6b6457e08380a380600a55600b55662386f26fc10000600c5560095560085416176008556119679081620004078239f35b604051631e4fbdf760e01b815260048101839052602490fd5b0151905038806200014d565b869593929193168589528389209389905b8282106200024657505084116200022c575b505050811b01905562000161565b015160001960f88460031b161c191690553880806200021e565b84840151865588979095019493840193908101906200020c565b9091929394508689528289208580880160051c820192858910620002af575b9188978a9297969594930160051c01915b828110620002a057505062000136565b8b815588975089910162000290565b925081926200027f565b634e487b7160e01b89526022600452602489fd5b90607f16906200011e565b634e487b7160e01b88526041600452602488fd5b015190503880620000f0565b90848a9416918c8052868d20928d5b8882821062000342575050841162000328575b505050811b01885562000104565b015160001960f88460031b161c191690553880806200031a565b8385015186558d9790950194938401930162000307565b9091508a8052848b208780850160051c820192878610620003a2575b918b91869594930160051c01915b82811062000393575050620000da565b8d81558594508b910162000383565b9250819262000375565b634e487b7160e01b8b52602260045260248bfd5b90607f1690620000c5565b634e487b7160e01b600052604160045260246000fd5b600080fd5b60408051919082016001600160401b03811183821017620003cb5760405256fe6080604081815260048036101561001557600080fd5b600092833560e01c90816301ffc9a714610e425750806306fdde0314610dbb578063081812fc14610d80578063095ea7b314610ca457806323b872dd14610c8c57806331abab7c146109cb57806342842e0e146109a257806343bc1612146109795780635fec6e67146106f05780636352211e14610948578063669f5a51146107a757806370a0823114610752578063715018a6146106f55780637c26b48e146106f0578063833b9499146106d15780638da5cb5b146106a857806395d89b41146105e6578063a22cb46514610549578063b88d4fde146104e2578063c87b56dd1461047b578063d039aa96146103cf578063e985e9c514610381578063ee36675b146101b75763f2fde38b1461012b57600080fd5b346101b35760203660031901126101b357610144610f08565b9061014d6111e4565b6001600160a01b0391821692831561019d575050600780546001600160a01b031981168417909155167f8be0079c531659141344cd1fd0a4f28419497f9722a3daafe3b4186f6b6457e08380a380f35b51631e4fbdf760e01b8152908101849052602490fd5b8280fd5b50913461037e576020928360031936011261037a5780356001600160401b0381116101b3576101e9903690830161102d565b91600a54600954928551916101fd83610f9f565b83835286519061020c82610f6e565b815287810194855286810195865260608101928352600d5495600160401b958688101561036757610244600198898101600d5561161f565b9390936103555751835551878301555160039190610265906002830161166b565b0191519081519485116103425750869082548584558086106102c9575b50918352868320918791015b8484106102ac5750600a54866102a38261176f565b600a5551908152f35b8591816102bb8493518661166b565b01920192019190869061028e565b838552868684872092830192015b8281106102e5575050610282565b9091929350856102f58254611210565b80610308575b50500190868993926102d7565b601f80821160011461032057505081555b85386102fb565b610339908484528d8420920160051c8201858301611654565b81835555610319565b634e487b7160e01b845260419052602483fd5b634e487b7160e01b8752868552602487fd5b634e487b7160e01b865260418452602486fd5b5080fd5b80fd5b50503461037a578060031936011261037a5760ff816020936103a1610f08565b6103a9610f23565b6001600160a01b0391821683526005875283832091168252855220549151911615158152f35b50823461037e576103df3661104b565b9091805b600d5481101561047757836103f78261161f565b50541461040d575b6104089061176f565b6103e3565b60036104188261161f565b5001805490600160401b821015610464579061043991600182018155611794565b610452579061044b846104089361166b565b90506103ff565b634e487b7160e01b8352828652602483fd5b634e487b7160e01b845260418752602484fd5b5080f35b50346101b35760203660031901126101b357906104de926104b992356104a0816115cd565b50815260066020526104c082822083519485809261124a565b0384610fba565b81516104cb81610f9f565b5251918291602083526020830190610ec8565b0390f35b83823461037a57608036600319011261037a576104fd610f08565b610505610f23565b906064356001600160401b0381116105455736602382011215610545576105429381602461053893369301359101610ff6565b916044359161147f565b80f35b8480fd5b5090346101b357806003193601126101b357610563610f08565b9060243591821515809303610545576001600160a01b03169283156105d15750338452600560205280842083855260205280842060ff1981541660ff8416179055519081527f17307eab39ab6107e8899845ad3d59bd9653f200f220920489ca2b5937696c3160203392a380f35b836024925191630b61174360e31b8352820152fd5b50503461037a578160031936011261037a5780519082600180549061060a82611210565b808652918181169081156106805750600114610645575b505050610633826104de940383610fba565b51918291602083526020830190610ec8565b80955082526020948583205b82841061066d57505050826104de946106339282010194610621565b8054868501880152928601928101610651565b6104de97506106339450602092508693915060ff191682840152151560051b82010194610621565b50503461037a578160031936011261037a5760075490516001600160a01b039091168152602090f35b50503461037a578160031936011261037a57602090600c549051908152f35b61107a565b833461037e578060031936011261037e5761070e6111e4565b600780546001600160a01b0319811690915581906001600160a01b03167f8be0079c531659141344cd1fd0a4f28419497f9722a3daafe3b4186f6b6457e08280a380f35b50913461037e57602036600319011261037e576001600160a01b03610775610f08565b169283156107925750806020938392526003845220549051908152f35b91516322718ad960e21b815291820152602490fd5b50816003193601126101b3576107bb610f23565b92600c54341061090b576107cf8235611887565b80516001600160a01b039591939186169081156108f4578084526020966002885286852054169182151592836108c1575b81865260038952878620805460010190558286526002895287862080546001600160a01b031916831790557fddf252ad1be2c89b69c2b068fc378daa952ba7f163c4a11628f55a4df523b3ef8680a46108ac5750837ff8e1a15aba9398e019f0b49df1a4fde98ee17ae345cb5f6b5e2c27f5033e8ce791610890845191868087015191848152600686522061166b565b8451908152a16108a1600b5461176f565b600b55519051908152f35b6024918451916339e3563760e11b8352820152fd5b600083815260046020526040902080546001600160a01b0319169055808652600389528786208054600019019055610800565b8551633250574960e11b8152808401859052602490fd5b506020606492519162461bcd60e51b83528201526017602482015276115d1a195c881c185a59081a5cc81a5b98dbdc9c9958dd604a1b6044820152fd5b50913461037e57602036600319011261037e5750610968602092356115cd565b90516001600160a01b039091168152f35b50503461037a578160031936011261037a5760085490516001600160a01b039091168152602090f35b50503461037a57610542906109b636610f39565b919251926109c384610f9f565b85845261147f565b5091903461037a576109dc3661104b565b9390928092815b600d54811015610c8857856109f78261161f565b505414610a0d575b610a089061176f565b6109e3565b9394825b610a1a8661161f565b50600380910154821015610c7f57610a3d8282610a368a61161f565b5001611794565b509084518a60209382610a59868201928784528a83019061124a565b0392610a6d601f1994858101835282610fba565b51902091610a9788519182610a8b888201958987528c830190610ec8565b03908101835282610fba565b5190201480610c77575b610ab6575b5050610ab19061176f565b610a11565b92989093919495969750610ad483610acd8a61161f565b50016117ac565b988951861015610c7357865b8a51811015610b7a5786811015610b1e5780610aff610b19928d61182b565b51610b0982611818565b52610b1381611818565b5061176f565b610ae0565b868111610b2f575b610b199061176f565b610b39818c61182b565b51600019820190828211610b675781610b5f91610b59610b199594611818565b52611818565b509050610b26565b634e487b7160e01b8a5260118b5260248afd5b50929098509695949396929092610b908761161f565b50606051910191600160401b8211610c60578254828455808310610bf1575b5091855281852091859060805b838310610bd5575050505050610ab16001969038610aa6565b60018282610be58394518961166b565b01950192019193610bbc565b8387528282882091820191015b818110610c0b5750610baf565b8088610c1960019354611210565b80610c27575b505001610bfe565b601f8082118514610c3e57505081555b8838610c1f565b610c5790848452878420920160051c8201858301611654565b81835555610c37565b634e487b7160e01b865260418752602486fd5b8680fd5b508815610aa1565b505094936109ff565b8280f35b833461037e57610542610c9e36610f39565b916112e0565b5090346101b357806003193601126101b357610cbe610f08565b91602435610ccb816115cd565b33151580610d6d575b80610d44575b610d2e576001600160a01b039485169482918691167f8c5be1e5ebec7d5bd14f71427d1e84f3dd0314c0f7b2291e5b200ac8c7c3b9258880a48452602052822080546001600160a01b031916909117905580f35b835163a9fbf51f60e01b81523381850152602490fd5b506001600160a01b03811686526005602090815284872033885290528386205460ff1615610cda565b506001600160a01b038116331415610cd4565b50346101b35760203660031901126101b357918260209335610da1816115cd565b50825283528190205490516001600160a01b039091168152f35b50503461037a578160031936011261037a57805190828054610ddc81611210565b808552906001908181169081156106805750600114610e0757505050610633826104de940383610fba565b94508180526020948583205b828410610e2f57505050826104de946106339282010194610621565b8054868501880152928601928101610e13565b925050346101b35760203660031901126101b3573563ffffffff60e01b81168091036101b35760209250632483248360e11b8114908115610e85575b5015158152f35b6380ac58cd60e01b811491508115610eb7575b8115610ea6575b5038610e7e565b6301ffc9a760e01b14905038610e9f565b635b5e139f60e01b81149150610e98565b919082519283825260005b848110610ef4575050826000602080949584010152601f8019910116010190565b602081830181015184830182015201610ed3565b600435906001600160a01b0382168203610f1e57565b600080fd5b602435906001600160a01b0382168203610f1e57565b6060906003190112610f1e576001600160a01b03906004358281168103610f1e57916024359081168103610f1e579060443590565b608081019081106001600160401b03821117610f8957604052565b634e487b7160e01b600052604160045260246000fd5b602081019081106001600160401b03821117610f8957604052565b90601f801991011681019081106001600160401b03821117610f8957604052565b6001600160401b038111610f8957601f01601f191660200190565b92919261100282610fdb565b916110106040519384610fba565b829481845281830111610f1e578281602093846000960137010152565b9080601f83011215610f1e5781602061104893359101610ff6565b90565b906040600319830112610f1e5760043591602435906001600160401b038211610f1e576110489160040161102d565b34610f1e5760008060031936011261037e57600d549061109982611608565b916040926110a984519182610fba565b818152600d8352602080820192847fd7b6990105719101dabeb77144f2a3385c8033acd3af97e9423a695e81ad1eb5855b8383106111bd575050505084519381850192828652518093528585016005968085891b8801019597835b8685106111115788880389f35b9091929394809697603f198a82030186528a51908151815282820151838201526111478683015160808089850152830190610ec8565b9060608093015192818303910152815180825283820190848082891b850101940192865b82811061118f57505050505090806001929b01950195019398969594929190611104565b919395806111ab6001939597601f198782030189528951610ec8565b970195019101918b959493919261116b565b6004856001926111d1859c98999a9c61183f565b81520192019201919097959493976110da565b6007546001600160a01b031633036111f857565b60405163118cdaa760e01b8152336004820152602490fd5b90600182811c92168015611240575b602083101461122a57565b634e487b7160e01b600052602260045260246000fd5b91607f169161121f565b906000929180549161125b83611210565b9182825260019384811690816000146112bd575060011461127d575b50505050565b90919394506000526020928360002092846000945b8386106112a9575050505001019038808080611277565b805485870183015294019385908201611292565b9294505050602093945060ff191683830152151560051b01019038808080611277565b6001600160a01b039182169290918315611466576000928284528260209560028752604096848888205416968791331515806113d0575b509060027fddf252ad1be2c89b69c2b068fc378daa952ba7f163c4a11628f55a4df523b3ef928461139d575b858352600381528b8320805460010190558683525289812080546001600160a01b0319168517905580a4169283830361137c5750505050565b6064945051926364283d7b60e01b8452600484015260248301526044820152fd5b600087815260046020526040902080546001600160a01b0319169055848352600381528b83208054600019019055611343565b91939450915080611425575b156113ec57859291879138611317565b878688611409576024915190637e27328960e01b82526004820152fd5b604491519063177e802f60e01b82523360048301526024820152fd5b50338714801561144a575b806113dc57508582526004815233858984205416146113dc565b5086825260058152878220338352815260ff8883205416611430565b604051633250574960e11b815260006004820152602490fd5b61148a8383836112e0565b813b6114965750505050565b604051630a85bd0160e11b8082523360048301526001600160a01b039283166024830152604482019490945260806064820152602095929091169390929083906114e4906084830190610ec8565b039285816000958187895af184918161158d575b50611558575050503d600014611550573d61151281610fdb565b906115206040519283610fba565b81528091843d92013e5b8051928361154b57604051633250574960e11b815260048101849052602490fd5b019050fd5b50606061152a565b919450915063ffffffff60e01b1603611575575038808080611277565b60249060405190633250574960e11b82526004820152fd5b9091508681813d83116115c6575b6115a58183610fba565b8101031261054557516001600160e01b0319811681036105455790386114f8565b503d61159b565b6000818152600260205260409020546001600160a01b03169081156115f0575090565b60249060405190637e27328960e01b82526004820152fd5b6001600160401b038111610f895760051b60200190565b600d5481101561163e57600d60005260206000209060021b0190600090565b634e487b7160e01b600052603260045260246000fd5b81811061165f575050565b60008155600101611654565b91909182516001600160401b038111610f89576116888254611210565b601f8111611732575b50602080601f83116001146116ce5750819293946000926116c3575b50508160011b916000199060031b1c1916179055565b0151905038806116ad565b90601f198316958460005282600020926000905b88821061171a57505083600195969710611701575b505050811b019055565b015160001960f88460031b161c191690553880806116f7565b806001859682949686015181550195019301906116e2565b61175f90836000526020600020601f840160051c81019160208510611765575b601f0160051c0190611654565b38611691565b9091508190611752565b600019811461177e5760010190565b634e487b7160e01b600052601160045260246000fd5b805482101561163e5760005260206000200190600090565b9081546117b881611608565b926040936117c885519182610fba565b828152809460208092019260005281600020906000935b8585106117ee57505050505050565b6001848192845161180a81611803818a61124a565b0382610fba565b8152019301940193916117df565b60605181101561163e5760051b60800190565b805182101561163e5760209160051b010190565b9060405161184c81610f6e565b606061188260038395805485526001810154602086015260405161187781611803816002860161124a565b6040860152016117ac565b910152565b60409081519061189682610f6e565b606080600093848152846020820152818682015201528190600d54915b8281106118fa575050508151906118c982610f9f565b8082528251926118d884610f6e565b8184528160208501528051916118ed83610f9f565b8252830152606082015290565b816119048261161f565b505414611919576119149061176f565b6118b3565b915050611048925061192b915061161f565b5061183f56fea26469706673582212208653dd470ed3c07c570785905854761eebefa1ad4d9fa7dc5036e0bee767fa5d64736f6c63430008140033a2646970667358221220278c169e2d4ae17b9d5bc054a81583e35bcf4a2d7b741883134a3bf277ca9f4f64736f6c63430008140033",
  "linkReferences": {},
  "deployedLinkReferences": {}
}