{
  "_format": "hh-sol-artifact-1",
  "contractName": "Collection",
  "sourceName": "contracts/Collection.sol",
  "abi": [
    {
      "inputs": [
        {
          "internalType": "uint256",
          "name": "newId",
          "type": "uint256"
        },
        {
          "internalType": "address",
          "name": "_artist",
          "type": "address"
        }
      ],
      "stateMutability": "nonpayable",
      "type": "constructor"
    },
    {
      "inputs": [
        {
          "internalType": "address",
          "name": "sender",
          "type": "address"
        },
        {
          "internalType": "uint256",
          "name": "tokenId",
          "type": "uint256"
        },
        {
          "internalType": "address",
          "name": "owner",
          "type": "address"
        }
      ],
      "name": "ERC721IncorrectOwner",
      "type": "error"
    },
    {
      "inputs": [
        {
          "internalType": "address",
          "name": "operator",
          "type": "address"
        },
        {
          "internalType": "uint256",
          "name": "tokenId",
          "type": "uint256"
        }
      ],
      "name": "ERC721InsufficientApproval",
      "type": "error"
    },
    {
      "inputs": [
        {
          "internalType": "address",
          "name": "approver",
          "type": "address"
        }
      ],
      "name": "ERC721InvalidApprover",
      "type": "error"
    },
    {
      "inputs": [
        {
          "internalType": "address",
          "name": "operator",
          "type": "address"
        }
      ],
      "name": "ERC721InvalidOperator",
      "type": "error"
    },
    {
      "inputs": [
        {
          "internalType": "address",
          "name": "owner",
          "type": "address"
        }
      ],
      "name": "ERC721InvalidOwner",
      "type": "error"
    },
    {
      "inputs": [
        {
          "internalType": "address",
          "name": "receiver",
          "type": "address"
        }
      ],
      "name": "ERC721InvalidReceiver",
      "type": "error"
    },
    {
      "inputs": [
        {
          "internalType": "address",
          "name": "sender",
          "type": "address"
        }
      ],
      "name": "ERC721InvalidSender",
      "type": "error"
    },
    {
      "inputs": [
        {
          "internalType": "uint256",
          "name": "tokenId",
          "type": "uint256"
        }
      ],
      "name": "ERC721NonexistentToken",
      "type": "error"
    },
    {
      "inputs": [
        {
          "internalType": "address",
          "name": "owner",
          "type": "address"
        }
      ],
      "name": "OwnableInvalidOwner",
      "type": "error"
    },
    {
      "inputs": [
        {
          "internalType": "address",
          "name": "account",
          "type": "address"
        }
      ],
      "name": "OwnableUnauthorizedAccount",
      "type": "error"
    },
    {
      "anonymous": false,
      "inputs": [
        {
          "indexed": true,
          "internalType": "address",
          "name": "owner",
          "type": "address"
        },
        {
          "indexed": true,
          "internalType": "address",
          "name": "approved",
          "type": "address"
        },
        {
          "indexed": true,
          "internalType": "uint256",
          "name": "tokenId",
          "type": "uint256"
        }
      ],
      "name": "Approval",
      "type": "event"
    },
    {
      "anonymous": false,
      "inputs": [
        {
          "indexed": true,
          "internalType": "address",
          "name": "owner",
          "type": "address"
        },
        {
          "indexed": true,
          "internalType": "address",
          "name": "operator",
          "type": "address"
        },
        {
          "indexed": false,
          "internalType": "bool",
          "name": "approved",
          "type": "bool"
        }
      ],
      "name": "ApprovalForAll",
      "type": "event"
    },
    {
      "anonymous": false,
      "inputs": [
        {
          "indexed": false,
          "internalType": "uint256",
          "name": "_fromTokenId",
          "type": "uint256"
        },
        {
          "indexed": false,
          "internalType": "uint256",
          "name": "_toTokenId",
          "type": "uint256"
        }
      ],
      "name": "BatchMetadataUpdate",
      "type": "event"
    },
    {
      "anonymous": false,
      "inputs": [
        {
          "indexed": false,
          "internalType": "uint256",
          "name": "_tokenId",
          "type": "uint256"
        }
      ],
      "name": "MetadataUpdate",
      "type": "event"
    },
    {
      "anonymous": false,
      "inputs": [
        {
          "indexed": true,
          "internalType": "address",
          "name": "previousOwner",
          "type": "address"
        },
        {
          "indexed": true,
          "internalType": "address",
          "name": "newOwner",
          "type": "address"
        }
      ],
      "name": "OwnershipTransferred",
      "type": "event"
    },
    {
      "anonymous": false,
      "inputs": [
        {
          "indexed": true,
          "internalType": "address",
          "name": "from",
          "type": "address"
        },
        {
          "indexed": true,
          "internalType": "address",
          "name": "to",
          "type": "address"
        },
        {
          "indexed": true,
          "internalType": "uint256",
          "name": "tokenId",
          "type": "uint256"
        }
      ],
      "name": "Transfer",
      "type": "event"
    },
    {
      "inputs": [
        {
          "internalType": "string",
          "name": "_tokenURI",
          "type": "string"
        }
      ],
      "name": "AddToken",
      "outputs": [
        {
          "internalType": "uint256",
          "name": "",
          "type": "uint256"
        }
      ],
      "stateMutability": "nonpayable",
      "type": "function"
    },
    {
      "inputs": [
        {
          "internalType": "uint256",
          "name": "tokenID",
          "type": "uint256"
        },
        {
          "internalType": "string",
          "name": "voterName",
          "type": "string"
        }
      ],
      "name": "AddVote",
      "outputs": [],
      "stateMutability": "nonpayable",
      "type": "function"
    },
    {
      "inputs": [
        {
          "internalType": "uint256",
          "name": "tokenId",
          "type": "uint256"
        },
        {
          "internalType": "string",
          "name": "voterName",
          "type": "string"
        }
      ],
      "name": "DeleteVote",
      "outputs": [],
      "stateMutability": "nonpayable",
      "type": "function"
    },
    {
      "inputs": [],
      "name": "GetAllNFTs",
      "outputs": [
        {
          "components": [
            {
              "internalType": "uint256",
              "name": "id",
              "type": "uint256"
            },
            {
              "internalType": "uint256",
              "name": "collectionId",
              "type": "uint256"
            },
            {
              "internalType": "string",
              "name": "uri",
              "type": "string"
            },
            {
              "internalType": "string[]",
              "name": "voters",
              "type": "string[]"
            }
          ],
          "internalType": "struct Token[]",
          "name": "",
          "type": "tuple[]"
        }
      ],
      "stateMutability": "view",
      "type": "function"
    },
    {
      "inputs": [],
      "name": "GetAvailableNFTs",
      "outputs": [
        {
          "components": [
            {
              "internalType": "uint256",
              "name": "id",
              "type": "uint256"
            },
            {
              "internalType": "uint256",
              "name": "collectionId",
              "type": "uint256"
            },
            {
              "internalType": "string",
              "name": "uri",
              "type": "string"
            },
            {
              "internalType": "string[]",
              "name": "voters",
              "type": "string[]"
            }
          ],
          "internalType": "struct Token[]",
          "name": "",
          "type": "tuple[]"
        }
      ],
      "stateMutability": "view",
      "type": "function"
    },
    {
      "inputs": [],
      "name": "PRICE_PER_TOKEN",
      "outputs": [
        {
          "internalType": "uint256",
          "name": "",
          "type": "uint256"
        }
      ],
      "stateMutability": "view",
      "type": "function"
    },
    {
      "inputs": [
        {
          "internalType": "address",
          "name": "to",
          "type": "address"
        },
        {
          "internalType": "uint256",
          "name": "tokenId",
          "type": "uint256"
        }
      ],
      "name": "approve",
      "outputs": [],
      "stateMutability": "nonpayable",
      "type": "function"
    },
    {
      "inputs": [],
      "name": "artist",
      "outputs": [
        {
          "internalType": "address",
          "name": "",
          "type": "address"
        }
      ],
      "stateMutability": "view",
      "type": "function"
    },
    {
      "inputs": [
        {
          "internalType": "address",
          "name": "owner",
          "type": "address"
        }
      ],
      "name": "balanceOf",
      "outputs": [
        {
          "internalType": "uint256",
          "name": "",
          "type": "uint256"
        }
      ],
      "stateMutability": "view",
      "type": "function"
    },
    {
      "inputs": [
        {
          "internalType": "uint256",
          "name": "tokenId",
          "type": "uint256"
        }
      ],
      "name": "getApproved",
      "outputs": [
        {
          "internalType": "address",
          "name": "",
          "type": "address"
        }
      ],
      "stateMutability": "view",
      "type": "function"
    },
    {
      "inputs": [
        {
          "internalType": "address",
          "name": "owner",
          "type": "address"
        },
        {
          "internalType": "address",
          "name": "operator",
          "type": "address"
        }
      ],
      "name": "isApprovedForAll",
      "outputs": [
        {
          "internalType": "bool",
          "name": "",
          "type": "bool"
        }
      ],
      "stateMutability": "view",
      "type": "function"
    },
    {
      "inputs": [
        {
          "internalType": "uint256",
          "name": "tokenID",
          "type": "uint256"
        },
        {
          "internalType": "address",
          "name": "owner",
          "type": "address"
        }
      ],
      "name": "mintNFT",
      "outputs": [
        {
          "internalType": "uint256",
          "name": "",
          "type": "uint256"
        }
      ],
      "stateMutability": "payable",
      "type": "function"
    },
    {
      "inputs": [],
      "name": "name",
      "outputs": [
        {
          "internalType": "string",
          "name": "",
          "type": "string"
        }
      ],
      "stateMutability": "view",
      "type": "function"
    },
    {
      "inputs": [],
      "name": "owner",
      "outputs": [
        {
          "internalType": "address",
          "name": "",
          "type": "address"
        }
      ],
      "stateMutability": "view",
      "type": "function"
    },
    {
      "inputs": [
        {
          "internalType": "uint256",
          "name": "tokenId",
          "type": "uint256"
        }
      ],
      "name": "ownerOf",
      "outputs": [
        {
          "internalType": "address",
          "name": "",
          "type": "address"
        }
      ],
      "stateMutability": "view",
      "type": "function"
    },
    {
      "inputs": [],
      "name": "renounceOwnership",
      "outputs": [],
      "stateMutability": "nonpayable",
      "type": "function"
    },
    {
      "inputs": [
        {
          "internalType": "address",
          "name": "from",
          "type": "address"
        },
        {
          "internalType": "address",
          "name": "to",
          "type": "address"
        },
        {
          "internalType": "uint256",
          "name": "tokenId",
          "type": "uint256"
        }
      ],
      "name": "safeTransferFrom",
      "outputs": [],
      "stateMutability": "nonpayable",
      "type": "function"
    },
    {
      "inputs": [
        {
          "internalType": "address",
          "name": "from",
          "type": "address"
        },
        {
          "internalType": "address",
          "name": "to",
          "type": "address"
        },
        {
          "internalType": "uint256",
          "name": "tokenId",
          "type": "uint256"
        },
        {
          "internalType": "bytes",
          "name": "data",
          "type": "bytes"
        }
      ],
      "name": "safeTransferFrom",
      "outputs": [],
      "stateMutability": "nonpayable",
      "type": "function"
    },
    {
      "inputs": [
        {
          "internalType": "address",
          "name": "operator",
          "type": "address"
        },
        {
          "internalType": "bool",
          "name": "approved",
          "type": "bool"
        }
      ],
      "name": "setApprovalForAll",
      "outputs": [],
      "stateMutability": "nonpayable",
      "type": "function"
    },
    {
      "inputs": [
        {
          "internalType": "bytes4",
          "name": "interfaceId",
          "type": "bytes4"
        }
      ],
      "name": "supportsInterface",
      "outputs": [
        {
          "internalType": "bool",
          "name": "",
          "type": "bool"
        }
      ],
      "stateMutability": "view",
      "type": "function"
    },
    {
      "inputs": [],
      "name": "symbol",
      "outputs": [
        {
          "internalType": "string",
          "name": "",
          "type": "string"
        }
      ],
      "stateMutability": "view",
      "type": "function"
    },
    {
      "inputs": [
        {
          "internalType": "uint256",
          "name": "tokenId",
          "type": "uint256"
        }
      ],
      "name": "tokenURI",
      "outputs": [
        {
          "internalType": "string",
          "name": "",
          "type": "string"
        }
      ],
      "stateMutability": "view",
      "type": "function"
    },
    {
      "inputs": [
        {
          "internalType": "address",
          "name": "from",
          "type": "address"
        },
        {
          "internalType": "address",
          "name": "to",
          "type": "address"
        },
        {
          "internalType": "uint256",
          "name": "tokenId",
          "type": "uint256"
        }
      ],
      "name": "transferFrom",
      "outputs": [],
      "stateMutability": "nonpayable",
      "type": "function"
    },
    {
      "inputs": [
        {
          "internalType": "address",
          "name": "newOwner",
          "type": "address"
        }
      ],
      "name": "transferOwnership",
      "outputs": [],
      "stateMutability": "nonpayable",
      "type": "function"
    }
  ],
  "bytecode": "0x608034620003e157601f906001600160401b0390601f199062001d6e3881900385810184168301919085831184841017620003cb578084926040948552833981010312620003e15780516020918201516001600160a01b03958682169592939291869003620003e15762000072620003e6565b92600a84526921b7b63632b1ba34b7b760b11b8185015262000093620003e6565b90600382526213919560ea1b81830152845196848811620003cb576000978854966001978881811c91168015620003c0575b85821014620003ac5790818784931162000359575b508490878311600114620002f8578b92620002ec575b5050600019600383901b1c191690871b1788555b8251948511620002d85785548681811c91168015620002cd575b83821014620002b95790818587969594931162000260575b5081938511600114620001fb5750508692620001ef575b5050600019600383901b1c191690821b1790555b3315620001d657600780546001600160a01b0319808216339081179093556040519690949291167f8be0079c531659141344cd1fd0a4f28419497f9722a3daafe3b4186f6b6457e08380a380600a55600b55662386f26fc10000600c5560095560085416176008556119679081620004078239f35b604051631e4fbdf760e01b815260048101839052602490fd5b0151905038806200014d565b869593929193168589528389209389905b8282106200024657505084116200022c575b505050811b01905562000161565b015160001960f88460031b161c191690553880806200021e565b84840151865588979095019493840193908101906200020c565b9091929394508689528289208580880160051c820192858910620002af575b9188978a9297969594930160051c01915b828110620002a057505062000136565b8b815588975089910162000290565b925081926200027f565b634e487b7160e01b89526022600452602489fd5b90607f16906200011e565b634e487b7160e01b88526041600452602488fd5b015190503880620000f0565b90848a9416918c8052868d20928d5b8882821062000342575050841162000328575b505050811b01885562000104565b015160001960f88460031b161c191690553880806200031a565b8385015186558d9790950194938401930162000307565b9091508a8052848b208780850160051c820192878610620003a2575b918b91869594930160051c01915b82811062000393575050620000da565b8d81558594508b910162000383565b9250819262000375565b634e487b7160e01b8b52602260045260248bfd5b90607f1690620000c5565b634e487b7160e01b600052604160045260246000fd5b600080fd5b60408051919082016001600160401b03811183821017620003cb5760405256fe6080604081815260048036101561001557600080fd5b600092833560e01c90816301ffc9a714610e425750806306fdde0314610dbb578063081812fc14610d80578063095ea7b314610ca457806323b872dd14610c8c57806331abab7c146109cb57806342842e0e146109a257806343bc1612146109795780635fec6e67146106f05780636352211e14610948578063669f5a51146107a757806370a0823114610752578063715018a6146106f55780637c26b48e146106f0578063833b9499146106d15780638da5cb5b146106a857806395d89b41146105e6578063a22cb46514610549578063b88d4fde146104e2578063c87b56dd1461047b578063d039aa96146103cf578063e985e9c514610381578063ee36675b146101b75763f2fde38b1461012b57600080fd5b346101b35760203660031901126101b357610144610f08565b9061014d6111e4565b6001600160a01b0391821692831561019d575050600780546001600160a01b031981168417909155167f8be0079c531659141344cd1fd0a4f28419497f9722a3daafe3b4186f6b6457e08380a380f35b51631e4fbdf760e01b8152908101849052602490fd5b8280fd5b50913461037e576020928360031936011261037a5780356001600160401b0381116101b3576101e9903690830161102d565b91600a54600954928551916101fd83610f9f565b83835286519061020c82610f6e565b815287810194855286810195865260608101928352600d5495600160401b958688101561036757610244600198898101600d5561161f565b9390936103555751835551878301555160039190610265906002830161166b565b0191519081519485116103425750869082548584558086106102c9575b50918352868320918791015b8484106102ac5750600a54866102a38261176f565b600a5551908152f35b8591816102bb8493518661166b565b01920192019190869061028e565b838552868684872092830192015b8281106102e5575050610282565b9091929350856102f58254611210565b80610308575b50500190868993926102d7565b601f80821160011461032057505081555b85386102fb565b610339908484528d8420920160051c8201858301611654565b81835555610319565b634e487b7160e01b845260419052602483fd5b634e487b7160e01b8752868552602487fd5b634e487b7160e01b865260418452602486fd5b5080fd5b80fd5b50503461037a578060031936011261037a5760ff816020936103a1610f08565b6103a9610f23565b6001600160a01b0391821683526005875283832091168252855220549151911615158152f35b50823461037e576103df3661104b565b9091805b600d5481101561047757836103f78261161f565b50541461040d575b6104089061176f565b6103e3565b60036104188261161f565b5001805490600160401b821015610464579061043991600182018155611794565b610452579061044b846104089361166b565b90506103ff565b634e487b7160e01b8352828652602483fd5b634e487b7160e01b845260418752602484fd5b5080f35b50346101b35760203660031901126101b357906104de926104b992356104a0816115cd565b50815260066020526104c082822083519485809261124a565b0384610fba565b81516104cb81610f9f565b5251918291602083526020830190610ec8565b0390f35b83823461037a57608036600319011261037a576104fd610f08565b610505610f23565b906064356001600160401b0381116105455736602382011215610545576105429381602461053893369301359101610ff6565b916044359161147f565b80f35b8480fd5b5090346101b357806003193601126101b357610563610f08565b9060243591821515809303610545576001600160a01b03169283156105d15750338452600560205280842083855260205280842060ff1981541660ff8416179055519081527f17307eab39ab6107e8899845ad3d59bd9653f200f220920489ca2b5937696c3160203392a380f35b836024925191630b61174360e31b8352820152fd5b50503461037a578160031936011261037a5780519082600180549061060a82611210565b808652918181169081156106805750600114610645575b505050610633826104de940383610fba565b51918291602083526020830190610ec8565b80955082526020948583205b82841061066d57505050826104de946106339282010194610621565b8054868501880152928601928101610651565b6104de97506106339450602092508693915060ff191682840152151560051b82010194610621565b50503461037a578160031936011261037a5760075490516001600160a01b039091168152602090f35b50503461037a578160031936011261037a57602090600c549051908152f35b61107a565b833461037e578060031936011261037e5761070e6111e4565b600780546001600160a01b0319811690915581906001600160a01b03167f8be0079c531659141344cd1fd0a4f28419497f9722a3daafe3b4186f6b6457e08280a380f35b50913461037e57602036600319011261037e576001600160a01b03610775610f08565b169283156107925750806020938392526003845220549051908152f35b91516322718ad960e21b815291820152602490fd5b50816003193601126101b3576107bb610f23565b92600c54341061090b576107cf8235611887565b80516001600160a01b039591939186169081156108f4578084526020966002885286852054169182151592836108c1575b81865260038952878620805460010190558286526002895287862080546001600160a01b031916831790557fddf252ad1be2c89b69c2b068fc378daa952ba7f163c4a11628f55a4df523b3ef8680a46108ac5750837ff8e1a15aba9398e019f0b49df1a4fde98ee17ae345cb5f6b5e2c27f5033e8ce791610890845191868087015191848152600686522061166b565b8451908152a16108a1600b5461176f565b600b55519051908152f35b6024918451916339e3563760e11b8352820152fd5b600083815260046020526040902080546001600160a01b0319169055808652600389528786208054600019019055610800565b8551633250574960e11b8152808401859052602490fd5b506020606492519162461bcd60e51b83528201526017602482015276115d1a195c881c185a59081a5cc81a5b98dbdc9c9958dd604a1b6044820152fd5b50913461037e57602036600319011261037e5750610968602092356115cd565b90516001600160a01b039091168152f35b50503461037a578160031936011261037a5760085490516001600160a01b039091168152602090f35b50503461037a57610542906109b636610f39565b919251926109c384610f9f565b85845261147f565b5091903461037a576109dc3661104b565b9390928092815b600d54811015610c8857856109f78261161f565b505414610a0d575b610a089061176f565b6109e3565b9394825b610a1a8661161f565b50600380910154821015610c7f57610a3d8282610a368a61161f565b5001611794565b509084518a60209382610a59868201928784528a83019061124a565b0392610a6d601f1994858101835282610fba565b51902091610a9788519182610a8b888201958987528c830190610ec8565b03908101835282610fba565b5190201480610c77575b610ab6575b5050610ab19061176f565b610a11565b92989093919495969750610ad483610acd8a61161f565b50016117ac565b988951861015610c7357865b8a51811015610b7a5786811015610b1e5780610aff610b19928d61182b565b51610b0982611818565b52610b1381611818565b5061176f565b610ae0565b868111610b2f575b610b199061176f565b610b39818c61182b565b51600019820190828211610b675781610b5f91610b59610b199594611818565b52611818565b509050610b26565b634e487b7160e01b8a5260118b5260248afd5b50929098509695949396929092610b908761161f565b50606051910191600160401b8211610c60578254828455808310610bf1575b5091855281852091859060805b838310610bd5575050505050610ab16001969038610aa6565b60018282610be58394518961166b565b01950192019193610bbc565b8387528282882091820191015b818110610c0b5750610baf565b8088610c1960019354611210565b80610c27575b505001610bfe565b601f8082118514610c3e57505081555b8838610c1f565b610c5790848452878420920160051c8201858301611654565b81835555610c37565b634e487b7160e01b865260418752602486fd5b8680fd5b508815610aa1565b505094936109ff565b8280f35b833461037e57610542610c9e36610f39565b916112e0565b5090346101b357806003193601126101b357610cbe610f08565b91602435610ccb816115cd565b33151580610d6d575b80610d44575b610d2e576001600160a01b039485169482918691167f8c5be1e5ebec7d5bd14f71427d1e84f3dd0314c0f7b2291e5b200ac8c7c3b9258880a48452602052822080546001600160a01b031916909117905580f35b835163a9fbf51f60e01b81523381850152602490fd5b506001600160a01b03811686526005602090815284872033885290528386205460ff1615610cda565b506001600160a01b038116331415610cd4565b50346101b35760203660031901126101b357918260209335610da1816115cd565b50825283528190205490516001600160a01b039091168152f35b50503461037a578160031936011261037a57805190828054610ddc81611210565b808552906001908181169081156106805750600114610e0757505050610633826104de940383610fba565b94508180526020948583205b828410610e2f57505050826104de946106339282010194610621565b8054868501880152928601928101610e13565b925050346101b35760203660031901126101b3573563ffffffff60e01b81168091036101b35760209250632483248360e11b8114908115610e85575b5015158152f35b6380ac58cd60e01b811491508115610eb7575b8115610ea6575b5038610e7e565b6301ffc9a760e01b14905038610e9f565b635b5e139f60e01b81149150610e98565b919082519283825260005b848110610ef4575050826000602080949584010152601f8019910116010190565b602081830181015184830182015201610ed3565b600435906001600160a01b0382168203610f1e57565b600080fd5b602435906001600160a01b0382168203610f1e57565b6060906003190112610f1e576001600160a01b03906004358281168103610f1e57916024359081168103610f1e579060443590565b608081019081106001600160401b03821117610f8957604052565b634e487b7160e01b600052604160045260246000fd5b602081019081106001600160401b03821117610f8957604052565b90601f801991011681019081106001600160401b03821117610f8957604052565b6001600160401b038111610f8957601f01601f191660200190565b92919261100282610fdb565b916110106040519384610fba565b829481845281830111610f1e578281602093846000960137010152565b9080601f83011215610f1e5781602061104893359101610ff6565b90565b906040600319830112610f1e5760043591602435906001600160401b038211610f1e576110489160040161102d565b34610f1e5760008060031936011261037e57600d549061109982611608565b916040926110a984519182610fba565b818152600d8352602080820192847fd7b6990105719101dabeb77144f2a3385c8033acd3af97e9423a695e81ad1eb5855b8383106111bd575050505084519381850192828652518093528585016005968085891b8801019597835b8685106111115788880389f35b9091929394809697603f198a82030186528a51908151815282820151838201526111478683015160808089850152830190610ec8565b9060608093015192818303910152815180825283820190848082891b850101940192865b82811061118f57505050505090806001929b01950195019398969594929190611104565b919395806111ab6001939597601f198782030189528951610ec8565b970195019101918b959493919261116b565b6004856001926111d1859c98999a9c61183f565b81520192019201919097959493976110da565b6007546001600160a01b031633036111f857565b60405163118cdaa760e01b8152336004820152602490fd5b90600182811c92168015611240575b602083101461122a57565b634e487b7160e01b600052602260045260246000fd5b91607f169161121f565b906000929180549161125b83611210565b9182825260019384811690816000146112bd575060011461127d575b50505050565b90919394506000526020928360002092846000945b8386106112a9575050505001019038808080611277565b805485870183015294019385908201611292565b9294505050602093945060ff191683830152151560051b01019038808080611277565b6001600160a01b039182169290918315611466576000928284528260209560028752604096848888205416968791331515806113d0575b509060027fddf252ad1be2c89b69c2b068fc378daa952ba7f163c4a11628f55a4df523b3ef928461139d575b858352600381528b8320805460010190558683525289812080546001600160a01b0319168517905580a4169283830361137c5750505050565b6064945051926364283d7b60e01b8452600484015260248301526044820152fd5b600087815260046020526040902080546001600160a01b0319169055848352600381528b83208054600019019055611343565b91939450915080611425575b156113ec57859291879138611317565b878688611409576024915190637e27328960e01b82526004820152fd5b604491519063177e802f60e01b82523360048301526024820152fd5b50338714801561144a575b806113dc57508582526004815233858984205416146113dc565b5086825260058152878220338352815260ff8883205416611430565b604051633250574960e11b815260006004820152602490fd5b61148a8383836112e0565b813b6114965750505050565b604051630a85bd0160e11b8082523360048301526001600160a01b039283166024830152604482019490945260806064820152602095929091169390929083906114e4906084830190610ec8565b039285816000958187895af184918161158d575b50611558575050503d600014611550573d61151281610fdb565b906115206040519283610fba565b81528091843d92013e5b8051928361154b57604051633250574960e11b815260048101849052602490fd5b019050fd5b50606061152a565b919450915063ffffffff60e01b1603611575575038808080611277565b60249060405190633250574960e11b82526004820152fd5b9091508681813d83116115c6575b6115a58183610fba565b8101031261054557516001600160e01b0319811681036105455790386114f8565b503d61159b565b6000818152600260205260409020546001600160a01b03169081156115f0575090565b60249060405190637e27328960e01b82526004820152fd5b6001600160401b038111610f895760051b60200190565b600d5481101561163e57600d60005260206000209060021b0190600090565b634e487b7160e01b600052603260045260246000fd5b81811061165f575050565b60008155600101611654565b91909182516001600160401b038111610f89576116888254611210565b601f8111611732575b50602080601f83116001146116ce5750819293946000926116c3575b50508160011b916000199060031b1c1916179055565b0151905038806116ad565b90601f198316958460005282600020926000905b88821061171a57505083600195969710611701575b505050811b019055565b015160001960f88460031b161c191690553880806116f7565b806001859682949686015181550195019301906116e2565b61175f90836000526020600020601f840160051c81019160208510611765575b601f0160051c0190611654565b38611691565b9091508190611752565b600019811461177e5760010190565b634e487b7160e01b600052601160045260246000fd5b805482101561163e5760005260206000200190600090565b9081546117b881611608565b926040936117c885519182610fba565b828152809460208092019260005281600020906000935b8585106117ee57505050505050565b6001848192845161180a81611803818a61124a565b0382610fba565b8152019301940193916117df565b60605181101561163e5760051b60800190565b805182101561163e5760209160051b010190565b9060405161184c81610f6e565b606061188260038395805485526001810154602086015260405161187781611803816002860161124a565b6040860152016117ac565b910152565b60409081519061189682610f6e565b606080600093848152846020820152818682015201528190600d54915b8281106118fa575050508151906118c982610f9f565b8082528251926118d884610f6e565b8184528160208501528051916118ed83610f9f565b8252830152606082015290565b816119048261161f565b505414611919576119149061176f565b6118b3565b915050611048925061192b915061161f565b5061183f56fea26469706673582212208653dd470ed3c07c570785905854761eebefa1ad4d9fa7dc5036e0bee767fa5d64736f6c63430008140033",
  "linkReferences": {},
  "deployedLinkReferences": {}
}