{
  "_format": "hh-sol-artifact-1",
  "contractName": "Collection",
  "sourceName": "contracts/Collection.sol",
  "abi": [
    {
      "inputs": [
        {
          "internalType": "uint256",
          "name": "newId",
          "type": "uint256"
        },
        {
          "internalType": "address",
          "name": "_artist",
          "type": "address"
        }
      ],
      "stateMutability": "nonpayable",
      "type": "constructor"
    },
    {
      "inputs": [
        {
          "internalType": "address",
          "name": "sender",
          "type": "address"
        },
        {
          "internalType": "uint256",
          "name": "tokenId",
          "type": "uint256"
        },
        {
          "internalType": "address",
          "name": "owner",
          "type": "address"
        }
      ],
      "name": "ERC721IncorrectOwner",
      "type": "error"
    },
    {
      "inputs": [
        {
          "internalType": "address",
          "name": "operator",
          "type": "address"
        },
        {
          "internalType": "uint256",
          "name": "tokenId",
          "type": "uint256"
        }
      ],
      "name": "ERC721InsufficientApproval",
      "type": "error"
    },
    {
      "inputs": [
        {
          "internalType": "address",
          "name": "approver",
          "type": "address"
        }
      ],
      "name": "ERC721InvalidApprover",
      "type": "error"
    },
    {
      "inputs": [
        {
          "internalType": "address",
          "name": "operator",
          "type": "address"
        }
      ],
      "name": "ERC721InvalidOperator",
      "type": "error"
    },
    {
      "inputs": [
        {
          "internalType": "address",
          "name": "owner",
          "type": "address"
        }
      ],
      "name": "ERC721InvalidOwner",
      "type": "error"
    },
    {
      "inputs": [
        {
          "internalType": "address",
          "name": "receiver",
          "type": "address"
        }
      ],
      "name": "ERC721InvalidReceiver",
      "type": "error"
    },
    {
      "inputs": [
        {
          "internalType": "address",
          "name": "sender",
          "type": "address"
        }
      ],
      "name": "ERC721InvalidSender",
      "type": "error"
    },
    {
      "inputs": [
        {
          "internalType": "uint256",
          "name": "tokenId",
          "type": "uint256"
        }
      ],
      "name": "ERC721NonexistentToken",
      "type": "error"
    },
    {
      "inputs": [
        {
          "internalType": "address",
          "name": "owner",
          "type": "address"
        }
      ],
      "name": "OwnableInvalidOwner",
      "type": "error"
    },
    {
      "inputs": [
        {
          "internalType": "address",
          "name": "account",
          "type": "address"
        }
      ],
      "name": "OwnableUnauthorizedAccount",
      "type": "error"
    },
    {
      "anonymous": false,
      "inputs": [
        {
          "indexed": true,
          "internalType": "address",
          "name": "owner",
          "type": "address"
        },
        {
          "indexed": true,
          "internalType": "address",
          "name": "approved",
          "type": "address"
        },
        {
          "indexed": true,
          "internalType": "uint256",
          "name": "tokenId",
          "type": "uint256"
        }
      ],
      "name": "Approval",
      "type": "event"
    },
    {
      "anonymous": false,
      "inputs": [
        {
          "indexed": true,
          "internalType": "address",
          "name": "owner",
          "type": "address"
        },
        {
          "indexed": true,
          "internalType": "address",
          "name": "operator",
          "type": "address"
        },
        {
          "indexed": false,
          "internalType": "bool",
          "name": "approved",
          "type": "bool"
        }
      ],
      "name": "ApprovalForAll",
      "type": "event"
    },
    {
      "anonymous": false,
      "inputs": [
        {
          "indexed": false,
          "internalType": "uint256",
          "name": "_fromTokenId",
          "type": "uint256"
        },
        {
          "indexed": false,
          "internalType": "uint256",
          "name": "_toTokenId",
          "type": "uint256"
        }
      ],
      "name": "BatchMetadataUpdate",
      "type": "event"
    },
    {
      "anonymous": false,
      "inputs": [
        {
          "indexed": false,
          "internalType": "uint256",
          "name": "_tokenId",
          "type": "uint256"
        }
      ],
      "name": "MetadataUpdate",
      "type": "event"
    },
    {
      "anonymous": false,
      "inputs": [
        {
          "indexed": true,
          "internalType": "address",
          "name": "previousOwner",
          "type": "address"
        },
        {
          "indexed": true,
          "internalType": "address",
          "name": "newOwner",
          "type": "address"
        }
      ],
      "name": "OwnershipTransferred",
      "type": "event"
    },
    {
      "anonymous": false,
      "inputs": [
        {
          "indexed": true,
          "internalType": "address",
          "name": "from",
          "type": "address"
        },
        {
          "indexed": true,
          "internalType": "address",
          "name": "to",
          "type": "address"
        },
        {
          "indexed": true,
          "internalType": "uint256",
          "name": "tokenId",
          "type": "uint256"
        }
      ],
      "name": "Transfer",
      "type": "event"
    },
    {
      "inputs": [
        {
          "internalType": "string",
          "name": "_tokenURI",
          "type": "string"
        }
      ],
      "name": "AddToken",
      "outputs": [
        {
          "internalType": "uint256",
          "name": "",
          "type": "uint256"
        }
      ],
      "stateMutability": "nonpayable",
      "type": "function"
    },
    {
      "inputs": [
        {
          "internalType": "uint256",
          "name": "tokenID",
          "type": "uint256"
        },
        {
          "internalType": "string",
          "name": "voterName",
          "type": "string"
        }
      ],
      "name": "AddVote",
      "outputs": [],
      "stateMutability": "nonpayable",
      "type": "function"
    },
    {
      "inputs": [
        {
          "internalType": "uint256",
          "name": "tokenId",
          "type": "uint256"
        },
        {
          "internalType": "string",
          "name": "voterName",
          "type": "string"
        }
      ],
      "name": "DeleteVote",
      "outputs": [],
      "stateMutability": "nonpayable",
      "type": "function"
    },
    {
      "inputs": [],
      "name": "GetAllNFTs",
      "outputs": [
        {
          "components": [
            {
              "internalType": "uint256",
              "name": "id",
              "type": "uint256"
            },
            {
              "internalType": "uint256",
              "name": "collectionId",
              "type": "uint256"
            },
            {
              "internalType": "string",
              "name": "uri",
              "type": "string"
            },
            {
              "internalType": "string[]",
              "name": "voters",
              "type": "string[]"
            }
          ],
          "internalType": "struct Token[]",
          "name": "",
          "type": "tuple[]"
        }
      ],
      "stateMutability": "view",
      "type": "function"
    },
    {
      "inputs": [],
      "name": "GetAvailableNFTs",
      "outputs": [
        {
          "components": [
            {
              "internalType": "uint256",
              "name": "id",
              "type": "uint256"
            },
            {
              "internalType": "uint256",
              "name": "collectionId",
              "type": "uint256"
            },
            {
              "internalType": "string",
              "name": "uri",
              "type": "string"
            },
            {
              "internalType": "string[]",
              "name": "voters",
              "type": "string[]"
            }
          ],
          "internalType": "struct Token[]",
          "name": "",
          "type": "tuple[]"
        }
      ],
      "stateMutability": "view",
      "type": "function"
    },
    {
      "inputs": [],
      "name": "PRICE_PER_TOKEN",
      "outputs": [
        {
          "internalType": "uint256",
          "name": "",
          "type": "uint256"
        }
      ],
      "stateMutability": "view",
      "type": "function"
    },
    {
      "inputs": [
        {
          "internalType": "address",
          "name": "to",
          "type": "address"
        },
        {
          "internalType": "uint256",
          "name": "tokenId",
          "type": "uint256"
        }
      ],
      "name": "approve",
      "outputs": [],
      "stateMutability": "nonpayable",
      "type": "function"
    },
    {
      "inputs": [],
      "name": "artist",
      "outputs": [
        {
          "internalType": "address",
          "name": "",
          "type": "address"
        }
      ],
      "stateMutability": "view",
      "type": "function"
    },
    {
      "inputs": [
        {
          "internalType": "address",
          "name": "owner",
          "type": "address"
        }
      ],
      "name": "balanceOf",
      "outputs": [
        {
          "internalType": "uint256",
          "name": "",
          "type": "uint256"
        }
      ],
      "stateMutability": "view",
      "type": "function"
    },
    {
      "inputs": [
        {
          "internalType": "uint256",
          "name": "tokenId",
          "type": "uint256"
        }
      ],
      "name": "getApproved",
      "outputs": [
        {
          "internalType": "address",
          "name": "",
          "type": "address"
        }
      ],
      "stateMutability": "view",
      "type": "function"
    },
    {
      "inputs": [
        {
          "internalType": "address",
          "name": "owner",
          "type": "address"
        },
        {
          "internalType": "address",
          "name": "operator",
          "type": "address"
        }
      ],
      "name": "isApprovedForAll",
      "outputs": [
        {
          "internalType": "bool",
          "name": "",
          "type": "bool"
        }
      ],
      "stateMutability": "view",
      "type": "function"
    },
    {
      "inputs": [
        {
          "internalType": "uint256",
          "name": "tokenID",
          "type": "uint256"
        },
        {
          "internalType": "address",
          "name": "owner",
          "type": "address"
        }
      ],
      "name": "mintNFT",
      "outputs": [
        {
          "internalType": "uint256",
          "name": "",
          "type": "uint256"
        }
      ],
      "stateMutability": "payable",
      "type": "function"
    },
    {
      "inputs": [],
      "name": "name",
      "outputs": [
        {
          "internalType": "string",
          "name": "",
          "type": "string"
        }
      ],
      "stateMutability": "view",
      "type": "function"
    },
    {
      "inputs": [],
      "name": "owner",
      "outputs": [
        {
          "internalType": "address",
          "name": "",
          "type": "address"
        }
      ],
      "stateMutability": "view",
      "type": "function"
    },
    {
      "inputs": [
        {
          "internalType": "uint256",
          "name": "tokenId",
          "type": "uint256"
        }
      ],
      "name": "ownerOf",
      "outputs": [
        {
          "internalType": "address",
          "name": "",
          "type": "address"
        }
      ],
      "stateMutability": "view",
      "type": "function"
    },
    {
      "inputs": [],
      "name": "renounceOwnership",
      "outputs": [],
      "stateMutability": "nonpayable",
      "type": "function"
    },
    {
      "inputs": [
        {
          "internalType": "address",
          "name": "from",
          "type": "address"
        },
        {
          "internalType": "address",
          "name": "to",
          "type": "address"
        },
        {
          "internalType": "uint256",
          "name": "tokenId",
          "type": "uint256"
        }
      ],
      "name": "safeTransferFrom",
      "outputs": [],
      "stateMutability": "nonpayable",
      "type": "function"
    },
    {
      "inputs": [
        {
          "internalType": "address",
          "name": "from",
          "type": "address"
        },
        {
          "internalType": "address",
          "name": "to",
          "type": "address"
        },
        {
          "internalType": "uint256",
          "name": "tokenId",
          "type": "uint256"
        },
        {
          "internalType": "bytes",
          "name": "data",
          "type": "bytes"
        }
      ],
      "name": "safeTransferFrom",
      "outputs": [],
      "stateMutability": "nonpayable",
      "type": "function"
    },
    {
      "inputs": [
        {
          "internalType": "address",
          "name": "operator",
          "type": "address"
        },
        {
          "internalType": "bool",
          "name": "approved",
          "type": "bool"
        }
      ],
      "name": "setApprovalForAll",
      "outputs": [],
      "stateMutability": "nonpayable",
      "type": "function"
    },
    {
      "inputs": [
        {
          "internalType": "bytes4",
          "name": "interfaceId",
          "type": "bytes4"
        }
      ],
      "name": "supportsInterface",
      "outputs": [
        {
          "internalType": "bool",
          "name": "",
          "type": "bool"
        }
      ],
      "stateMutability": "view",
      "type": "function"
    },
    {
      "inputs": [],
      "name": "symbol",
      "outputs": [
        {
          "internalType": "string",
          "name": "",
          "type": "string"
        }
      ],
      "stateMutability": "view",
      "type": "function"
    },
    {
      "inputs": [
        {
          "internalType": "uint256",
          "name": "tokenId",
          "type": "uint256"
        }
      ],
      "name": "tokenURI",
      "outputs": [
        {
          "internalType": "string",
          "name": "",
          "type": "string"
        }
      ],
      "stateMutability": "view",
      "type": "function"
    },
    {
      "inputs": [
        {
          "internalType": "address",
          "name": "from",
          "type": "address"
        },
        {
          "internalType": "address",
          "name": "to",
          "type": "address"
        },
        {
          "internalType": "uint256",
          "name": "tokenId",
          "type": "uint256"
        }
      ],
      "name": "transferFrom",
      "outputs": [],
      "stateMutability": "nonpayable",
      "type": "function"
    },
    {
      "inputs": [
        {
          "internalType": "address",
          "name": "newOwner",
          "type": "address"
        }
      ],
      "name": "transferOwnership",
      "outputs": [],
      "stateMutability": "nonpayable",
      "type": "function"
    }
  ],
  "bytecode": "0x608034620003e157601f906001600160401b0390601f199062001d9e3881900385810184168301919085831184841017620003cb578084926040948552833981010312620003e15780516020918201516001600160a01b03958682169592939291869003620003e15762000072620003e6565b92600a84526921b7b63632b1ba34b7b760b11b8185015262000093620003e6565b90600382526213919560ea1b81830152845196848811620003cb576000978854966001978881811c91168015620003c0575b85821014620003ac5790818784931162000359575b508490878311600114620002f8578b92620002ec575b5050600019600383901b1c191690871b1788555b8251948511620002d85785548681811c91168015620002cd575b83821014620002b95790818587969594931162000260575b5081938511600114620001fb5750508692620001ef575b5050600019600383901b1c191690821b1790555b3315620001d657600780546001600160a01b0319808216339081179093556040519690949291167f8be0079c531659141344cd1fd0a4f28419497f9722a3daafe3b4186f6b6457e08380a380600a55600b55662386f26fc10000600c5560095560085416176008556119979081620004078239f35b604051631e4fbdf760e01b815260048101839052602490fd5b0151905038806200014d565b869593929193168589528389209389905b8282106200024657505084116200022c575b505050811b01905562000161565b015160001960f88460031b161c191690553880806200021e565b84840151865588979095019493840193908101906200020c565b9091929394508689528289208580880160051c820192858910620002af575b9188978a9297969594930160051c01915b828110620002a057505062000136565b8b815588975089910162000290565b925081926200027f565b634e487b7160e01b89526022600452602489fd5b90607f16906200011e565b634e487b7160e01b88526041600452602488fd5b015190503880620000f0565b90848a9416918c8052868d20928d5b8882821062000342575050841162000328575b505050811b01885562000104565b015160001960f88460031b161c191690553880806200031a565b8385015186558d9790950194938401930162000307565b9091508a8052848b208780850160051c820192878610620003a2575b918b91869594930160051c01915b82811062000393575050620000da565b8d81558594508b910162000383565b9250819262000375565b634e487b7160e01b8b52602260045260248bfd5b90607f1690620000c5565b634e487b7160e01b600052604160045260246000fd5b600080fd5b60408051919082016001600160401b03811183821017620003cb5760405256fe6080604081815260048036101561001557600080fd5b600092833560e01c90816301ffc9a714610e725750806306fdde0314610deb578063081812fc14610db0578063095ea7b314610cd457806323b872dd14610cbc57806331abab7c146109fb57806342842e0e146109d257806343bc1612146109a95780635fec6e67146107205780636352211e14610978578063669f5a51146107d757806370a0823114610782578063715018a6146107255780637c26b48e14610720578063833b9499146107015780638da5cb5b146106d857806395d89b4114610616578063a22cb46514610579578063b88d4fde14610512578063c87b56dd146104ab578063d039aa96146103ff578063e985e9c5146103b1578063ee36675b146101b75763f2fde38b1461012b57600080fd5b346101b35760203660031901126101b357610144610f38565b9061014d611214565b6001600160a01b0391821692831561019d575050600780546001600160a01b031981168417909155167f8be0079c531659141344cd1fd0a4f28419497f9722a3daafe3b4186f6b6457e08380a380f35b51631e4fbdf760e01b8152908101849052602490fd5b8280fd5b50346101b357602092836003193601126103ae5781356001600160401b0381116103aa576101e8903690840161105d565b600a54600954908551906101fb82610fcf565b84825286519061020a82610f9e565b815287810192835286810193845260608101918252600d5493600160401b938486101561039757610242600196878101600d5561164f565b9390936103855751835551858301555160039190610263906002830161169b565b019051805192831161037257879082548484558085106102f8575b50019084528684208785925b8484106102db5750878787600d549160001983019283116102c85750506102b09061164f565b5050600a54906102bf8261179f565b600a5551908152f35b634e487b7160e01b825260119052602490fd5b8591816102ea8493518661169b565b01920192019190889061028a565b838752858584892092830192015b82811061031457505061027e565b9091929350876103248254611240565b80610337575b50500190858a9392610306565b8c601f8083116001146103515750505081555b873861032a565b610369918585528420920160051c8201858301611684565b8183555561034a565b634e487b7160e01b855260418652602485fd5b634e487b7160e01b8852878952602488fd5b634e487b7160e01b875260418852602487fd5b5080fd5b80fd5b5050346103aa57806003193601126103aa5760ff816020936103d1610f38565b6103d9610f53565b6001600160a01b0391821683526005875283832091168252855220549151911615158152f35b5082346103ae5761040f3661107b565b9091805b600d548110156104a757836104278261164f565b50541461043d575b6104389061179f565b610413565b60036104488261164f565b5001805490600160401b8210156104945790610469916001820181556117c4565b610482579061047b846104389361169b565b905061042f565b634e487b7160e01b8352828652602483fd5b634e487b7160e01b845260418752602484fd5b5080f35b50346101b35760203660031901126101b3579061050e926104e992356104d0816115fd565b50815260066020526104f082822083519485809261127a565b0384610fea565b81516104fb81610fcf565b5251918291602083526020830190610ef8565b0390f35b8382346103aa5760803660031901126103aa5761052d610f38565b610535610f53565b906064356001600160401b0381116105755736602382011215610575576105729381602461056893369301359101611026565b91604435916114af565b80f35b8480fd5b5090346101b357806003193601126101b357610593610f38565b9060243591821515809303610575576001600160a01b03169283156106015750338452600560205280842083855260205280842060ff1981541660ff8416179055519081527f17307eab39ab6107e8899845ad3d59bd9653f200f220920489ca2b5937696c3160203392a380f35b836024925191630b61174360e31b8352820152fd5b5050346103aa57816003193601126103aa5780519082600180549061063a82611240565b808652918181169081156106b05750600114610675575b5050506106638261050e940383610fea565b51918291602083526020830190610ef8565b80955082526020948583205b82841061069d575050508261050e946106639282010194610651565b8054868501880152928601928101610681565b61050e97506106639450602092508693915060ff191682840152151560051b82010194610651565b5050346103aa57816003193601126103aa5760075490516001600160a01b039091168152602090f35b5050346103aa57816003193601126103aa57602090600c549051908152f35b6110aa565b83346103ae57806003193601126103ae5761073e611214565b600780546001600160a01b0319811690915581906001600160a01b03167f8be0079c531659141344cd1fd0a4f28419497f9722a3daafe3b4186f6b6457e08280a380f35b5091346103ae5760203660031901126103ae576001600160a01b036107a5610f38565b169283156107c25750806020938392526003845220549051908152f35b91516322718ad960e21b815291820152602490fd5b50816003193601126101b3576107eb610f53565b92600c54341061093b576107ff82356118b7565b80516001600160a01b03959193918616908115610924578084526020966002885286852054169182151592836108f1575b81865260038952878620805460010190558286526002895287862080546001600160a01b031916831790557fddf252ad1be2c89b69c2b068fc378daa952ba7f163c4a11628f55a4df523b3ef8680a46108dc5750837ff8e1a15aba9398e019f0b49df1a4fde98ee17ae345cb5f6b5e2c27f5033e8ce7916108c0845191868087015191848152600686522061169b565b8451908152a16108d1600b5461179f565b600b55519051908152f35b6024918451916339e3563760e11b8352820152fd5b600083815260046020526040902080546001600160a01b0319169055808652600389528786208054600019019055610830565b8551633250574960e11b8152808401859052602490fd5b506020606492519162461bcd60e51b83528201526017602482015276115d1a195c881c185a59081a5cc81a5b98dbdc9c9958dd604a1b6044820152fd5b5091346103ae5760203660031901126103ae5750610998602092356115fd565b90516001600160a01b039091168152f35b5050346103aa57816003193601126103aa5760085490516001600160a01b039091168152602090f35b5050346103aa57610572906109e636610f69565b919251926109f384610fcf565b8584526114af565b509190346103aa57610a0c3661107b565b9390928092815b600d54811015610cb85785610a278261164f565b505414610a3d575b610a389061179f565b610a13565b9394825b610a4a8661164f565b50600380910154821015610caf57610a6d8282610a668a61164f565b50016117c4565b509084518a60209382610a89868201928784528a83019061127a565b0392610a9d601f1994858101835282610fea565b51902091610ac788519182610abb888201958987528c830190610ef8565b03908101835282610fea565b5190201480610ca7575b610ae6575b5050610ae19061179f565b610a41565b92989093919495969750610b0483610afd8a61164f565b50016117dc565b988951861015610ca357865b8a51811015610baa5786811015610b4e5780610b2f610b49928d61185b565b51610b3982611848565b52610b4381611848565b5061179f565b610b10565b868111610b5f575b610b499061179f565b610b69818c61185b565b51600019820190828211610b975781610b8f91610b89610b499594611848565b52611848565b509050610b56565b634e487b7160e01b8a5260118b5260248afd5b50929098509695949396929092610bc08761164f565b50606051910191600160401b8211610c90578254828455808310610c21575b5091855281852091859060805b838310610c05575050505050610ae16001969038610ad6565b60018282610c158394518961169b565b01950192019193610bec565b8387528282882091820191015b818110610c3b5750610bdf565b8088610c4960019354611240565b80610c57575b505001610c2e565b601f8082118514610c6e57505081555b8838610c4f565b610c8790848452878420920160051c8201858301611684565b81835555610c67565b634e487b7160e01b865260418752602486fd5b8680fd5b508815610ad1565b50509493610a2f565b8280f35b83346103ae57610572610cce36610f69565b91611310565b5090346101b357806003193601126101b357610cee610f38565b91602435610cfb816115fd565b33151580610d9d575b80610d74575b610d5e576001600160a01b039485169482918691167f8c5be1e5ebec7d5bd14f71427d1e84f3dd0314c0f7b2291e5b200ac8c7c3b9258880a48452602052822080546001600160a01b031916909117905580f35b835163a9fbf51f60e01b81523381850152602490fd5b506001600160a01b03811686526005602090815284872033885290528386205460ff1615610d0a565b506001600160a01b038116331415610d04565b50346101b35760203660031901126101b357918260209335610dd1816115fd565b50825283528190205490516001600160a01b039091168152f35b5050346103aa57816003193601126103aa57805190828054610e0c81611240565b808552906001908181169081156106b05750600114610e37575050506106638261050e940383610fea565b94508180526020948583205b828410610e5f575050508261050e946106639282010194610651565b8054868501880152928601928101610e43565b925050346101b35760203660031901126101b3573563ffffffff60e01b81168091036101b35760209250632483248360e11b8114908115610eb5575b5015158152f35b6380ac58cd60e01b811491508115610ee7575b8115610ed6575b5038610eae565b6301ffc9a760e01b14905038610ecf565b635b5e139f60e01b81149150610ec8565b919082519283825260005b848110610f24575050826000602080949584010152601f8019910116010190565b602081830181015184830182015201610f03565b600435906001600160a01b0382168203610f4e57565b600080fd5b602435906001600160a01b0382168203610f4e57565b6060906003190112610f4e576001600160a01b03906004358281168103610f4e57916024359081168103610f4e579060443590565b608081019081106001600160401b03821117610fb957604052565b634e487b7160e01b600052604160045260246000fd5b602081019081106001600160401b03821117610fb957604052565b90601f801991011681019081106001600160401b03821117610fb957604052565b6001600160401b038111610fb957601f01601f191660200190565b9291926110328261100b565b916110406040519384610fea565b829481845281830111610f4e578281602093846000960137010152565b9080601f83011215610f4e5781602061107893359101611026565b90565b906040600319830112610f4e5760043591602435906001600160401b038211610f4e576110789160040161105d565b34610f4e576000806003193601126103ae57600d54906110c982611638565b916040926110d984519182610fea565b818152600d8352602080820192847fd7b6990105719101dabeb77144f2a3385c8033acd3af97e9423a695e81ad1eb5855b8383106111ed575050505084519381850192828652518093528585016005968085891b8801019597835b8685106111415788880389f35b9091929394809697603f198a82030186528a51908151815282820151838201526111778683015160808089850152830190610ef8565b9060608093015192818303910152815180825283820190848082891b850101940192865b8281106111bf57505050505090806001929b01950195019398969594929190611134565b919395806111db6001939597601f198782030189528951610ef8565b970195019101918b959493919261119b565b600485600192611201859c98999a9c61186f565b815201920192019190979594939761110a565b6007546001600160a01b0316330361122857565b60405163118cdaa760e01b8152336004820152602490fd5b90600182811c92168015611270575b602083101461125a57565b634e487b7160e01b600052602260045260246000fd5b91607f169161124f565b906000929180549161128b83611240565b9182825260019384811690816000146112ed57506001146112ad575b50505050565b90919394506000526020928360002092846000945b8386106112d95750505050010190388080806112a7565b8054858701830152940193859082016112c2565b9294505050602093945060ff191683830152151560051b010190388080806112a7565b6001600160a01b03918216929091831561149657600092828452826020956002875260409684888820541696879133151580611400575b509060027fddf252ad1be2c89b69c2b068fc378daa952ba7f163c4a11628f55a4df523b3ef92846113cd575b858352600381528b8320805460010190558683525289812080546001600160a01b0319168517905580a416928383036113ac5750505050565b6064945051926364283d7b60e01b8452600484015260248301526044820152fd5b600087815260046020526040902080546001600160a01b0319169055848352600381528b83208054600019019055611373565b91939450915080611455575b1561141c57859291879138611347565b878688611439576024915190637e27328960e01b82526004820152fd5b604491519063177e802f60e01b82523360048301526024820152fd5b50338714801561147a575b8061140c575085825260048152338589842054161461140c565b5086825260058152878220338352815260ff8883205416611460565b604051633250574960e11b815260006004820152602490fd5b6114ba838383611310565b813b6114c65750505050565b604051630a85bd0160e11b8082523360048301526001600160a01b03928316602483015260448201949094526080606482015260209592909116939092908390611514906084830190610ef8565b039285816000958187895af18491816115bd575b50611588575050503d600014611580573d6115428161100b565b906115506040519283610fea565b81528091843d92013e5b8051928361157b57604051633250574960e11b815260048101849052602490fd5b019050fd5b50606061155a565b919450915063ffffffff60e01b16036115a55750388080806112a7565b60249060405190633250574960e11b82526004820152fd5b9091508681813d83116115f6575b6115d58183610fea565b8101031261057557516001600160e01b031981168103610575579038611528565b503d6115cb565b6000818152600260205260409020546001600160a01b0316908115611620575090565b60249060405190637e27328960e01b82526004820152fd5b6001600160401b038111610fb95760051b60200190565b600d5481101561166e57600d60005260206000209060021b0190600090565b634e487b7160e01b600052603260045260246000fd5b81811061168f575050565b60008155600101611684565b91909182516001600160401b038111610fb9576116b88254611240565b601f8111611762575b50602080601f83116001146116fe5750819293946000926116f3575b50508160011b916000199060031b1c1916179055565b0151905038806116dd565b90601f198316958460005282600020926000905b88821061174a57505083600195969710611731575b505050811b019055565b015160001960f88460031b161c19169055388080611727565b80600185968294968601518155019501930190611712565b61178f90836000526020600020601f840160051c81019160208510611795575b601f0160051c0190611684565b386116c1565b9091508190611782565b60001981146117ae5760010190565b634e487b7160e01b600052601160045260246000fd5b805482101561166e5760005260206000200190600090565b9081546117e881611638565b926040936117f885519182610fea565b828152809460208092019260005281600020906000935b85851061181e57505050505050565b6001848192845161183a81611833818a61127a565b0382610fea565b81520193019401939161180f565b60605181101561166e5760051b60800190565b805182101561166e5760209160051b010190565b9060405161187c81610f9e565b60606118b26003839580548552600181015460208601526040516118a781611833816002860161127a565b6040860152016117dc565b910152565b6040908151906118c682610f9e565b606080600093848152846020820152818682015201528190600d54915b82811061192a575050508151906118f982610fcf565b80825282519261190884610f9e565b81845281602085015280519161191d83610fcf565b8252830152606082015290565b816119348261164f565b505414611949576119449061179f565b6118e3565b915050611078925061195b915061164f565b5061186f56fea2646970667358221220f41772b4fdf3a2e170cd46c5faf518acb2a7771dd4635a1772e4a2613b2dfa8164736f6c63430008140033",
  "linkReferences": {},
  "deployedLinkReferences": {}
}