{
  "_format": "hh-sol-artifact-1",
  "contractName": "Gallery",
  "sourceName": "contracts/Collection.sol",
  "abi": [
    {
      "inputs": [],
      "stateMutability": "nonpayable",
      "type": "constructor"
    },
    {
      "inputs": [
        {
          "internalType": "address",
          "name": "owner",
          "type": "address"
        }
      ],
      "name": "OwnableInvalidOwner",
      "type": "error"
    },
    {
      "inputs": [
        {
          "internalType": "address",
          "name": "account",
          "type": "address"
        }
      ],
      "name": "OwnableUnauthorizedAccount",
      "type": "error"
    },
    {
      "anonymous": false,
      "inputs": [
        {
          "indexed": true,
          "internalType": "address",
          "name": "previousOwner",
          "type": "address"
        },
        {
          "indexed": true,
          "internalType": "address",
          "name": "newOwner",
          "type": "address"
        }
      ],
      "name": "OwnershipTransferred",
      "type": "event"
    },
    {
      "inputs": [
        {
          "internalType": "string",
          "name": "_collectionURIs",
          "type": "string"
        }
      ],
      "name": "AddNFTs",
      "outputs": [
        {
          "internalType": "uint256",
          "name": "",
          "type": "uint256"
        }
      ],
      "stateMutability": "nonpayable",
      "type": "function"
    },
    {
      "inputs": [],
      "name": "GetAvailableNFTs",
      "outputs": [
        {
          "components": [
            {
              "internalType": "uint256",
              "name": "id",
              "type": "uint256"
            },
            {
              "internalType": "string",
              "name": "uri",
              "type": "string"
            }
          ],
          "internalType": "struct Token[]",
          "name": "",
          "type": "tuple[]"
        }
      ],
      "stateMutability": "view",
      "type": "function"
    },
    {
      "inputs": [
        {
          "internalType": "uint256",
          "name": "",
          "type": "uint256"
        }
      ],
      "name": "collections",
      "outputs": [
        {
          "internalType": "contract Collection",
          "name": "",
          "type": "address"
        }
      ],
      "stateMutability": "view",
      "type": "function"
    },
    {
      "inputs": [
        {
          "internalType": "uint256",
          "name": "collectionID",
          "type": "uint256"
        },
        {
          "internalType": "uint256",
          "name": "tokenID",
          "type": "uint256"
        }
      ],
      "name": "mintNFT",
      "outputs": [],
      "stateMutability": "payable",
      "type": "function"
    },
    {
      "inputs": [],
      "name": "owner",
      "outputs": [
        {
          "internalType": "address",
          "name": "",
          "type": "address"
        }
      ],
      "stateMutability": "view",
      "type": "function"
    },
    {
      "inputs": [],
      "name": "renounceOwnership",
      "outputs": [],
      "stateMutability": "nonpayable",
      "type": "function"
    },
    {
      "inputs": [
        {
          "internalType": "address",
          "name": "newOwner",
          "type": "address"
        }
      ],
      "name": "transferOwnership",
      "outputs": [],
      "stateMutability": "nonpayable",
      "type": "function"
    }
  ],
  "bytecode": "0x608060405260006002553480156200001657600080fd5b5033600073ffffffffffffffffffffffffffffffffffffffff168173ffffffffffffffffffffffffffffffffffffffff16036200008d5760006040517f1e4fbdf7000000000000000000000000000000000000000000000000000000008152600401620000849190620001ae565b60405180910390fd5b6200009e81620000a560201b60201c565b50620001cb565b60008060009054906101000a900473ffffffffffffffffffffffffffffffffffffffff169050816000806101000a81548173ffffffffffffffffffffffffffffffffffffffff021916908373ffffffffffffffffffffffffffffffffffffffff1602179055508173ffffffffffffffffffffffffffffffffffffffff168173ffffffffffffffffffffffffffffffffffffffff167f8be0079c531659141344cd1fd0a4f28419497f9722a3daafe3b4186f6b6457e060405160405180910390a35050565b600073ffffffffffffffffffffffffffffffffffffffff82169050919050565b6000620001968262000169565b9050919050565b620001a88162000189565b82525050565b6000602082019050620001c560008301846200019d565b92915050565b614bc780620001db6000396000f3fe6080604052600436106200007a5760003560e01c8063c48283ff1162000055578063c48283ff14620000f9578063d6fad3ae1462000119578063f2fde38b146200015d578063fdbda0ec146200018b576200007a565b80635fec6e67146200007f578063715018a614620000af5780638da5cb5b14620000c9575b600080fd5b3480156200008c57600080fd5b5062000097620001cf565b604051620000a6919062000b5b565b60405180910390f35b348015620000bc57600080fd5b50620000c762000483565b005b348015620000d657600080fd5b50620000e16200049b565b604051620000f0919062000bc4565b60405180910390f35b62000117600480360381019062000111919062000c26565b620004c4565b005b3480156200012657600080fd5b506200014560048036038101906200013f919062000dbe565b6200058e565b60405162000154919062000e20565b60405180910390f35b3480156200016a57600080fd5b5062000189600480360381019062000183919062000e6e565b62000744565b005b3480156200019857600080fd5b50620001b76004803603810190620001b1919062000ea0565b620007d1565b604051620001c6919062000f3d565b60405180910390f35b60606000805b600180549050811015620002c15760018181548110620001fa57620001f962000f5a565b5b9060005260206000200160009054906101000a900473ffffffffffffffffffffffffffffffffffffffff1673ffffffffffffffffffffffffffffffffffffffff16635fec6e676040518163ffffffff1660e01b8152600401600060405180830381865afa15801562000270573d6000803e3d6000fd5b505050506040513d6000823e3d601f19601f820116820180604052508101906200029b91906200119c565b5182620002a991906200121c565b91508080620002b89062001257565b915050620001d5565b5060008167ffffffffffffffff811115620002e157620002e062000c77565b5b6040519080825280602002602001820160405280156200031e57816020015b6200030a6200096d565b815260200190600190039081620003005790505b5090506000805b60018054905081101562000479576000600182815481106200034c576200034b62000f5a565b5b9060005260206000200160009054906101000a900473ffffffffffffffffffffffffffffffffffffffff1673ffffffffffffffffffffffffffffffffffffffff16635fec6e676040518163ffffffff1660e01b8152600401600060405180830381865afa158015620003c2573d6000803e3d6000fd5b505050506040513d6000823e3d601f19601f82011682018060405250810190620003ed91906200119c565b905060005b8151811015620004615781818151811062000412576200041162000f5a565b5b602002602001015185858151811062000430576200042f62000f5a565b5b60200260200101819052508380620004489062001257565b9450508080620004589062001257565b915050620003f2565b50508080620004709062001257565b91505062000325565b5081935050505090565b6200048d62000811565b620004996000620008a1565b565b60008060009054906101000a900473ffffffffffffffffffffffffffffffffffffffff16905090565b60018281548110620004db57620004da62000f5a565b5b9060005260206000200160009054906101000a900473ffffffffffffffffffffffffffffffffffffffff1673ffffffffffffffffffffffffffffffffffffffff1663669f5a513483336040518463ffffffff1660e01b815260040162000543929190620012a4565b60206040518083038185885af115801562000562573d6000803e3d6000fd5b50505050506040513d601f19601f82011682018060405250810190620005899190620012d1565b505050565b6000806040516200059f9062000987565b604051809103906000f080158015620005bc573d6000803e3d6000fd5b5090506001819080600181540180825580915050600190039060005260206000200160009091909190916101000a81548173ffffffffffffffffffffffffffffffffffffffff021916908373ffffffffffffffffffffffffffffffffffffffff1602179055508073ffffffffffffffffffffffffffffffffffffffff1663ee36675b846040518263ffffffff1660e01b81526004016200065d919062001355565b6020604051808303816000875af11580156200067d573d6000803e3d6000fd5b505050506040513d601f19601f82011682018060405250810190620006a39190620012d1565b508073ffffffffffffffffffffffffffffffffffffffff1663f2fde38b620006ca6200049b565b6040518263ffffffff1660e01b8152600401620006e8919062000bc4565b600060405180830381600087803b1580156200070357600080fd5b505af115801562000718573d6000803e3d6000fd5b5050505060026000815480929190620007319062001257565b9190505550600180549050915050919050565b6200074e62000811565b600073ffffffffffffffffffffffffffffffffffffffff168173ffffffffffffffffffffffffffffffffffffffff1603620007c35760006040517f1e4fbdf7000000000000000000000000000000000000000000000000000000008152600401620007ba919062000bc4565b60405180910390fd5b620007ce81620008a1565b50565b60018181548110620007e257600080fd5b906000526020600020016000915054906101000a900473ffffffffffffffffffffffffffffffffffffffff1681565b6200081b62000965565b73ffffffffffffffffffffffffffffffffffffffff166200083b6200049b565b73ffffffffffffffffffffffffffffffffffffffff16146200089f576200086162000965565b6040517f118cdaa700000000000000000000000000000000000000000000000000000000815260040162000896919062000bc4565b60405180910390fd5b565b60008060009054906101000a900473ffffffffffffffffffffffffffffffffffffffff169050816000806101000a81548173ffffffffffffffffffffffffffffffffffffffff021916908373ffffffffffffffffffffffffffffffffffffffff1602179055508173ffffffffffffffffffffffffffffffffffffffff168173ffffffffffffffffffffffffffffffffffffffff167f8be0079c531659141344cd1fd0a4f28419497f9722a3daafe3b4186f6b6457e060405160405180910390a35050565b600033905090565b604051806040016040528060008152602001606081525090565b613818806200137a83390190565b600081519050919050565b600082825260208201905092915050565b6000819050602082019050919050565b6000819050919050565b620009d681620009c1565b82525050565b600081519050919050565b600082825260208201905092915050565b60005b8381101562000a18578082015181840152602081019050620009fb565b60008484015250505050565b6000601f19601f8301169050919050565b600062000a4282620009dc565b62000a4e8185620009e7565b935062000a60818560208601620009f8565b62000a6b8162000a24565b840191505092915050565b600060408301600083015162000a906000860182620009cb565b506020830151848203602086015262000aaa828262000a35565b9150508091505092915050565b600062000ac5838362000a76565b905092915050565b6000602082019050919050565b600062000ae78262000995565b62000af38185620009a0565b93508360208202850162000b0785620009b1565b8060005b8581101562000b49578484038952815162000b27858262000ab7565b945062000b348362000acd565b925060208a0199505060018101905062000b0b565b50829750879550505050505092915050565b6000602082019050818103600083015262000b77818462000ada565b905092915050565b600073ffffffffffffffffffffffffffffffffffffffff82169050919050565b600062000bac8262000b7f565b9050919050565b62000bbe8162000b9f565b82525050565b600060208201905062000bdb600083018462000bb3565b92915050565b6000604051905090565b600080fd5b600080fd5b62000c0081620009c1565b811462000c0c57600080fd5b50565b60008135905062000c208162000bf5565b92915050565b6000806040838503121562000c405762000c3f62000beb565b5b600062000c508582860162000c0f565b925050602062000c638582860162000c0f565b9150509250929050565b600080fd5b600080fd5b7f4e487b7100000000000000000000000000000000000000000000000000000000600052604160045260246000fd5b62000cb18262000a24565b810181811067ffffffffffffffff8211171562000cd35762000cd262000c77565b5b80604052505050565b600062000ce862000be1565b905062000cf6828262000ca6565b919050565b600067ffffffffffffffff82111562000d195762000d1862000c77565b5b62000d248262000a24565b9050602081019050919050565b82818337600083830152505050565b600062000d5762000d518462000cfb565b62000cdc565b90508281526020810184848401111562000d765762000d7562000c72565b5b62000d8384828562000d31565b509392505050565b600082601f83011262000da35762000da262000c6d565b5b813562000db584826020860162000d40565b91505092915050565b60006020828403121562000dd75762000dd662000beb565b5b600082013567ffffffffffffffff81111562000df85762000df762000bf0565b5b62000e068482850162000d8b565b91505092915050565b62000e1a81620009c1565b82525050565b600060208201905062000e37600083018462000e0f565b92915050565b62000e488162000b9f565b811462000e5457600080fd5b50565b60008135905062000e688162000e3d565b92915050565b60006020828403121562000e875762000e8662000beb565b5b600062000e978482850162000e57565b91505092915050565b60006020828403121562000eb95762000eb862000beb565b5b600062000ec98482850162000c0f565b91505092915050565b6000819050919050565b600062000efd62000ef762000ef18462000b7f565b62000ed2565b62000b7f565b9050919050565b600062000f118262000edc565b9050919050565b600062000f258262000f04565b9050919050565b62000f378162000f18565b82525050565b600060208201905062000f54600083018462000f2c565b92915050565b7f4e487b7100000000000000000000000000000000000000000000000000000000600052603260045260246000fd5b600067ffffffffffffffff82111562000fa75762000fa662000c77565b5b602082029050602081019050919050565b600080fd5b600080fd5b600080fd5b60008151905062000fd88162000bf5565b92915050565b600062000ff562000fef8462000cfb565b62000cdc565b90508281526020810184848401111562001014576200101362000c72565b5b62001021848285620009f8565b509392505050565b600082601f83011262001041576200104062000c6d565b5b81516200105384826020860162000fde565b91505092915050565b60006040828403121562001075576200107462000fbd565b5b62001081604062000cdc565b90506000620010938482850162000fc7565b600083015250602082015167ffffffffffffffff811115620010ba57620010b962000fc2565b5b620010c88482850162001029565b60208301525092915050565b6000620010eb620010e58462000f89565b62000cdc565b9050808382526020820190506020840283018581111562001111576200111062000fb8565b5b835b818110156200115f57805167ffffffffffffffff8111156200113a576200113962000c6d565b5b8086016200114989826200105c565b8552602085019450505060208101905062001113565b5050509392505050565b600082601f83011262001181576200118062000c6d565b5b815162001193848260208601620010d4565b91505092915050565b600060208284031215620011b557620011b462000beb565b5b600082015167ffffffffffffffff811115620011d657620011d562000bf0565b5b620011e48482850162001169565b91505092915050565b7f4e487b7100000000000000000000000000000000000000000000000000000000600052601160045260246000fd5b60006200122982620009c1565b91506200123683620009c1565b9250828201905080821115620012515762001250620011ed565b5b92915050565b60006200126482620009c1565b91507fffffffffffffffffffffffffffffffffffffffffffffffffffffffffffffffff8203620012995762001298620011ed565b5b600182019050919050565b6000604082019050620012bb600083018562000e0f565b620012ca602083018462000bb3565b9392505050565b600060208284031215620012ea57620012e962000beb565b5b6000620012fa8482850162000fc7565b91505092915050565b600082825260208201905092915050565b60006200132182620009dc565b6200132d818562001303565b93506200133f818560208601620009f8565b6200134a8162000a24565b840191505092915050565b6000602082019050818103600083015262001371818462001314565b90509291505056fe608060405260006008556000600955662386f26fc10000600a556005600b556005600c553480156200003057600080fd5b50336040518060400160405280600a81526020017f436f6c6c656374696f6e000000000000000000000000000000000000000000008152506040518060400160405280600381526020017f4e465400000000000000000000000000000000000000000000000000000000008152508160009081620000af919062000491565b508060019081620000c1919062000491565b505050600073ffffffffffffffffffffffffffffffffffffffff168173ffffffffffffffffffffffffffffffffffffffff1603620001395760006040517f1e4fbdf7000000000000000000000000000000000000000000000000000000008152600401620001309190620005bd565b60405180910390fd5b6200014a816200015160201b60201c565b50620005da565b6000600760009054906101000a900473ffffffffffffffffffffffffffffffffffffffff16905081600760006101000a81548173ffffffffffffffffffffffffffffffffffffffff021916908373ffffffffffffffffffffffffffffffffffffffff1602179055508173ffffffffffffffffffffffffffffffffffffffff168173ffffffffffffffffffffffffffffffffffffffff167f8be0079c531659141344cd1fd0a4f28419497f9722a3daafe3b4186f6b6457e060405160405180910390a35050565b600081519050919050565b7f4e487b7100000000000000000000000000000000000000000000000000000000600052604160045260246000fd5b7f4e487b7100000000000000000000000000000000000000000000000000000000600052602260045260246000fd5b600060028204905060018216806200029957607f821691505b602082108103620002af57620002ae62000251565b5b50919050565b60008190508160005260206000209050919050565b60006020601f8301049050919050565b600082821b905092915050565b600060088302620003197fffffffffffffffffffffffffffffffffffffffffffffffffffffffffffffffff82620002da565b620003258683620002da565b95508019841693508086168417925050509392505050565b6000819050919050565b6000819050919050565b6000620003726200036c62000366846200033d565b62000347565b6200033d565b9050919050565b6000819050919050565b6200038e8362000351565b620003a66200039d8262000379565b848454620002e7565b825550505050565b600090565b620003bd620003ae565b620003ca81848462000383565b505050565b5b81811015620003f257620003e6600082620003b3565b600181019050620003d0565b5050565b601f82111562000441576200040b81620002b5565b6200041684620002ca565b8101602085101562000426578190505b6200043e6200043585620002ca565b830182620003cf565b50505b505050565b600082821c905092915050565b6000620004666000198460080262000446565b1980831691505092915050565b600062000481838362000453565b9150826002028217905092915050565b6200049c8262000217565b67ffffffffffffffff811115620004b857620004b762000222565b5b620004c4825462000280565b620004d1828285620003f6565b600060209050601f831160018114620005095760008415620004f4578287015190505b62000500858262000473565b86555062000570565b601f1984166200051986620002b5565b60005b8281101562000543578489015182556001820191506020850194506020810190506200051c565b868310156200056357848901516200055f601f89168262000453565b8355505b6001600288020188555050505b505050505050565b600073ffffffffffffffffffffffffffffffffffffffff82169050919050565b6000620005a58262000578565b9050919050565b620005b78162000598565b82525050565b6000602082019050620005d46000830184620005ac565b92915050565b61322e80620005ea6000396000f3fe6080604052600436106101815760003560e01c806370a08231116100d1578063a22cb4651161008a578063c87b56dd11610064578063c87b56dd1461054d578063e985e9c51461058a578063ee36675b146105c7578063f2fde38b1461060457610181565b8063a22cb465146104e4578063ac4460021461050d578063b88d4fde1461052457610181565b806370a08231146103e6578063715018a614610423578063833b94991461043a5780638da5cb5b1461046557806391b7f5ed1461049057806395d89b41146104b957610181565b806332cb6b0c1161013e5780635fec6e67116101185780635fec6e67146103255780636352211e14610350578063669f5a511461038d5780636f8b44b0146103bd57610181565b806332cb6b0c146102a6578063417bac1a146102d157806342842e0e146102fc57610181565b806301ffc9a71461018657806306fdde03146101c3578063081812fc146101ee578063095ea7b31461022b57806323b872dd1461025457806327ea6f2b1461027d575b600080fd5b34801561019257600080fd5b506101ad60048036038101906101a89190612312565b61062d565b6040516101ba919061235a565b60405180910390f35b3480156101cf57600080fd5b506101d861068e565b6040516101e59190612405565b60405180910390f35b3480156101fa57600080fd5b506102156004803603810190610210919061245d565b610720565b60405161022291906124cb565b60405180910390f35b34801561023757600080fd5b50610252600480360381019061024d9190612512565b61073c565b005b34801561026057600080fd5b5061027b60048036038101906102769190612552565b610752565b005b34801561028957600080fd5b506102a4600480360381019061029f919061245d565b610854565b005b3480156102b257600080fd5b506102bb610866565b6040516102c891906125b4565b60405180910390f35b3480156102dd57600080fd5b506102e661086c565b6040516102f391906125b4565b60405180910390f35b34801561030857600080fd5b50610323600480360381019061031e9190612552565b610872565b005b34801561033157600080fd5b5061033a610892565b6040516103479190612727565b60405180910390f35b34801561035c57600080fd5b506103776004803603810190610372919061245d565b6109ca565b60405161038491906124cb565b60405180910390f35b6103a760048036038101906103a29190612749565b6109dc565b6040516103b491906125b4565b60405180910390f35b3480156103c957600080fd5b506103e460048036038101906103df919061245d565b610b51565b005b3480156103f257600080fd5b5061040d60048036038101906104089190612789565b610b63565b60405161041a91906125b4565b60405180910390f35b34801561042f57600080fd5b50610438610c1d565b005b34801561044657600080fd5b5061044f610c31565b60405161045c91906125b4565b60405180910390f35b34801561047157600080fd5b5061047a610c37565b60405161048791906124cb565b60405180910390f35b34801561049c57600080fd5b506104b760048036038101906104b2919061245d565b610c61565b005b3480156104c557600080fd5b506104ce610c73565b6040516104db9190612405565b60405180910390f35b3480156104f057600080fd5b5061050b600480360381019061050691906127e2565b610d05565b005b34801561051957600080fd5b50610522610d1b565b005b34801561053057600080fd5b5061054b60048036038101906105469190612957565b610d72565b005b34801561055957600080fd5b50610574600480360381019061056f919061245d565b610d8f565b6040516105819190612405565b60405180910390f35b34801561059657600080fd5b506105b160048036038101906105ac91906129da565b610ea2565b6040516105be919061235a565b60405180910390f35b3480156105d357600080fd5b506105ee60048036038101906105e99190612abb565b610f36565b6040516105fb91906125b4565b60405180910390f35b34801561061057600080fd5b5061062b60048036038101906106269190612789565b610ffc565b005b6000634906490660e01b7bffffffffffffffffffffffffffffffffffffffffffffffffffffffff1916827bffffffffffffffffffffffffffffffffffffffffffffffffffffffff19161480610687575061068682611082565b5b9050919050565b60606000805461069d90612b33565b80601f01602080910402602001604051908101604052809291908181526020018280546106c990612b33565b80156107165780601f106106eb57610100808354040283529160200191610716565b820191906000526020600020905b8154815290600101906020018083116106f957829003601f168201915b5050505050905090565b600061072b82611164565b50610735826111ec565b9050919050565b61074e8282610749611229565b611231565b5050565b600073ffffffffffffffffffffffffffffffffffffffff168273ffffffffffffffffffffffffffffffffffffffff16036107c45760006040517f64a0ae920000000000000000000000000000000000000000000000000000000081526004016107bb91906124cb565b60405180910390fd5b60006107d883836107d3611229565b611243565b90508373ffffffffffffffffffffffffffffffffffffffff168173ffffffffffffffffffffffffffffffffffffffff161461084e578382826040517f64283d7b00000000000000000000000000000000000000000000000000000000815260040161084593929190612b64565b60405180910390fd5b50505050565b61085c61145d565b80600b8190555050565b600c5481565b600b5481565b61088d83838360405180602001604052806000815250610d72565b505050565b6060600d60008073ffffffffffffffffffffffffffffffffffffffff1673ffffffffffffffffffffffffffffffffffffffff168152602001908152602001600020805480602002602001604051908101604052809291908181526020016000905b828210156109c157838290600052602060002090600202016040518060400160405290816000820154815260200160018201805461093090612b33565b80601f016020809104026020016040519081016040528092919081815260200182805461095c90612b33565b80156109a95780601f1061097e576101008083540402835291602001916109a9565b820191906000526020600020905b81548152906001019060200180831161098c57829003601f168201915b505050505081525050815260200190600101906108f3565b50505050905090565b60006109d582611164565b9050919050565b600034600a541115610a23576040517f08c379a0000000000000000000000000000000000000000000000000000000008152600401610a1a90612be7565b60405180910390fd5b600b54600d60008473ffffffffffffffffffffffffffffffffffffffff1673ffffffffffffffffffffffffffffffffffffffff1681526020019081526020016000208054905010610aa9576040517f08c379a0000000000000000000000000000000000000000000000000000000008152600401610aa090612c79565b60405180910390fd5b600c546001600954610abb9190612cc8565b1115610afc576040517f08c379a0000000000000000000000000000000000000000000000000000000008152600401610af390612d48565b60405180910390fd5b6000610b098460006114e4565b9050610b198382600001516116b9565b610b2b816000015182602001516117b2565b60096000815480929190610b3e90612d68565b9190505550806000015191505092915050565b610b5961145d565b80600c8190555050565b60008073ffffffffffffffffffffffffffffffffffffffff168273ffffffffffffffffffffffffffffffffffffffff1603610bd65760006040517f89c62b64000000000000000000000000000000000000000000000000000000008152600401610bcd91906124cb565b60405180910390fd5b600360008373ffffffffffffffffffffffffffffffffffffffff1673ffffffffffffffffffffffffffffffffffffffff168152602001908152602001600020549050919050565b610c2561145d565b610c2f600061180e565b565b600a5481565b6000600760009054906101000a900473ffffffffffffffffffffffffffffffffffffffff16905090565b610c6961145d565b80600a8190555050565b606060018054610c8290612b33565b80601f0160208091040260200160405190810160405280929190818152602001828054610cae90612b33565b8015610cfb5780601f10610cd057610100808354040283529160200191610cfb565b820191906000526020600020905b815481529060010190602001808311610cde57829003601f168201915b5050505050905090565b610d17610d10611229565b83836118d4565b5050565b610d2361145d565b60003390508073ffffffffffffffffffffffffffffffffffffffff166108fc479081150290604051600060405180830381858888f19350505050158015610d6e573d6000803e3d6000fd5b5050565b610d7d848484610752565b610d8984848484611a43565b50505050565b6060610d9a82611164565b506000600660008481526020019081526020016000208054610dbb90612b33565b80601f0160208091040260200160405190810160405280929190818152602001828054610de790612b33565b8015610e345780601f10610e0957610100808354040283529160200191610e34565b820191906000526020600020905b815481529060010190602001808311610e1757829003601f168201915b505050505090506000610e45611bfa565b90506000815103610e5a578192505050610e9d565b600082511115610e8f578082604051602001610e77929190612dec565b60405160208183030381529060405292505050610e9d565b610e9884611c11565b925050505b919050565b6000600560008473ffffffffffffffffffffffffffffffffffffffff1673ffffffffffffffffffffffffffffffffffffffff16815260200190815260200160002060008373ffffffffffffffffffffffffffffffffffffffff1673ffffffffffffffffffffffffffffffffffffffff16815260200190815260200160002060009054906101000a900460ff16905092915050565b60008060405180604001604052806008548152602001848152509050600d60008073ffffffffffffffffffffffffffffffffffffffff1673ffffffffffffffffffffffffffffffffffffffff168152602001908152602001600020819080600181540180825580915050600190039060005260206000209060020201600090919091909150600082015181600001556020820151816001019081610fda9190612fbc565b50505060086000815480929190610ff090612d68565b91905055915050919050565b61100461145d565b600073ffffffffffffffffffffffffffffffffffffffff168173ffffffffffffffffffffffffffffffffffffffff16036110765760006040517f1e4fbdf700000000000000000000000000000000000000000000000000000000815260040161106d91906124cb565b60405180910390fd5b61107f8161180e565b50565b60007f80ac58cd000000000000000000000000000000000000000000000000000000007bffffffffffffffffffffffffffffffffffffffffffffffffffffffff1916827bffffffffffffffffffffffffffffffffffffffffffffffffffffffff1916148061114d57507f5b5e139f000000000000000000000000000000000000000000000000000000007bffffffffffffffffffffffffffffffffffffffffffffffffffffffff1916827bffffffffffffffffffffffffffffffffffffffffffffffffffffffff1916145b8061115d575061115c82611c7a565b5b9050919050565b60008061117083611ce4565b9050600073ffffffffffffffffffffffffffffffffffffffff168173ffffffffffffffffffffffffffffffffffffffff16036111e357826040517f7e2732890000000000000000000000000000000000000000000000000000000081526004016111da91906125b4565b60405180910390fd5b80915050919050565b60006004600083815260200190815260200160002060009054906101000a900473ffffffffffffffffffffffffffffffffffffffff169050919050565b600033905090565b61123e8383836001611d21565b505050565b60008061124f84611ce4565b9050600073ffffffffffffffffffffffffffffffffffffffff168373ffffffffffffffffffffffffffffffffffffffff161461129157611290818486611ee6565b5b600073ffffffffffffffffffffffffffffffffffffffff168173ffffffffffffffffffffffffffffffffffffffff1614611322576112d3600085600080611d21565b6001600360008373ffffffffffffffffffffffffffffffffffffffff1673ffffffffffffffffffffffffffffffffffffffff168152602001908152602001600020600082825403925050819055505b600073ffffffffffffffffffffffffffffffffffffffff168573ffffffffffffffffffffffffffffffffffffffff16146113a5576001600360008773ffffffffffffffffffffffffffffffffffffffff1673ffffffffffffffffffffffffffffffffffffffff168152602001908152602001600020600082825401925050819055505b846002600086815260200190815260200160002060006101000a81548173ffffffffffffffffffffffffffffffffffffffff021916908373ffffffffffffffffffffffffffffffffffffffff160217905550838573ffffffffffffffffffffffffffffffffffffffff168273ffffffffffffffffffffffffffffffffffffffff167fddf252ad1be2c89b69c2b068fc378daa952ba7f163c4a11628f55a4df523b3ef60405160405180910390a4809150509392505050565b611465611229565b73ffffffffffffffffffffffffffffffffffffffff16611483610c37565b73ffffffffffffffffffffffffffffffffffffffff16146114e2576114a6611229565b6040517f118cdaa70000000000000000000000000000000000000000000000000000000081526004016114d991906124cb565b60405180910390fd5b565b6114ec61228c565b6000600d60008473ffffffffffffffffffffffffffffffffffffffff1673ffffffffffffffffffffffffffffffffffffffff168152602001908152602001600020805480602002602001604051908101604052809291908181526020016000905b8282101561161b57838290600052602060002090600202016040518060400160405290816000820154815260200160018201805461158a90612b33565b80601f01602080910402602001604051908101604052809291908181526020018280546115b690612b33565b80156116035780601f106115d857610100808354040283529160200191611603565b820191906000526020600020905b8154815290600101906020018083116115e657829003601f168201915b5050505050815250508152602001906001019061154d565b50505050905060005b815181101561168957848282815181106116415761164061308e565b5b60200260200101516000015103611676578181815181106116655761166461308e565b5b6020026020010151925050506116b3565b808061168190612d68565b915050611624565b50604051806040016040528060008152602001604051806020016040528060008152508152509150505b92915050565b600073ffffffffffffffffffffffffffffffffffffffff168273ffffffffffffffffffffffffffffffffffffffff160361172b5760006040517f64a0ae9200000000000000000000000000000000000000000000000000000000815260040161172291906124cb565b60405180910390fd5b600061173983836000611243565b9050600073ffffffffffffffffffffffffffffffffffffffff168173ffffffffffffffffffffffffffffffffffffffff16146117ad5760006040517f73c6ac6e0000000000000000000000000000000000000000000000000000000081526004016117a491906124cb565b60405180910390fd5b505050565b806006600084815260200190815260200160002090816117d29190612fbc565b507ff8e1a15aba9398e019f0b49df1a4fde98ee17ae345cb5f6b5e2c27f5033e8ce78260405161180291906125b4565b60405180910390a15050565b6000600760009054906101000a900473ffffffffffffffffffffffffffffffffffffffff16905081600760006101000a81548173ffffffffffffffffffffffffffffffffffffffff021916908373ffffffffffffffffffffffffffffffffffffffff1602179055508173ffffffffffffffffffffffffffffffffffffffff168173ffffffffffffffffffffffffffffffffffffffff167f8be0079c531659141344cd1fd0a4f28419497f9722a3daafe3b4186f6b6457e060405160405180910390a35050565b600073ffffffffffffffffffffffffffffffffffffffff168273ffffffffffffffffffffffffffffffffffffffff160361194557816040517f5b08ba1800000000000000000000000000000000000000000000000000000000815260040161193c91906124cb565b60405180910390fd5b80600560008573ffffffffffffffffffffffffffffffffffffffff1673ffffffffffffffffffffffffffffffffffffffff16815260200190815260200160002060008473ffffffffffffffffffffffffffffffffffffffff1673ffffffffffffffffffffffffffffffffffffffff16815260200190815260200160002060006101000a81548160ff0219169083151502179055508173ffffffffffffffffffffffffffffffffffffffff168373ffffffffffffffffffffffffffffffffffffffff167f17307eab39ab6107e8899845ad3d59bd9653f200f220920489ca2b5937696c3183604051611a36919061235a565b60405180910390a3505050565b60008373ffffffffffffffffffffffffffffffffffffffff163b1115611bf4578273ffffffffffffffffffffffffffffffffffffffff1663150b7a02611a87611229565b8685856040518563ffffffff1660e01b8152600401611aa99493929190613112565b6020604051808303816000875af1925050508015611ae557506040513d601f19601f82011682018060405250810190611ae29190613173565b60015b611b69573d8060008114611b15576040519150601f19603f3d011682016040523d82523d6000602084013e611b1a565b606091505b506000815103611b6157836040517f64a0ae92000000000000000000000000000000000000000000000000000000008152600401611b5891906124cb565b60405180910390fd5b805181602001fd5b63150b7a0260e01b7bffffffffffffffffffffffffffffffffffffffffffffffffffffffff1916817bffffffffffffffffffffffffffffffffffffffffffffffffffffffff191614611bf257836040517f64a0ae92000000000000000000000000000000000000000000000000000000008152600401611be991906124cb565b60405180910390fd5b505b50505050565b606060405180602001604052806000815250905090565b6060611c1c82611164565b506000611c27611bfa565b90506000815111611c475760405180602001604052806000815250611c72565b80611c5184611faa565b604051602001611c62929190612dec565b6040516020818303038152906040525b915050919050565b60007f01ffc9a7000000000000000000000000000000000000000000000000000000007bffffffffffffffffffffffffffffffffffffffffffffffffffffffff1916827bffffffffffffffffffffffffffffffffffffffffffffffffffffffff1916149050919050565b60006002600083815260200190815260200160002060009054906101000a900473ffffffffffffffffffffffffffffffffffffffff169050919050565b8080611d5a5750600073ffffffffffffffffffffffffffffffffffffffff168273ffffffffffffffffffffffffffffffffffffffff1614155b15611e8e576000611d6a84611164565b9050600073ffffffffffffffffffffffffffffffffffffffff168373ffffffffffffffffffffffffffffffffffffffff1614158015611dd557508273ffffffffffffffffffffffffffffffffffffffff168173ffffffffffffffffffffffffffffffffffffffff1614155b8015611de85750611de68184610ea2565b155b15611e2a57826040517fa9fbf51f000000000000000000000000000000000000000000000000000000008152600401611e2191906124cb565b60405180910390fd5b8115611e8c57838573ffffffffffffffffffffffffffffffffffffffff168273ffffffffffffffffffffffffffffffffffffffff167f8c5be1e5ebec7d5bd14f71427d1e84f3dd0314c0f7b2291e5b200ac8c7c3b92560405160405180910390a45b505b836004600085815260200190815260200160002060006101000a81548173ffffffffffffffffffffffffffffffffffffffff021916908373ffffffffffffffffffffffffffffffffffffffff16021790555050505050565b611ef1838383612078565b611fa557600073ffffffffffffffffffffffffffffffffffffffff168373ffffffffffffffffffffffffffffffffffffffff1603611f6657806040517f7e273289000000000000000000000000000000000000000000000000000000008152600401611f5d91906125b4565b60405180910390fd5b81816040517f177e802f000000000000000000000000000000000000000000000000000000008152600401611f9c9291906131a0565b60405180910390fd5b505050565b606060006001611fb984612139565b01905060008167ffffffffffffffff811115611fd857611fd761282c565b5b6040519080825280601f01601f19166020018201604052801561200a5781602001600182028036833780820191505090505b509050600082602001820190505b60011561206d578080600190039150507f3031323334353637383961626364656600000000000000000000000000000000600a86061a8153600a8581612061576120606131c9565b5b04945060008503612018575b819350505050919050565b60008073ffffffffffffffffffffffffffffffffffffffff168373ffffffffffffffffffffffffffffffffffffffff161415801561213057508273ffffffffffffffffffffffffffffffffffffffff168473ffffffffffffffffffffffffffffffffffffffff1614806120f157506120f08484610ea2565b5b8061212f57508273ffffffffffffffffffffffffffffffffffffffff16612117836111ec565b73ffffffffffffffffffffffffffffffffffffffff16145b5b90509392505050565b600080600090507a184f03e93ff9f4daa797ed6e38ed64bf6a1f0100000000000000008310612197577a184f03e93ff9f4daa797ed6e38ed64bf6a1f010000000000000000838161218d5761218c6131c9565b5b0492506040810190505b6d04ee2d6d415b85acef810000000083106121d4576d04ee2d6d415b85acef810000000083816121ca576121c96131c9565b5b0492506020810190505b662386f26fc10000831061220357662386f26fc1000083816121f9576121f86131c9565b5b0492506010810190505b6305f5e100831061222c576305f5e1008381612222576122216131c9565b5b0492506008810190505b6127108310612251576127108381612247576122466131c9565b5b0492506004810190505b60648310612274576064838161226a576122696131c9565b5b0492506002810190505b600a8310612283576001810190505b80915050919050565b604051806040016040528060008152602001606081525090565b6000604051905090565b600080fd5b600080fd5b60007fffffffff0000000000000000000000000000000000000000000000000000000082169050919050565b6122ef816122ba565b81146122fa57600080fd5b50565b60008135905061230c816122e6565b92915050565b600060208284031215612328576123276122b0565b5b6000612336848285016122fd565b91505092915050565b60008115159050919050565b6123548161233f565b82525050565b600060208201905061236f600083018461234b565b92915050565b600081519050919050565b600082825260208201905092915050565b60005b838110156123af578082015181840152602081019050612394565b60008484015250505050565b6000601f19601f8301169050919050565b60006123d782612375565b6123e18185612380565b93506123f1818560208601612391565b6123fa816123bb565b840191505092915050565b6000602082019050818103600083015261241f81846123cc565b905092915050565b6000819050919050565b61243a81612427565b811461244557600080fd5b50565b60008135905061245781612431565b92915050565b600060208284031215612473576124726122b0565b5b600061248184828501612448565b91505092915050565b600073ffffffffffffffffffffffffffffffffffffffff82169050919050565b60006124b58261248a565b9050919050565b6124c5816124aa565b82525050565b60006020820190506124e060008301846124bc565b92915050565b6124ef816124aa565b81146124fa57600080fd5b50565b60008135905061250c816124e6565b92915050565b60008060408385031215612529576125286122b0565b5b6000612537858286016124fd565b925050602061254885828601612448565b9150509250929050565b60008060006060848603121561256b5761256a6122b0565b5b6000612579868287016124fd565b935050602061258a868287016124fd565b925050604061259b86828701612448565b9150509250925092565b6125ae81612427565b82525050565b60006020820190506125c960008301846125a5565b92915050565b600081519050919050565b600082825260208201905092915050565b6000819050602082019050919050565b61260481612427565b82525050565b600082825260208201905092915050565b600061262682612375565b612630818561260a565b9350612640818560208601612391565b612649816123bb565b840191505092915050565b600060408301600083015161266c60008601826125fb565b5060208301518482036020860152612684828261261b565b9150508091505092915050565b600061269d8383612654565b905092915050565b6000602082019050919050565b60006126bd826125cf565b6126c781856125da565b9350836020820285016126d9856125eb565b8060005b8581101561271557848403895281516126f68582612691565b9450612701836126a5565b925060208a019950506001810190506126dd565b50829750879550505050505092915050565b6000602082019050818103600083015261274181846126b2565b905092915050565b600080604083850312156127605761275f6122b0565b5b600061276e85828601612448565b925050602061277f858286016124fd565b9150509250929050565b60006020828403121561279f5761279e6122b0565b5b60006127ad848285016124fd565b91505092915050565b6127bf8161233f565b81146127ca57600080fd5b50565b6000813590506127dc816127b6565b92915050565b600080604083850312156127f9576127f86122b0565b5b6000612807858286016124fd565b9250506020612818858286016127cd565b9150509250929050565b600080fd5b600080fd5b7f4e487b7100000000000000000000000000000000000000000000000000000000600052604160045260246000fd5b612864826123bb565b810181811067ffffffffffffffff821117156128835761288261282c565b5b80604052505050565b60006128966122a6565b90506128a2828261285b565b919050565b600067ffffffffffffffff8211156128c2576128c161282c565b5b6128cb826123bb565b9050602081019050919050565b82818337600083830152505050565b60006128fa6128f5846128a7565b61288c565b90508281526020810184848401111561291657612915612827565b5b6129218482856128d8565b509392505050565b600082601f83011261293e5761293d612822565b5b813561294e8482602086016128e7565b91505092915050565b60008060008060808587031215612971576129706122b0565b5b600061297f878288016124fd565b9450506020612990878288016124fd565b93505060406129a187828801612448565b925050606085013567ffffffffffffffff8111156129c2576129c16122b5565b5b6129ce87828801612929565b91505092959194509250565b600080604083850312156129f1576129f06122b0565b5b60006129ff858286016124fd565b9250506020612a10858286016124fd565b9150509250929050565b600067ffffffffffffffff821115612a3557612a3461282c565b5b612a3e826123bb565b9050602081019050919050565b6000612a5e612a5984612a1a565b61288c565b905082815260208101848484011115612a7a57612a79612827565b5b612a858482856128d8565b509392505050565b600082601f830112612aa257612aa1612822565b5b8135612ab2848260208601612a4b565b91505092915050565b600060208284031215612ad157612ad06122b0565b5b600082013567ffffffffffffffff811115612aef57612aee6122b5565b5b612afb84828501612a8d565b91505092915050565b7f4e487b7100000000000000000000000000000000000000000000000000000000600052602260045260246000fd5b60006002820490506001821680612b4b57607f821691505b602082108103612b5e57612b5d612b04565b5b50919050565b6000606082019050612b7960008301866124bc565b612b8660208301856125a5565b612b9360408301846124bc565b949350505050565b7f4574686572207061696420697320696e636f7272656374000000000000000000600082015250565b6000612bd1601783612380565b9150612bdc82612b9b565b602082019050919050565b60006020820190508181036000830152612c0081612bc4565b9050919050565b7f596f75206861766520657863656564656420746865206d696e74696e67206c6960008201527f6d697420666f722074686973206163636f756e74000000000000000000000000602082015250565b6000612c63603483612380565b9150612c6e82612c07565b604082019050919050565b60006020820190508181036000830152612c9281612c56565b9050919050565b7f4e487b7100000000000000000000000000000000000000000000000000000000600052601160045260246000fd5b6000612cd382612427565b9150612cde83612427565b9250828201905080821115612cf657612cf5612c99565b5b92915050565b7f596f752068617665206578636565646564204d617820537570706c7900000000600082015250565b6000612d32601c83612380565b9150612d3d82612cfc565b602082019050919050565b60006020820190508181036000830152612d6181612d25565b9050919050565b6000612d7382612427565b91507fffffffffffffffffffffffffffffffffffffffffffffffffffffffffffffffff8203612da557612da4612c99565b5b600182019050919050565b600081905092915050565b6000612dc682612375565b612dd08185612db0565b9350612de0818560208601612391565b80840191505092915050565b6000612df88285612dbb565b9150612e048284612dbb565b91508190509392505050565b60008190508160005260206000209050919050565b60006020601f8301049050919050565b600082821b905092915050565b600060088302612e727fffffffffffffffffffffffffffffffffffffffffffffffffffffffffffffffff82612e35565b612e7c8683612e35565b95508019841693508086168417925050509392505050565b6000819050919050565b6000612eb9612eb4612eaf84612427565b612e94565b612427565b9050919050565b6000819050919050565b612ed383612e9e565b612ee7612edf82612ec0565b848454612e42565b825550505050565b600090565b612efc612eef565b612f07818484612eca565b505050565b5b81811015612f2b57612f20600082612ef4565b600181019050612f0d565b5050565b601f821115612f7057612f4181612e10565b612f4a84612e25565b81016020851015612f59578190505b612f6d612f6585612e25565b830182612f0c565b50505b505050565b600082821c905092915050565b6000612f9360001984600802612f75565b1980831691505092915050565b6000612fac8383612f82565b9150826002028217905092915050565b612fc582612375565b67ffffffffffffffff811115612fde57612fdd61282c565b5b612fe88254612b33565b612ff3828285612f2f565b600060209050601f8311600181146130265760008415613014578287015190505b61301e8582612fa0565b865550613086565b601f19841661303486612e10565b60005b8281101561305c57848901518255600182019150602085019450602081019050613037565b868310156130795784890151613075601f891682612f82565b8355505b6001600288020188555050505b505050505050565b7f4e487b7100000000000000000000000000000000000000000000000000000000600052603260045260246000fd5b600081519050919050565b600082825260208201905092915050565b60006130e4826130bd565b6130ee81856130c8565b93506130fe818560208601612391565b613107816123bb565b840191505092915050565b600060808201905061312760008301876124bc565b61313460208301866124bc565b61314160408301856125a5565b818103606083015261315381846130d9565b905095945050505050565b60008151905061316d816122e6565b92915050565b600060208284031215613189576131886122b0565b5b60006131978482850161315e565b91505092915050565b60006040820190506131b560008301856124bc565b6131c260208301846125a5565b9392505050565b7f4e487b7100000000000000000000000000000000000000000000000000000000600052601260045260246000fdfea2646970667358221220a335bd1ce9edf2a45dadcf04ddf3f07d817890ddafd1e22e07d026ae86624a7464736f6c63430008140033a2646970667358221220db784d9fc7a4b780c150bbac23f94a454e93c1d947c2f7c716abb902bc43b2c364736f6c63430008140033",
  "linkReferences": {},
  "deployedLinkReferences": {}
}